:100000000C941C030C9454030C9454030C9454034C
:100010000C9454030C9454030C9454030C94540304
:100020000C9454030C9454030C9454030C94F52234
:100030000C94B1220C94C4230C9454030C945403D8
:100040000C9454030C9454030C94EB230C94A023B1
:100050000C9454030C9454030C9454030C945403C4
:100060000C9454030C9454030C9454030C945403B4
:100070000C94540305010902A10185020901A100A4
:100080000509190129081500250195087501810246
:100090000501093009311581257F95027508810612
:1000A00009381581257F950175088106050C0A38E8
:1000B000021581257F950175088106C0C0050109DB
:1000C00080A101850319012AB700150126B7009503
:1000D0000175108100C0050C0901A10185041901F9
:1000E0002AA002150126A002950175108100C00505
:1000F000010906A1018506050719E029E715002574
:10010000019508750181020507190029EF150025E1
:100110000195F075018102050819012905950575FC
:10012000019102950175039101C00660FF0961A16B
:10013000010962150026FF009520750881020963F8
:10014000150026FF00952075089102C005010906DB
:10015000A101050719E029E715002501950875019A
:1001600081029501750881010507190029FF150015
:1001700026FF009506750881000508190129051557
:10018000002501950575019102950175039101C046
:10019000000000000000000000000000000000005F
:1001A000000000000000000000000000000000004F
:1001B000000000007E0F00D4FFFFFFC700000078A2
:1001C00000000000000000002A2B280000000000B2
:1001D00000000000000000000000002900000000F6
:1001E0002C1E3420212224342627252E362D373864
:1001F000271E1F202122232425263333362E37386D
:100200001F0405060708090A0B0C0D0E0F1011122A
:10021000131415161718191A1B1C1D2F3130232DF6
:10022000350405060708090A0B0C0D0E0F101112F4
:10023000131415161718191A1B1C1D2F3130354CA5
:100240001E0F0500047F3F1F643214643214783C93
:100250001E1E140A05000101010101010101010234
:100260000202020202020202030303030303030366
:100270000404040404040405050505050606060631
:1002800006070707070708080808090909090A0AED
:100290000A0B0B0B0C0C0C0D0D0D0E0E0E0F0F0F91
:1002A000101011111112121313141415151616171C
:1002B00017181819191A1A1B1B1C1D1D1E1E1F208A
:1002C00020212222232424252626272829292A2BD7
:1002D0002C2D2D2E2F3031323233343536373839FC
:1002E0003A3B3C3D3E3F40414243444546474849F6
:1002F0004A4C4D4E4F50515354555658595A5B5DC8
:100300005E5F616264656668696B6C6D6F70727365
:100310007577787A7B7D7E8082838587888A8C8ECC
:100320008F91939596989A9C9EA0A2A3A5A7A9ABFE
:10033000ADAFB1B3B5B7BABCBEC0C2C4C6C9CBCDF0
:10034000CFD1D4D6D8DBDDDFE2E4E7E9EBEEF0F3A2
:10035000F5F8FAFDFFFFAA7F55402223252628291C
:100360002A2C2D2F3032333536383A3B3D3E404231
:10037000434547494A4C4E5051535557595A5C5E74
:100380006062646668696B6D6F71737577797B7D88
:100390007F81838587898A8C8E90929496989A9C87
:1003A0009E9FA1A3A5A7A8AAACAEAFB1B3B4B6B89F
:1003B000B9BBBCBEBFC1C2C3C5C6C7C9CACBCCCD01
:1003C000CED0D1D2D2D3D4D5D6D7D7D8D9D9DADADC
:1003D000DBDBDBDCDCDCDCDCDDDDDDDDDCDCDCDC5C
:1003E000DCDBDBDBDADAD9D9D8D7D7D6D5D4D3D290
:1003F000D2D1D0CECDCCCBCAC9C7C6C5C3C2C1BF6E
:10040000BEBCBBB9B8B6B4B3B1AFAEACAAA8A7A5D1
:10041000A3A19F9E9C9A98969492908E8C8A89878D
:100420008583817F7D7B79777573716F6D6B69686B
:10043000666462605E5C5A5957555351504E4C4A3F
:100440004947454342403E3D3B3A383635333230EA
:100450002F2D2C2A29282625232200000000000009
:10046000000000000001010203040506080A0C0F49
:100470001114181C2024292E33393F464C535B623B
:100480006A7179818A929AA2AAB2B9C1C8CFD5DC21
:10049000E1E7EBF0F4F7FAFCFDFEFFFEFDFCFAF7F6
:1004A000F4F0EBE7E1DCD5CFC8C1B9B2AAA29A92C9
:1004B0008A8179716A625B534C463F39332E292415
:1004C000201C1814110F0C0A080605040302010170
:1004D000000000000000000000002900B2000152EE
:1004E0002A0053005400550056005F006000610070
:1004F00057005C005D005E00570059005A005B0029
:1005000058006200620063005800010062526352AA
:1005100000524300440045004600400041004200B4
:100520002B003D003E003F002B003A003B003C000A
:1005300058007C007C007D0058000100015263528D
:100540000052710072007300E7006E006F007000CF
:1005500007036B006C006D000703680069006A0008
:100560001003A800A800A8001003007C015202524A
:1005700000520100010001000100DA00CD00D900A5
:100580000703CF00D100D0000703DB00CE00DC0062
:100590001003A800A8000100100309025B0003017A
:1005A00000A0FA0904000001030101000921110162
:1005B000000122440007058103080001090401002D
:1005C0000203000000092111010001222200070599
:1005D0008203200001070503032000010904020033
:1005E000010300000009211101000122B6000705E6
:1005F0008403200001120100020000000803A1068C
:100600000001000102000118034B004200440050A9
:1006100000410044002D004D004B004900490000FE
:100620000010034B0042004400660061006E00733E
:10063000000000040309040011241FBECFEFD4E022
:10064000DEBFCDBF04B603FE18C080913103909188
:100650003203A0913303B09134038730904BA7400D
:10066000B04B59F4109231031092320310923303BD
:1006700010923403E0E0F8E3099523E0A2EAB1E048
:1006800001C01D92A133B207E1F711E0A0E0B1E093
:10069000E6E1FBE502C005900D92A23AB107D9F759
:1006A0000E9466240C94DC2C0C940000A82FB62F1A
:1006B00020912D034091F402241302C080E008959C
:1006C00030E0C90167E070E00E94F32AFC01EB50C2
:1006D000FD4F8181B81306C08081A81303C08581B6
:1006E0008111EDCF2F5F3F4F2770E6CF2091E400BF
:1006F0003091E50095E6A9012091EC00822F8170F0
:1007000020FF06C08091E80080FF06C080E00895C9
:100710002091E80022FD1AC08091EA02882389F026
:10072000853089F08091EB0085FD0FC02091E400B9
:100730003091E50042175307F9F29150E1F684E059
:10074000089582E0089583E0089581E008958091FE
:10075000EC0287FF13C08091E80082FF06C0809101
:10076000E8008B778093E80004C08091EA02811151
:10077000F2CF08958091EA028823D9F38091E800AE
:1007800080FFF8CF8091E8008E77ECCF982F909380
:10079000E900242F762F50E0891731F07091EC009A
:1007A0002091ED005091F00021FD07C09F5F953032
:1007B00071F78093E90081E008953091EB003E7F6E
:1007C0003093EB003091ED003D7F3093ED003091A0
:1007D000EB0031603093EB007093EC002093ED0060
:1007E0005093F0002091EE0027FDE0CF80E00895C7
:1007F000FC018091F2029091F30286179707A0F016
:100800006115710529F49091E8009E779093E800B6
:1008100090E06115710551F4911108C08091E800D4
:1008200082FF32C080E00895BC01F2CF8091EA02DD
:100830008823B1F18530B1F18091E80083FD2EC0AD
:100840008091E80082FDEACF8091E80080FFE1CF4F
:100850002091F20030E06115710519F02830310562
:1008600058F091E02830310509F090E02091E8003F
:100870002E772093E800CDCF81918093F1006150D5
:1008800071092F5F3F4FE7CF8091EA02882341F043
:10089000853041F08091E80083FFC0CF81E008956A
:1008A00082E0089583E008958091DF0208959C011D
:1008B0004FB7F8948091DA029091DB02A091DC02AC
:1008C000B091DD024FBF821B930B08952FB7F894B0
:1008D0008091DA029091DB02A091DC02B091DD02FE
:1008E0002FBF0895909123019923D1F09091D702C1
:1008F00097FF16C0E82FE695E695E695EE31E0F411
:10090000F0E0E455FE4F282F277081E090E001C011
:10091000880F2A95EAF7809592818923828308952A
:10092000E6EAF1E09191891303C0DF0111971C926F
:1009300091E0EC3AF907B1F70895909123019923DA
:10094000C1F09091D70297FF14C0E82FE695E69585
:10095000E695EE31F8F4F0E0E455FE4F877021E0C3
:1009600030E001C0220F8A95EAF78281822B8283D0
:100970000895A6EAB1E0EFEF90E02D91821751F0D3
:10098000EF3F19F4211101C0E92F9F5F9630A9F7BD
:10099000EF3F09F408950E2E000CFF0BEC55FE4FAF
:1009A000E6CFA3E0B0E0E7EDF4E00C94552B209106
:1009B000D5023091D60228173907A1F09093D602BC
:1009C0008093D502E091D302F091D402309751F098
:1009D00024E029839B838A830084F185E02DCE0166
:1009E000019609952396E2E00C94712BA3E0B0E008
:1009F000ECEFF4E00C94552B2091D1023091D2020F
:100A000028173907A1F09093D2028093D102E09188
:100A1000D302F091D402309751F023E029839B83D5
:100A20008A830084F185E02DCE01019609952396F5
:100A3000E2E00C94712BE091D302F091D402309754
:100A400029F00190F081E02D0995089580E0089546
:100A50000E9466049C019091CD028091CE02982B59
:100A600021F03093CA022093C9029091CF02809165
:100A7000D002982B21F03093C8022093C702E09156
:100A8000D302F091D402309749F082E08093CB02F8
:100A90000680F781E02D8BEC92E009950895809116
:100AA000C60280FF0CC06091220170E075956795C9
:100AB000759567956115710559F1862F089581FF28
:100AC00006C06091220170E075956795F3CF609143
:100AD000220170E082FD0CC06091C5026623A9F07E
:100AE000209121018091220190E0621730F0BC0139
:100AF00060387105F8F28FE7089570E00E94F32ADC
:100B0000622F70E00E94242BF3CF61E070E0D5CF1C
:100B100081E008958091C60280FF0DC060912001A0
:100B200070E0660F771F60387105A8F561157105D3
:100B3000A1F1862F089581FF08C06091200170E027
:100B4000660F771F660F771FEECF6091200170E070
:100B500082FD0BC08091C4028823D1F020911F0137
:100B60006091200170E0821730F043E0660F771F3C
:100B70004A95E1F7D8CF90E00E94F32A33E0880F3E
:100B8000991F3A95E1F7622F70E00E94242BCBCF9A
:100B900068E070E0CECF8FE7089581E00895082ED9
:100BA000000C990B65EB70E00E94F32A97FF04C0DC
:100BB00080589109892F089580589F4FFBCFB0E04E
:100BC000A0E0E5EEF5E00C944B2B8C0180918600C3
:100BD000909187006CE070E00E94102B6017710705
:100BE00058F0C80169E070E00E94102BCB01CDB72E
:100BF000DEB7ECE00C94672B809186009091870023
:100C0000E0908600F0908700C0908600D09087002A
:100C1000C6E0D0E0BE010E94102B30E020E0060FBD
:100C2000171F211D311D4801590185E0880C991CB1
:100C3000AA1CBB1C8A95D1F7C701BE010E94102BCC
:100C4000F12CE12CA7019601260F371F411D511DE4
:100C5000C501B4010E94BA2C69017A01C0918600D5
:100C6000D0918700CA01B9010E94822C9E0150E0F8
:100C700040E00E94822CA70196010E94822C2FE066
:100C800096958795779567952A95D1F70091860077
:100C90001091870030E020E0061717072807390772
:100CA00008F0A4CF60918600709187009FCF282F15
:100CB000863000F581111FC090918000977F90933E
:100CC0008000609186007091870090E080E030E0C5
:100CD00050E040E00E94822C25E030E040E050E00F
:100CE0000E94BA2CC9010E94DF0590938D00809369
:100CF0008C00089525E0909180009860E0CF282F27
:100D0000220F220F220F9091BE029770922B909388
:100D1000BE02987F21E009F420E09091BE0220FB02
:100D200090F99093BE020E9457060895FA0181112E
:100D300001C0FB010995089508958091B60280FDD8
:100D40000AC0E6E3F2E0118210821282339682E05A
:100D5000E636F807C1F760E170E086E392E00E94B2
:100D60002E0E08959091B60290FF0CC0E6E3F2E0DB
:100D7000818360834283339692E0E636F907C1F7B8
:100D80000E949D0608958091B602982F9C7F29F4B9
:100D9000837084608093B60208958C3AE8F3837080
:100DA000886AF8CFB0E0A0E0E8EDF6E00C944D2BB7
:100DB0008901E42FF0E0EB5AFD4F61110FC09491CF
:100DC000392FE92FD8011196EC9311979C93129625
:100DD0003C93CDB7DEB7EAE00C94692BC82FD0E086
:100DE000E62EF12CE4914E2FAE2EB12CCE0166E012
:100DF00070E00E94F32ACC24CA94D12CB6010E9440
:100E0000102BDB01CC0FDD1FCB0165E570E00E94EC
:100E1000F32AC81BD90B8C2F880FC80FC6018E1957
:100E20009F09B5010E94F32A392FD0E0CE01B70106
:100E30000E94F32A692F70E0C601861B970BB5014B
:100E40000E94F32A292FC6018C1B9D0BB7010E941B
:100E5000F32A692F70E0C601861B970BB5010E942B
:100E6000F32A892FA230B10589F040F4109709F4D4
:100E7000A9CF119779F0932F322FA4CFA430B105C9
:100E800061F078F0169709F49DCFF5CF9E2FE32FF0
:100E9000382F98CF9E2FE22F95CF932F3E2FE82FFC
:100EA00091CFE32F342F922F8DCFA3E0B0E0EBE56D
:100EB000F7E00C94552B9091B60290FF0AC09E016A
:100EC0002F5F3F4F0E94D2064B8169818A810E9429
:100ED000B2062396E2E00C94712BCF93DF93EC01E2
:100EE000E6EBF2E0438162818C810E9455078C81A0
:100EF0008F5F8C83DF91CF910895CF93DF93EC01C7
:100F0000EC81F0E0E65AFC4F4491E6EBF2E06281BE
:100F100081810E9455078C818F5F8C83DF91CF91F7
:100F20000895EF92FF920F931F93CF93DF938C015D
:100F3000C6E3D2E0F12CE12CF80194816091B80273
:100F40008091B702F8E0EF16F104ECF49923E9F090
:100F50009E014091B9020E94D2062FEFE21AF20AD6
:100F6000239680E1E816F10439F70E949D06F80106
:100F7000848190E00196817099278483CDB7DEB794
:100F8000E6E00C946D2B992319F39E0140E0E3CF2A
:100F9000A3E0B0E0EEECF7E00C94532B8C018091D1
:100FA000350281110AC09E012F5F3F4F4FEF6FEF57
:100FB0000E94D2068A8180933502F80164816130F3
:100FC00069F08091350240E0662361F040E06230D4
:100FD00011F44091350280E060E004C06091350278
:100FE00040E080E00E94B206F801848190E0019622
:100FF00063E070E00E94242B84832396E4E00C9449
:101000006F2BB0E0A0E0E7E0F8E00C94472B8C01F8
:10101000FC01C481CC2ED12CF12CE12CA70196012E
:10102000C701B6010E94822CA70196010E94822C62
:101030002B013C0140E2C42ED12CCC1AD1080D2C3E
:10104000000CEE08FF0825E530E040E050E00E948B
:10105000822C4B015C01A7019601C701B6010E94D9
:10106000822CA70196010E94822C9B01AC01240DC9
:10107000351D461D571DC501B4010E94BA2CD22E44
:10108000822F90E0F9E2F217B8F163E070E00E947D
:10109000F32A97FD019695958795C82FC09536E35D
:1010A000E32E32E0F32ED0E085E5C82ECD188C2D4E
:1010B000D1FD8D2D97014C2F6091B8020E94D20670
:1010C000DF5F53E0E50EF11CD03189F70E949D06E9
:1010D000F801948181E0992319F0903219F48FEF8F
:1010E00080931D0180911D01890FF8018483CDB784
:1010F000DEB7E0E10C94632B25E530E0A901481B45
:10110000590BCA01C2CF0F931F93CF93DF93C6E34E
:10111000D2E0FE01118210821282339682E0E6361E
:10112000F807C1F710E000E080913402082E000CAF
:10113000990B081719078CF180911C01082E000CDF
:10114000990B801791074CF19E014091B902609173
:10115000B8028091B7020E94D2060F5F1F4F2396FC
:101160000031110509F70E949D0680911B019091A5
:101170003402980F9093340220911C01280F209381
:101180001C01121614F49F301CF0819580931B01F2
:10119000DF91CF911F910F910895198218821A82C1
:1011A000DCCFB0E0A0E0E7EDF8E00C944F2BFC01C1
:1011B0008281DD24DA9480FD02C0DD24D394C6E36D
:1011C000D2E010E000E0198218821A8234E0E32EA7
:1011D000F12CC12C809133028C0D8131ACF18F70D8
:1011E000082E000C990B8017910791F48091B90299
:1011F00090E0B7010E94F32A95958795959587957C
:101200009E01482F6091B8028091B7020E94D206D9
:10121000CD0CF1E0EF1AF108E9F60F5F1F4F2396AE
:101220000031110581F60E949D068091330291E004
:10123000D91210C081110CC08FE080933302CDB75A
:10124000DEB7E8E00C946B2B87FFCACF805FC8CF76
:101250008150F3CF90E001968F709927EECFEF92F7
:10126000FF921F93CF93DF93EC0186E3E82E82E099
:10127000F82E10E08C8197014091B9026091B8027C
:10128000810F0E94D206115F83E0E80EF11C103F2F
:1012900089F70E949D069A818C8190FF08C08F5F1C
:1012A0008C83DF91CF911F91FF90EF900895815033
:1012B000F7CF80E00895F894E82FE295EF70F0E022
:1012C00031A1282F2F7081E090E001C0880F2A956E
:1012D000EAF7982F9095932391A392A1892B82A34B
:1012E000789408959091D70292FF10C041E0282F82
:1012F0002471243009F040E031E0282F2871283093
:1013000009F030E0431711F02CE0822793FF10C062
:1013100041E0282F2471243109F040E031E0282FEA
:101320002871283109F030E0431711F02CE08227B2
:101330003091D80230FF10C051E0282F21712130A8
:1013400009F050E041E0282F2871283009F040E0F2
:10135000541711F029E0822731FF10C041E0282FF7
:101360002171213109F040E031E0282F2871283126
:1013700009F030E0431711F029E0822794FD877EC1
:10138000089582389105B9F1B0F48133910509F4DB
:101390007DC048F48932910509F46DC08A32910507
:1013A00009F47BC008958533910509F45FC0893342
:1013B000910509F10895833E9105D9F138F4803EF5
:1013C000910529F1823E910579F10895863E9105B6
:1013D000D9F1873E910509F43EC0843E910541F55F
:1013E0002091D80221FF24C08091D70284FD19C02A
:1013F00087EE90E008952091D702237009F05AC03B
:101400002091D80223FF14C089E290E00895209132
:10141000D70220FD38C03091D80230FF09C024FF28
:1014200043C090E080E008952091D70222FDF7CFDD
:1014300008952091D70222FD3AC03091D80230FDA4
:1014400039C024FFF5CFEDCF2091D70223FFF0CF95
:1014500024FDE7CFCDCF2091D70223FD2EC03091C0
:10146000D80231FFEECF84EE90E008952091D702AC
:1014700025FFDECFC9CF2091D70225FD21C02091C5
:10148000D80223FFD5CF89E390E0D2CF2091D702B5
:1014900026FFCECF8AE290E008952091D70226FF62
:1014A000C7CF81E390E0089583EE90E0089582EE47
:1014B00090E0089580EE90E0089586EE90E0089523
:1014C00085E390E008951F93CF93DF930E94C109B5
:1014D000EC01C11580E5D807F0F5C11580E4D80707
:1014E00008F09EC0C03ED10520F5CD3CD10508F0E6
:1014F00084C0C83AD10578F4C53AD10508F075C062
:10150000C130D10519F1209709F1C430D105F0F4AB
:10151000D0E0C0E01BC0C33CD105D0F7C85AD0E032
:10152000CC0FDD1FC95DDE4F0990D881C02DD4647A
:101530000DC0C11580E2D80708F0D7C0C11581E001
:10154000D80708F05CC0C83ED10510F7CE01DF9186
:10155000CF911F910895C03682E5D80728F5C03491
:1015600082E5D80708F06DC0C03282E5D80708F0E0
:1015700061C0C11582E5D80708F49DC02C2F2695BF
:10158000269530E085E0220F331F8A95E1F78C2FF6
:101590008370C1E0D0E002C0CC0FDD1F8A95E2F776
:1015A000C22BD32BDD68D2CFC03A82E5D80760F4D6
:1015B000C03882E5D80708F45BC0CF71D0E0DC2FDB
:1015C000CC27C46FD06AC2CFC03C82E5D80708F4EC
:1015D00066C0C03E82E5D80708F09ACFDC2FCC2742
:1015E000CC27DF71C06FD06AB1CFC55AD0E0CC5DD7
:1015F000DE4FC881D0E0D064A9CFD065A7CF8D2FB2
:101600000E947209182FCE0199270E94C109C12F8B
:10161000D0E0DC2FCC27CC27DF71C82BD92B96CF7D
:10162000CE0199270E94C109CC27DF70C82BD92B86
:10163000D06A8CCFCF71D0E0DC2FCC27C16FD06ABD
:1016400085CF2C2F26952695277030E0B5E0220F08
:10165000331FBA95E1F78C2F8370C1E0D0E002C050
:10166000CC0FDD1F8A95E2F7C22BD32BDC686ECF3F
:101670002C2F26952695277030E0A5E0220F331FEA
:10168000AA95E1F78C2F8370C1E0D0E002C0CC0FA7
:10169000DD1F8A95E2F7C22BD32BDA6857CF8C2F48
:1016A0008F710E947209C82FD0E0DC2FCC27CC2785
:1016B000DF71D0624BCF8C2F8F710E94720955E081
:1016C000D695C7955A95E1F7CF70D0E0DC2FCC279F
:1016D000282F30E084FF05C044E0220F331F4A95D5
:1016E000E1F7C22BD32BD06931CF8D2F8F710E94A0
:1016F0007209182FCE0199270E94C109C12FD0E08D
:10170000DC2FCC27CC27DF71C82BD92BD2CF8095EB
:1017100090910C02982390930C02089580910C02F2
:101720009091E301892B9091E201992391F0892B0B
:1017300090912301992371F09091D70297FF0AC0ED
:101740009EE12EEA31E040E0915040F441111092C8
:10175000E201089596E026EA31E0F5CFF9015191D2
:101760009F01552389F34F5FEFCF80912D03909117
:10177000F402981301C008958F5F8770FACF9630F6
:1017800090F5843080F5292F30E0220F331F220F8F
:10179000331F820F932F911DA82FA77023E09695DA
:1017A00087952A95E1F763E070E00E94F32AFC0137
:1017B000EF52FE4F50E040E080E0219130E00A2EF1
:1017C00002C0369527950A94E2F721703327042E3C
:1017D00001C0220F0A94EAF7822B4F5F5F4F43301C
:1017E000510559F7089580E00895CF93DF93F62FC0
:1017F0009630B8F58430A8F5292F30E0220F331F3A
:10180000220F331F820F932F911D282F2770E1E0A5
:1018100001C0EE0F2A95EAF723E0969587952A9561
:10182000E1F763E070E00E94F32ADC01AF52BE4FA3
:1018300050E040E06F2F70E08D91ED0121979B010A
:10184000042E02C0369527950A94E2F7217021955F
:1018500028272E23282728834F5F5F4F43305105C9
:1018600059F7DF91CF91089580930D02089540912B
:10187000CD029091CF022091D002662309F469C075
:10188000942B922B2091CE02922B31F098E09093E2
:10189000C40291E09093C5028D3C41F40E948A05F8
:1018A00081958093CE020E94280508958E3C19F4FC
:1018B0000E948A05F6CF8F3C31F40E948A058195FB
:1018C0008093CD02F0CF803D19F40E948A05F8CFB5
:1018D000893D29F40E944F058093CF02E4CF8A3DD1
:1018E00021F40E944F058195F7CF8B3D31F40E9482
:1018F0004F0581958093D002D6CF8C3D19F40E947C
:101900004F05F8CF9FE2980F983070F4815D990BE6
:1019100021E030E001C0220F8A95EAF78091CC02E5
:10192000822B8093CC02BFCF8D3D31F48091C602D3
:1019300081608093C602B7CF8E3D21F48091C602AC
:101940008260F7CF8F3D09F0AECF8091C6028460F0
:10195000F0CF8D3C59F48091CE0287FF0DC01092DC
:10196000CE0241110BC01092C40208C08E3C81F41B
:101970008091CE0218169CF3442381F08091CF020F
:101980009091D002892B09F08ECF1092C5028BCF97
:101990008F3C49F447FFF0CF1092CD028091CE02E8
:1019A0008111ECCFE0CF803D19F41416ACF3E4CFF5
:1019B000893D29F4191604F71092CF02DDCF8A3D34
:1019C00019F497FFD9CFF8CF8B3D29F427FFD4CF57
:1019D0001092D002D1CF8C3D19F41216CCF3CCCF9B
:1019E0009FE2980F983090F4815D990B21E030E0F0
:1019F000B90102C0660F771F8A95E2F7CB01809587
:101A00009091CC0289238093CC02B6CF8D3D31F4E6
:101A10008091C6028E7F8093C602AECF8E3D21F4A8
:101A20008091C6028D7FF7CF8F3D09F0A5CF8091C1
:101A3000C6028B7FF0CF80FD03C02C9A81E0089511
:101A40002C98FCCF982F92959F7011F0892F94E0DD
:101A5000282F2695269511F09E5F822F869509F0F6
:101A60009F5F892F0895CF93C82F0E94220D823047
:101A700061F0833071F0813081F441E16CEC8AEAED
:101A80000E94B2068C2FCF91089540E069E98FEF54
:101A9000F7CF47E760E08EEEF3CF40E060E080E014
:101AA000EFCF0E94330D80931A02089590911A028D
:101AB00021E030E0F90101C0EE0F8A95EAF7D90183
:101AC00002C0AA0FBB1F6A95E2F7EA2B01C0220FE2
:101AD0004A95EAF7892F8E23E81305C0292B822F18
:101AE0000E94510D089520952923F9CF21E030E07F
:101AF00001C0220F8A95EAF7209580911A0282236D
:101B00000E94510D08959091E10180958923809361
:101B1000E101282F277069F4891759F09091D802B4
:101B200092FF07C08695869586950E94760D109245
:101B3000E101089521E030E001C0220F8A95EAF723
:101B400080911A02822B0E94510D08950F931F93CA
:101B5000CF93DF938B01EA019091EA02943061F513
:101B60008093E9008FEF9091E800815095FD06C0C9
:101B700095ED9A95F1F700008111F5CF8091E8007D
:101B800085FF1AC00E947603811111C08091E80080
:101B900085FD06C08091E8008E778093E800F2CF43
:101BA000F80181918F018093F100219779F780915D
:101BB000E8008E778093E800DF91CF911F910F911D
:101BC000089543E050E0BC0184E00E94A60D089512
:101BD00046E050E0BC0184E00E94A60D089540E27A
:101BE00050E0BC0184E00E94A60D0895CF93DF93DE
:101BF000EC0148E050E0BC0181E00E94A60D88E0C5
:101C0000FE01A0EEB2E001900D928A95E1F7DF911E
:101C1000CF91089581E08093E00080E28093D80026
:101C20001092C9008FE19EE40197F1F700C0000017
:101C300087E090EBDC018093310390933203A09313
:101C40003303B093340388E19CE00FB6F894A89571
:101C5000809360000FBE90936000FFCF9C01CB018A
:101C6000259A45B14F7DE5B1E062FFB7F89463E096
:101C700070E00E94F32A820F931F8217930741F4AA
:101C8000FFBF8FE594E00197F1F700C000000895D1
:101C9000D9015D919D0168E0E5B9000000C057FFE2
:101CA00045B9550F000000C000C000C045B900C0D4
:101CB0006A9591F7E2CFCF93C82F6FEF811163E25E
:101CC00085E290E00E944E2C6FEFC11162E186E246
:101CD00090E00E944E2C6FEFC11169E187E290E025
:101CE0000E944E2CCF910895CF93DF93C9EED0E0A0
:101CF00060E0CE010E944E2C2196C11584E0D807E9
:101D0000B9F7DF91CF9108951F93CF93DF93122FEF
:101D1000843008F56630F8F44430E8F4C62FD0E09B
:101D200093E0CC0FDD1F9A95E1F750E0440F551F6B
:101D3000C40FD51F90E060E370E00E94F32AC80F43
:101D4000D91F632FCE0189960E944E2C612FCE01A0
:101D50008A960E944E2CDF91CF911F910895AF92E9
:101D6000BF92CF92DF92EF92FF921F93CF93DF93B8
:101D70008AEDC82E84E0D82ED0E07601C0E014C0F1
:101D8000F50125913491412F6C2F8D2F0E94840EE7
:101D900082E0A80EB11C1F5F143091F788E0E80EB6
:101DA000F11CCF5FC63019F0570110E0E9CFDF5FBB
:101DB00080E3C80ED11CD43001F7DF91CF911F9181
:101DC000FF90EF90DF90CF90BF90AF90089580E0AC
:101DD0000E945B0E60E088E290E00E944E2C0E9420
:101DE000AF0E0E94740E81E00E945B0E0895682F72
:101DF00086E090E00E944E2C08958091BE0281FF03
:101E000011C08D7F8093BE020E94F70E80916F00FB
:101E10008E7F80936F008091BE0286958695869511
:101E20000E94570608958091BE0281FD10C0826015
:101E30008093BE020E94F70E1092C1021092C0025F
:101E40001092BF0280916F00816080936F000895AF
:101E50008091BE0280FF08C08E7F8093BE020E94E8
:101E6000F70E80E00E94570608958091BE0280FD23
:101E700013C081608093BE02813019F489E08093A1
:101E8000BE028091BE020E94F70E8091BE0286952E
:101E9000869586950E945706089585E290E00E94F7
:101EA0002A2C833289F486E290E00E942A2C823127
:101EB00059F487E290E00E942A2C91E0893109F0E0
:101EC00090E0892F8170089580E0FCCF0F931F93DD
:101ED000CF93DF93843058F5663048F5443038F5B9
:101EE000C62FD0E093E0CC0FDD1F9A95E1F750E0CC
:101EF000440F551FC40FD51F90E060E370E00E94AF
:101F0000F32AC80FD91FCE0189960E942A2C082FC8
:101F100010E0102F0027CE018A960E942A2C9801EB
:101F2000282BC901DF91CF911F910F91089590E067
:101F300080E0F8CF462F763040F4643030F48430BF
:101F400020F4672F0E94660F089590E080E00895C6
:101F5000CF92DF92FF920F931F93CF93DF936C0189
:101F600000911A0280910D02082BC3E0D0E010E02E
:101F7000FC2EC8010C2E02C0959587950A94E2F7B5
:101F800080FD0CC02197A0F7F12C8F2DDF91CF9110
:101F90001F910F91FF90DF90CF900895B6018C2F85
:101FA0000E949A0F0E94630A019761F3EECFCF93CC
:101FB000DF93EC010E94A80FBE010E949A0F0E94BD
:101FC000630ADF91CF910895FC0124812223C1F09F
:101FD000808191810E94D70F92959F70963091F0E9
:101FE00058F4925F9F70923058F4803F19F030F4AB
:101FF000883E30F481E008959A5FF4CF843FD1F3B6
:1020000080E00895883EB0F3813FD1F7F3CFA6E09A
:10201000B0E0EDE0F0E10C94542B49835A83498100
:102020005A819923A1F0222391F0CA010E94A80F9E
:10203000182F682F89819A810E94F50B69817A8116
:10204000812F0E949A0F2696E3E00C94702BCA0110
:102050000E94BF0B182FF2CF86E090E00E942A2C3E
:102060008093BE0282FD05C08DE28093BE020E9475
:10207000F70E8091BE02803320F0877088628093D3
:10208000BE029091BE02892F817090FF04C0892FFB
:102090008695869586950E9457060895B0E0A0E043
:1020A000E4E5F0E10C94482BFC016280548081E06F
:1020B0008483EAE5F3E07490E9EDF3E0E4910091C4
:1020C000B9020695015810E0000F111F012F1127CA
:1020D000C6E6D2E026E3C22E22E0D22E36EB832ED5
:1020E00032E0932EAA24AA94B12CE719EE2EF12CFB
:1020F00082E0861530F08091B70288838091B80223
:102100008983511016C01B821A8296014A81698107
:1021100088810E94D206259683E0C80ED11C8C16B9
:102120009D0631F70E949D06CDB7DEB7EFE00C9417
:10213000642B8B81882321F181508B8390E06FEF9A
:1021400070E00E94F32A6C8170E00E94102BFB016A
:10215000FF27E65AFC4FE491E7198E2F90E06FEFCE
:1021600070E00E94F32AB7010E94102B2091B9025F
:1021700030E0862F90E0B9010E94F32A9A83C5CF00
:102180000E94002CB5010E94242B801791070CF0AF
:10219000BCCF82E0861588F40E94002CB5010E9415
:1021A000242B88830E94002C2091B8022695622F50
:1021B00070E00E94242B280F29831A828091B90293
:1021C000893C20F088EC8C838B839FCF8431D8F7B7
:1021D00084E1F9CF6091B6026695669570E04BE0B8
:1021E00050E080E191E00E94102C892B19F481E0ED
:1021F000809332020E94660490932C0280932B02FB
:102200000895B0E0A0E0E7E0F1E10C944B2B490128
:102210005A016B017C010E94C3068401A4016A2D4E
:102220007B2D88E090E00E94602C94014A2D5B2D6C
:10223000B601C70100E20E94972B622F84E290E072
:102240000E944E2CCDB7DEB7ECE00C94672BA3E0D8
:10225000B0E0EDE2F1E10C944A2BF82ED62EE42EFC
:10226000C22E9091B60290FF2FC0E92FE695E69519
:10227000AE2FB0E0A959BE4F8C91809331029C7F64
:10228000943031F59E012F5F3F4F8F2D0E94D20673
:102290004B8169818A810E94B206F092B702D09286
:1022A000B802E092B902CC2079F02091B602609198
:1022B000BA027091BB023F2D4D2D5E2D8091BC0264
:1022C0009091BD020E9401112396EDE00C94662BC3
:1022D000823019F4E090B902E0CF863019F4F09022
:1022E000B702DBCF8930D9F38931B9F6E9512E2F06
:1022F0002170722EE695F0E0EB5AFC4FE4910E2F20
:1023000010E036E3A32E32E0B32E912C812CC401D1
:1023100024E0969587952A95E1F7711013C08F0DEB
:1023200095014E2D6D2D0E94D206800E911E83E0E8
:10233000A80EB11C26E6A21622E0B20641F70E94C2
:102340009D06ABCF2F2D281B822FEACFE6EBF2E0C4
:10235000438128E0421B08F440E021E06281818152
:102360000E9427110895E6EBF2E0438128E0420F36
:1023700008F44FEF21E0628181810E9427110895C6
:10238000E6EBF2E0628128E0621B08F460E021E005
:10239000438181810E9427110895E6EBF2E062817A
:1023A00028E0620F08F46FEF21E0438181810E94F1
:1023B00027110895E6EBF2E0818121E043816281FB
:1023C00088500E9427110895E6EBF2E0818121E018
:1023D00043816281885F0E94271108958091BA022B
:1023E000882319F081508093BA022091B60230916F
:1023F000B7024091B8025091B9026091BA0270914F
:10240000BB028091BC029091BD020E94011108950F
:102410008091BA02833018F48F5F8093BA022091C2
:10242000B6023091B7024091B8025091B902609162
:10243000BA027091BB028091BC029091BD020E94D1
:10244000011108959091B60290FF35C093708111EB
:1024500033C094609093B602662391F02091B60247
:102460003091B7024091B8025091B9026091BA021E
:102470007091BB028091BC029091BD020E9401113B
:102480006091B6026695669570E04BE050E080E1A1
:1024900091E00E94102C892BB9F01092320281E059
:1024A00080932E0220E04091B9026091B8028091A1
:1024B000B7020E94271108958B3210F0986ACACF94
:1024C000880F880F982BC6CF0E94EA10E8CFE6EB62
:1024D000F2E080818160808360E0869586950E942D
:1024E000221208958091B60286958695815009F44E
:1024F0008AE261E00E94221208958091B6028695D8
:1025000086958F5F8B3208F081E061E00E94221295
:1025100008959091B60290FF09C0969596959817E8
:1025200028F0961718F40E947D12089561E00E9429
:10253000221208959091D80292FB222720F92817A1
:1025400079F080FB92F99093D8026091D702709154
:10255000D80284E090E00E946C2C82E00E94830DFF
:10256000089580912301882359F18091D70287FF34
:1025700027C00E948E0B8093AD0140E250E064EED4
:1025800071E08CEA91E00E941D2C892BC1F080E261
:10259000ECEAF1E0A4EEB1E001900D928A95E1F74A
:1025A000E091D302F091D402309749F086E0809315
:1025B000AC010480F581E02D8CEA91E00995089545
:1025C0000E948E0B8093A40148E050E064E072E02A
:1025D00084EA91E00E941D2C892B89F388E0E4EACB
:1025E000F1E0A4E0B2E001900D928A95E1F7E0916C
:1025F000D302F091D402309711F30280F381E02DE1
:1026000084EA91E0DBCF10920C02809123018823B1
:1026100039F18091D70287FF23C0EEEAF1E08EE125
:10262000DF011D928A95E9F790E080E00E94F604B0
:1026300090E080E00E94D1041092E3010E94B11268
:1026400086E0EBECF2E0DF011D928A95E9F710924B
:10265000C4021092C5021092C6020E942805089575
:10266000E6EAF1E086E0DCCFAAE2B0E0EAE3F3E1FB
:102670000C94542B8CEE92E02091F100DC012D9310
:10268000CD01B2E0843F9B07B9F78091ED02833022
:1026900009F470C0B8F4813009F447C0823009F4FD
:1026A000B1C08091E80083FF88C28091EC029091D4
:1026B000ED029A3008F081C2E92FF0E0E252F34DCA
:1026C0000C94382B8A3009F48CC08B3009F46FC01D
:1026D000893039F78091EC02813219F78091F0024C
:1026E0009091F102009711F00297D9F68091E800DD
:1026F000877F8093E8008091E80082FF36C0809158
:10270000F200823031F48091F100813011F0863096
:1027100021F48091F1008093DF028091E8008B77B3
:102720008093E8000E94A703BCCF8091EC02813A1D
:1027300009F0B7CF8091E800877F8093E80080910F
:10274000F0029091F102892B61F468E080EE92E052
:1027500070E00E94F8038091E8008B778093E80096
:10276000A0CF60E090E080E0F3CF8091EA02811199
:10277000C2CF97CF8091EC02813A09F092CF80913D
:10278000F0029091F102892B09F08BCF8091E80043
:10279000877F8093E8008091E80080FFFCCF8091E4
:1027A00023018093F1008091E8008E77B9CF80916A
:1027B000EC02813209F075CF8091F0029091F10224
:1027C000892B09F06ECF8091E800877F8093E80025
:1027D0000E94A7038091EE02809323010E940313BD
:1027E00060CF8091EC02813209F05BCF8091E800EC
:1027F000877F8093E8000E94A7038091EF02809377
:10280000DE024FCF8091EC02813A09F04ACF8091ED
:10281000E800877F8093E8008091E80080FFFCCF8C
:102820008091DE02BECF803899F0823809F0C5C1B0
:102830008091F0028F70853008F0BFC18093E9006D
:102840008091EB0085FB882780F91092E90006C093
:102850008091E8029091E902911182609091E800E4
:10286000977F9093E8008093F1001092F10080919F
:10287000E8008E779EC1882309F48CC1823009F06C
:102880009CC18091EE0281118FC18091F0028F7006
:102890002FEF280F243008F090C18093E900209199
:1028A000EB0020FF81C1933031F48091EB00806216
:1028B0008093EB0079C19091EB0090619093EB00D5
:1028C00021E030E001C0220F8A95EAF72093EA0068
:1028D0001092EA008091EB008860EACF81116DC10F
:1028E0001091EE021F778091E3008078812B809316
:1028F000E3008091E800877F8093E8000E94A703AF
:102900008091E80080FFFCCF8091E3008068809395
:10291000E30082E0111183E08093EA024EC1805807
:10292000823008F04AC12091EE023091EF022C3D36
:10293000E3E03E07A1F583E08A838AE289834FB70B
:10294000F894DE01139620E03EE051E2E32FF0E040
:1029500050935700E49120FF03C0E295EF703F5F72
:10296000EF708E2F90E0EA30C0F0C7968D939D9364
:102970002F5F243159F74FBF8091E800877F809304
:10298000E8006AE270E0CE0101960E94F8038091AF
:10299000E8008B778093E80010C1C096E7CF809164
:1029A000F0029091F102432F55274330510509F46D
:1029B0004AC078F54130510509F47AC08BE590E0C2
:1029C000EAE9F5E04230510509F0F7C02091E8004E
:1029D000277F2093E8002091F2023091F3028217C2
:1029E000930708F49C0140E02115310509F065C00A
:1029F000411163C08091E80082FDC9CF8091EA0255
:102A0000882329F2853019F28091E80083FFF2CF04
:102A1000BECF4132510509F43CC04232510509F0A4
:102A2000CCC08330910508F0C8C0FC01EE0FFF1F39
:102A3000EB56FE4F0190F081E02D8E569E4FDC014B
:102A40008C9190E01AC0332721303105D1F0211547
:102A5000310561F02230310509F0AFC0E7E0F6E062
:102A6000E4918E2F90E0E7E0F6E007C0E3E3F6E0C4
:102A7000E4918E2F90E0E3E3F6E0009709F49DC027
:102A8000A5CFE1E2F6E0E4918E2F90E0E1E2F6E0FE
:102A9000F4CF8330910508F090C0880F991FFC0196
:102AA000E556FE4F0190F081E02D89E090E08ECF59
:102AB00082E190E0E5EFF5E089CF8091EA0288239A
:102AC00009F465CF853009F462CF8091E80083FD79
:102AD0005ECF8091E80082FD8DCF8091E80080FF7D
:102AE00083CF8091F20090E02115310519F08830F4
:102AF000910550F041E0089709F040E08091E8002E
:102B00008E778093E80070CF44914093F100319626
:102B1000215031090196E8CF803809F04EC08091EC
:102B2000E800877F8093E8008091EB028093F100BA
:102B30009ECE811142C01091EE021230F0F58091CC
:102B4000E800877F8093E8001093EB020E94A703C0
:102B5000112311F084E005C08091E30087FDFACFD6
:102B600081E08093EA0242E061EC81E00E94C603CA
:102B700042E261EC84E00E94C60342E261EC82E042
:102B80000E94C60342E260EC83E00E94C60380918B
:102B9000EA0213C08091EE02813079F481E0933033
:102BA00009F080E08093E9021092E9008091E8004A
:102BB000877F8093E8000E94A7038091E80083FF4D
:102BC0000AC08091E800877F8093E8008091EB0045
:102BD00080628093EB00AA96E3E00C94702B0E9435
:102BE00003132FEF84E39CE0215080409040E1F7F5
:102BF00000C0000088E19CE00FB6F894A89580938F
:102C000060000FBE90936000FFCF882321F00E94E8
:102C1000870B0E94B1120895882339F090910C021D
:102C2000982B90930C020E94B1120895882309F406
:102C300056C0823879F40E941B0581FF50C089E399
:102C40000E949D040E94B11289E30E9472040E94B6
:102C5000B1120895833859F40E941B0580FF3FC0CC
:102C600083E50E949D040E94B11283E5EECF843873
:102C700059F40E941B0582FF32C087E40E949D0424
:102C80000E94B11287E4E1CF9CEF980F913AE8F2ED
:102C900090E2980F983050F4877091E001C0990F3E
:102CA0008A95EAF7892F0E94870BD1CF9BE5980F71
:102CB000933028F490E080E00E94F604089598E5AF
:102CC000980F9B3128F490E080E00E94D104089591
:102CD00093E3980F933118F460E00E94370C089545
:102CE000A6E0B0E0E6E7F6E10C944C2B8E010F5F16
:102CF0001F4F86E0F80111928A95E9F78DE5C82EFD
:102D000081E0D82EF12CE12CAA24A394B12CF60159
:102D100081916F018F3F09F443C0F894E82FE29549
:102D2000EF70F0E021A18F70A50102C0440F551F84
:102D30008A95E2F7CA01922F982B91A392A18095D0
:102D4000892382A3789400C0E3E6F1E0912C31E07E
:102D500021912F3F09F44CC0A22FA295AF70B0E093
:102D600090968C9190E02F7002C0959587952A954A
:102D7000E2F780FD3DC0832F982A330F51E0E736FC
:102D8000F50731F7F601319780818F3F11F00E94EE
:102D90005B0980EA8A95F1F7F801EE0DFF1D90823C
:102DA000EFEFEE1AFE0AF6E0EF16F10409F0AFCFEE
:102DB00046E050E0B80184E192E00E941D2C892B8E
:102DC000D9F086E0F801A4E1B2E001900D928A9575
:102DD000E1F781E0809312020E9466049093110251
:102DE0008093100210E0812F2696EBE00C94682B64
:102DF00080E0C2CF10E01FC010911202112391F3A6
:102E000080911002909111020E945704059750F38F
:102E100046E050E064E172E085E292E00E941D2C01
:102E2000892B41F386E0E4E1F2E0A5E2B2E0019013
:102E30000D928A95E1F710921202D5CFA8E0B0E08A
:102E4000E4E2F7E10C94552B66EE7EEF90E080E033
:102E50000E946C2C60E082E090E00E944E2C81E0A9
:102E600080930D0261E083E090E00E944E2C60E0D0
:102E700074E184E090E00E946C2C60E086E090E0D9
:102E80000E944E2C6FEF87E090E00E944E2C40E0B5
:102E900050E0BA0188E090E00E94602C60E084E29B
:102EA00090E00E944E2C60E087E190E00E944E2C62
:102EB00060E08CE090E00E944E2C60E08DE090E0BD
:102EC0000E944E2C19821A821B821C821D821E8235
:102ED0001F82188648E050E068E170E0CE0101965C
:102EE0000E943E2C40E050E0BA0180E290E00E9457
:102EF000602C80E00E945B0E0E94E70E40E050E0F4
:102F0000BA018FE090E00E94602C40E050E0BA01EE
:102F100083E190E00E94602C2896E2E00C94712BF3
:102F2000EBEFE80FEF3308F06CC0F0E0E851F34D41
:102F30000C94382B0E941E1781E008958091C302E3
:102F4000807F8093C30281E08093C20208950E9433
:102F500003132FEF84E39CE0215080409040E1F781
:102F600000C000000E940A0E9091C302892F8E7F3C
:102F700090FF81608093C30280FDDECF817F8093CC
:102F8000C302DACF9091C302892F8D7F91FF8260B7
:102F90008093C30281FFD0CF8091C3028160EFCFC5
:102FA0009091C302892F8B7F92FF84608093C3022C
:102FB00082FDF2CFC1CF9091C302892F877F93FF0B
:102FC00088608093C30283FDE7CFB6CF0E940313CE
:102FD0009091D702892F97FB87F980588093D70269
:102FE000ABCF81E00E94340C0E940313A5CF89531C
:102FF00091E001C0990F8A95EAF7892FF3CF8D519F
:10300000F7CF80E00895CF93C82F8823C9F0823886
:10301000C9F40E941B0581FD13C089E30E949D0431
:103020000E94B1122FEF87EE93E021508040904034
:10303000E1F700C0000089E30E9472040E94B1120F
:10304000CF9108958338A1F40E941B0580FDF8CF2D
:1030500083E50E949D040E94B1122FEF81EE94E05F
:10306000215080409040E1F700C0000083E5E4CFAC
:103070008438A1F40E941B0582FDE2CF87E40E9400
:103080009D040E94B1122FEF81EE94E02150804008
:103090009040E1F700C0000087E4CECF8CEF8C0FAA
:1030A000813A08F0E7C08091C2028130B9F18823EB
:1030B00059F1823009F44DC01092C202809123016F
:1030C000882309F4C8C08091D70287FFC4C0EC2FC1
:1030D000E695E695E695F0E0E455FE4F828190E0B6
:1030E0004C2F477021E030E002C0220F331F4A9579
:1030F000E2F782239323892B09F4B8C08C2F0E9416
:1031000072040E94B112B2C080910C028232B1F6F8
:103110008C2F0E949017811193CFD0CF80910C02F9
:103120008232B1F3C43171F038F4CB3049F0C031A0
:1031300061F080E08170EFCFC93221F0C833C9F768
:1031400081E0F8CF1092C202F4CF82E08093C202F5
:10315000F7CFC93209F453C080F5C43109F44FC028
:10316000B0F4C73009F06CCF81E080930E0184E1A8
:1031700080930F018AE0809320018EE180931F01EC
:1031800088E08093220188E28093210159CF82EE6A
:103190008C0F8A3008F054CFCD51C093D001C3308A
:1031A00009F448C0C0F5C13009F441C08FE091E096
:1031B000C230C1F11092D00143CFC03509F443C0F1
:1031C000C0F48AE0CF3409F03BCFE091CE01F0911A
:1031D000CF01309709F434CF2081082E000C990BD1
:1031E000820F911D8F3F910591F18CF18FEF8083BC
:1031F00027CFC13551F181E0C23539F321CF80911C
:10320000D001882309F41CCF1092D0011092CF0175
:103210001092CE0115CFC53099F078F081E291E09F
:10322000C63041F69093CF018093CE0109CF8EE056
:1032300091E0F8CF80E291E0F5CF8FE191E0F2CF1D
:1032400082E291E0EFCF86EFC0CF8FEFBECF97FF46
:10325000CECF1082F5CEE6EAF1E08CEA91E0219142
:10326000C21709F44BCF8E179F07C9F78C2F0E9406
:103270009D04E4CE80E28C0F883068F4C77021E0B2
:1032800030E001C0220FCA95EAF780910C02822B30
:1032900080930C02D3CEEBE5EC0FE33040F4F0E08A
:1032A000EC5DFE4F808190E00E94F604C9CEE8E517
:1032B000EC0FEB3150F4F0E0EE0FFF1FE95DFE4F35
:1032C000808191810E94D104BBCE83E38C0F833136
:1032D00008F0B6CE61E08C2F0E94370CB1CE1F9360
:1032E000CF93DF93182FD0E0C0E0893311F4C0E50D
:1032F000D0E0812F0E940318209739F4812F0E947B
:103300001616DF91CF911F9108958FE99FE00197E5
:10331000F1F700C000002197EFCF0F931F93CF93D9
:10332000DF93C62FD42F022FFC0185818823A9F0BB
:10333000609330030E94660490932F0380932E03C2
:10334000C77081E001C0880FCA95EAF70E940C1689
:10335000DF91CF911F910F910895809130036813F1
:1033600032C080912E0390912F030E945704883C15
:10337000910548F510E21D0FCD17B9F080E28C0FD2
:10338000883040F4C77081E001C0880FCA95EAF721
:103390000E940516183048F481E09D2F977001C0F7
:1033A000880F9A95EAF70E940C16802F0E946F19D9
:1033B000183070F6D77081E001C0880FDA95EAF70F
:1033C0000E940516C5CFC77081E001C0880FCA955D
:1033D000EAF7F6CFA8E0B0E0E0EFF9E10C94482B73
:1033E0008C01DC0114968C911497882309F4B8C0E1
:1033F00021E04C9111965C91119712966C91129765
:1034000013967C91139715969C910E9407107C014E
:10341000F8018581882309F41CC6C70197578038B5
:10342000910508F036C1FFE0FE1508F489C08FEF62
:1034300093E00E942A2C811183C059EEA52EB12C55
:10344000E11048C0FE01339686E0DF011D928A95A7
:10345000E9F77501BFEFEB1AFB0AC5010E942A2CA0
:1034600089831A82882309F46BC0813009F07CC0FB
:103470006501E2E0CE0ED11CC7010E942A2C8A838E
:10348000882309F45DC09FEF980F933088F5F3E02F
:10349000AF0EB11CC6010E942A2C8B83882309F42D
:1034A0004FC01C82CE0101967C01D7012C912223B2
:1034B00081F2213009F098C011969C9111971296D3
:1034C0008C91913009F052C0B2E0EB0EF11C0E94D9
:1034D0006F1953C0A11424E0B20691F1C5010E94F6
:1034E0002A2C811101C0EA943FEFA31AB30AA8CF96
:1034F00056018430B9F642E0E42EF12C56012FEF4C
:10350000A21AB20AC6010E942A2CE1E0F0E0EC0FF8
:10351000FD1FEE0DFF1D8083882391F08C3741F451
:10352000E2E0F0E0EC0FFD1FEE0DFF1D1082BACFC0
:103530003FEFE31AF30A650167E0E616F104F1F6DE
:103540008091E101877061F0D80115968C918823F4
:1035500039F08091D80282FF03C082E00E94830D7F
:103560002896EFE00C94642B57019CCF923049F4DD
:10357000E2E0EE0EF11C0E940318FFEFEF1AFF0AC3
:1035800094CF933031F4F2E0EF0EF11C0E94161646
:10359000F4CF943021F02FEFE21AF20AEECF32E0AE
:1035A000E30EF11C50E040E0D7011196F701D18005
:1035B000682F6053770B9B016A30710550F04150C2
:1035C0005109D8F28FE99FE00197F1F700C00000A0
:1035D000F6CFCA016AE070E00E94F32AA901480F01
:1035E000591F8D2D7D01E0CFE22FF0E0E054FE4F1A
:1035F0005490822F86958695869590E0FC01E05543
:10360000FE4F64902770712C022E02C0759467944F
:103610000A94E2F7A1E06A227724FC01E056FE4F0B
:103620008490912C022E02C0959487940A94E2F71C
:10363000B1E08B229924FC01E057FE4FC490D12CBD
:1036400002C0D594C7942A95E2F7E1E0CE22DD24AA
:103650006114710419F081EE0E9403188114910421
:1036600019F086EE0E940318852D0E946F198114AF
:10367000910419F086EE0E9416166114710419F077
:1036800081EE0E941616C114D10409F476CF8CE2A3
:103690001ECFF701F857E730F10508F0CFC4E95D18
:1036A000F24D0C94382B85E00E947F068091BE027B
:1036B0000E94F70E45CF80E0F7CF8091BE02982F91
:1036C000987F79F088508093BE02887F91E009F45A
:1036D00090E08091BE0290FB80F98093BE020E9430
:1036E000F70E8091BE028695869586950E945706B4
:1036F00027CF8091BE02982F9695969596959530F6
:1037000040F49F5F990F990F990F8770892B8093D1
:10371000BE028091BE028160E0CF8091BE0280FF38
:1037200003C00E94280F0CCF0E94350F09CF909143
:10373000BE02892F8695869586958F5F8F719770CB
:10374000863048F4880F880F880F892B8093BE023B
:103750008091BE02BACF9093BE02FACF8091BE0292
:1037600081FF03C00E94FD0EEBCE0E94130FE8CE36
:1037700026E241EE61EEC8010E948D19E1CE27E2FA
:1037800045EE65EEF8CF26E241EE60EEF4CF27E29B
:1037900045EE64EEF0CF26E241EE62EEECCF27E29A
:1037A00045EE66EEE8CF28E241E0EBCF1092300321
:1037B000C7019057839708F0FCC384E090E00E9413
:1037C000382C9093D8028093D702F701E150F0474C
:1037D000E232F10520F4E25DF24D0C94382B809139
:1037E000D70281608093D70295C08091D80288600B
:1037F0008093D8028FC08091D7028260F3CF8091EE
:10380000D7028460EFCF8091D7028860EBCF8091A0
:10381000D8028160EDCF8091D8028260E9CF80919B
:10382000D7028061DFCF8091D7028062DBCF8091A9
:10383000D7028064D7CF0E9403138091D70280689B
:10384000D1CF8091D7028C60CDCF8091D802836098
:10385000CFCF8091D7028E7FC5CF8091D802877F4E
:10386000C7CF8091D7028D7FBDCF8091D7028B7F4C
:10387000B9CF8091D702877FB5CF8091D8028E7F54
:10388000B7CF8091D8028D7FB3CF8091D7028F7E42
:10389000A9CF8091D7028F7DA5CF8091D7028F7B52
:1038A000A1CF0E9403138091D7028F779BCF809185
:1038B000D702837F97CF8091D8028C7F99CF809158
:1038C000D70282FB992790F921E0922790FB82F999
:1038D00090FB83F987CF8091D802982F90959170B3
:1038E0008E7F892B90FB81F983CF9091D702892F0E
:1038F0008F7B96FF806476CF0E9403139091D7024E
:10390000892F97FB87F980586DCF61E08EE090E0BA
:103910000E944E2C6091D7027091D80284E090E012
:103920000E946C2C0E9403130BCE60E0EFCF9091AD
:10393000D702892F8F7E94FF806154CF9091D70258
:10394000892F8E7F90FF81604DCF9091D802892F73
:10395000877F93FF88604CCF85E33BC385E389C3B2
:103960008091B60280FF19C0282F2E7F2093B602C7
:103970003091B7024091B8025091B9026091BA02F9
:103980007091BB028091BC029091BD020E94011116
:10399000109232020E949D06D3CD81608093B602C0
:1039A00061E0869586950E942212CACD42E752E1D7
:1039B0006DE772E10E949606C3CD4DE752E162E7E2
:1039C00072E1F8CF4AED51E164EE71E1F3CF44EEDC
:1039D00051E16AED71E1EECF40EC51E16DEC71E146
:1039E000E9CF4DEC51E160EC71E1E4CF46EA51E101
:1039F00063EB71E1DFCF43EB51E166EA71E1DACFCE
:103A00004EEE51E168E072E1D5CF48E052E16EEE52
:103A100071E1D0CF61E081E0C6CF65E082E00E9435
:103A200089128ECD68E086E0FACF6EE089E0F7CFAC
:103A300064E18FE0F4CF67E185E1F1CF61E088E1F7
:103A4000B2CF62E289E1EBCF61E083E2ACCF6AE220
:103A500085E2E5CF27E7E2162CE7F20609F463C01A
:103A600038E7E3163CE7F30609F461C0F801858105
:103A7000E080F180882309F48EC0C7010E94A80F5E
:103A8000D82E682FC7010E94F50BB7018D2D0E941B
:103A90009A0F0E94630A7C01882ED8011596AC907B
:103AA000159716969C9092943FE093228091E101A5
:103AB000877009F1CA2CAA20F9F08F2D807F8034FD
:103AC00069F080E28E0D8830B0F08F2D807E8032DC
:103AD00029F4B1E0BE1578F4992069F08091D802FC
:103AE00082FF09C082E00E94830D8091E10187700E
:103AF000CC24C3948111C12CBF2CB2942FE0B222EC
:103B0000EBE0EB1508F4B0C0EB2DF0E0E05BF24D1C
:103B10000C94382B81E00E949A0D43E062E081E032
:103B20000E94560D0DCD81E00E94760DF6CF82E009
:103B3000FBCFABE5EA16ACE7FA0659F1BCE5EB16AC
:103B4000BCE7FB06E1F0EAE5EE16ECE7FE0609F05D
:103B50008DCF81E01BC00E940313FFEF24E33CE004
:103B6000F15020403040E1F700C000000E940A0EF2
:103B70006FEF7FEF90E080E00E946C2C4FC280914D
:103B8000D80282FB882780F991E089270E949A1247
:103B90006DCF80E0FBCFC7010E94BF0BD82E75CF41
:103BA000FF2DFF70DF2E8F2D807F19F0D29490EFC4
:103BB000D922AA20B9F0DD2069F080E28E0D88308C
:103BC00010F0811009C080910C02D82AD0920C020A
:103BD0000E94B1128E2D46C08091E301D82AD09266
:103BE000E301F6CF8E2D0E941616DD20E9F180E26A
:103BF0008E0D883010F0811004C08D2D0E94870B2F
:103C000006C0D0948091E301D822D092E3010E94B3
:103C1000B1122AC02F2D2F70D22E8F2D807F80328F
:103C200019F0D29480EFD822882059F031E0831621
:103C300009F484C0AA2009F490C0992009F452C064
:103C4000C9CF8091D80282FD49C0AA2009F440C0A2
:103C5000DD2039F080910C02D82AD0920C020E940B
:103C6000B11280E00E940318AB2DA850BB0B149733
:103C700020F40E941B050E941B0DCC20A9F080910E
:103C8000E10180FD11C0F801158286958695869523
:103C90000E949A0DC8010E94EA198091E10186955F
:103CA000869586950E94760D20E0D8014C9111965C
:103CB0005C91119712966C91129713967C911397C1
:103CC00014968C91149715969C910E94071048CCDD
:103CD00080E00E941616DD2039F28FCFAA20A1F0D5
:103CE000911004C08D2D0E940C16BECF61E096127B
:103CF000BBCF8091E2019D2D9823D91609F4B4CF52
:103D0000D82AD092E201B0CF9110AECF8D2D0E9473
:103D100005169091E2018D2D892329F08D2D809536
:103D200089238093E2018091CD019D2D982309F490
:103D30009BCFD094D822D092CD0196CFAA2029F043
:103D400075E0791508F490CFCDCF84E0891508F49B
:103D50008BCF8D2D0E94051687CF9920D1F399E343
:103D6000891209C0AFEFB7EEE3E0A150B040E040E8
:103D7000E1F700C000008E2D0E94161675CF8F2D22
:103D800086958695837061F0813009F06DCFC7010B
:103D90009370A11002C080E090E00E94D10464CF33
:103DA000C7019370A11002C080E090E00E94F60469
:103DB0005BCF6A2D8E2D0E94370C56CF8F2D8370CE
:103DC00091F5A11051CF4E2D429546954770440F65
:103DD000440F8E2D8F70042E01C0880F0A94EAF7CD
:103DE0002E2D2071E4FE07C02FE030E001C0220F2D
:103DF0004A95EAF720953F2D369536953370323047
:103E000069F050F440910D02313029F0822B842367
:103E10000E94340C29CF842B822BFACF282B80913F
:103E20000D028227F5CF8695AA2011F08F2D817083
:103E3000882309F419CF4E2D429546954770440FBB
:103E4000440F8E2D8F70042E01C0880F0A94EAF75C
:103E50002E2D2071E4FE07C02FE030E001C0220FBC
:103E60004A95EAF720953F2D3695369533703230D6
:103E700069F050F440911A02313029F0822B8423EA
:103E80000E94510DF1CE842B822BFACF282B8091EA
:103E90001A028227F5CFFF2DFF70FF2EAA2029F0EE
:103EA0008F2F0E949A0D8E2D1ECF8E2D0E940516EB
:103EB0008F2D0E94760DD8CE8E2D22EF8216B1F175
:103EC000281570F030EF8316D1F061EF861691F06F
:103ED000AA2009F45EC091107DCE8F2D8F712AC06B
:103EE00073EF871651F194EF8912F2CF8091D802C7
:103EF00082FD2FC08F2D8F71AA20D9F21BC0AA205E
:103F000081F0A4E0A91508F4AFCE2F2D2F7181E028
:103F100090E001C0880F2A95EAF790911A0289274C
:103F2000AFCFB5E0B91508F49FCEEFCF8F2D8F71CD
:103F3000A110BFCF0E949A0D97CE80E0AA2009F46D
:103F40009FCF9F2D9F7181E001C0880F9A95EAF75E
:103F500097CFAA2099F0EF2DEF71FE2E8E2F0E94A1
:103F60009A0D8091D80282FF07C08F2D880F880F8D
:103F7000880F83608093E1018F2DDCCF81E00E9468
:103F8000830DF1E0F91508F06FCE82E00E94830DF9
:103F90006BCE992059F0893309F0EDCE2FEF37EE33
:103FA00063E0215030406040E1F7E3CE8F2D8F7108
:103FB00080CFB6E1EB16BCE7FB0681F480910C02E2
:103FC0008A7A91E009F490E09093CC018111C4CCFD
:103FD00089E20E949D040E94B112B2CAF7E7EF166F
:103FE000FCE7FF0609F496CD82E028E7E2162CE70D
:103FF000F20609F490CD63E0E6166CE7F60609F4E4
:10400000B7CD08F096CDE1148CE7F80609F4A3CDFE
:1040100091E0E9169CE7F90609F028CD0E94EF151A
:1040200080910C028272F701E052F847E531F10508
:1040300008F010CDE45AF24D0C94382BF701E851FA
:10404000FC47E730F10508F0B1CBEF58F24D0C9486
:10405000382BF701E851FC47E730F105B0F3E6E112
:10406000EE16ECE7FE06E1F68091CC01811176CCEC
:1040700089E20E947204AFCFCF93DF938091E00179
:10408000807F09F04FC08091DF01882309F44AC086
:1040900020912D034091F402A091DB01B091DA014F
:1040A000C091DC01D091DD014217E1F130E0C9019E
:1040B00067E070E00E94F32A8B509D4FFC018481E1
:1040C000882399F1C90167E070E00E94F32AFC019E
:1040D000EB50FD4F81818A1328C080818B1325C04E
:1040E0008581811122C0828193818C1B9D0B883C2C
:1040F0009105D8F48091E0018F7080618093E00198
:10410000C90167E070E00E94F32AFC01E550FD4F11
:1041100090819F70906190838AED91E00E94EA19EE
:104120000E94B50BDF91CF9108952F5F3F4F27700D
:10413000BBCFA4E1B0E0EFE9F0E20C944B2B8C0193
:1041400086E0F801DE011F9601900D928A95E1F755
:10415000F8018481E5809AEDA92E91E0B92E909125
:10416000DE01911128C0882319F1EE20F1F0C80179
:104170000E94E40FF82E8823C1F087E0F801D501F2
:1041800001900D928A95E1F78091DE01813031F442
:104190008091DA019091DB010E94D70F0E943C20B0
:1041A0008F2D6496ECE00C94672BC8010E94EA19ED
:1041B000FF24F394F5CFD080C18082809380F0906B
:1041C000DF012091DC013091DD01A401421B530B82
:1041D000FF2009F4D9C0483C510508F092C088235B
:1041E000F9F29091DB018091E001282F207F09F006
:1041F00056C0C91214C09091DA01D91210C0E11052
:1042000048C08F7080618093E0018AED91E00E9448
:10421000EA198091E001F8018683F12CC1CFE11009
:1042200038C06C2D8D2D0E9456036C2D8D2D0E9453
:104230005603E82E8111F1CFDF86C88A8F859889D1
:104240000E94D70F292F22952F70243058F49F7089
:10425000223088F0992399F0F8019681907F79F4C3
:10426000FE2C9ECF2A5F2F70223068F0C8010E947A
:10427000EA19EF2CF5CF992311F0882389F3805E9A
:10428000883070F3F3CF803F58F3815F833070F74D
:10429000E7CF8091E00181608093E001BECFC91239
:1042A00007C09091DA01D91203C0EE2009F48DC045
:1042B000C8010E94E40F882309F477CFEE2009F4A7
:1042C00074CF8091E001803288F02091DA01309142
:1042D000DB01398728879B868A869091DE019C873F
:1042E0001D868E87CE0108960E94EA1987E0F801A4
:1042F000AAEDB1E001900D928A95E1F70E943C2071
:1043000057CF9091E001292F207F51F48AED91E061
:104310000E94EA1987E0F50111928A95E9F77DCFAD
:10432000882309F43DCF8091DB018C1110C080916E
:10433000DA01D8120CC0E1100AC09683C8010E94AD
:10434000EA1987E0F50111928A95E9F729CFC801AA
:104350000E94E40F882309F428CFEE2009F425CF2A
:104360008091E001803210F22091DA013091DB017E
:104370003A8329839C828B829091DE019D831E82E9
:104380008F83CE010196B0CF483C5105D0F68823EB
:1043900009F40ECFFE2CEE2009F407CF8091DB014B
:1043A0008C1120C08091DA01D8121CC08091E001EC
:1043B00080FD0FC0982F907F61F08683903F31F091
:1043C000982F907F905F8F70892B8683C8010E9401
:1043D000EA1987E0F801AAEDB1E001900D928A9503
:1043E000E1F7DECEC8010E94E40F81117FCF8091FA
:1043F000E00181608093E001C8010E94EA19D0CEFB
:10440000ABE1B0E0E6E0F2E20C94532B4E8B5F8B15
:10441000688F798F8A8F9B8F192F91111092E301EA
:104420001D8A86E0FE017696DE011F9601900D92B0
:104430008A95E1F70A8D002341F021E04F855889E4
:1044400069897A89C8010E9407100B8B1C8B87E051
:10445000FE013F96DE01189601900D928A95E1F7D4
:10446000CE0108960E94992081112BC087E0FE01A1
:104470003896DE01119601900D928A95E1F78C85B0
:104480008823F9F08091F40290E09C012F5F3F4F68
:104490002770332740912D0342171306E1F067E0A0
:1044A00070E00E94F32ADC01AB50BD4F97E0FE01A3
:1044B000319601900D929A95E1F72093F4020E94B3
:1044C000B50B80912D039091F402891312C06B9665
:1044D000E4E00C946F2B0E9403131092F4021092EC
:1044E0002D0387E0EAEDF1E0DF011D928A95E9F7FF
:1044F000E8CF90E067E070E00E94F32A8B509D4F78
:104500000E949920882319F380912D0390E0019651
:104510008770992780932D03D4CFA6E0B0E0E3E91C
:10452000F2E20C94532B0E9466048C0180910E02DF
:1045300090910F028017910781F019821A820E94D0
:104540006604682F49815A81792F80E090E00E94AB
:10455000002210930F0200930E022696E4E00C94C2
:104560006F2B1F920F920FB60F9211242F933F9330
:104570004F935F936F937F938F939F93AF93BF936B
:10458000CF93DF93EF93FF93D091E900DF70809199
:10459000EC00C82FC17080FDC0E81092E900809146
:1045A000F000877F8093F00078940E94341310927B
:1045B000E9008091F00088608093F000CD2BCF70EF
:1045C000C093E900FF91EF91DF91CF91BF91AF913F
:1045D0009F918F917F916F915F914F913F912F911B
:1045E0000F900FBE0F901F9018951F920F920FB64D
:1045F0000F9211242F933F934F935F936F937F9369
:104600008F939F93AF93BF93EF93FF938091E100BC
:1046100082FF09C08091E20082FF05C08091E10025
:104620008B7F8093E1008091E10080FF17C0809133
:10463000E20080FF13C08091E2008E7F8093E20051
:104640008091E20080618093E2008091D8008062D6
:104650008093D80019BC85E08093EA028091E10044
:1046600084FF2BC08091E20084FF27C084E089BDD5
:1046700086E089BD89B5982F917080FFFBCF80912E
:10468000D8008F7D8093D8008091E1008F7E809349
:10469000E1008091E2008F7E8093E2008091E20051
:1046A00081608093E2008091EB02882309F441C08D
:1046B00084E08093EA028091EA028091E10083FF26
:1046C00027C08091E20083FF23C08091E100877FB3
:1046D0008093E10082E08093EA021092EB028091E5
:1046E000E1008E7F8093E1008091E2008E7F8093D5
:1046F000E2008091E20080618093E20042E060E0AD
:1047000080E00E94C6038091F00088608093F000F2
:10471000FF91EF91BF91AF919F918F917F916F9199
:104720005F914F913F912F910F900FBE0F901F906F
:1047300018958091E30087FD93E09093EA02BBCF48
:1047400078941F921FB61F9211248F939F93AF935B
:10475000BF938091DA029091DB02A091DC02B091CC
:10476000DD020196A11DB11D8093DA029093DB0258
:10477000A093DC02B093DD02BF91AF919F918F9126
:104780001F901FBE1F9018951F921FB61F921124D5
:104790008F939F93AF93BF938091D902811113C0E0
:1047A0008091DA029091DB02A091DC02B091DD02EF
:1047B0004196A11DB11D8093DA029093DB02A09374
:1047C000DC02B093DD02BF91AF919F918F911F905A
:1047D0001FBE1F9018951F920F920FB60F921124B3
:1047E0002F933F934F935F936F937F938F939F93F9
:1047F000AF93BF93EF93FF9380911E018230A1F09E
:104800008F5F80931E01FF91EF91BF91AF919F91B8
:104810008F917F916F915F914F913F912F910F9069
:104820000FBE0F901F90189581E080931E0180911C
:10483000C0029091C102019660ED72E00E94102BBF
:104840009093C1028093C00265E070E00E94102B3B
:1048500067FD6FE78091BF02823041F4603451F40C
:1048600080916F008E7F80936F0004C0813011F4BF
:104870006F37B1F3E62FF0E0E65AFB4F64912091D9
:1048800086003091870070E090E080E050E040E0EA
:104890000E94822C2FEF30E040E050E00E94BA2CC2
:1048A000C90165E070E00E94102BCB012091BE028F
:1048B000269526952695622F70E00E94F32A0E9485
:1048C000DF0590938D0080938C009DCFCDB7DEB730
:1048D000A6970FB6F894DEBF0FBECDBF84B7877F13
:1048E00084BF0FB6F894A89580916000886180938A
:1048F0006000109260000FBE80E890E00FB6F89460
:1049000080936100909361000FBE89E599E09093D8
:10491000A3018093A2011092E2001092E100809125
:10492000E00081608093E0008091D8008F778093D1
:10493000D80019BC8091630081608093630010925D
:104940001302809163008E7F8093630081E08093E7
:1049500013021092E2001092E1008091D8008F774C
:104960008093D8008091D80080688093D80080918F
:10497000D8008F7D8093D80084E089BD86E089BD12
:1049800089B5282F2170B22E80FFFACF1092EA024B
:104990001092EB021092E9021092E80242E060E00D
:1049A00080E00E94C6038091E1008E7F8093E10049
:1049B0008091E20081608093E2008091E200886053
:1049C0008093E2008091E0008E7F8093E0008091F0
:1049D000E20084608093E20078948091EA02882368
:1049E000A1F01091E9001F709091EC00892F817067
:1049F00090FD80E8182B1092E9008091E80083FD7B
:104A00000E9434131F701093E90082E084BD93E08C
:104A100095BD9AEF97BD80936E000E944D0F811156
:104A200002C00E94E70E0DE511E093E6E92E91E049
:104A3000F92ED8018D918D018F3F11F00E945B09F5
:104A4000E016F106B1F784E60E945B0985E60E9454
:104A50005B0983E30E945B0982E30E945B0986E0B5
:104A6000E5E2F2E0DF01282F1D922A95E9F7E4E163
:104A7000F2E0DF011D928A95E9F740E060E080E016
:104A80000E94B20690E080E00E94382C863E9E4F45
:104A900021F40E944D0F811102C00E941E1782E076
:104AA00090E00E942A2C8093C30284E090E00E9450
:104AB000382C9093D8028093D7020E947016EFEFA3
:104AC000F6E721E0E150F0402040E1F700C00000AF
:104AD0000E9470168091250280FF08C06FEF7FEF63
:104AE00090E080E00E946C2C0E940A0E83E090E02F
:104AF0000E942A2C0E94340C80911A020E94330DCD
:104B0000249A2C9A279A2F988AE08093800089E132
:104B1000809381008FEF9FEF9093870080938600B2
:104B20000E942C108091BE0281FF0BC01092C10226
:104B30001092C0021092BF0280916F00816080933A
:104B40006F000E942C1080911B0281117FC088E0B1
:104B500090E00E94322C6B017C0184E290E00E9484
:104B60002A2C282F30E040E050E060E070E080E048
:104B700090E000E20E947C2B160127012C293329AA
:104B80004E2955292093B6023093B7024093B802BC
:104B90005093B9026093BA027093BB028093BC0237
:104BA0009093BD022C7F09F041C025E02093B6020E
:104BB0001092B7022FEF2093B8021092B902109210
:104BC000BA0225E030E04FEF50E060E00E940111B2
:104BD00088E090E00E94322C6B017C0184E290E03E
:104BE0000E942A2C282F30E040E050E060E070E086
:104BF00080E090E00E947C2BB22FA32FF42FE52FB2
:104C000097018601BC29A12BFE29E32BB093B602A4
:104C1000A093B702F093B802E093B9026093BA028E
:104C20007093BB028093BC029093BD020E94C306A6
:104C3000109232028091B60280FF05C060E0869536
:104C400086950E94221281E080931B0284E091E00D
:104C50009093D4028093D30218E1E12EF12C85E2E7
:104C600092E006E0A02EA80E84E2C82E82E0D82EA4
:104C70008091EA028530E1F4B0E49B2E882483948D
:104C800004E016E08091EA02853009F460C00E94D9
:104C900003130E942C100E941B050E941B0D1092F2
:104CA0001D0280911C0281110E9467120E94EA106D
:104CB0000E9470160EE112E0A5E28A2EA2E09A2E62
:104CC000D401F80191918D91CE16DF0609F48DC0C3
:104CD0009817C1F3712C22242394D4016D904D01B7
:104CE000F80131908F01361411F13624512C4B2CE0
:104CF000832D8421A1F059A27AA20E9466049CA36C
:104D00008BA32DA291E0862D842109F490E09EA32F
:104D100049A15AA16BA17CA18DA10E9400225394AC
:104D2000440CF4E05F12E4CFF80131976082739491
:104D300026E07212D2CF8FB7F8944091DA025091E8
:104D4000DB026091DC027091DD028FBF52C0809166
:104D5000EA02843009F43AC080E00E947F0680E0D5
:104D60000E941B0D1092320280911D0281110DC014
:104D700080921D028091B602982F917090931C0230
:104D80008E7F8093B6020E949D061092D9020FB6C4
:104D9000F894A895E09260000FBE9092600083B7EF
:104DA000817F846083BF83B7816083BF7894889557
:104DB00083B78E7F83BF0FB6F894A895809160006B
:104DC000886180936000109260000FBE8091E902BC
:104DD000882309F457CF0E947016E5E2F2E0819132
:104DE0008111CFC3AE12FBCF4DCF981373CF0E946A
:104DF0008D22809132028823D9F180913102E09195
:104E0000B602E695E695E81BE0932D02823009F0A4
:104E10000BC1F0E0EF5AFD4FE4910E2F10E0FDE7DB
:104E20008F2EF7E09F2E80912E02882361F0109242
:104E30002E020E94660490932C0280932B02109203
:104E4000300210922F020E946604E0912B02F09132
:104E50002C028E1B9F0B8F3F9F4750F4E00FF11FDA
:104E6000F0932C02E0932B028BE292E0F40109957F
:104E700086E0EBECF2E0DE01119601900D928A954E
:104E8000E1F77090CC021091CD020091CE0280909B
:104E9000CF029090D0021092CD021092CE021092CA
:104EA000CF021092D002812F802B91F08091C90205
:104EB0009091CA020E945704FC012091C40222234F
:104EC00009F41EC180910F018E171F0608F427C137
:104ED000882D892909F443C08091C7029091C802A6
:104EE0000E9457049C019091C502992309F46DC357
:104EF00021353105A0F19F3F19F09F5F9093C502C6
:104F0000882051F00E944F056FEF18140CF46B2DA0
:104F10000E94EA2A8093CF02992051F00E944F0507
:104F20006B2D19140CF06FEF0E94EA2A8093D002C7
:104F30008091CF02882399F08090D002882079F068
:104F40000E94CF05882309F420C18093CF02882DC9
:104F50000E94CF05882309F41AC18093D002809162
:104F6000CC02871117C08091CD02882311F018134D
:104F700011C02091CE02222311F020130BC090917A
:104F8000D002992311F0991105C03091CF0233233B
:104F900009F40DC30E94280586E0FE013196ABECB2
:104FA000B2E001900D928A95E1F70E941B05909165
:104FB0002402891779F0809324029FB7F8944091D6
:104FC000DA025091DB026091DC027091DD029FBF3A
:104FD0000E941B0D8091EA02843009F049CE83E0E3
:104FE0008093E9008091E80082FF42CE8091E80042
:104FF00090E085FF06C00E947603882309F4C9C0AB
:1050000091E08091E8008B778093E800992309F480
:105010002FCE8981EFEFE80FE33108F0E1C0F0E037
:10502000E858F24D0C94382B863059F4F0E0E25BEE
:10503000FD4FE4910E2F10E0EDE68E2EE7E09E2E60
:10504000F2CE893061F4E695F0E0E55BFD4FE49146
:105050000E2F10E07FE2872E79E0972EE4CE8F307E
:1050600061F4E695F0E0E85BFD4FE4910E2F10E06F
:1050700061ED862E68E0962ED6CE853159F4F0E0AB
:10508000EB5BFD4FE4910E2F10E053E8852E58E0C6
:10509000952EC9CE08E210E021E0822E28E0922E63
:1050A000883109F4C0CE833249F4E3E4F2E005919B
:1050B000149148EC842E47E0942EB5CE04EF11E015
:1050C00091E9892E97E0992E843209F4ACCE85328D
:1050D00081F48E2F63E00E94042BE92FF0E0E05C66
:1050E000FD4FE4910E2F10E03EE4832E30E1932E2D
:1050F0009ACE00ED17E08CE9882E86E0982E93CEAC
:1051000080910E0190E06AE070E00E94F32A8E1711
:105110009F0708F0DDCE2F5F2093C40202C02F3F0F
:10512000D1F7112351F00E948A056FEF11160CF48C
:105130006B2D0E94EA2A8093CD02002351F00E9439
:105140008A056B2D10160CF06FEF0E94EA2A8093EF
:10515000CE028091CD02882309F4BACE6090CE02AF
:10516000662009F4B5CE0E94CF05882351F08093C4
:10517000CD02862D0E94CF05882329F08093CE0290
:10518000A7CE81E0F4CF81E0F9CF81E0DECE81E0EF
:10519000E4CE00E210E0CE0101964C018091E800DF
:1051A00085FD0AC08091E8008B778093E8000E941B
:1051B0007603882399F324CF8091F100D4018D9355
:1051C0004D010150110951F71BCF1A828CE08B83DE
:1051D00024C08A81823009F4EFC128F4813061F063
:1051E0008FEF89831AC0833009F18430C9F71B829D
:1051F0001C821D821E8211C02FB7F8946091DA02C2
:105200007091DB028091DC029091DD022FBF0E9441
:105210003E2B6B837C838D839E8340E250E0BE01F6
:105220006F5F7F4F82E00E94A60D22CD2B81822FDF
:1052300090E0FE013496245E8630910570F7DC0123
:10524000AB5DBD4F3C91319301962813F5CFE5CF6F
:105250008A818230B1F0853019F68091BE0280FFDC
:105260001BC00E94280F8091B60280FF18C0809159
:10527000B6028E7F8093B602109232020E949D0683
:10528000CCCF6B817C818D819E810E943E2B88E2F8
:1052900090E00E944E2CC1CF0E94350FE4CF0E94B7
:1052A0006712BBCF4C816B818A810E94660F982761
:1052B000892798279E838D83B0CF2D813E81322709
:1052C000232732274C816B818A810E94840EA5CFCF
:1052D0000E94AF0EA2CF9A81913009F042C088306F
:1052E000F9F08930C9F18B81813049F0823009F0C1
:1052F00094CF8C81811111C00E94FD0E8ECF8C81C4
:1053000090E065E070E00E94F32A6FEF70E00E9489
:10531000102B862F0E947F0680CF0E94130F7DCF17
:105320008B81813049F0823009F077CF8091BE02C5
:10533000869581708C8371CF8091BE02869586950B
:10534000869590E06FEF70E00E94F32A65E070E0D0
:105350000E94102B6C8361CF8091BE020E94F70ED9
:105360005CCF923009F03CCF8830B9F1893009F434
:105370005DC08B81823011F1B0F4813009F04DCFE6
:105380008C8190E06FEF70E00E94F32A6FEF70E085
:105390000E94102B462F20E06091B8028091B70246
:1053A0000E9427113ACF8330A1F0843009F035CF25
:1053B00020E04091B9026D818C81F2CF8C818823ED
:1053C00009F455CF0E94671260E08C810E9422127E
:1053D00024CF8C818093BA0220CF8B818230D1F090
:1053E00068F4813009F019CF8091B90290E06FEF35
:1053F00070E00E94F32A6FEF70E0AACF833099F03B
:10540000843009F00ACF8091B7028C838091B80272
:105410008D8303CF8091B60280FF03C08695869569
:1054200089CF80E087CF8091BA0284CF2091B602E5
:105430003091B7024091B8025091B9026091BA021E
:105440007091BB028091BC029091BD020E9401113B
:10545000E4CE80E18A83E1CE83E08A8387E1B7CE20
:105460000A811B81102701271027FE0131963F0179
:105470008C80CF01880D911D4C01C80187519F4F31
:105480008614970409F4C9CE0731A3E01A0750F433
:105490000E942A2CF30184830F5F1F4FBFEF6B1A0A
:1054A0007B0AEBCFD30114961C92F6CF0A811B81A5
:1054B000102701271027FE0131963F018C80800EB6
:1054C000912E911CC80187519F4F8016910609F4B7
:1054D000A4CE0731F3E01F0728F4D30114966C9192
:1054E0000E944E2CBFEF6B1A7B0A0F5F1F4FEACF53
:1054F0000E94740E92CE84E0ADCF0A811B811027EA
:1055000001271027FE0131963F018C80CF01880DC5
:10551000911D4C01C80189968614970409F47DCE2B
:10552000003C110558F40E942A2CD30114968C9348
:105530000F5F1F4FFFEF6F1A7F0AECCFF30114824A
:10554000F7CF0A811B81102701271027CE01019672
:105550003C018C80800E912E911CC801899680168A
:10556000910609F45ACE003C110528F4D301149693
:105570006C910E944E2CBFEF6B1A7B0A0F5F1F4F7E
:10558000ECCF09BD19BD09B400FEFDCF8091D80054
:105590008F7D8093D8008091E00082608093E0004E
:1055A0008091E00081FDFCCF0E9403136BCB822B26
:1055B000892B09F4F1CCEECC88E290E00E942A2CF1
:1055C0001B821C821D828E8328CE2B30310508F071
:1055D00094CCC5CC002480FD060E660F11F0869594
:1055E000D1F7802D08950024552704C0080E591FB7
:1055F000880F991F009729F076956795B8F3710584
:10560000B9F7802D952F0895991B79E004C0991F53
:10561000961708F0961B881F7A95C9F7809508950C
:10562000AA1BBB1B51E107C0AA1FBB1FA617B707C8
:1056300010F0A61BB70B881F991F5A95A9F78095E4
:105640009095BC01CD01089597FB072E16F40094A8
:1056500007D077FD09D00E94102B07FC05D03EF43F
:10566000909581959F4F0895709561957F4F08950E
:10567000EE0FFF1F0590F491E02D099469279627FE
:10568000692778278727782708952F923F924F928E
:105690005F926F927F928F929F92AF92BF92CF92C2
:1056A000DF92EF92FF920F931F93CF93DF93CDB7CB
:1056B000DEB7CA1BDB0B0FB6F894DEBF0FBECDBF43
:1056C00009942A88398848885F846E847D848C8414
:1056D0009B84AA84B984C884DF80EE80FD800C811D
:1056E0001B81AA81B981CE0FD11D0FB6F894DEBF00
:1056F0000FBECDBFED010895002E083090F0982F19
:10570000872F762F652F542F432F322F22270850B3
:10571000F4CF220F331F441F551F661F771F881FAA
:10572000991F0A95B2F7002D089597FD1094002E49
:10573000083098F00850232F342F452F562F672F0D
:10574000782F892F912DF4CF15949795879577957C
:10575000679557954795379527950A95AAF7112488
:10576000002D08958F929F92AF92BF92CF92DF92B9
:10577000EF92FF92CF93DF93EC01688179818A8168
:105780009B81611571058105910521F464E279ED34
:105790008BE597E02DE133EF41E050E00E949B2C38
:1057A00049015A0127EA31E440E050E00E94822C8E
:1057B0006B017C012CEE34EF4FEF5FEFC501B401BC
:1057C0000E94822CDC01CB018C0D9D1DAE1DBF1DE6
:1057D000B7FF03C00197A109B04888839983AA83C2
:1057E000BB839F77DF91CF91FF90EF90DF90CF90B9
:1057F000BF90AF909F908F9008950E94B22B089514
:1058000080E091E00E94B22B0895B0E0A0E0809388
:10581000000190930101A0930201B0930301089548
:10582000FC014150504030F001900616D1F73197FD
:10583000CF010895882799270895FB01DC0104C052
:105840008D910190801921F441505040C8F7881B78
:10585000990B0895F999FECF92BD81BDF89A9927C9
:1058600080B50895A6E1B0E044E050E00C94742CBB
:10587000A8E1B0E042E050E00C94742CDC01A40FED
:10588000B51F4150504048F0CB01840F951F2E9119
:105890000E944F2C41505040D0F70895262FF9997F
:1058A000FECF92BD81BDF89A019700B4021639F07F
:1058B0001FBA20BD0FB6F894FA9AF99A0FBE089550
:1058C0000396272F0E944F2C0E944E2C252F0E94BA
:1058D0004F2C242F0C944F2C0196272F0E944F2CD5
:1058E0000C944E2CDC01CB01FC01F999FECF06C0D3
:1058F000F2BDE1BDF89A319600B40D92415050408E
:10590000B8F70895EE27FF27AA27BB2708C0A20FE4
:10591000B31FE41FF51F220F331F441F551F969519
:1059200087957795679598F37040A9F7009799F751
:10593000BD01CF010895052E97FB1EF400940E942F
:10594000B22C57FD07D00E94BA2C07FC03D04EF4AE
:105950000C94B22C50954095309521953F4F4F4F68
:105960005F4F089590958095709561957F4F8F4F0B
:105970009F4F0895A1E21A2EAA1BBB1BFD010DC06B
:10598000AA1FBB1FEE1FFF1FA217B307E407F507EF
:1059900020F0A21BB30BE40BF50B661F771F881FCB
:1059A000991F1A9469F760957095809590959B0161
:1059B000AC01BD01CF010895F894FFCF13143B143F
:1059C000DD153B14DD156E148F14DD158C1599153E
:1059D000A7179E17B4179C17011801189C170118D8
:1059E0000118D0170118DB17E61701180118011864
:1059F00001189C17011801189C170118C2170118EB
:105A00000118FF17FF17FF17FF17FF17FF17FF17E3
:105A1000FF17FF17F1170118A7179A170118011898
:105A200001180118011801180118011801180118AE
:105A3000F117011801189C170118F717F717F71736
:105A4000F717F717F717F717F717F717F117531B8C
:105A50005B1B8D1B5D1B791B971BAE1B291C9E1CA2
:105A6000311CFB1BFF1B351C031C391C451C0F1C68
:105A7000971C131C491C171C4D1C751C1B1C511C0E
:105A80007C1C211C571C5F1C071C3D1C0B1C411C53
:105A9000251C5B1C6B1C851C951CF51B2D1CA51C5B
:105AA000D01DD01D0A1E0A1EBF1ED91E341E341E54
:105AB000DE1E4B1F5C1F5C1FB01CD61CDD1CE21CD5
:105AC000E71CEC1CF11CF61CFB1C001D051D0A1D2F
:105AD0000D1D121D151D181D1B1D1E1D211D241D14
