:100000000C948D020C94C5020C94C5020C94C5028C
:100010000C94C5020C94C5020C94C5020C94C50244
:100020000C94C5020C94C5020C94C5020C94891E54
:100030000C94451E0C94581F0C94C5020C94C502D8
:100040000C94C5020C94C5020C947F1F0C94341FB1
:100050000C94C5020C94C5020C94C5020C94C50204
:100060000C94C5020C94C5020C94C5020C94C502F4
:100070000C94C50205010902A10185020901A10034
:100080000509190129081500250195087501810246
:100090000501093009311581257F95027508810612
:1000A00009381581257F950175088106050C0A38E8
:1000B000021581257F950175088106C0C0050109DB
:1000C00080A101850319012AB700150126B7009503
:1000D0000175108100C0050C0901A10185041901F9
:1000E0002AA002150126A002950175108100C00505
:1000F000010906A1018506050719E029E715002574
:10010000019508750181020507190029EF150025E1
:100110000195F075018102050819012905950575FC
:10012000019102950175039101C00660FF0961A16B
:10013000010962150026FF009520750881020963F8
:10014000150026FF00952075089102C005010906DB
:10015000A101050719E029E715002501950875019A
:1001600081029501750881010507190029FF150015
:1001700026FF0095067508810005081901290595D7
:100180000575019102950175039101C00000000001
:10019000000000000000000000000000000000005F
:1001A000000000000000000000000000000000004F
:1001B0007E0F00D4FFFFFFC70000007800000000A2
:1001C000000000002A2B28000000000000000000B2
:1001D0000000000000000029000000002C1E342058
:1001E000212224342627252E362D3738271E1F207E
:1001F0002122232425263333362E37381F040506C3
:100200000708090A0B0C0D0E0F1011121314151606
:100210001718191A1B1C1D2F3130232D3504050604
:100220000708090A0B0C0D0E0F10111213141516E6
:100230001718191A1B1C1D2F3130354C00010101F4
:100240000101010101010202020202020202020393
:100250000303030303030304040404040404050563
:100260000505050606060606070707070708080826
:1002700008090909090A0A0A0B0B0B0C0C0C0D0DD5
:100280000D0E0E0E0F0F0F1010111111121213136D
:100290001414151516161717181819191A1A1B1BE6
:1002A0001C1D1D1E1E1F2020212222232424252642
:1002B00026272829292A2B2C2D2D2E2F303132327A
:1002C000333435363738393A3B3C3D3E3F40414286
:1002D000434445464748494A4C4D4E4F505153546C
:1002E000555658595A5B5D5E5F6162646566686920
:1002F0006B6C6D6F7072737577787A7B7D7E8082A0
:10030000838587888A8C8E8F91939596989A9C9EE8
:10031000A0A2A3A5A7A9ABADAFB1B3B5B7BABCBEF8
:10032000C0C2C4C6C9CBCDCFD1D4D6D8DBDDDFE2C5
:10033000E4E7E9EBEEF0F3F5F8FAFDFF000000006A
:100340000000000000000001010203040506080A85
:100350000C0F1114181C2024292E33393F464C53FE
:100360005B626A7179818A929AA2AAB2B9C1C8CF36
:10037000D5DCE1E7EBF0F4F7FAFCFDFEFFFEFDFC57
:10038000FAF7F4F0EBE7E1DCD5CFC8C1B9B2AAA225
:100390009A928A8179716A625B534C463F39332E57
:1003A0002924201C1814110F0C0A08060504030246
:1003B0000101000000000000000000002900B20060
:1003C00001582A0053005400550056005F00600099
:1003D000610057005C005D005E00570059005A0044
:1003E0005B00580062006200630058000100025385
:1003F00003530050430044004500460040004100C4
:1004000042002B003D003E003F002B003A003B0025
:100410003C0058007C007C007D0058000100015029
:1004200003530050710072007300E7006E006F000C
:10043000700007036B006C006D0007036800690023
:100440006A001003A800A800A8001003005C015077
:10045000025000500100010001000100FA00F0000C
:10046000F9000703F200F400F3000703FB00F100BA
:10047000FC001003A800A8000100100309025B00A3
:10048000030100A0FA090400000103010100092191
:100490001101000122400007058103080001090441
:1004A00001000203000000092111010001222200C5
:1004B000070582032000010705030320000109044A
:1004C0000200010300000009211101000122B60011
:1004D0000705840320000112010002000000080348
:1004E000A1060001000102000118034B0042004474
:1004F000005000410044002D004D004B00490049D0
:1005000000000010034B0042004400660061006ED2
:100510000073000000040309040011241FBECFEF84
:10052000D4E0DEBFCDBF04B603FE18C080918D02BB
:1005300090918E02A0918F02B09190028730904BE3
:10054000A740B04B59F410928D0210928E02109277
:100550008F0210929002E0E0F8E3099522E0AEE508
:10056000B1E001C01D92AD38B207E1F711E0A0E0A3
:10057000B1E0ECEDFDE402C005900D92AE35B1079F
:10058000D9F70E94FA1F0C947D260C94000020914C
:10059000E4003091E50095E6A9012091EC00822F5E
:1005A000817020FF06C08091E80080FF06C080E0D7
:1005B00008952091E80022FD1AC080917F028823CF
:1005C00089F0853089F08091EB0085FD0FC0209186
:1005D000E4003091E50042175307F9F29150E1F63B
:1005E00084E0089582E0089583E0089581E008950D
:1005F0008091810287FF13C08091E80082FF06C0CE
:100600008091E8008B778093E80004C080917F029E
:100610008111F2CF089580917F028823D9F38091D0
:10062000E80080FFF8CF8091E8008E77ECCF982F1C
:100630009093E900242F762F50E0891731F07091C4
:10064000EC002091ED005091F00021FD07C09F5F6C
:10065000953071F78093E90081E008953091EB00C7
:100660003E7F3093EB003091ED003D7F3093ED0005
:100670003091EB0031603093EB007093EC002093ED
:10068000ED005093F0002091EE0027FDE0CF80E0D8
:100690000895FC0180918702909188028617970740
:1006A000A0F06115710529F49091E8009E77909370
:1006B000E80090E06115710551F4911108C0809136
:1006C000E80082FF32C080E00895BC01F2CF809143
:1006D0007F028823B1F18530B1F18091E80083FD7C
:1006E0002EC08091E80082FDEACF8091E80080FF73
:1006F000E1CF2091F20030E06115710519F028304A
:10070000310558F091E02830310509F090E0209152
:10071000E8002E772093E800CDCF81918093F100FF
:10072000615071092F5F3F4FE7CF80917F0288238F
:1007300041F0853041F08091E80083FFC0CF81E037
:10074000089582E0089583E0089580915C02089501
:100750009C014FB7F8948091550290915602A09158
:100760005702B09158024FBF821B930B08952FB7C9
:10077000F8948091550290915602A0915702B09141
:1007800058022FBF0895A3E0B0E0E9ECF3E00C9429
:10079000C625209152023091530228173907A1F043
:1007A0009093530280935202E0915002F0915102D3
:1007B000309751F024E029839B838A830680F78158
:1007C000E02DCE01019609952396E2E00C94E225F6
:1007D000A3E0B0E0EEEEF3E00C94C62520914E02CB
:1007E00030914F0228173907A1F090934F02809360
:1007F0004E02E0915002F0915102309751F023E007
:1008000029839B838A830680F781E02DCE010196A0
:1008100009952396E2E00C94E225E0915002F091D4
:100820005102309729F00190F081E02D099508954B
:1008300080E00895B0E0A0E0E0E2F4E00C94BC2594
:100840008C0180918600909187006CE070E00E949E
:1008500081256017710758F0C80169E070E00E94B7
:100860008125CB01CDB7DEB7ECE00C94D825809183
:10087000860090918700E0908600F0908700C090FD
:100880008600D0908700C6E0D0E0BE010E9481259E
:1008900030E020E0060F171F211D311D48015901CE
:1008A00085E0880C991CAA1CBB1C8A95D1F7C7014E
:1008B000BE010E948125F12CE12CA7019601260F93
:1008C000371F411D511DC501B4010E945B266901FE
:1008D0007A01C0918600D0918700CA01B9010E94B7
:1008E00042269E0150E040E00E944226A701960168
:1008F0000E9442262FE096958795779567952A95D1
:10090000D1F7009186001091870030E020E00617B3
:1009100017072807390708F0A4CF60918600709167
:1009200087009FCF282F863008F5811120C0909135
:100930008000977F909380002F986091860070913F
:10094000870090E080E030E050E040E00E944226E6
:1009500025E030E040E050E00E945B26C9010E94A3
:100960001A0490938D0080938C00089525E0909157
:100970008000986090938000E0CF282F220F220FF4
:10098000220F909148029770922B90934802987F83
:1009900021E009F420E09091480220FB90F9909327
:1009A00048020E9492040895FA01811101C0FB01DE
:1009B0000995089580914302982F9E7F39F4809184
:1009C0004302817082608093430208958430B8F7B7
:1009D00008950E94B7039C0190910F02809110022C
:1009E000982B21F030930C0220930B02909111026E
:1009F00080911202982B21F030930A022093090271
:100A0000E0915002F0915102309749F082E08093DA
:100A10000D020480F581E02D8DE092E009950895A6
:100A20008091080280FF0CC060910D0170E0759507
:100A30006795759567956115710559F1862F08952C
:100A400081FF06C060910D0170E075956795F3CF49
:100A500060910D0170E082FD0CC060910702662379
:100A6000A9F020910C0180910D0190E0621730F007
:100A7000BC0160387105F8F28FE7089570E00E94BC
:100A80007025622F70E00E949525F3CF61E070E041
:100A9000D5CF81E008958091080280FF0DC060915C
:100AA0000B0170E0660F771F60387105A8F56115BE
:100AB0007105A1F1862F089581FF08C060910B0197
:100AC00070E0660F771F660F771FEECF60910B0106
:100AD00070E082FD0BC0809106028823D1F0209146
:100AE0000A0160910B0170E0821730F043E0660F5D
:100AF000771F4A95E1F7D8CF90E00E94702533E048
:100B0000880F991F3A95E1F7622F70E00E949525B2
:100B1000CBCF68E070E0CECF8FE7089581E00895F5
:100B200080E00895F894E82FE295EF70F0E031A1AD
:100B3000282F2F7081E090E001C0880F2A95EAF7F6
:100B4000982F9095932391A392A1892B82A37894B7
:100B500008959091590292FF06C0282F28712830DD
:100B6000F9F4877F846093FF06C0282F287128310D
:100B7000F1F4877E846120915A0220FF06C0382F4D
:100B800038713830D9F4877F816021FF06C0282F63
:100B900028712831D1F4877E816194FD877E089584
:100BA000282F24712430F9F68B7F8860DCCF282F22
:100BB0002471243101F78B7E8861DDCF382F3171AC
:100BC000313019F78E7F8860E0CF282F21712131D5
:100BD00021F78E7E8861E1CFCF93DF93EC018238DD
:100BE0009105B1F108F040C08133910509F49DC031
:100BF00048F58932910509F48DC08A9709F49CC0A3
:100C0000C11521E5D20708F0C3C0C11530E5D307EF
:100C100008F020C1C83ED10508F0A3C0C13ED105EF
:100C200088F5C83AD10508F08EC0C53AD10508F05C
:100C300009C1C130D10531F1209721F1C430D1056E
:100C400008F545C08533910509F45FC0C997C1F621
:100C500080915902837009F049C180915A0283FF43
:100C600011C0C9E2D0E00EC0833E910599F170F445
:100C7000803E910501F1823E910511F68091590265
:100C800082FD21C0CE01DF91CF910895863E91056E
:100C900061F1873E910571F1843E910509F0B0CF75
:100CA00080915A0281FFEECF80915902C7EED0E0C9
:100CB00084FD0DC0E7CF8091590280FD33C0909133
:100CC0005A0290FFDFCFC3EED0E084FFDBCFD0E04D
:100CD000C0E0D8CF8091590282FD05C190915A029F
:100CE00090FD04C184FFCECFF2CF8091590283FDE5
:100CF000DDCFC8CF8091590283FDFBC090915A028D
:100D000091FFF0CFC4EED0E0BDCF8091590285FFB6
:100D1000B9CFA7CF8091590285FDEEC080915A02CC
:100D200083FFB0CFC9E3D0E0ADCF8091590286FFF9
:100D3000A9CFCAE2D0E0A6CF8091590286FFA2CF08
:100D4000C1E3D0E09FCFC13CD10508F6C85AD0E03E
:100D5000CC0FDD1FCD5EDE4F0990D881C02DD4644D
:100D600091CFC11540E2D40758F4C11581E0D807EE
:100D700008F088CFC03FD10508F4A9CFD06582CF55
:100D8000C11520E4D20708F4A2CFDF70D06A7ACF71
:100D9000C11535E5D30728F5C11544E5D40708F09A
:100DA0008AC0C11583E5D80708F06FC0C11522E5D8
:100DB000D20708F465C0CE018370992721E030E0A6
:100DC00002C0220F331F8A95E2F7C695C695D0E080
:100DD000E5E0CC0FDD1FEA95E1F7C22BD32BDC68F1
:100DE00051CFC11539E5D307A8F4C11548E5D4079B
:100DF00008F066C0C11586E5D80708F068CF8C2FCB
:100E00000E94A905C82FD0E0DC2FCC27CC27DF71AA
:100E1000D06238CFC1152AE5D20708F456C0CE01FA
:100E200090568115904208F052CF8D2F8F710E94FD
:100E3000A90590E0982F882788279F719C012C2B6B
:100E4000E901E6CFC55AD0E0C05FDE4FC881D0E0EF
:100E5000D06418CFCE018370992721E030E002C022
:100E6000220F331F8A95E2F7C695C695D0E0A5E01C
:100E7000CC0FDD1FAA95E1F7C22BD32BDD6802CF83
:100E8000DC2FCC27C16FD06AFDCECE0183709927AD
:100E900021E030E002C0220F331F8A95E2F7C695A9
:100EA000C695D0E075E0CC0FDD1F7A95E1F7C22B37
:100EB000D32BDA68E7CEDC2FCC27C46FD06AE2CE22
:100EC000DC2FCC27C06FD06ADDCE8C2F8F700E94B4
:100ED000A90534E0D695C7953A95E1F7CF709C2FD8
:100EE000EC01D069CFCEC2EED0E0CCCEC0EED0E0E7
:100EF000C9CEC6EED0E0C6CEC5E3D0E0C3CE809169
:100F0000E80181111092E801089580959091E70120
:100F100098239093E701089590910F019923D1F0C0
:100F20009091590297FF16C0E82FE695E695E69551
:100F3000EE31E0F4F0E0E05AFE4F282F277081E018
:100F400090E001C0880F2A95EAF780959281892365
:100F500082830895E2E6F1E09191891303C0DF01F5
:100F600011971C9291E0E836F907B1F70895909136
:100F70000F019923C1F09091590297FF14C0E82FF7
:100F8000E695E695E695EE31F8F4F0E0E05AFE4F8E
:100F9000877021E030E001C0220F8A95EAF7828154
:100FA000822B82830895A2E6B1E0EFEF90E02D91CD
:100FB000821751F0EF3F19F4211101C0E92F9F5F13
:100FC0009630A9F7EF3F09F408950E2E000CFF0BA1
:100FD000E05AFE4FE6CF8091C4019091930198139F
:100FE00001C008958F5F8770FACF963090F58430F6
:100FF00080F5292F30E0220F331F220F331F820F7D
:10100000932F911DA82FA77023E0969587952A9579
:10101000E1F763E070E00E947025FC01EC57FE4FA1
:1010200050E040E080E0219130E00A2E02C0369589
:1010300027950A94E2F721703327042E01C0220F6E
:101040000A94EAF7822B4F5F5F4F4330510559F7FF
:10105000089580E00895CF93DF93F62F9630B8F58A
:101060008430A8F5292F30E0220F331F220F331FC1
:10107000820F932F911D282F2770E1E001C0EE0F02
:101080002A95EAF723E0969587952A95E1F763E09C
:1010900070E00E947025DC01AC57BE4F50E040E08C
:1010A0006F2F70E08D91ED0121979B01042E02C0FE
:1010B000369527950A94E2F72170219528272E234B
:1010C000282728834F5F5F4F4330510559F7DF9141
:1010D000CF910895662309F45DC0803F41F40E94DA
:1010E0004B058195809310020E94E9040895813F89
:1010F00019F40E944B05F6CF823F31F40E944B0554
:10110000819580930F02F0CF833F19F40E944B0525
:10111000F8CF893F29F40E94100580931102E4CF93
:101120008A3F21F40E9410058195F7CF8B3F31F45F
:101130000E941005819580931202D6CF8C3F19F43E
:101140000E941005F8CF9CE0980F953070F4845FF2
:10115000990B21E030E001C0220F8A95EAF78091D7
:101160000E02822B80930E02BFCF8D3F31F480910F
:101170000802816080930802B7CF8E3F21F48091EE
:1011800008028260F7CF8F3F09F0AECF809108024E
:101190008460F0CF40910F02803F59F4809110029B
:1011A00087FF0DC01092100241110BC01092060271
:1011B00008C0813F81F48091100218169CF34423EB
:1011C00081F08091110290911202892B09F08CCF4D
:1011D0001092070289CF823F49F447FFF0CF109267
:1011E0000F02809110028111ECCFE0CF833F19F400
:1011F0001416ACF3E4CF90911102893F29F419162B
:10120000F4F610921102DBCF8A3F19F497FFD7CF83
:10121000F8CF909112028B3F29F497FFD0CF109214
:101220001202CDCF8C3F19F41916CCF3C8CF9CE035
:10123000980F953090F4845F990B21E030E0B9016C
:1012400002C0660F771F8A95E2F7CB0180959091D7
:101250000E02892380930E02B2CF8D3F31F480912C
:1012600008028E7F80930802AACF8E3F21F48091DE
:1012700008028D7FF7CF8F3F09F0A1CF8091080240
:101280008B7FF0CF80FD02C02C9A08952C98089592
:101290000F931F93CF93DF938B01EA0190917F020D
:1012A000943061F58093E9008FEF9091E8008150D0
:1012B00095FD06C095ED9A95F1F700008111F5CFE7
:1012C0008091E80085FF1AC00E94C702811111C0F9
:1012D0008091E80085FD06C08091E8008E778093BC
:1012E000E800F2CFF80181918F018093F1002197FE
:1012F00079F78091E8008E778093E800DF91CF91B5
:101300001F910F91089543E050E0BC0184E00E94DA
:101310004809089546E050E0BC0184E00E94480975
:101320000895CF93DF93EC0180910F01811111C0DB
:1013300048E050E0BE0181E00E94480980E2FE01E1
:10134000ADE5B2E001900D928A95E1F7DF91CF9182
:1013500008958091590287FF05C040E284E050E083
:10136000BE01EACF48E081E0FACF81E08093E0005F
:1013700080E28093D8001092C9008FE19EE401972B
:10138000F1F700C0000087E090EBDC0180938D0254
:1013900090938E02A0938F02B093900288E19CE01C
:1013A0000FB6F894A895809360000FBE90936000EC
:1013B000FFCF8091430280FD0AC0E3E1F2E0118299
:1013C00010821282339652E0E334F507C1F7259A72
:1013D00035B13F7D25B120624FB7F89483E192E0AB
:1013E000FC015191CF0168E025B9000000C057FF12
:1013F00035B9550F000000C000C000C035B900C0AD
:101400006A9591F7F2E083349F0751F74FBF8FE55C
:1014100094E00197F1F700C000000895CF93DF93A7
:10142000C6EED0E060E0CE010E940E262196C115E6
:1014300084E0D807B9F7DF91CF9108951F93CF9338
:10144000DF93122F843008F56630F8F44430E8F466
:10145000C62FD0E093E0CC0FDD1F9A95E1F750E066
:10146000440F551FC40FD51F90E060E370E00E9449
:101470007025C80FD91F632FCE0186960E940E26B5
:10148000612FCE0187960E940E26DF91CF911F918A
:101490000895AF92BF92CF92DF92EF92FF921F9387
:1014A000CF93DF938CEBC82E83E0D82ED0E076016B
:1014B000C0E014C0F50125913491412F6C2F8D2F80
:1014C0000E941E0A82E0A80EB11C1F5F143091F723
:1014D00088E0E80EF11CCF5FC63019F0570110E02C
:1014E000E9CFDF5F80E3C80ED11CD43001F7DF9174
:1014F000CF911F91FF90EF90DF90CF90BF90AF9072
:101500000895CF93C82F6FEF811161E282E290E0DE
:101510000E940E266FEFC11167E083E290E00E9407
:101520000E266FEFC11165E184E290E00E940E2665
:10153000CF91089580E00E94810A60E085E290E00A
:101540000E940E260E94490A0E940E0A81E00E9413
:10155000810A0895682F86E090E00E940E26089583
:101560008091480281FF11C08D7F809348020E94C4
:10157000AA0A80916F008E7F80936F00809148024D
:101580008695869586950E949204089580914802DA
:1015900081FD10C08260809348020E94AA0A1092C6
:1015A0004B0210924A021092490280916F008160B2
:1015B00080936F0008950F931F93CF93DF93843030
:1015C00058F5663048F5443038F5C62FD0E093E042
:1015D000CC0FDD1F9A95E1F750E0440F551FC40F63
:1015E000D51F90E060E370E00E947025C80FD91FFE
:1015F000CE0186960E94FA25082F10E0102F0027B2
:10160000CE0187960E94FA259801282BC901DF9107
:10161000CF911F910F91089590E080E0F8CF462F71
:10162000763040F4643030F4843020F4672F0E9428
:10163000DB0A089590E080E00895CF92DF92FF9258
:101640000F931F93CF93DF936C0100918C028091D5
:10165000E901082BC7E0D0E010E0FC2EC8010C2EF9
:1016600002C0959587950A94E2F780FD0CC02197FA
:10167000A0F7F12C8F2DDF91CF911F910F91FF904B
:10168000DF90CF900895B6018C2F0E940F0B0E941F
:10169000EC05019761F3EECFCF93DF93EC010E944D
:1016A0001D0BBE010E940F0B0E94EC05DF91CF9134
:1016B0000895FC0183819481892B29F08081918197
:1016C00089238F3F51F480E00895843FE1F717C0EC
:1016D000883EA8F0813FB9F712C0808191810E94B5
:1016E0004C0B92959F70963099F358F4925F9F70CF
:1016F000923048F7803F19F040F7883E20F781E0AC
:1017000008959A5FF4CF82E290E00E94FA25813238
:1017100089F483E290E00E94FA25873059F484E24C
:1017200090E00E94FA2591E0853109F090E0892F40
:101730008170089580E0FCCFCF92DF92EF92FF920C
:101740006B017C010E94DA04B701A60188E090E0F9
:101750000E942026FF90EF90DF90CF900895B0E098
:10176000A0E0E5EBFBE00C94BB25B82EF62EE42EB2
:10177000A22E4091430240FF32C0842F8E7F8230E0
:10178000E1F4EE2DF0E0E45CFD4F61112DC0949189
:10179000F92FE92F40FF11C0A3E1B2E023E432E0CA
:1017A0001196EC9311979C931296FC9312971396B3
:1017B0002A173B07A9F70E94D909B0924402F09278
:1017C0004502E0924602AA2051F0609143027091D6
:1017D000440280914502909146020E949C0BCDB735
:1017E000DEB7EDE00C94D725CB2DD0E0C62ED12C62
:1017F000E4917E2E8E2E912CCE0166E070E00E9448
:1018000070250FEF10E0B8010E9481259B01CC0FDD
:10181000DD1FCB0165E570E00E947025C81BD90B68
:101820008C2F880FC80FC8018C199D09B4010E9424
:101830007025F92FD0E0CE01B6010E947025692FE6
:1018400070E0C801861B970BB4010E947025A92F78
:10185000C8018C1B9D0BB6010E947025692F70E09A
:10186000C801861B970BB4010E947025892F223076
:101870003105A1F050F42115310509F48BCF213049
:10188000310581F09F2FFA2F85CF2430310569F083
:1018900080F02630310509F47DCFF4CF9E2FEF2F55
:1018A000F82F78CF9E2FEA2F75CF9F2FFE2FE82F8E
:1018B00071CFEF2FF72D9A2F6DCFE3E4F2E0438144
:1018C00028E0421B08F440E021E0628181810E940F
:1018D000AF0B0895E3E4F2E0438128E0420F08F4FF
:1018E0004FEF21E0628181810E94AF0B0895E3E414
:1018F000F2E0628128E0621B08F460E021E04381AD
:1019000081810E94AF0B0895E3E4F2E0628128E058
:10191000620F08F46FEF21E0438181810E94AF0BD9
:101920000895E3E4F2E0818121E0438162818850FF
:101930000E94AF0B0895E3E4F2E0818121E043814E
:101940006281885F0E94AF0B0895809147028823CF
:1019500019F08150809347026091430270914402D4
:1019600080914502909146020E949C0B08958091BF
:101970004702833018F48F5F8093470260914302DF
:101980007091440280914502909146020E949C0B06
:1019900008958091430280FF19C081708260809316
:1019A0004302662351F0609143027091440280919A
:1019B0004502909146020E949C0B20E04091460215
:1019C00060914502809144020E94AF0B089580917E
:1019D00043028695815009F481E061E00E94C90CC0
:1019E000089561E081E00E94C90C0895E3E4F2E00B
:1019F00083E0808311828FEF8283838314826081EE
:101A00007181828193810E949C0B08958091E701EE
:101A10009091E601892B809360019091E8019923D0
:101A2000A1F0892B8093600180910F018823E1F15F
:101A30008091590287FF38C08EE1E2E6F1E090E044
:101A40008150A0F591110E947F0740E250E066ECC2
:101A500071E080E691E00E94ED25892B21F180E282
:101A6000E0E6F1E0A6ECB1E001900D928A95E1F795
:101A7000E0915002F09151023097A9F080910F014E
:101A8000882359F08091590287FF07C08091600137
:101A90008093610186E0809360010280F381E02DF4
:101AA00080E691E00995089586E0C7CF2191222331
:101AB00039F29F5FC5CF90E080E00E94E80390E09C
:101AC00080E00E94C3031092E6010E94060D86E0AA
:101AD000EDE0F2E0DF011D928A95E9F7109206022F
:101AE00010920702109208020E94E9040895809360
:101AF0008C020E945B0D089580918C02982F967045
:101B0000963021F488600E94770D0895877FFBCF7F
:101B100021E030E001C0220F8A95EAF720958091FC
:101B20008C0282230E94770D08959091C5018095C3
:101B300089238093C501282F277091F4282F082E20
:101B4000000C330B9217130659F090915A0292FF32
:101B500007C08595859585950E94880D1092C501D1
:101B6000089521E030E001C0220F8A95EAF78091C4
:101B70008C02822B0E94770D08958093E9010E94C8
:101B80005B0D0895882321F00E9485070E94060DB1
:101B90000895882339F09091E701982B9093E701FD
:101BA0000E94060D0895882309F454C0823879F400
:101BB0000E940D0481FF4EC089E30E94B7070E9476
:101BC000060D89E30E948C070E94060D0895833854
:101BD00059F40E940D0480FF3DC083E50E94B707C1
:101BE0000E94060D83E5EECF843859F40E940D045F
:101BF00082FF30C087E40E94B7070E94060D87E489
:101C0000E1CF9CEF980F913AE8F290E2980F98306C
:101C100050F4877091E001C0990F8A95EAF7892FF7
:101C20000E948507D1CF9BE5980F933028F490E070
:101C300080E00E94E803089598E5980F993128F410
:101C400090E080E00E94C3030895803F18F060E0B8
:101C50000E946A08089567EE7EEF90E080E00E949F
:101C60002C2660E082E090E00E940E2660E083E097
:101C700090E00E940E261092E90160E074E184E099
:101C800090E00E942C2660E086E090E00E940E2604
:101C90006FEF87E090E00E940E2640E050E0BA012E
:101CA00088E090E00E94202660E08DE090E00E94B5
:101CB0000E2640E050E0BA0188E190E00E94202624
:101CC00060E087E190E00E940E2640E050E0BA011B
:101CD0008CE190E00E94202670E060E080E290E0DD
:101CE0000E942C2640E050E0BA0188E190E00E947A
:101CF000202680E00E94810A0E949A0A40E050E07B
:101D0000BA018FE090E00E94202640E050E0BA0146
:101D100083E190E00E942026089590915A0292FB60
:101D2000222720F9281779F080FB92F990935A0224
:101D30006091590270915A0284E090E00E942C2632
:101D400082E00E94950D089590E080E00E940826B0
:101D5000873E9E4F19F40E94830B089580E00895FA
:101D60000E94A40E81110AC00E942B0E809148028D
:101D700084708962809348020E94AA0A86E090E0FB
:101D80000E94FA2580934802803320F08770886291
:101D90008093480290914802892F817090FF04C07F
:101DA000892F8695869586950E94920408951092B3
:101DB000E70180910F01E2E6F1E0882361F0809174
:101DC000590287FF08C08EE1DF011D928A95E9F76D
:101DD0000E945B0D089586E0F7CFAAE2B0E0E3EF42
:101DE000FEE00C94C52581E892E02091F100DC0131
:101DF0002D93CD01B2E089389B07B9F7809182021B
:101E0000833009F470C0B8F4813009F447C08230DF
:101E100009F4B1C08091E80083FF88C280918102FB
:101E2000909182029A3008F081C2E92FF0E0E158E7
:101E3000F94D0C94A9258A3009F48CC08B3009F433
:101E40006FC0893039F780918102813219F7809112
:101E5000850290918602009711F00297D9F6809141
:101E6000E800877F8093E8008091E80082FF36C019
:101E70008091F200823031F48091F100813011F0D4
:101E8000863021F48091F10080935C028091E8001B
:101E90008B778093E8000E94F802BCCF809181028A
:101EA000813A09F0B7CF8091E800877F8093E800FE
:101EB0008091850290918602892B61F460E28DE524
:101EC00092E070E00E9449038091E8008B77809354
:101ED000E800A0CF60E090E080E0F3CF80917F0247
:101EE0008111C2CF97CF80918102813A09F092CFC0
:101EF0008091850290918602892B09F08BCF809189
:101F0000E800877F8093E8008091E80080FFFCCFA5
:101F100080910F018093F1008091E8008E77B9CF16
:101F200080918102813209F075CF80918502909174
:101F30008602892B09F06ECF8091E800877F80931D
:101F4000E8000E94F8028091830280930F010E94B2
:101F5000D70E60CF80918102813209F05BCF8091F2
:101F6000E800877F8093E8000E94F8028091840255
:101F700080935B024FCF80918102813A09F04ACF72
:101F80008091E800877F8093E8008091E80080FFDF
:101F9000FCCF80915B02BECF803899F0823809F087
:101FA000C5C1809185028F70853008F0BFC18093D4
:101FB000E9008091EB0085FB882780F91092E90009
:101FC00006C080917D0290917E0291118260909175
:101FD000E800977F9093E8008093F1001092F10061
:101FE0008091E8008E779EC1882309F48CC18230ED
:101FF00009F09CC18091830281118FC1809185027B
:102000008F702FEF280F243008F090C18093E900E3
:102010002091EB0020FF81C1933031F48091EB00DF
:1020200080628093EB0079C19091EB009061909376
:10203000EB0021E030E001C0220F8A95EAF72093FF
:10204000EA001092EA008091EB008860EACF8111EB
:102050006DC1109183021F778091E3008078812BFE
:102060008093E3008091E800877F8093E8000E94DE
:10207000F8028091E80080FFFCCF8091E300806847
:102080008093E30082E0111183E080937F024EC1D0
:102090008058823008F04AC1209183023091840236
:1020A0002C3DE3E03E07A1F583E08A838AE2898341
:1020B0004FB7F894DE01139620E03EE051E2E32FA3
:1020C000F0E050935700E49120FF03C0E295EF70D9
:1020D0003F5FEF708E2F90E0EA30C0F0C7968D938F
:1020E0009D932F5F243159F74FBF8091E800877F80
:1020F0008093E8006AE270E0CE0101960E944903F5
:102100008091E8008B778093E80010C1C096E7CFFC
:102110008091850290918602432F552743305105C7
:1021200009F44AC078F54130510509F47AC08BE5CD
:1021300090E0ECE7F4E04230510509F0F7C020915F
:10214000E800277F2093E8002091870230918802E1
:102150008217930708F49C0140E02115310509F02E
:1021600065C0411163C08091E80082FDC9CF8091B4
:102170007F02882329F2853019F28091E80083FFDD
:10218000F2CFBECF4132510509F43CC04232510575
:1021900009F0CCC08330910508F0C8C0FC01EE0FF7
:1021A000FF1FEE5AFE4F0190F081E02D815B9E4FA4
:1021B000DC018C9190E01AC0332721303105D1F039
:1021C0002115310561F02230310509F0AFC0E9EE8B
:1021D000F4E0E4918E2F90E0E9EEF4E007C0E5E151
:1021E000F5E0E4918E2F90E0E5E1F5E0009709F449
:1021F0009DC0A5CFE3E0F5E0E4918E2F90E0E3E011
:10220000F5E0F4CF8330910508F090C0880F991F56
:10221000FC01E85AFE4F0190F081E02D89E090E04A
:102220008ECF82E190E0E7EDF4E089CF80917F02EC
:10223000882309F465CF853009F462CF8091E800E6
:1022400083FD5ECF8091E80082FD8DCF8091E80014
:1022500080FF83CF8091F20090E02115310519F0C5
:102260008830910550F041E0089709F040E08091F6
:10227000E8008E778093E80070CF44914093F1009E
:102280003196215031090196E8CF803809F04EC0CF
:102290008091E800877F8093E8008091800280939E
:1022A000F1009ECE811142C0109183021230F0F5F0
:1022B0008091E800877F8093E800109380020E945D
:1022C000F802112311F084E005C08091E30087FD3E
:1022D000FACF81E080937F0242E061EC81E00E94CE
:1022E000170342E261EC84E00E94170342E261ECD2
:1022F00082E00E94170342E260EC83E00E94170331
:1023000080917F0213C080918302813079F481E053
:10231000933009F080E080937E021092E900809172
:10232000E800877F8093E8000E94F8028091E8002F
:1023300083FF0AC08091E800877F8093E800809146
:10234000EB0080628093EB00AA96E3E00C94E12519
:10235000EBEFE80FEF3308F06CC0F0E0E757F94D12
:102360000C94A9250E942B0E81E0089580914D02C6
:10237000807F80934D0281E080934C0208950E94FB
:10238000D70E2FEF84E39CE0215080409040E1F78E
:1023900000C000000E94B50990914D02892F8E7FE8
:1023A00090FF816080934D0280FDDECF817F80931E
:1023B0004D02DACF90914D02892F8D7F91FF82607F
:1023C00080934D0281FFD0CF80914D028160EFCF8D
:1023D00090914D02892F8B7F92FF846080934D02F4
:1023E00082FDF2CFC1CF90914D02892F877F93FF5D
:1023F000886080934D0283FDE7CFB6CF0E94D70E51
:1024000090915902892F97FB87F980588093590240
:10241000ABCF81E00E94BD0D0E94D70EA5CF89539E
:1024200091E001C0990F8A95EAF7892FF3CF8D517A
:10243000F7CF80E00895CF93C82F8823C9F0823862
:10244000C9F40E940D0481FD13C089E30E94B707FF
:102450000E94060D2FEF87EE93E0215080409040C0
:10246000E1F700C0000089E30E948C070E94060D7E
:10247000CF9108958338A1F40E940D0480FDF8CF18
:1024800083E50E94B7070E94060D2FEF81EE94E0CE
:10249000215080409040E1F700C0000083E5E4CF88
:1024A0008438A1F40E940D0482FDE2CF87E40E94EB
:1024B000B7070E94060D2FEF81EE94E02150804077
:1024C0009040E1F700C0000087E4CECF8CEF8C0F86
:1024D000813A08F0E7C080914C028130B9F188233D
:1024E00059F1823009F44DC010924C0280910F01D5
:1024F000882309F4C8C08091590287FFC4C0EC2F1B
:10250000E695E695E695F0E0E05AFE4F828190E090
:102510004C2F477021E030E002C0220F331F4A9554
:10252000E2F782239323892B09F4B8C08C2F0E94F1
:102530008C070E94060DB2C08091E7018232B1F68D
:102540008C2F0E94A811811193CFD0CF8091E701E9
:102550008232B1F3C43171F038F4CB3049F0C0317C
:1025600061F080E08170EFCFC93221F0C833C9F744
:1025700081E0F8CF10924C02F4CF82E080934C02BD
:10258000F7CFC93209F453C080F5C43109F44FC004
:10259000B0F4C73009F06CCF81E08093080184E18A
:1025A000809309018AE080930B018EE180930A01F8
:1025B00088E080930D0188E280930C0159CF82EE70
:1025C0008C0F8A3008F054CFCD51C0938301C330B3
:1025D00009F448C0C0F5C13009F441C089E091E078
:1025E000C230C1F11092830143CFC03509F443C01A
:1025F000C0F48AE0CF3409F03BCFE0918101F09143
:102600008201309709F434CF2081082E000C990BF9
:10261000820F911D8F3F910591F18CF18FEF808397
:1026200027CFC13551F181E0C23539F321CF8091F7
:102630008301882309F41CCF109283011092820138
:102640001092810115CFC53099F078F08CE091E0BF
:10265000C63041F6909382018093810109CF88E0D2
:1026600091E0F8CF8BE091E0F5CF8AE091E0F2CFF6
:102670008DE091E0EFCF86EFC0CF8FEFBECF97FF19
:10268000CECF1082F5CEE2E6F1E088E691E021912E
:10269000C21709F44BCF8E179F07C9F78C2F0E94E2
:1026A000B707E4CE80E28C0F883068F4C77021E071
:1026B00030E001C0220FCA95EAF78091E701822B32
:1026C0008093E701D3CEEBE5EC0FE33040F4F0E08C
:1026D000E05FFE4F808190E00E94E803C9CEE8E50C
:1026E000EC0FE93150F4F0E0EE0FFF1FED5EFE4F0E
:1026F000808191810E94C303BBCEC03F08F4B8CE55
:1027000061E08C2F0E946A08B3CE1F93CF93DF93B2
:10271000182FD0E0C0E0893311F4C0E5D0E0812F5C
:102720000E941B12209739F4812F0E94D30DDF9154
:10273000CF911F9108958FE99FE00197F1F700C0B5
:1027400000002197EFCF0F931F93CF93DF93C62FF6
:10275000D42F022FFC0182818823A9F060938B0281
:102760000E94B70390938A0280938902C77081E028
:1027700001C0880FCA95EAF70E94C90DDF91CF9179
:102780001F910F91089580918B02681332C0809140
:10279000890290918A020E94A803883C910548F51D
:1027A00010E21D0FCD17B9F080E28C0F883040F495
:1027B000C77081E001C0880FCA95EAF70E94C20D78
:1027C000183048F481E09D2F977001C0880F9A95CA
:1027D000EAF70E94C90D802F0E948513183070F609
:1027E000D77081E001C0880FDA95EAF70E94C20D28
:1027F000C5CFC77081E001C0880FCA95EAF7F6CF50
:102800000E94D70E2FEF84E39CE02150804090403F
:10281000E1F700C0000088E19CE00FB6F894A895AD
:10282000809360000FBE90936000FFCFA5E0B0E002
:10283000ECE1F4E10C94B8258C01FC0183819481D6
:10284000892B31F08081918189238F3F09F013C654
:102850002596E0E10C94D4250E941D0BF82E682FDC
:1028600089819A810E942B0869817A818F2D0E942B
:102870000F0B7C01F8018281882309F49CC5C701F4
:1028800082519F45409708F07FC58FEF93E00E94EB
:10289000FA25811125C0FEEEEF0E46EE842E912C16
:1028A000E11030C01C821B824424439474016FEFFA
:1028B000E61AF60AC4010E94FA2589831A8288233F
:1028C00079F09FEF980F933058F58A83498272E030
:1028D000870E911CC7010E94FA258B83811121C0AC
:1028E0008091C501877009F4B3CFF80182818823F4
:1028F00009F4AECF80915A0282FFAACF82E00E94F3
:10290000950DA6CF811424E0920651F3C4010E94D4
:10291000FA25811101C0EA943FEF831A930AC0CFD0
:102920004701CE0101967C01F7012081222309F4A1
:10293000BDCF213009F048C091818281913031F4BE
:10294000F2E0EF0EF11C0E94851307C0923049F4AB
:1029500022E0E20EF11C0E941B123FEFE31AF30A81
:10296000E3CF933031F432E0E30EF11C0E94D30D3B
:10297000F4CF943021F06FEFE61AF60AEECF72E052
:10298000E70EF11C50E040E0D7011196F701D1802D
:10299000682F6053770B9B016A30710550F04150EE
:1029A0005109D8F28FE99FE00197F1F700C00000CC
:1029B000F6CFCA016AE070E00E947025A901480FB5
:1029C000591F8D2D7D01E0CFE22FF0E0E454FE4F42
:1029D0005490822F86958695869590E0FC01E4556B
:1029E000FE4F64902770712C022E02C0759467947C
:1029F0000A94E2F7E1E06E227724FC01E456FE4FF0
:102A0000A490B12C022E02C0B594A7940A94E2F7C8
:102A1000F1E0AF22BB24FC01E457FE4FC490D12C5F
:102A200002C0D594C7942A95E2F721E0C222DD24A2
:102A30006114710419F081EE0E941B12A114B104FB
:102A400019F086EE0E941B12852D0E948513A11499
:102A5000B10419F086EE0E94D30D6114710419F0CF
:102A600081EE0E94D30DC114D10409F476CF8CE21B
:102A70006ACF81E00E94B10D03C081E00E94880D01
:102A80000E947C0D2DCF82E0F5CF82E0F7CF85E06C
:102A90000E94BD04809148020E94AA0A21CF80E0D2
:102AA000F7CF80914802982F987F79F088508093D3
:102AB0004802887F91E009F490E08091480290FB01
:102AC00080F9809348020E94AA0A80914802869564
:102AD000869586950E94920403CF80914802982F94
:102AE000969596959695953040F49F5F990F990F1E
:102AF000990F8770892B80934802809148028160EA
:102B0000E0CF8091480280FF07C08E7F809348020B
:102B10000E94AA0A80E0DECF80FDE2CE8160809331
:102B20004802813019F489E080934802809148027C
:102B3000CACF90914802892F8695869586958F5F9A
:102B40008F719770863048F4880F880F880F892B13
:102B50008093480280914802ACCF90934802FACF0C
:102B60008091480281FF03C00E94B00AB9CE0E9442
:102B7000C60AB6CE27E245EE65EE16C526E241EE60
:102B800060EE12C527E245EE64EE0EC526E241EE88
:102B900062EE0AC528E241E0EFCFE0EBEE16EDE58C
:102BA000FE0610F5FDEAEF16FDE5FF0608F028C564
:102BB00025EAE2162DE5F20609F422C586E1E816BB
:102BC0008CE5F80609F0ADC48091E7018A7A91E0BE
:102BD00009F490E090938001811150C189E20E9434
:102BE000B7070E94060D7CCE34EBE3163DE5F306F5
:102BF00029F706C577E0E7167CE5F70609F4D9C0A2
:102C000008F4D3C098E0E9169CE5F90609F4D5C0AC
:102C1000E9E0EE16ECE5FE0609F023C50E94D70EAA
:102C2000809159028068B2C0FEE0EF16FCE5FF0615
:102C300009F4D3C0B0F4809159028D7F3CE0E316D3
:102C40003CE5F30609F4A2C0809159028E7F6DE045
:102C5000E6166CE5F60608F499C0809159028B7F60
:102C600095C070E1E7167CE5F70609F4C6C008F4E4
:102C7000C0C091E1E9169CE5F90609F4C2C0E2E1A1
:102C8000EE16ECE5FE0609F0ECC40E94D70E80912A
:102C900059028F777BC0E114FDE5FF0609F4C5C03A
:102CA00090F53BEFE3163CE5F30609F47AC0A0F497
:102CB00075E1E7167CE5F70609F4ABC008F4BFC080
:102CC00080915A0281609AEFE9169CE5F90609F0B5
:102CD000C8C480935A02C5C4EDEFEE16ECE5FE06BB
:102CE00009F483C008F47DC02EEFE2162CE5F2064D
:102CF00009F46BC080915A028C7F3FEFE3163CE5EC
:102D0000F30639F3AEC465EAE6166DE5F60609F496
:102D1000A7C0A8F482E0E8168DE5F80609F49EC085
:102D200008F496C0E1E6EE16EDE5FE0609F099C45A
:102D300090915902892F8F7E94FF806127C0FEEA0F
:102D4000EF16FDE5FF0609F444C050F480915A02E5
:102D500088603DEAE3163DE5F30609F4BACF81C485
:102D60006FEAE6166DE5F60609F481C074EBE71626
:102D70007DE5F70609F075C490915902892F8F7B84
:102D800096FF806403C0809159028260809359024B
:102D900068C4809159028460F9CF8091590288609B
:102DA000F5CF80915A02826094CF80915902806160
:102DB000EDCF809159028062E9CF80915902806401
:102DC000E5CF809159028C60E1CF80915A028360F7
:102DD00080CF80915A02877F7CCF80915902877F74
:102DE000D5CF80915A028E7F74CF80915A028D7F09
:102DF00070CF809159028F7EC9CF809159028F7D0B
:102E0000C5CF809159028F7BC1CF80915902837FBA
:102E1000BDCF8091590282FB992790F921E092273A
:102E200090FB82F990FB83F9B1CF80915A02982FE1
:102E3000909591708E7F892B90FB81F94ACF0E94EB
:102E4000D70E90915902892F97FB87F980589ECF12
:102E500061E08EE090E00E940E2603C460E0F9CFAE
:102E600090915902892F8E7F90FF81608FCF909132
:102E70005A02892F877F93FF88602BCF85E3AFCEDF
:102E800080918001811104C089E20E948C07A9CE43
:102E900085E3FBCF81608093430261E086950E94C9
:102EA000C90C1ECD47EE5CE061EF7CE00E94D404CB
:102EB00017CD41EF5CE067EE7CE0F8CF41E95CE0E4
:102EC0006BE97CE0F3CF4DE55CE06AE67CE0EECFB9
:102ED00061E081E0E4CF0E94D70E9FEFE4E3FCE0E5
:102EE0009150E040F040E1F700C000000E94B509B9
:102EF00080915A0282FB882780F991E089270E94FD
:102F00008D0EF8018281E080F180882309F445C0AC
:102F1000C7010E941D0BD82E682FC7010E942B08E5
:102F2000B7018D2D0E940F0B0E94EC057C01882EAD
:102F3000F801D280B580B2943FE0B3228091C50100
:102F40008770C1F0AD2CDD20B1F08F2D807F8034F3
:102F500021F080E28E0D883068F080915A0282FF65
:102F600009C082E00E94950D8091C5018770AA2456
:102F7000A3948111A12C9F2C92942FE09222FBE02C
:102F8000F91508F479C0E92DF0E0E853F94D0C94F7
:102F9000A92581E0B4CF80E0B2CFC7010E94F50738
:102FA000D82EBECF2F2D2F70C22E8F2D807F19F0DF
:102FB000C29490EFC922DD20B9F0CC2069F080E204
:102FC0008E0D883010F0811009C08091E701C82A69
:102FD000C092E7010E94060D8E2D4CC08091E60143
:102FE000C82AC092E601F6CF8E2D0E94D30DCC20C8
:102FF00009F442C080E28E0D883010F0811004C0C8
:103000008C2D0E94850706C0C0948091E601C822DD
:10301000C092E6010E94060D2FC03F2D3F70C32EC7
:103020008F2D807F803219F0C29480EFC8228820D3
:1030300089F061E0861609F46FC0DD2009F479C0DB
:10304000BB2009F46FC0F801858180FFC5CF8F7068
:10305000858368C020915A0222FD37C0DD2079F1B6
:10306000CC2039F08091E701C82AC092E7010E9484
:10307000060D80E00E941B12692D6850770B6430AA
:10308000710520F40E940D040E944209AA2009F44F
:10309000DFCB8091C50180FDDBCBF80112828595E5
:1030A000859585950E94B10DC8010E9416148091E6
:1030B000C5018595859585950E94880DC9CB80E0D1
:1030C0000E94D30DCC20C1F29BCFDD2099F09091CE
:1030D000E8018C2D892BB11003C00E94C90DCCCF03
:1030E00071E0B712FACF22FFC7CF891729F2809378
:1030F000E801C2CFB11006C00E947F078C2D0E944C
:10310000C20DBACF81E0B81609F4B6CF8C2D0E945B
:10311000C20D0E947F07B0CFDD2031F095E09B15F6
:1031200008F4AACF8C2DD9CFE4E0EB1508F4A4CF96
:10313000E5CFBB2019F3F9E38F1209C02FEF37EE6B
:1031400063E0215030406040E1F700C000008E2D68
:103150000E94D30D91CF8F2D86958695837061F057
:10316000813009F089CFC7019370D11002C080E08F
:1031700090E00E94C30380CFC7019370D11002C0BA
:1031800080E090E00E94E80377CF6D2D8E2D0E94A5
:103190006A0872CF8F2D837091F5D1106DCF4E2DAF
:1031A000429546954770440F440F8E2D8F70042E24
:1031B00001C0880F0A94EAF72E2D2071E4FE07C0A3
:1031C0002FE030E001C0220F4A95EAF720953F2D0D
:1031D000369536953370323069F050F44091E901FC
:1031E000313029F0822B84230E94BD0D45CF842BE2
:1031F000822BFACF282B8091E9018227F5CF869583
:10320000DD2011F08F2D8170882309F435CF4E2DEC
:10321000429546954770440F440F8E2D8F70042EB3
:1032200001C0880F0A94EAF72E2D2071E4FE07C032
:103230002FE030E001C0220F4A95EAF720953F2D9C
:10324000369536953370323069F050F440918C02E7
:10325000313029F0822B84230E94770D0DCF842BEF
:10326000822BFACF282B80918C028227F5CF7F2DDD
:103270007F70F72EDD2029F0872F0E94B10D8E2D53
:103280002CCF8E2D0E94C20D8F2D0E94880DF4CE62
:103290008E2D92EF8916B1F1981570F0E0EF8E1631
:1032A000D1F0F1EF8F1691F0DD2009F45DC0B1107F
:1032B00093CE8F2D8F712AC023EF821651F134EFF8
:1032C0008312F2CF80915A0282FD2FC08F2D8F7111
:1032D000DD20D9F21BC0DD2081F064E06B1508F41D
:1032E000CBCE2F2D2F7181E090E001C0880F2A9561
:1032F000EAF790918C028927AFCF75E07B1508F42F
:10330000BBCEEFCF8F2D8F71D110BFCF0E94B10DEB
:10331000B3CE80E0DD2009F49FCF9F2D9F7181E027
:1033200001C0880F9A95EAF797CFDD2091F08F2D95
:103330008F71F82E0E94B10D80915A0282FF07C052
:103340008F2D880F880F880F83608093C5018F2D84
:10335000DDCF81E00E94950D91E09B1508F08CCEA9
:1033600082E00E94950D88CEBB2059F0893309F088
:10337000EECEEFEFF7EE23E0E150F0402040E1F732
:10338000E4CE8F2D8F7181CFF0E1EF16FFE5FF06C0
:1033900009F46FCB21E1E2162FE5F20609F473CBB5
:1033A000F701EB5BFC45E730F10508F0E2C0EC52B9
:1033B000F94D0C94A92530E1E3163FE5F30609F435
:1033C0005CCB61E1E6166FE5F60609F45ECB23EF10
:1033D000E2162CE5F20609F4D1CB08F04DC168EDF8
:1033E000E6166CE5F60609F4C5CB79EDE7167CE543
:1033F000F70609F4CFCB87EDE8168CE5F80609F45B
:10340000D0C0F6E1EF16FCE5FF0609F439CD809156
:10341000E701827229ECE2162CE5F20609F453CD9D
:1034200008F053C065ECE6166CE5F60609F446CDE7
:1034300098F593ECE9169CE5F90609F433CD08F00C
:1034400038CDF2ECEF16FCE5FF0609F05ACD80917D
:10345000430280FF1FCD8E7F809343026091430221
:103460007091440280914502909146020E949C0B0B
:103470000E94D90935CA85E0DE01119601900D92AE
:103480008A95E1F7F801228189819A812111E4C9A5
:103490000E94F507F82EE8C947E75CE064E87CE0A5
:1034A00027ECE2162CE5F20609F400CD4BE95CE0CE
:1034B00061E97CE038ECE3163CE5F30608F4F6CC71
:1034C00044E85CE067E77CE0F1CC6DECE6166CE587
:1034D000F60609F4FDCCC8F445EA5CE067EB7CE055
:1034E0009BECE9169CE5F90609F4E0CC4AE65CE0C1
:1034F0006DE57CE0ECECEE16ECE5FE0608F4D6CCCF
:1035000047EB5CE065EA7CE0D1CCF6EDEF16FCE53C
:10351000FF0608F4E5C92DE5E216F20609F4E0C954
:10352000F0CC3AE5E3163DE5F30609F432CD98F424
:10353000E1147CE5F70609F4CECC8EEDE8168CE5B7
:10354000F80609F0DECC6FEF7FEF90E080E00E949C
:103550002C260E9400149CE5E9169DE5F90609F465
:10356000C7CC08F418CDF7EAEF16FDE5FF0689F39E
:10357000C8CC23EFE2162CE5F20609F4FFCAC0F42A
:1035800068EDE6166CE5F60609F4F4CA79EDE7167F
:103590007CE5F70609F4FECA87EDE8168CE5F80627
:1035A000A9F426E241EE61EEC8010E94A31398C976
:1035B00095EFE9169CE5F90609F4E8CA08F4E2CAB1
:1035C000F6EFEF16FCE5FF0609F464C010928B02DB
:1035D00061E6E6166DE5F60699F008F0DECA82E0CF
:1035E000E8168CE5F80608F4E9CA96E1E9169CE5C8
:1035F000F90630F0C7018A5F9C45099708F0DECADA
:1036000084E090E00E94082690935A028093590229
:1036100063E1E6166CE5F60609F4F7CB08F03BCB60
:103620008AE0E8168CE5F80609F4CBCB08F0FCCA72
:10363000E5E0EE16ECE5FE0609F4AFCB08F0DACAD9
:1036400023E0E2162CE5F20609F49DCB08F0A1CBAD
:1036500080915902816062E0E6166CE5F60609F495
:1036600095CB6091590270915A0284E090E00E94DB
:103670002C260E94D70E34C995EFE9169CE5F90671
:1036800009F484CA08F47ECAF6EFEF16FCE5FF06DB
:1036900009F0B7CE27E245EE66EE86CF1F93CF93B3
:1036A000DF9380919201807F09F04EC080918F015D
:1036B000882309F449C02091C401109193014091DD
:1036C0008D01A0918E01C0919001D0919101B42FF4
:1036D000BA231217C9F130E0209711F0BF3F21F44F
:1036E0002F5F3F4F2770F5CFC90166E070E00E9461
:1036F0007025FC01EC56FE4F81818A13F1CF808149
:103700008413EECF82818111EBCF838194818C1B56
:103710009D0B883C910520F7809192018F7080610C
:1037200080939201C90166E070E00E947025FC015F
:10373000E756FE4F90819F70906190838DE891E0F5
:103740000E9416140E94EB07DF91CF911F910895FC
:10375000A1E1B0E0EEEAFBE10C94BE258C0185E02E
:10376000F801DE011D9601900D928A95E1F7D801CE
:103770001296EC9012978DE8A82E81E0B82E6091F9
:103780009001709191016115710509F42CC190911E
:103790008D0120918E01892F82238F3F09F423C14F
:1037A0004C911196EC9111971396CD90DC90F0907E
:1037B0008F01D601A61BB70BFF2009F4DFC0809153
:1037C0009201382F307FA83CB10508F0A2C031111A
:1037D0006EC0FE2C2E1314C0941312C0E11010C042
:1037E0008F70806180939201C5010E9416148091B0
:1037F0009201F80185838F2D6196EAE00C94DA2519
:10380000C114D10429F0842F8E238F3F09F006C103
:1038100080E0F82FF170DF2E2091C401F091930128
:1038200080FD21C0EE2039F3809192018160809368
:103830009201F12CE0CF30E0C90166E070E00E9417
:103840007025DC01AC56BE4F11968C911197E81390
:1038500007C08C91481304C012968C91E812E2CFF5
:103860002F5F3F4F27702F13E6CF4D87EE878D8553
:103870009E850E944C0B292F22952F70223058F0E4
:10388000243080F49F7059F0D80115969C91907F58
:1038900031F4D12C0AC09F7011F08823D1F3805EDF
:1038A0008830B8F3C8010E941614FD2CA4CF2E1343
:1038B00006C0941304C0F801EE2009F479C0C801D1
:1038C0000E94590B882309F1EE20F9F080919201B2
:1038D000803270F020918D0130918E0138872F83D6
:1038E0001986DB86CA868C87CE0107960E9416143D
:1038F00086E0F801ADE8B1E001900D928A95E1F71C
:103900000E944E1BFF24F39476CFC8010E94161428
:10391000F9CF31110AC08DE891E00E94161486E0BB
:10392000D5011D928A95E9F784CF2E130FC0941309
:103930000DC0E1100BC0F8018583C8010E94161468
:1039400086E0D5011D928A95E9F755CFC8010E94FE
:10395000590B8823D1F2EE20C1F28091920180327E
:1039600038F220918D0130918E013A8329831B8298
:10397000DD82CC828E83CE010196B8CFA83CB10502
:10398000F8F6FE2CEE2009F22E131FC094131DC072
:103990008091920180FD10C0982F907F69F0F8010E
:1039A0008583903F31F0982F907F905F8F70892BA7
:1039B0008583C8010E94161486E0F801ADE8B1E0E5
:1039C00001900D928A95E1F716CFC8010E94590B1C
:1039D00081118ECF80919201816080939201C80104
:1039E0000E94161408CFEE2009F48FCFC8010E9460
:1039F000590BF82E882309F488CF86E0F801ADE84A
:103A0000B1E001900D928A95E1F780918D0190913E
:103A10008E010E944C0B0E944E1BEDCE81E08E2544
:103A2000F8CEA7E1B0E0E7E1FDE10C94C6254B8BB1
:103A30005C8B6D8B7E8B8F8B61111092E6011A8AE5
:103A4000198A85E0FE017396DE011D9601900D92A4
:103A50008A95E1F786E0FE013D96DE01179601901A
:103A60000D928A95E1F7CE0107960E94A81B81115D
:103A700012C086E0FE013796DE01119601900D928C
:103A80008A95E1F78A859B85892B29F08F81988516
:103A900089238F3F89F58091C40190919301891307
:103AA00017C06796E2E00C94E22566E070E00E94A1
:103AB0007025DC01AC56BE4F96E0FE0131960190B8
:103AC0000D929A95E1F7209393010E94EB07E3CFC3
:103AD00090E066E070E00E9470258C569E4F0E9438
:103AE000A81B8823F1F28091C40190E001968770B1
:103AF00099278093C401CFCF8091930190E09C01DE
:103B00002F5F3F4F277033274091C40142171306A0
:103B100061F60E94D70E109293011092C40186E0C4
:103B2000EDE8F1E0DF011D928A95E9F7B4CFA6E058
:103B3000B0E0EDE9FDE10C94BD258E010F5F1F4F54
:103B400086E0F80111928A95E9F785E4C82E81E0B4
:103B5000D82EF12CE12CAA24A394B12CF60181914A
:103B60006F018F3F09F443C0F894E82FE295EF709E
:103B7000F0E021A18F70A50102C0440F551F8A9566
:103B8000E2F7CA01922F982B91A392A180958923E5
:103B900082A3789400C0EBE4F1E0912C31E0219114
:103BA0002F3F09F465C0A22FA295AF70B0E09096A8
:103BB0008C9190E02F7002C0959587952A95E2F739
:103BC00080FD56C0832F982A330F51E0EF34F5075C
:103BD00031F7F601319780818F3F11F00E949205F5
:103BE00080EA8A95F1F7F801EE0DFF1D9082EFEF64
:103BF000EE1AFE0AF6E0EF16F10409F0AFCF46E048
:103C000050E0B8018EEE91E00E94ED25892B91F1F4
:103C100086E0F801AEEEB1E001900D928A95E1F7F1
:103C200081E08093EC010E94B7039093EB018093B5
:103C3000EA018091EA019091EB010E94A8030597A7
:103C4000E8F046E050E06EEE71E080E092E00E9425
:103C5000ED25892BC1F086E0EEEEF1E0A0E0B2E0C8
:103C600001900D928A95E1F781E01092EC0107C076
:103C700080E0A9CF8091EC018111DBCF80E0269616
:103C8000EBE00C94D92580E0F0CF1F920F920FB695
:103C90000F9211242F933F934F935F936F937F93D2
:103CA0008F939F93AF93BF93CF93DF93EF93FF9344
:103CB000D091E900DF708091EC00C82FC17080FDC9
:103CC000C0E81092E9008091F000877F8093F000B7
:103CD00078940E94ED0E1092E9008091F0008860C7
:103CE0008093F000CD2BCF70C093E900FF91EF914E
:103CF000DF91CF91BF91AF919F918F917F916F9104
:103D00005F914F913F912F910F900FBE0F901F9099
:103D100018951F920F920FB60F9211242F933F9375
:103D20004F935F936F937F938F939F93AF93BF93C3
:103D3000EF93FF938091E10082FF09C08091E20040
:103D400082FF05C08091E1008B7F8093E10080912C
:103D5000E10080FF17C08091E20080FF13C08091D6
:103D6000E2008E7F8093E2008091E2008061809388
:103D7000E2008091D80080628093D80019BC85E071
:103D800080937F028091E10084FF2BC08091E2004C
:103D900084FF27C084E089BD86E089BD89B5982F5E
:103DA000917080FFFBCF8091D8008F7D8093D800E9
:103DB0008091E1008F7E8093E1008091E2008F7E10
:103DC0008093E2008091E20081608093E200809124
:103DD0008002882309F441C084E080937F028091AF
:103DE0007F028091E10083FF27C08091E20083FF82
:103DF00023C08091E100877F8093E10082E080937F
:103E00007F02109280028091E1008E7F8093E1001A
:103E10008091E2008E7F8093E2008091E2008061D9
:103E20008093E20042E060E080E00E94170380910E
:103E3000F00088608093F000FF91EF91BF91AF9107
:103E40009F918F917F916F915F914F913F912F91B2
:103E50000F900FBE0F901F9018958091E30087FD83
:103E600093E090937F02BBCF78941F921FB61F926E
:103E700011248F939F93AF93BF938091550290919C
:103E80005602A0915702B09158020196A11DB11D92
:103E90008093550290935602A0935702B093580214
:103EA000BF91AF919F918F911F901FBE1F9018954A
:103EB0001F921FB61F9211248F939F93AF93BF93AE
:103EC00080915402811113C0809155029091560245
:103ED000A0915702B09158024196A11DB11D809347
:103EE000550290935602A0935702B0935802BF9187
:103EF000AF919F918F911F901FBE1F9018951F9299
:103F00000F920FB60F9211242F933F934F935F930D
:103F10006F937F938F939F93AF93BF93EF93FF9391
:103F200080910E018230A1F08F5F80930E01FF918E
:103F3000EF91BF91AF919F918F917F916F915F9121
:103F40004F913F912F910F900FBE0F901F9018959A
:103F500081E080930E0180914A0290914B0201967C
:103F600060ED72E00E94812590934B0280934A029B
:103F700065E070E00E94812567FD6FE7809149024E
:103F8000823041F4603451F480916F008E7F8093D1
:103F90006F0004C0813011F46F37B1F3E62FF0E009
:103FA000E45CFC4F6491209186003091870070E0C2
:103FB00090E080E050E040E00E9442262FEF30E0A9
:103FC00040E050E00E945B26C90165E070E00E947D
:103FD0008125CB0120914802269526952695622FB2
:103FE00070E00E9470250E941A0490938D008093C7
:103FF0008C009DCFCDB7DEB7AA970FB6F894DEBF81
:104000000FBECDBF84B7877F84BF0FB6F894A89545
:1040100080916000886180936000109260000FBE04
:1040200080E890E00FB6F89480936100909361006F
:104030000FBE80E995E090935F0180935E0110923E
:10404000E2001092E1008091E00081608093E00046
:104050008091D8008F778093D80019BC809163003D
:104060008160809363001092ED01809163008E7FE8
:104070008093630081E08093ED011092E200109242
:10408000E1008091D8008F778093D8008091D8008C
:1040900080688093D8008091D8008F7D8093D8006D
:1040A00084E089BD86E089BD89B5282F2170B22EB4
:1040B00080FFFACF10927F021092800210927E024F
:1040C00010927D0242E060E080E00E941703809140
:1040D000E1008E7F8093E1008091E2008160809317
:1040E000E2008091E20088608093E2008091E0002D
:1040F0008E7F8093E0008091E20084608093E200F4
:10410000789480917F028823A1F01091E9001F70BC
:104110009091EC00892F817090FD80E8182B10920F
:10412000E9008091E80083FD0E94ED0E1F7010935E
:10413000E90082E084BD93E095BD9AEF97BD80933E
:104140006E000E94830B811102C00E949A0A05E44E
:1041500011E05BE4E52E51E0F52ED8018D918D0143
:104160008F3F11F00E949205E016F106B1F784E648
:104170000E94920585E60E94920583E30E949205C3
:1041800082E30E94920586E0E0E0F2E0DF01282F62
:104190001D922A95E9F7EEEEF1E0DF011D928A9576
:1041A000E9F70E94A40E811102C00E942B0E82E04A
:1041B00090E00E94FA2580934D0284E090E00E94F6
:1041C000082690935A02809359020E94971DEFE3AC
:1041D000FCE93197F1F700C000000E94971D809123
:1041E000000280FF08C06FEF7FEF90E080E00E9448
:1041F0002C260E94B50983E090E00E94FA250E94D7
:10420000BD0D249A2C9A279A2F988AE080938000DB
:1042100089E1809381008FEF9FEF909387008093D7
:1042200086000E94B00E8091480281FF0BC0109260
:104230004B0210924A021092490280916F008160F5
:1042400080936F000E94B00E8091F401811131C003
:104250000E94A40E811104C00E942B0E0E94F60C35
:1042600088E090E00E94022660934302709344022B
:1042700080934502909346026E7F71F40E94F60C83
:1042800088E090E00E94022660934302709344020B
:1042900080934502909346020E94DA048091430283
:1042A00080FF04C060E086950E94C90C81E0809385
:1042B000F40180E091E0909351028093500228E154
:1042C000E22EF12C80E092E036E0A32EA80E4FEF14
:1042D000C42E41E0D42E80917F02853011F590E408
:1042E000992E8824839404E016E080917F02853023
:1042F00009F464C00E94D70E0E94B00E0E940D0403
:104300000E9442091092F6018091F501882349F03C
:104310008091430281608093430260E086950E9411
:10432000C90C0E94971D09EF11E080E0882E82E001
:10433000982ED401F80191918D91CE16DF0609F4E3
:1043400089C09817C1F3712CD4016D904D01F8010B
:1043500031908F01361411F13624512C4B2C832DC2
:104360008421A1F05EA27FA291E0862D842109F430
:1043700090E098A70E94B7038160782F9AA789A739
:104380004EA15FA168A58AA50E94111D5394440CFB
:10439000F4E05F12E4CFF80131976082739426E075
:1043A0007212D2CF8FB7F8944091550250915602B5
:1043B00060915702709158028FBF6CC080917F024C
:1043C000843009F438C080E00E94920480E00E94AA
:1043D00042098091F60181110DC08092F601809111
:1043E0004302982F91709093F5018E7F8093430242
:1043F0000E94D909109254020FB6F894A895E09241
:1044000060000FBE9092600083B7817F846083BF9D
:1044100083B7816083BF7894889583B78E7F83BF8D
:104420000FB6F894A8958091600088618093600031
:10443000109260000FBE80917E02882309F455CF50
:104440000E94971DE0E0F2E0819181111CC3AE1241
:10445000FBCF4BCF981377CF0E94B7038C0180918D
:10446000F7019091F80108171907A1F08FEF89A3C0
:104470008AA31BA20E94B7038160782F9DA38CA3FF
:1044800049A15AA16BA18DA10E94111D1093F801A1
:104490000093F70186E0EDE0F2E0DE011196019075
:1044A0000D928A95E1F710920F021092100210926D
:1044B0001102109212028B819C81892B91F08091C4
:1044C0000B0290910C020E94A803FC0120910602AD
:1044D000222309F4BAC0809109018E171F0608F43F
:1044E000C3C08D819E81892B09F44FC08091090240
:1044F00090910A020E94A8039C01909107029923BF
:1045000009F4E0C22135310508F43FC09F3F19F09E
:104510009F5F909307021D81112351F00E941005A7
:104520006FEF11160CF46B2D0E946725809311021A
:104530001E81112351F00E9410056FEF11160CF42B
:104540006B2D0E94672580931202809111028823AF
:10455000E1F0209112022223C1F0082E000C990BE9
:1045600065EB70E00E947025992309F4C2C0909316
:104570001102822F220F990B65EB70E00E947025CB
:10458000992309F4BAC09093120246E050E0BE01AC
:104590006F5F7F4F8DE092E00E94ED25892B61F4E3
:1045A00080910F0290911002892B90911102892B1A
:1045B00090911202892B11F00E94E90486E0FE011D
:1045C0003196ADE0B2E001900D928A95E1F70E943C
:1045D0000D049091FF01891779F08093FF019FB737
:1045E000F894409155025091560260915702709193
:1045F00058029FBF0E94420980917F02843009F0D7
:104600006ACE83E08093E9008091E80082FF63CE68
:104610008091E80090E085FF06C00E94C7028823D1
:1046200009F46FC091E08091E8008B778093E800F7
:10463000992309F450CEE981E150E33108F0C4C078
:10464000F0E0E552F94D0C94A9258091080190E025
:104650006AE070E00E9470258E179F0708F041CF36
:104660002F5F2093060202C02F3FD1F71B81112339
:1046700051F00E944B056FEF11160CF46B2D0E9448
:10468000672580930F021C81112351F00E944B0576
:104690006FEF11160CF46B2D0E94672580931002AA
:1046A00080910F02882309F41CCF2091100222234D
:1046B00009F417CF082E000C990B65EB70E00E94EF
:1046C0007025992371F090930F02822F220F990B7E
:1046D00065EB70E00E947025992339F090931002E9
:1046E00000CF81E080930F02F0CF81E08093100231
:1046F000F8CE81E0809311023CCF81E080931202DA
:1047000044CF00E210E0CE0101964C018091E80018
:1047100085FD0AC08091E8008B778093E8000E94B5
:10472000C702882399F37ECF8091F100D4018D9345
:104730004D010150110951F775CF1A828AE08B8320
:104740002CC08A81823009F4B4C18330A1F0813059
:10475000D9F52FB7F8946091550270915602809167
:104760005702909158022FBF0E94AF256B837C8324
:104770008D839E8312C0809100028B838091010201
:104780008C83809102028D83809103028E838091BD
:1047900004028F8380910502888740E250E0BE01C9
:1047A0006F5F7F4F82E00E94480995CD8A818230F9
:1047B00059F46B817C818D819E810E94AF2585E2B9
:1047C00090E00E940E26E9CF8FEF8983E6CF4C81DF
:1047D0006B818A810E94DB0A9827892798279E830C
:1047E0008D83DBCF2D813E813227232732274C81D9
:1047F0006B818A810E941E0AD0CF0E94490ACDCFC8
:104800008A818930D9F08A3039F18A818138C1F1C1
:1048100060F5803811F68B8190E06FEF70E00E94B8
:1048200070256FEF70E00E948125462F20E0609197
:104830004502809144020E94AF0BAFCF8B8190E084
:1048400065E070E00E9470256FEF70E00E948125A6
:10485000862F0E94BD04D9CF8B81811103C00E9495
:10486000B00AD3CF0E94C60AD0CF823801F1833874
:1048700009F093CF20E0409146026C818B81DBCF21
:1048800060E08B810E94C90C9B8180914302911151
:1048900006C08E7F809343020E94D9097ECF81603B
:1048A0008093430260E086950E94C90C76CF8B818D
:1048B0008093470272CF8A81893091F08A3001F16A
:1048C000813879F110F5803809F067CF8091460280
:1048D00090E06FEF70E00E9470256FEF70E00CC009
:1048E0008091480286958695869590E06FEF70E0FE
:1048F0000E94702565E070E00E9481256B834DCF9A
:1049000080914802869581701ACF823891F0833861
:1049100009F043CF809144028B83809145028C83C0
:104920003CCF8091430280FF02C0869508CF80E093
:1049300006CF8091470203CF809148020E94AA0AC5
:104940006091430270914402809145029091460229
:104950000E949C0B22CF80E18A831FCF83E08A8351
:104960008AE1EDCE0A811B81102701271027FE0165
:1049700031963F018C80CF01880D911D4C01C801FB
:104980008A519F4F8614970409F407CF0A31A3E098
:104990001A0750F40E94FA25F30184830F5F1F4F1A
:1049A000BFEF6B1A7B0AEBCFD30114961C92F6CFA4
:1049B0000A811B81102701271027FE0131963F0134
:1049C0008C80800E912E911CC8018A519F4F8016B9
:1049D000910609F4E2CE0A31F3E01F0728F4D3016F
:1049E00014966C910E940E26BFEF6B1A7B0A0F5F24
:1049F0001F4FEACF0E940E0AD0CE84E0ADCF0A81CD
:104A00001B81102701271027FE0131963F018C8062
:104A1000CF01880D911D4C01C8018696861497041C
:104A200009F4BBCE003C110558F40E94FA25D301CD
:104A300014968C930F5F1F4FFFEF6F1A7F0AECCF16
:104A4000F3011482F7CF0A811B8110270127102759
:104A5000CE0101963C018C80800E912E911CC801E4
:104A600086960815190509F498CE003C110528F41E
:104A7000D30114966C910E940E26BFEF6B1A7B0A2D
:104A80000F5F1F4FECCF09BD19BD09B400FEFDCF6C
:104A90008091D8008F7D8093D8008091E000826063
:104AA0008093E0008091E00081FDFCCF0E94D70E52
:104AB0001CCC85E290E00E94FA251B821C821D829C
:104AC0008E836BCE2B30310508F022CD5ECD0024D5
:104AD00080FD060E660F11F08695D1F7802D0895A2
:104AE0000024552704C0080E591F880F991F0097EE
:104AF00029F076956795B8F37105B9F7802D952F54
:104B00000895AA1BBB1B51E107C0AA1FBB1FA61714
:104B1000B70710F0A61BB70B881F991F5A95A9F766
:104B200080959095BC01CD01089597FB072E16F452
:104B3000009407D077FD09D00E94812507FC05D09D
:104B40003EF4909581959F4F0895709561957F4FA4
:104B50000895EE0FFF1F0590F491E02D0994692749
:104B60009627692778278727782708952F923F92DD
:104B70004F925F926F927F928F929F92AF92BF926D
:104B8000CF92DF92EF92FF920F931F93CF93DF9319
:104B9000CDB7DEB7CA1BDB0B0FB6F894DEBF0FBE76
:104BA000CDBF09942A88398848885F846E847D84C3
:104BB0008C849B84AA84B984C884DF80EE80FD80C5
:104BC0000C811B81AA81B981CE0FD11D0FB6F8943B
:104BD000DEBF0FBECDBFED010895FB01DC0104C0B7
:104BE0008D910190801921F441505040C8F7881BE5
:104BF000990B0895F999FECF92BD81BDF89A992736
:104C000080B50895A6E1B0E044E050E00C9434266D
:104C1000A8E1B0E042E050E00C943426262FF99948
:104C2000FECF92BD81BDF89A019700B4021639F00B
:104C30001FBA20BD0FB6F894FA9AF99A0FBE0895DC
:104C40000396272F0E940F260E940E26252F0E94D2
:104C50000F26242F0C940F260196272F0E940F2633
:104C60000C940E26DC01CB01FC01F999FECF06C0A5
:104C7000F2BDE1BDF89A319600B40D92415050401A
:104C8000B8F70895EE27FF27AA27BB2708C0A20F71
:104C9000B31FE41FF51F220F331F441F551F9695A6
:104CA00087957795679598F37040A9F7009799F7DE
:104CB000BD01CF010895A1E21A2EAA1BBB1BFD0165
:104CC0000DC0AA1FBB1FEE1FFF1FA217B307E407EB
:104CD000F50720F0A21BB30BE40BF50B661F771F43
:104CE000881F991F1A9469F7609570958095909523
:104CF0009B01AC01BD01CF010895F894FFCFCC0F0B
:104D0000F40F9611F40F96112710481096114511C3
:104D10005211BF11B611CC11B41119121912B411DC
:104D200019121912E8111912F311FE1119121912A0
:104D300019121912B41119121912B4111912DA1127
:104D40001912191217121712171217121712171217
:104D500017121712171209121912BF11B2111912D4
:104D600019121912191219121912191219121912EB
:104D70001912091219121912B41119120F120F1265
:104D80000F120F120F120F120F120F120F12091221
:104D9000D217D2170D180D18AB18C5183C183C18AF
:104DA000CA1837194819481947154F1551156D1567
:104DB00081159915B0159D23A123D623E723F2234E
:104DC000FD2300245B249C24E423E423AB24AE24B1
:0C4DD000B224D824FA24FD24FF2423255B
:104DDC00A50391098A09830901141E0A28080101F7
:104DEC00818283E200E900EA00B500B600B700CD8D
:104DFC00008301CC008A0192019401210223022438
:104E0C00022502260227022A02B300B4006F0070AA
:104E1C00009F01CB019391926667366465333240F3
:0E4E2C0022B64C012A0174008E04A704C704AC
:00000001FF
