:100000000C9418030C945F030C945F030C945F032F
:100010000C945F030C945F030C945F030C945F03D8
:100020000C945F030C945F030C945F030C942022E8
:100030000C94DC210C94ED220C945F030C945F0370
:100040000C945F030C945F030C9414230C94C9224A
:100050000C945F030C945F030C945F030C945F0398
:100060000C945F030C945F030C945F030C945F0388
:100070000C945F0305010902A10185020901A10099
:100080000509190129081500250195087501810246
:100090000501093009311581257F95027508810612
:1000A00009381581257F950175088106050C0A38E8
:1000B000021581257F950175088106C0C0050109DB
:1000C00080A101850319012AB700150126B7009503
:1000D0000175108100C0050C0901A10185041901F9
:1000E0002AA002150126A002950175108100C00505
:1000F000010906A1018505050719E029E715002575
:10010000019508750181020507190029EF150025E1
:100110000195F075018102050819012905950575FC
:10012000019102950175039101C00660FF0961A16B
:10013000010962150026FF009520750881020963F8
:10014000150026FF00952075089102C005010906DB
:10015000A101050719E029E715002501950875019A
:1001600081029501750881010507190029FF150015
:1001700026FF0095067508810005081901290595D7
:100180000575019102950175039101C00000000001
:10019000000000000000000000000000000000005F
:1001A000000000000000000000000000000000004F
:1001B0007E0F00D4FFFFFFC70000007800000000A2
:1001C000000000002A2B28000000000000000000B2
:1001D0000000000000000029000000002C1E342058
:1001E000212224342627252E362D3738271E1F207E
:1001F0002122232425263333362E37381F040506C3
:100200000708090A0B0C0D0E0F1011121314151606
:100210001718191A1B1C1D2F3130232D3504050604
:100220000708090A0B0C0D0E0F10111213141516E6
:100230001718191A1B1C1D2F3130354C00047F3F35
:100240001F643214643214783C1E1E140A05000127
:100250000101010101010101020202020202020286
:100260000203030303030303030404040404040458
:10027000050505050506060606060707070707081C
:10028000080808090909090A0A0A0B0B0B0C0C0CCF
:100290000D0D0D0E0E0E0F0F0F1010111111121269
:1002A00013131414151516161717181819191A1AE6
:1002B0001B1B1C1D1D1E1E1F202021222223242447
:1002C000252626272829292A2B2C2D2D2E2F303183
:1002D0003232333435363738393A3B3C3D3E3F4095
:1002E0004142434445464748494A4C4D4E4F505180
:1002F0005354555658595A5B5D5E5F61626465663A
:1003000068696B6C6D6F7072737577787A7B7D7EC0
:100310008082838587888A8C8E8F91939596989A10
:100320009C9EA0A2A3A5A7A9ABADAFB1B3B5B7BA28
:10033000BCBEC0C2C4C6C9CBCDCFD1D4D6D8DBDDFC
:10034000DFE2E4E7E9EBEEF0F3F5F8FAFDFFFFAAF0
:100350007F55402223252628292A2C2D2F30323361
:100360003536383A3B3D3E4042434547494A4C4E7C
:100370005051535557595A5C5E6062646668696BA8
:100380006D6F71737577797B7D7F81838587898AAE
:100390008C8E90929496989A9C9E9FA1A3A5A7A8B4
:1003A000AAACAEAFB1B3B4B6B8B9BBBCBEBFC1C2E4
:1003B000C3C5C6C7C9CACBCCCDCED0D1D2D2D3D477
:1003C000D5D6D7D7D8D9D9DADADBDBDBDCDCDCDC95
:1003D000DCDDDDDDDDDCDCDCDCDCDBDBDBDADAD963
:1003E000D9D8D7D7D6D5D4D3D2D2D1D0CECDCCCBE5
:1003F000CAC9C7C6C5C3C2C1BFBEBCBBB9B8B6B403
:10040000B3B1AFAEACAAA8A7A5A3A19F9E9C9A9892
:10041000969492908E8C8A89878583817F7D7B7963
:10042000777573716F6D6B6968666462605E5C5A44
:100430005957555351504E4C4A4947454342403E07
:100440003D3B3A3836353332302F2D2C2A29282699
:100450002523220000000000000000000000010130
:100460000203040506080A0C0F1114181C20242985
:100470002E33393F464C535B626A7179818A929A76
:10048000A2AAB2B9C1C8CFD5DCE1E7EBF0F4F7FA24
:10049000FCFDFEFFFEFDFCFAF7F4F0EBE7E1DCD536
:1004A000CFC8C1B9B2AAA29A928A8179716A625BF5
:1004B000534C463F39332E2924201C1814110F0C9D
:1004C0000A08060504030201010000000000000004
:1004D0000000002900B20001582A005300540055C2
:1004E0000056005F006000610057005C005D005E28
:1004F00000570059005A005B005800620062006318
:1005000000580001000253035310504300440045BB
:100510000046004000410042002B003D003E003FED
:10052000002B003A003B003C0058007C007C007D22
:1005300000580001001150035310507100720073F5
:1005400000E7006E006F00700069006B006C006DCA
:10055000006900680069006A006800A800A800A897
:10056000006800005C1150125010500100010001A1
:10057000000100FA00F000F9000100F200F400F3BD
:10058000000100FB00F100FC00100301000100016C
:1005900000100309025B00030100A0FA0904000037
:1005A000010301010009211101000122400007059A
:1005B000810308000A090401000203000000092168
:1005C0001101000122220007058203200001070516
:1005D00003032000010904020001030000000921B7
:1005E0001101000122B6000705840320000A120150
:1005F00000020000000803A1060001000102000142
:1006000018034B00420044005000410044002D00FC
:100610004D004B0049004900000010034B00420010
:100620004400660061006E007300000004030904CA
:1006300011241FBECFEFD4E0DEBFCDBF04B603FE52
:1006400027C08091AA029091AB02A091AC02B09118
:10065000AD028730904BA740B04BD1F41092AA0264
:100660001092AB021092AC021092AD0214BE84B78D
:10067000877F84BF0FB6F894A89580916000886149
:1006800080936000109260000FBEE0E0F8E30995EF
:1006900022E0AEE8B1E001C01D92AA3AB207E1F74C
:1006A00011E0A0E0B1E0E4EEF5E502C005900D92A6
:1006B000AE38B107D9F70E9476230C94732A0C94B4
:1006C00000002091E4003091E50095E6A901209119
:1006D000EC00822F817020FF06C08091E80080FF2F
:1006E00006C080E008952091E80022FD1AC08091A4
:1006F0009C02882389F0853089F08091EB0085FD8C
:100700000FC02091E4003091E50042175307F9F241
:100710009150E1F684E0089582E0089583E0089521
:1007200081E00895EF92FF920F931F93CF937C0186
:100730008B010E946103C82F811117C08091E800CE
:1007400085FD0BC08091E8008E778093E8000E94C1
:100750006103882399F3C82F08C0F70181917F01B5
:100760008093F1000150110949F78C2FCF911F910F
:100770000F91FF90EF90089580919E0287FF13C024
:100780008091E80082FF06C08091E8008B7780931B
:10079000E80004C080919C028111F2CF08958091FD
:1007A0009C028823D9F38091E80080FFF8CF8091E4
:1007B000E8008E77ECCF982F9093E900242F762FC6
:1007C00050E0891731F07091EC002091ED005091CC
:1007D000F00021FD07C09F5F953071F78093E9001D
:1007E00081E008953091EB003E7F3093EB00309133
:1007F000ED003D7F3093ED003091EB0031603093A0
:10080000EB007093EC002093ED005093F0002091EA
:10081000EE0027FDE0CF80E00895FC018091A40266
:100820009091A50286179707A0F06115710529F42C
:100830009091E8009E779093E80090E06115710533
:1008400051F4911108C08091E80082FF32C080E02D
:100850000895BC01F2CF80919C028823B1F18530CC
:10086000B1F18091E80083FD2EC08091E80082FD07
:10087000EACF8091E80080FFE1CF2091F20030E0E4
:100880006115710519F02830310558F091E02830D4
:10089000310509F090E02091E8002E772093E800E0
:1008A000CDCF81918093F100615071092F5F3F4F4F
:1008B000E7CF80919C02882341F0853041F0809100
:1008C000E80083FFC0CF81E0089582E0089583E0CF
:1008D00008958091790208959C014FB7F894809112
:1008E0006F0290917002A0917102B09172024FBF9D
:1008F000821B930B08952FB7F89480916F0290910B
:100900007002A0917102B09172022FBF08952091E0
:100910006C0230916D022817390771F090936D02C7
:1009200080936C02E0916A02F0916B02309721F0A3
:100930000084F185E02D099408952091680230919A
:1009400069022817390771F0909369028093680251
:10095000E0916A02F0916B02309721F00680F781F6
:10096000E02D09940895E0916A02F0916B023097AE
:1009700021F00190F081E02D099480E00895CF925C
:10098000DF92EF92FF928C3724E1920750F469E0F6
:1009900070E00E94A129CB01FF90EF90DF90CF90F3
:1009A0000895B0E0A0E0BC01CD016A50774D8F4FB3
:1009B0009F4F982F872F762F662725EF38E241E04B
:1009C00050E00E94512A69017A01CA01B9010E94CE
:1009D000382AA70196010E94382A672F782F892F7D
:1009E00099276115710521E082079105A1F66FEF46
:1009F0007FEFD1CF863000F581111FC0909180002C
:100A0000977F909380002F98682F70E090E080E0AF
:100A10002FEF3FEF40E050E00E94382A25E030E021
:100A200040E050E00E94512AC9010E94BF04909307
:100A30008D0080938C00089585E0909180009860EF
:100A400090938000E1CF282F220F220F220F909148
:100A500064029770922B90936402987F21E009F4CE
:100A600020E09091640220FB90F9909364020C9432
:100A7000FA04FA01811101C0FB01099408958091E3
:100A80005F02982F9E7F29F48170826080935F02BD
:100A900008958A34E8F381708864F8CFAF92BF92EA
:100AA000CF92DF92EF92FF920F931F93CF93DF933A
:100AB0008901E42FF0E0E25BFD4F611115C09491D4
:100AC000392FE92FD8011196EC9311979C93129628
:100AD0003C93DF91CF911F910F91FF90EF90DF90AA
:100AE000CF90BF90AF900895C82FD0E0E62EF12CA4
:100AF000E4914E2FAE2EB12CCE0166E070E00E9444
:100B00009029CC24CA94D12CB6010E94A129DB01E2
:100B1000CC0FDD1FCB0165E570E00E949029C81B5A
:100B2000D90B8C2F880FC80FC6018E199F09B501EC
:100B30000E949029392FD0E0CE01B7010E94902960
:100B4000692F70E0C601861B970BB5010E949029A2
:100B5000292FC6018C1B9D0BB7010E949029692F7C
:100B600070E0C601861B970BB5010E949029892F62
:100B7000A230B10589F040F4109709F4A3CF119782
:100B800079F0932F322F9ECFA430B10561F078F029
:100B9000169709F497CFF5CF9E2FE32F382F92CFDA
:100BA0009E2FE22F8FCF932F3E2FE82F8BCFE32F57
:100BB000342F922F87CF0E947B049C0190912002BA
:100BC00080912102982B21F030931D0220931C026A
:100BD0009091220280912302982B21F030931B02E6
:100BE00020931A02E0916A02F0916B02309749F06B
:100BF00082E080931E020480F581E02D8EE192E078
:100C00000994089540912002803F59F48091210277
:100C100087FF0DC01092210241110BC010921802E3
:100C200008C0813F81F48091210218169CF344236F
:100C300081F08091220290912302892B09F05AC001
:100C4000109217020895823F49F447FFF0CF1092A7
:100C50002002809121028111ECCFE0CF833F19F473
:100C60001416ACF3E4CF90912202893F29F41916AF
:100C7000F4F610922202DBCF8A3F19F497FFD7CF08
:100C8000F8CF909123028B3F29F497FFD0CF109299
:100C90002302CDCF8C3F19F41916CCF3C8CF9CE0BA
:100CA000980F953090F4845F990B21E030E0B90102
:100CB00002C0660F771F8A95E2F7CB01809590916D
:100CC0001F02892380931F02B2CF8D3F31F48091A0
:100CD00019028E7F80931902AACF8E3F21F4809152
:100CE00019028D7FF7CF8F3F09F0A1CF80911902B4
:100CF0008B7FF0CF08958091190280FF0CC0609126
:100D00000F0170E07595679575956795611571058B
:100D100059F1862F089581FF06C060910F0170E0A0
:100D200075956795F3CF60910F0170E082FD0CC05F
:100D3000609117026623A9F020910E0180910F01A6
:100D400090E0621730F0BC0160387105F8F28FE76F
:100D5000089570E00E949029622F70E00E94B529EA
:100D6000F3CF61E070E0D5CF81E008958091190262
:100D700080FF11C080910D0190E065E070E00E945D
:100D80009029959587959595879580389105B0F52B
:100D90000097B1F1089581FF0AC080910D0190E0A4
:100DA00065E070E00E94902995958795EECF82FFCF
:100DB00008C080910D0190E065E070E00E949029EC
:100DC000E4CF809118028823B1F020910C0160914A
:100DD0000D0170E0821710F0CB01EECF90E00E9481
:100DE000902965E070E00E949029622F70E00E94D7
:100DF000B529CB01CACF85E090E008958FE708952B
:100E000081E00895803F31F40E94B6068195809379
:100E100021020895813F19F40E94B606F8CF823F5F
:100E200031F40E94B6068195809320020895833F95
:100E300019F40E94B606F8CF893F29F40E947B0678
:100E40008093220208958A3F21F40E947B068195B7
:100E5000F7CF8B3F31F40E947B068195809323026C
:100E600008958C3F19F40E947B06F8CF9CE0980F00
:100E7000953070F4845F990B21E030E001C0220FBF
:100E80008A95EAF780911F02822B80931F020895B2
:100E90008D3F31F480911902816080931902089589
:100EA0008E3F21F4809119028260F7CF8F3FB9F70E
:100EB000809119028460F1CF80E00895F894E82FC2
:100EC000E295EF70F0E031A1282F2F7081E090E0E3
:100ED00001C0880F2A95EAF7982F9095932391A344
:100EE00092A1892B82A3789408959091730292FF26
:100EF00006C0282F28712830F9F4877F846093FF7B
:100F000006C0282F28712831F1F4877E8461209152
:100F1000740220FF06C0382F38713830D9F4877F2B
:100F2000816021FF06C0282F28712831D1F4877EE7
:100F3000816194FD877E0895282F24712430F9F66D
:100F40008B7F8860DCCF282F2471243101F78B7EC2
:100F50008861DDCF382F3171313019F78E7F88608D
:100F6000E0CF282F2171213121F78E7E8861E1CFDA
:100F7000CF93DF93EC0182389105A9F1D8F5813345
:100F8000910509F496C048F58932910509F48AC0A3
:100F90008A9709F495C0C11521E5D20708F0BCC0B5
:100FA000C11530E5D30708F016C1C83ED10508F0D9
:100FB0009CC0C03ED10560F5C83AD10508F087C095
:100FC000C53AD10508F0FFC0C130D10509F120971D
:100FD000F9F0C430D105E0F440C08533910509F43F
:100FE0005AC0C997C1F680917302837089F0C0EE30
:100FF000D0E00EC0833E910599F170F4803E9105DA
:1010000001F1823E910539F68091730282FD21C083
:10101000CE01DF91CF910895863E910561F1873E23
:10102000910571F1843E910509F0B5CF809174026C
:1010300081FFEECF80917302C7EED0E084FD0DC03A
:10104000E7CF8091730280FD18C19091740290FFE8
:10105000DFCFC3EED0E084FFDBCFD0E0C0E0D8CF5D
:101060008091730282FD0CC19091740290FDBFCFFC
:1010700084FFCECFF2CF8091730283FDDDCFC8CF46
:101080008091730283FDFFC09091740291FFF0CFB5
:10109000C4EED0E0BDCF8091730285FFB9CFC9E225
:1010A000D0E0B6CF8091730285FFB2CFC5E3D0E028
:1010B000AFCF8091730286FFABCFCAE2D0E0A8CF5A
:1010C0008091730286FFA4CFC1E3D0E0A1CFCF3BD4
:1010D000D10518F6C85AD0E0CC0FDD1FCE5DDE4F2B
:1010E0000990D881C02DD46493CFC11540E2D407B4
:1010F00058F4C11581E0D80708F08ACFC03FD10568
:1011000008F4ABCFD06584CFC11520E4D20708F432
:10111000A4CFDF70D06A7CCFC11535E5D30710F5B9
:10112000C11544E5D40708F090C0C11583E5D80780
:1011300008F075C0C11522E5D20708F46BC0CE01D6
:101140008370992721E030E002C0220F331F8A9577
:10115000E2F7C695C695D0E0E5E0CC0FDD1FEA9535
:10116000E1F754C0C11539E5D307A8F4C11548E526
:10117000D40708F06FC0C11586E5D80708F06DCF19
:101180008C2F0E947507C82FD0E0DC2FCC27CC27EE
:10119000DF71D0623DCFC1152AE5D20708F45FC0E8
:1011A000CE0190568115904208F057CF8D2F8F7148
:1011B0000E94750790E0982F882788279F719C01CF
:1011C0002C2BE901E6CFC55AD0E0C15EDE4FC881C5
:1011D000D0E0D0641DCFCE01A4E096958795AA9566
:1011E000E1F783702C2F26952695237030E0B5E02B
:1011F000220F331FBA95E1F7382B8C2F8370C1E093
:10120000D0E002C0CC0FDD1F8A95E2F7C22BD32BB2
:10121000DC68FECEDC2FCC27C16FD06AF9CECE01C0
:101220008370992721E030E002C0220F331F8A9596
:10123000E2F7C695C695D0E075E0CC0FDD1F7A9534
:10124000E1F7C22BD32BDA68E3CEDC2FCC27C46FB7
:10125000D06ADECEDC2FCC27C06FD06AD9CE8C2FDF
:101260008F700E94750734E0D695C7953A95E1F7DF
:10127000CF709C2FEC01D069CBCEC9E3D0E0C8CEB3
:10128000C2EED0E0C5CEC6EED0E0C2CE8091F9016C
:1012900081111092F90108958091F8019091F70160
:1012A000892B9091F601892B809390019091F901FF
:1012B0009923A1F0892B8093900180911E018823AE
:1012C00041F18091730287FF24C08EE1E2E9F1E0F1
:1012D00090E0815000F591110E944609E0916A0268
:1012E000F0916B023097E1F080911E01882359F054
:1012F0008091730287FF07C08091900180939101D4
:1013000085E0809390010280F381E02D80E991E0F7
:10131000099486E0DBCF21912223D9F29F5FD9CFB8
:10132000089590911E019923D1F09091730297FF37
:1013300016C0E82FE695E695E695EE31E0F4F0E08C
:10134000E057FE4F282F277081E090E001C0880F02
:101350002A95EAF780959281892382830895E2E9AC
:10136000F1E09191891303C0DF0111971C9291E084
:10137000E839F907B1F7089590911E019923C1F05A
:101380009091730297FF14C0E82FE695E695E695D5
:10139000EE31F8F4F0E0E057FE4F877021E030E0E6
:1013A00001C0220F8A95EAF78281822B82830895F9
:1013B000A2E9B1E0EFEF90E02D91821751F0EF3FFD
:1013C00019F4211101C0E92F9F5F9630A9F7EF3F73
:1013D00009F408950E2E000CFF0BE057FE4FE6CFE8
:1013E0008091F4019091C301981301C008958F5F1B
:1013F0008770FACF990F990F890FA82FA77086953C
:101400008695869590E063E070E00E949029FC014B
:10141000EC54FE4F50E040E080E0219130E00A2E95
:1014200002C0369527950A94E2F721703327042EDF
:1014300001C0220F0A94EAF7822B4F5F5F4F4330BF
:10144000510559F70895CF93DF93262F990F990FE0
:10145000890F982F9770E1E001C0EE0F9A95EAF797
:1014600086958695869590E063E070E00E949029CD
:10147000DC01AC54BE4F50E040E0622F70E08D9133
:10148000ED0121979B01042E02C0369527950A9401
:10149000E2F72170219528272E23282728834F5FE4
:1014A0005F4F4330510559F7DF91CF91089590E098
:1014B00080E00E949D0490E080E00E9487041092EA
:1014C000F7011092F6010E944C0986E0EEE1F2E08D
:1014D000DF011D928A95E9F7109218021092170207
:1014E000109219020C94DB058093A9020C94570A00
:1014F0008091A902982F9670963019F488600C9408
:10150000740A877FFCCF21E030E001C0220F8A956A
:10151000EAF720958091A90282230C94740A909195
:10152000F501809589238093F501282F277039F4E0
:10153000282F082E000C330B9217130621F49091DC
:10154000740292FF07C08595859585950E94830A50
:101550001092F501089521E030E001C0220F8A9534
:10156000EAF78091A902822B0C94740A8093FA0105
:101570000C94570A882341F080959091F8018923B3
:101580008093F8010C944C090895882339F09091C8
:10159000F801982B9093F8010C944C090895882336
:1015A00009F459C0823871F40E94B30481FF53C01A
:1015B00089E30E94BC090E944C0989E30E949109B9
:1015C0000C944C09833859F40E94B30480FF43C043
:1015D00083E50E94BC090E944C0983E5EFCF843863
:1015E00059F40E94B30482FF36C087E40E94BC090C
:1015F0000E944C0987E4E2CF9CEF980F913AF0F2F9
:1016000090E2980F983088F4877021E030E0A901CB
:1016100002C0440F551F8A95E2F7CA018095909148
:10162000F80189238093F801CBCF9BE5980F933085
:1016300020F490E080E00C949D0498E5980F973199
:1016400020F490E080E00C948704803F20F00E941A
:1016500002060C94DB05089580FD02C02C9A0895C3
:101660002C98089590919C02943029F580937502EE
:1016700070937702609376029093E9008FEF9091D8
:10168000E800815095FD06C095ED9A95F1F70000B0
:101690008111F5CF8091E80085FF0DC050E040E05A
:1016A00063E070E085E792E00E9492038091E80099
:1016B0008E778093E8000895BC0184E00C94320B8F
:1016C000BC0183E00C94320B9C0184E08093E90020
:1016D0009FEF8091E800915085FD06C085ED8A95C9
:1016E000F1F700009111F5CF8091E80085FF0CC063
:1016F00050E040E066E070E0C9010E9492038091F2
:10170000E8008E778093E8000895CF93DF93EC0193
:1017100080911E018823B1F18091730287FF32C04E
:1017200060E284E08093E9008FEF9091E8008150BF
:1017300095FD06C095ED9A95F1F700008111F5CF62
:101740008091E80085FF1BC080911E0170E050E091
:1017500040E0811104C050E040E068E070E0CE015C
:101760000E9492038091E8008E778093E80080E2E7
:10177000FE01AAE7B2E001900D928A95E1F7DF91B0
:10178000CF91089568E081E0CDCF81E08093E000C3
:1017900080E28093D8001092C9008FE19EE4019707
:1017A000F1F700C0000087E090EBDC018093AA0213
:1017B0009093AB02A093AC02B093AD0288E19CE0A1
:1017C0000FB6F894A895809360000FBE90936000C8
:1017D000FFCF80915F0280FD0AC0EFE2F2E011824C
:1017E00010821282339652E0EF35F507C1F7259A41
:1017F00035B13F7D25B120624FB7F8948FE292E07A
:10180000FC015191CF0168E025B9000000C057FFED
:1018100035B9550F000000C000C000C035B900C088
:101820006A9591F7F2E08F359F0751F74FBF8FE52B
:1018300094E00197F1F700C000000895EF92FF9245
:101840000F931F93CF93DF938C01CFE2D2E0F12C63
:10185000E12CF80194816091610280916002F8E0CE
:10186000EF16F104FCF49923F9F09E014091620215
:101870000E944E052FEFE21AF20A239680E1E81645
:10188000F10439F70E94E90BF801848190E0019698
:10189000817099278483DF91CF911F910F91FF90E1
:1018A000EF900895992309F39E0140E0E1CF4F9214
:1018B0005F926F927F928F929F92AF92BF92CF92E0
:1018C000DF92EF92FF920F931F93CF93DF938C01E0
:1018D000FC01C481CC2ED12CF12CE12CA701960166
:1018E000C701B6010E94382AA70196010E94382A32
:1018F0002B013C0140E2C42ED12CCC1AD1080D2C76
:10190000000CEE08FF0825E530E040E050E00E94C2
:10191000382A4B015C01A7019601C701B6010E945C
:10192000382AA70196010E94382A9B01AC01240D98
:10193000351D461D571DC501B4010E94512AD22EE6
:10194000822F90E0F9E2F21708F443C063E070E000
:101950000E94902997FD019695958795C82FC0956F
:101960003FE2E32E32E0F32ED0E085E5C82ECD181D
:101970008C2DD1FD8D2D97014C2F609161020E941D
:101980004E05DF5F53E0E50EF11CD03189F70E9470
:10199000E90BF801948181E0992319F0903219F450
:1019A0008FEF80931D0180911D01890FF8018483C1
:1019B000DF91CF911F910F91FF90EF90DF90CF902B
:1019C000BF90AF909F908F907F906F905F904F905F
:1019D000089525E530E0A901481B590BCA01B6CF8F
:1019E0000F931F93CF93DF93CFE2D2E0FE011182DA
:1019F00010821282339682E0EF35F807C1F710E0CB
:101A000000E080912D02082E000C990B0817190791
:101A10008CF180911C01082E000C990B8017910706
:101A20004CF19E01409162026091610280916002DE
:101A30000E944E050F5F1F4F23960031110509F7D5
:101A40000E94E90B80911B0190912D02980F9093B9
:101A50002D0220911C01280F20931C01121614F452
:101A60009F301CF0819580931B01DF91CF911F91D6
:101A70000F910895198218821A82DCCFCF92DF92DB
:101A8000EF92FF920F931F93CF93DF93FC0182811C
:101A9000DD24DA9480FD02C0DD24D394CFE2D2E0CD
:101AA00010E000E0198218821A8234E0E32EF12C53
:101AB000C12C80912C028C0D8131CCF18F70082EBD
:101AC000000C990B8017910791F48091620290E0CD
:101AD000B7010E94902995958795959587959E01C8
:101AE000482F60916102809160020E944E05CD0CEA
:101AF000F1E0EF1AF108E9F60F5F1F4F239600316E
:101B0000110581F60E94E90B80912C0291E0D91217
:101B100014C0811110C08FE080932C02DF91CF910F
:101B20001F910F91FF90EF90DF90CF90089587FF66
:101B3000C6CF805FC4CF8150EFCF90E001968F7009
:101B40009927EACFEF92FF921F93CF93DF93EC0197
:101B50008FE2E82E82E0F82E10E08C819701409110
:101B6000620260916102810F0E944E05115F83E065
:101B7000E80EF11C103F89F70E94E90B9A818C81D5
:101B800090FF08C08F5F8C83DF91CF911F91FF90F2
:101B9000EF9008958150F7CF90915F0290FF0CC0B5
:101BA000EFE2F2E0818360834283339692E0EF3587
:101BB000F907C1F70C94E90B08950F931F93CF9386
:101BC000DF9300D00F92CDB7DEB78C0180912E024B
:101BD00081110AC09E012F5F3F4F4FEF6FEF0E94B0
:101BE0004E058A8180932E02F8016481613069F08C
:101BF00080912E0240E0662361F040E0623011F4F3
:101C000040912E0280E060E004C060912E0240E02E
:101C100080E00E94CC0DF801848190E0019663E0A1
:101C200070E00E94B52984830F900F900F90DF9190
:101C3000CF911F910F910895CF93DF9300D00F9212
:101C4000CDB7DEB790915F0290FF0AC09E012F5F73
:101C50003F4F0E944E054B8169818A810E94CC0DC5
:101C60000F900F900F90DF91CF910895CF93DF9356
:101C7000EC01EFE5F2E0438162818C810E941C0E51
:101C80008C818F5F8C83DF91CF910895CF93DF9309
:101C9000EC01EC81F0E0ED5AFC4F4491EFE5F2E00D
:101CA000628181810E941C0E8C818F5F8C83DF9109
:101CB000CF910895CF93DF93C7EED0E060E0CE01DF
:101CC0000E94042A2196C11584E0D807B9F7DF9154
:101CD000CF9108956F927F928F929F92AF92BF9211
:101CE000CF92DF92EF92FF920F931F93CF93DF93E8
:101CF00083EDC82E84E0D82E0FE510E0E801E097D0
:101D000036011CC0F50185909490692DC7010E9491
:101D1000042A682DC70101960E94042A82E0A80EB9
:101D2000B11C82E0E80EF11CCE15DF0559F788E002
:101D3000680E711C28960C171D0731F07E0188E093
:101D4000E81AF1085301DECF005D1F4F80E3C80E93
:101D5000D11C0F3181E0180789F6DF91CF911F91D7
:101D60000F91FF90EF90DF90CF90BF90AF909F903A
:101D70008F907F906F900895CF93C82F6FEF811150
:101D800061E283E290E00E94042A6FEFC11160E1FA
:101D900084E290E00E94042A6FEFC11161E385E2C2
:101DA00090E0CF910C94042A80E00E94BC0E60E089
:101DB00086E290E00E94042A0E946A0E0E945A0E57
:101DC00081E00C94BC0E682F86E090E00C94042A0D
:101DD0008091640281FF11C08D7F809364020E9414
:101DE000E30E80916F008E7F80936F00809164027C
:101DF0008695869586950C94FA04089580916402E0
:101E000081FD10C08260809364020E94E30E1092F4
:101E10006702109266021092650280916F008160E5
:101E200080936F000895CF93C0917402C2FB9927ED
:101E300090F9981781F080FBC2F9C0937402609109
:101E4000730284E090E00E94042A6C2F82E290E00A
:101E5000CF910C94042ACF9108950F931F93CF93A1
:101E6000DF93C62FD0E093E0CC0FDD1F9A95E1F70A
:101E700050E0440F551FC40FD51F90E060E370E0A1
:101E80000E949029C80FD91FCE0187960E94F02981
:101E9000082F10E0102F0027CE0188960E94F0290D
:101EA0009801282BC901DF91CF911F910F910895BF
:101EB000462F843038F4763028F4643018F4672FD5
:101EC0000C942D0F90E080E00895CF92DF92FF9266
:101ED0000F931F93CF93DF936C010091A902809120
:101EE000FA01082BC7E0D0E010E0FC2EC8010C2E50
:101EF00002C0959587950A94E2F780FD0CC0219762
:101F0000A0F7F12C8F2DDF91CF911F910F91FF90B2
:101F1000DF90CF900895B6018C2F0E94580F0E9439
:101F2000B807019761F3EECFCF93DF93EC010E94E6
:101F3000650FBE010E94580FDF91CF910C94B80736
:101F4000FC01808191810E94940F292F2F7092951E
:101F50009F7092509E3078F4E92FF0E0EB58F54DE9
:101F60000C94C929803F19F020F4883E20F481E0C8
:101F70000895843FE1F380E00895883EC0F3813FF7
:101F8000D1F7F5CF822F869586958695089583E2C1
:101F900090E00E94F029813289F484E290E00E946E
:101FA000F029803159F485E290E00E94F02991E017
:101FB000813309F090E0892F8170089580E0FCCF93
:101FC000CF9384E090E00E94F029C82F82E290E055
:101FD0000E94F029982F8C2FCF91089560915F0275
:101FE000669570E04BE050E080E191E00E94D629D8
:101FF000892B19F481E080932B020E947B0490933B
:102000002502809324020895CF92DF92EF92FF92EF
:102010006B017C010E943F05B701A60188E090E0BA
:10202000FF90EF90DF90CF900C94162A7F928F92C2
:102030009F92AF92BF92CF92DF92EF92FF920F9357
:102040001F93CF93DF9300D00F92CDB7DEB7182F39
:10205000D62E042FC22E90915F0290FF29C0E92F47
:10206000E695AE2FB0E0A65ABE4F8C9180932A021F
:102070009E7F923071F59E012F5F3F4F812F0E940E
:102080004E054B8169818A810E94CC0D10936002BC
:10209000D092610200936202CC2051F060915F0205
:1020A0007091600280916102909162020E9404101E
:1020B0000F900F900F90DF91CF911F910F91FF9094
:1020C000EF90DF90CF90BF90AF909F908F907F90D8
:1020D0000895823019F400916202D8CF863019F445
:1020E00010916002D3CF8930D9F3893179F6E95163
:1020F0002E2F2170722EE695F0E0E25BFC4F85906A
:10210000949099243FE2E32E32E0F32EB12CA12CDF
:10211000C50124E0969587952A95E1F7711013C0C3
:10212000810F9701402F6D2D0E944E05A80CB91C00
:1021300083E0E80EF11C2FE5E21622E0F20641F7FB
:102140000E94E90BA3CF212F281B822FEACFEFE5B6
:10215000F2E0438128E0421B08F440E021E0628184
:1021600081810C941610EFE5F2E0438128E0420FE4
:1021700008F44FEF21E0628181810C941610EFE5A5
:10218000F2E0628128E0621B08F460E021E0438114
:1021900081810C941610EFE5F2E0628128E0620F75
:1021A00008F46FEF21E0438181810C941610EFE574
:1021B000F2E0818121E04381628188500C94161005
:1021C000EFE5F2E0818121E043816281885F0C9438
:1021D000161080916302882319F081508093630266
:1021E00060915F0270916002809161029091620241
:1021F0000C94041080916302833018F48F5F8093F5
:10220000630260915F02709160028091610290911F
:1022100062020C94041090915F0290FF36C091709E
:10222000811129C0926090935F02662351F0609102
:102230005F027091600280916102909162020E943F
:10224000041060915F02669570E04BE050E080E121
:1022500091E00E94D629892BA9F010922B0281E0EF
:102260008093270220E04091620260916102809198
:1022700060020C941610853210F09864D4CF880F49
:10228000982BD1CF0E94EE0FEACF089580915F0284
:102290008695815009F484E261E00C940B118091E1
:1022A0005F0286958F5F853208F081E061E00C94D3
:1022B0000B1190915F0290FF07C09695981720F040
:1022C000961710F40C944F1161E00C940B11EFE58C
:1022D000F2E083E0808311828FEF82838383148214
:1022E00060817181828193810C94041069EE7EEF8C
:1022F00090E080E00E94222A60E082E090E00E946C
:10230000042A60E083E090E00E94042A1092FA011F
:1023100060E084E090E00E94042A60E082E290E0C5
:102320000E94042A60E085E090E00E94042A60E0B8
:1023300086E090E00E94042A6FEF87E090E00E9420
:10234000042A40E050E0BA0188E090E00E94162A9A
:1023500060E08DE090E00E94042A40E050E0BA0185
:1023600088E190E00E94162A60E087E190E00E94F8
:10237000042A40E050E0BA018CE190E00E94162A65
:1023800070E060E080E290E00E94222A40E050E0AD
:10239000BA0188E190E00E94162A80E00E94BC0EFB
:1023A0000E94D40E40E050E0BA018FE090E00E941D
:1023B000162A40E050E0BA0183E190E00C94162A1E
:1023C0009F92AF92BF92CF92DF92EF92FF920F93C4
:1023D0001F93CF93DF9300D000D000D0CDB7DEB7EE
:1023E0008E010F5F1F4F86E0F80111928A95E9F781
:1023F00080E5C82E81E0D82EF12CE12CAA24A394EC
:10240000B12CF60181916F018F3F09F449C0F89416
:10241000E82FE295EF70F0E021A18F70A50102C0D6
:10242000440F551F8A95E2F7CA01922F982B91A36A
:1024300092A18095892382A3789400C0E6E5F1E01B
:1024400030E020E0912C41914F3F09F473C0A42F5C
:10245000A295AF70B0E090968C9190E04F7002C062
:10246000959587954A95E2F780FD64C08A2D022EE6
:1024700001C0880F0A94EAF7982A2F5F3F4F243053
:10248000310509F7F601319780818F3F11F00E94E5
:102490005E0750EA5A95F1F7F801EE0DFF1D9082A4
:1024A0008FEFE81AF80AE6E0EE16F10409F0A9CF7A
:1024B00046E050E0B8018FEF91E00E94E329FF244D
:1024C000F394009709F4F12C892BB1F186E0F8011F
:1024D000AFEFB1E001900D928A95E1F781E0809332
:1024E000FD010E947B049093FC018093FB0180918D
:1024F000FB019091FC010E946C04059708F180910A
:10250000FF0180930F02809100028093100280915E
:102510000102809311028091020280931202809145
:10252000030280931302809104028093140210929C
:10253000FD0106C080E0A0CF8091FD018111D7CFC1
:102540008F2D26960FB6F894DEBF0FBECDBFDF915C
:10255000CF911F910F91FF90EF90DF90CF90BF90A0
:10256000AF909F90089590E080E00E94FE29893E00
:102570009E4F11F40C94C70F80E008950E94B3128F
:1025800081110AC00E947611809164028470896270
:10259000809364020E94E30E86E090E00E94F0299E
:1025A00080936402803320F0877088628093640295
:1025B00090916402892F817090FF04C0892F8695C5
:1025C000869586950C94FA041092F80180911E016C
:1025D000E2E9F1E0882359F08091730287FF07C098
:1025E0008EE1DF011D928A95E9F70C94570A86E087
:1025F000F8CF1F93CF93DF93CDB7DEB7AA970FB66F
:10260000F894DEBF0FBECDBF8EE992E02091F100BD
:10261000DC012D93CD01B2E0863A9B07B9F780919A
:102620009F02833009F46FC0B8F4813009F446C0CA
:10263000823009F4B0C08091E80083FF38C18091F6
:102640009E0290919F029A3008F031C1E92FF0E08C
:10265000ED57F54D0C94C9298A3009F48BC08B30A5
:1026600009F46EC0893039F780919E02813219F7E2
:102670008091A2029091A302009711F00297D9F6DF
:102680008091E800877F8093E8008091E80082FFD6
:1026900035C08091F200823029F48091F1008B7F67
:1026A000813021F48091F100809379028091E800DB
:1026B0008B778093E8000E94BC03BDCF80919E027F
:1026C000813A09F0B8CF8091E800877F8093E800D5
:1026D0008091A2029091A302892B61F460E28AE7C3
:1026E00092E070E00E940D048091E8008B77809367
:1026F000E800A1CF60E090E080E0F3CF80919C0201
:102700008111C3CF98CF80919E02813A09F093CF77
:102710008091A2029091A302892B09F08CCF809125
:10272000E800877F8093E8008091E80080FFFCCF7D
:1027300080911E018093F1008091E8008E77B9CFDF
:1027400080919E02813209F076CF8091A202909111
:10275000A302892B09F06FCF8091E800877F8093D7
:10276000E8000E94BC038091A00280931E010E9499
:10277000E41261CF80919E02813209F05CCF80919A
:10278000E800877F8093E8000E94BC038091A1024B
:102790008093780250CF80919E02813A09F04BCF0E
:1027A0008091E800877F8093E8008091E80080FFB7
:1027B000FCCF80917802BECF803899F0823809F042
:1027C00076C08091A2028F70853008F070C080932F
:1027D000E9008091EB0085FB882780F91092E900E1
:1027E00006C080919A0290919B0291118260909113
:1027F000E800977F9093E8008093F1001092F10039
:102800008091E8008E77B4C1882309F4A1C1823099
:1028100009F04DC08091A0028111A5C18091A20252
:102820008F702FEF280F243008F041C08093E9000B
:102830002091EB0020FF97C1933031F48091EB00A1
:1028400080628093EB008FC19091EB009061909338
:10285000EB0021E030E001C0220F8A95EAF72093D7
:10286000EA001092EA008091EB008860EACF8111C3
:102870001EC01091A0021F778091E3008078812B09
:102880008093E3008091E800877F8093E8000E94B6
:10289000BC038091E80080FFFCCF8091E30080685A
:1028A0008093E30082E0111183E080939C02809189
:1028B000E80083FF0AC08091E800877F8093E800EA
:1028C0008091EB0080628093EB00AA960FB6F8949B
:1028D000DEBF0FBECDBFDF91CF911F91089580580D
:1028E000823028F72091A0023091A1022C3DE3E034
:1028F0003E07A1F583E08A838AE289834FB7F89483
:10290000DE01139620E03EE051E2E32FF0E0509329
:102910005700E49120FF03C0E295EF703F5FEF7036
:102920008E2F90E0EA30C0F0C7968D939D932F5F75
:10293000243159F74FBF8091E800877F8093E800EA
:102940006AE270E0CE0101960E940D048091E800D9
:102950008B778093E800ABCFC096E7CF8091A2023F
:102960009091A302432F55274330510509F44AC0E3
:1029700078F54130510509F47AC08BE590E0E3E940
:10298000F5E04230510509F092CF2091E800277F11
:102990002093E8002091A4023091A50282179307AA
:1029A00008F49C0140E02115310509F065C0411192
:1029B00063C08091E80082FDC9CF80919C0288238A
:1029C00029F2853019F28091E80083FFF2CFBECF63
:1029D0004132510509F43CC04232510509F067CF3C
:1029E0008330910508F063CFFC01EE0FFF1FEE5717
:1029F000FE4F0190F081E02D81589E4FDC018C91BB
:102A000090E01AC0332721303105D1F0211531056E
:102A100061F02230310509F04ACFE0E0F6E0E491C0
:102A20008E2F90E0E0E0F6E007C0ECE2F6E0E49103
:102A30008E2F90E0ECE2F6E0009709F438CFA5CFB6
:102A4000EAE1F6E0E4918E2F90E0EAE1F6E0F4CFDF
:102A50008330910508F02BCF880F991FFC01E857B0
:102A6000FE4F0190F081E02D89E090E08ECF82E171
:102A700090E0EEEEF5E089CF80919C02882309F486
:102A800065CF853009F462CF8091E80083FD5ECF89
:102A90008091E80082FD8DCF8091E80080FF83CF98
:102AA0008091F20090E02115310519F088309105F0
:102AB00050F041E0089709F040E08091E8008E77FF
:102AC0008093E80070CF44914093F10031962150FB
:102AD00031090196E8CF803809F0E9CE8091E8000D
:102AE000877F8093E80080919D028093F10088CEDB
:102AF0008111DDCE1091A002123008F0D8CE809165
:102B0000E800877F8093E80010939D020E94BC0339
:102B1000112311F084E005C08091E30087FDFACF16
:102B200081E080939C0242E061EC81E00E94DB0343
:102B300042E261EC84E00E94DB0342E261EC82E06D
:102B40000E94DB0342E260EC83E00E94DB03AFCE35
:102B50008091A002813009F0AACE81E0933009F083
:102B600080E080939B021092E9008091E800877FCB
:102B70008093E8000E94BC039ACEEBEFE80FEF339E
:102B800008F06CC0F0E0E357F54D0C94C9290E94A1
:102B9000761181E0089580911602807F809316025D
:102BA00081E08093150208950E94E4122FEF84E3E0
:102BB0009CE0215080409040E1F700C000000E945E
:102BC000C50B90911602892F8E7F90FF81608093B4
:102BD000160280FDDECF817F80931602DACF9091BE
:102BE0001602892F8D7F91FF82608093160281FFEC
:102BF000D0CF809116028160EFCF90911602892F7D
:102C00008B7F92FF84608093160282FDF2CFC1CF4A
:102C100090911602892F877F93FF88608093160218
:102C200083FDE7CFB6CF0E94E41290917302892F03
:102C300097FB87F9805880937302ABCF81E00E94A5
:102C4000B60A0E94E412A5CF895391E001C0990F02
:102C50008A95EAF7892FF3CF8D51F7CF80E0089559
:102C6000CF93C82F882309F4ABC08238C1F40E94E7
:102C7000B30481FDA5C089E30E94BC090E944C09F0
:102C80002FEF81EE94E0215080409040E1F700C0AA
:102C9000000089E30E949109CF910C944C0983387C
:102CA000A1F40E94B30480FD8BC083E50E94BC099F
:102CB0000E944C092FEF81EE94E02150804090401B
:102CC000E1F700C0000083E5E5CF8438A1F40E945D
:102CD000B30482FD75C087E40E94BC090E944C09C0
:102CE0002FEF81EE94E0215080409040E1F700C04A
:102CF000000087E4CFCF8CEF8C0F813A08F0E5C05D
:102D0000809115028130B9F1882359F1823009F49C
:102D10004DC01092150280911E01882309F4C6C08F
:102D20008091730287FFC2C0EC2FE695E695E69589
:102D3000F0E0E057FE4F828190E04C2F477021E099
:102D400030E002C0220F331F4A95E2F7822393231B
:102D5000892B09F4B6C08C2F0E9491090E944C095E
:102D6000B0C08091F8018232B1F68C2F0E94BD155F
:102D7000811126C0D0CF8091F8018232B1F3C431E5
:102D800071F038F4CB3049F0C03161F080E08170EF
:102D9000EFCFC93221F0C833C9F781E0F8CF1092E4
:102DA0001502F4CF82E080931502F7CFC93209F4FF
:102DB0003FC0E8F4C431E1F128F4C73009F45BC046
:102DC000CF91089582EE8C0F8A30D0F7CD51C09309
:102DD000B301C33009F446C0B0F5C13009F43FC0B7
:102DE0008BE091E0C230B1F11092B301E9CFC03570
:102DF00009F454C0B8F48AE0CF3411F7E091B1017E
:102E0000F091B2013097E1F22081082E000C990B6D
:102E1000820F911D8F3F910509F00CF443C08FEF95
:102E20008083CECFC135E1F181E0C23539F3C8CF1F
:102E30008091B301882321F21092B3011092B20164
:102E40001092B101BDCFC53099F078F08EE091E0DD
:102E5000C63051F69093B2018093B101B1CF8AE0B0
:102E600091E0F8CF8DE091E0F5CF8CE091E0F2CFEA
:102E70008FE091E0EFCF8EE180930A0182E38093AF
:102E80000B018AE080930D0184E180930C0188E0BE
:102E900080930F0188E280930E0192CF86EFAECF30
:102EA0008FEFACCF97FFBCCF10828ACFE2E9F1E081
:102EB00088E991E02191C21709F44DCF8E179F0741
:102EC000C9F78C2F0E94BC09E7CE80E28C0F8830B6
:102ED00068F4C77021E030E001C0220FCA95EAF71C
:102EE0008091F801822B8093F801D6CEEBE5EC0FB0
:102EF000E33040F4F0E0E15EFE4F808190E0CF915E
:102F00000C949D04E8E5EC0FE73150F4F0E0EE0F8F
:102F1000FF1FEE5DFE4F80819181CF910C9487045D
:102F2000C03F08F44DCF8C2F0E940207CF910C9424
:102F3000DB051F93CF93DF93182FD0E0C0E08933D8
:102F400011F4C0E5D0E0812F0E943016209731F4B3
:102F5000812FDF91CF911F910C94CF0A8FE99FE0D1
:102F60000197F1F700C000002197F0CF0F931F9356
:102F7000CF93DF93C62FD42F022FFC0182818823A9
:102F8000A1F06093A8020E947B049093A702809313
:102F9000A602C77081E001C0880FCA95EAF7DF91E9
:102FA000CF911F910F910C94C50A8091A8026813CC
:102FB00035C08091A6029091A7020E946C04883CC3
:102FC000910560F510E21D0FCD17B9F080E28C0F6E
:102FD000883040F4C77081E001C0880FCA95EAF7D5
:102FE0000E94BA0A183048F481E09D2F977001C002
:102FF000880F9A95EAF70E94C50A802F0E949917B8
:10300000183098F4D77081E001C0880FDA95EAF79C
:10301000DF91CF911F910F910C94BA0AC77081E094
:1030200001C0880FCA95EAF7F3CFDF91CF911F91C6
:103030000F9108954F925F926F927F928F929F921D
:10304000AF92BF92CF92DF92EF92FF920F931F93B6
:10305000CF93DF9300D000D00F92CDB7DEB78C01B5
:10306000FC0183819481892B31F0808191818923B6
:103070008F3F09F0A0C50F900F900F900F900F9009
:10308000DF91CF911F910F91FF90EF90DF90CF9044
:10309000BF90AF909F908F907F906F905F904F9078
:1030A00008950E94650FF82E682F89819A810E94E9
:1030B000230A69817A818F2D0E94580F7C01F801C3
:1030C0008281882309F44AC5C70182519F454097F0
:1030D00008F02DC58FEF93E00E94F029FEEEEF0E71
:1030E00047EE842E912C882371F18091F501877031
:1030F00011F2F8018281882309F4BDCF82E00F909C
:103100000F900F900F900F90DF91CF911F910F9123
:10311000FF90EF90DF90CF90BF90AF909F908F90F7
:103120007F906F905F904F900C948F0A811424E0F1
:103130009206D9F2C4010E94F029811101C0EA94DB
:103140003FEF831A930AE110F1CF1C821B824424C3
:10315000439474016FEFE61AF60AC4010E94F02945
:1031600089831A82882309F4C0CF9FEF980F933088
:1031700000F58A83498272E0870E911CC7010E9484
:10318000F0298B83882309F4B0CFCE0101967C010E
:10319000F70120812223E9F2213009F04AC0918110
:1031A0008281913041F4F2E0EF0EF11C0E949917F8
:1031B00009C04701EACF923049F422E0E20EF11C47
:1031C0000E9430163FEFE31AF30AE2CF933031F456
:1031D00032E0E30EF11C0E94CF0AF4CF943021F0CC
:1031E0006FEFE61AF60AEECF72E0E70EF11C50E040
:1031F00040E0D7011196F701D180682F6053770B1B
:103200009B016A30710550F041505109D8F28FE9A5
:103210009FE00197F1F700C00000F6CFCA016AE015
:1032200070E00E949029A901480F591F8D2D7D0142
:10323000E0CFE22FF0E0E454FE4F5490822F8695C9
:103240008695869590E0FC01E455FE4F64902770CA
:10325000712C022E02C0759467940A94E2F7E1E0A3
:103260006E227724FC01E456FE4FA490B12C022E6E
:1032700002C0B594A7940A94E2F7F1E0AF22BB2410
:10328000FC01E457FE4FC490D12C02C0D594C794E2
:103290002A95E2F721E0C222DD246114710419F0BD
:1032A00081EE0E943016A114B10419F086EE0E943E
:1032B0003016852D0E949917AB2819F086EE0E94D2
:1032C000CF0A672819F081EE0E94CF0ACD2809F4B1
:1032D00079CF8CE26BCF81E00E94AB0A03C081E022
:1032E0000E94830A0E94780A00CF82E0F5CF82E034
:1032F000F7CF85E00E942305809164020E94E30ECF
:10330000F4CE80E0F7CF80916402982F987F79F017
:10331000885080936402887F91E009F490E0809166
:10332000640290FB80F9809364020E94E30E809116
:1033300064028695869586950E94FA04D6CE809181
:103340006402982F969596959695953040F49F5FD8
:10335000990F990F990F8770892B80936402809140
:1033600064028160E0CF8091640280FF07C08E7F9D
:10337000809364020E94E30E80E0DECF80FDB5CE34
:10338000816080936402813019F489E08093640243
:1033900080916402CACF90916402892F86958695A8
:1033A00086958F5F8F719770863048F4880F880FED
:1033B000880F892B8093640280916402ACCF909334
:1033C0006402FACF8091640281FF03C00E94E80E7C
:1033D0008CCE0E94FE0E89CE27E245EE65EEE7C355
:1033E00026E241EE60EEE3C327E245EE64EEDFC382
:1033F00026E241EE62EEDBC328E241E0EFCF81E658
:10340000E8168DE5F80609F420C58091F80196E1EB
:10341000E9169CE5F90609F0DFC38A7A91E009F420
:1034200090E09093B0018111FDC089E20E94BC0937
:103430000E944C095ACE80917302806196E0E91691
:103440009CE5F90609F4A2C0809173028860E7E068
:10345000EE16ECE5FE0608F499C0809173028062D6
:1034600095C0809173028D7FFCE0EF16FCE5FF06AE
:1034700009F48CC078F4809173028C603AE0E31612
:103480003CE5F30609F482C008F499C08091730208
:103490008E7F7CC080917302877F7EE0E7167CE59B
:1034A000F70609F473C008F490C0809173028F7E10
:1034B0006DC09CEFE9169CE5F90609F48AC0A0F5F9
:1034C000F4E1EF16FCE5FF0609F49BC098F432E145
:1034D000E3163CE5F30609F484C0809173028F7B08
:1034E00063E1E6166CE5F60608F450C080917302BD
:1034F000837F4CC07AEFE7167CE5F70609F451C0EC
:1035000008F055C095E1E9169CE5F90609F0C7C435
:103510008091730282FB992790F921E0922790FB1A
:1035200082F990FB83F932C0E114EDE5FE0609F45F
:103530005EC0A0F48091740283602EEFE2162CE549
:10354000F20691F1809174028D7F3FEFE3163CE526
:10355000F30650F1809174028C7F26C062E0E6167B
:103560006DE5F60609F45CC008F454C081E6E8167F
:103570008DE5F80609F093C490917302892F8F7E30
:1035800094FF806103C08091730281608093730215
:1035900086C4809173028260F9CF80917302846047
:1035A000F5CF8091740281608093740278C4809119
:1035B00074028260F9CF809173028064E7CF0E9429
:1035C000E412809173028068E1CF809173028B7F57
:1035D000DDCF809174028E7FE7CF809173028F7D63
:1035E000D5CF0E94E412809173028F77CFCF809164
:1035F0007402982F909591708E7F892B90FB81F9A2
:10360000D3CF0E94E41290917302892F97FB87F920
:103610008058BCCF61E08EE090E00E94042A3FC455
:1036200060E0F9CF85E302CF85E3DFC380915F02DD
:1036300080FF1BC08E7F80935F0260915F0270915C
:10364000600280916102909162020E9404101092C7
:103650002B02EFEFF0E722E0E150F0402040E1F7ED
:1036600000C000000E94E90B40CD816080935F02A2
:1036700061E086950E940B1138CD46E451E16FE47C
:1036800071E10E94390531CD4FE451E166E471E109
:10369000F8CF40EE50E167ED70E1F3CF4FEB50E132
:1036A0006BEC70E1EECF47EA50E163EB70E1E9CFFC
:1036B00043EB50E167EA70E1E4CF4AEF50E169EE95
:1036C00070E1DFCF61E081E0D5CF65E082E00E946C
:1036D00059110BCD68E086E0FACF64E18FE0F7CFB7
:1036E00067E185E1F4CF62E289E1F1CF61E083E255
:1036F000C1CF9BE5E9169DE5F90611F1ECE5EE1663
:10370000EDE5FE0609F09AC28091740282FB8827DB
:1037100080F991E089270E94130F90C20E94E41261
:10372000FFEF24E33CE0F15020403040E1F700C0DF
:1037300000000E94C50B0E947611D7CC81E0EBCF30
:1037400080E0E9CFC7010E94FA09D82E86C22F2D4A
:103750002F70C22E8F2D807F19F0C29490EFC92256
:10376000DD20C9F0CC2069F080E28E0D883010F0A9
:1037700081100BC08091F801C82AC092F8010E9404
:103780004C098E2D0E94301619C08091F701C82A6D
:10379000C092F701F4CF8E2D0E94CF0ACC2071F099
:1037A000C09480E28E0D883010F081103EC0809170
:1037B000F801C822C092F8010E944C09692D685096
:1037C000770B6430710520F40E94B3040E942C0B27
:1037D000AA2009F450CC8091F50180FD4CCCF80171
:1037E00012828595859585950E94AB0AC8010E9435
:1037F0001A188091F5018595859585950F900F9004
:103800000F900F900F90DF91CF911F910F91FF902C
:10381000EF90DF90CF90BF90AF909F908F907F9070
:103820006F905F904F900C94830A8091F701C822AB
:10383000C092F701C1CF3F2D3F70B32E8F2D807FF7
:10384000803219F0B29480EFB822882071F061E0E4
:10385000861681F1DD20D9F1CC2091F1F801858126
:1038600080FF8FCF8F7085832BC0DD20B1F09091CA
:10387000F9018B2D892BC11003C00E94C50A9ECF70
:1038800071E0C712FACF2091740222FD97CF9817EA
:1038900009F494CF8093F90191CFC11006C00E9422
:1038A00046098B2D0E94BA0A89CF81E0C81609F417
:1038B00085CFF5CFDD2031F095E09C1508F47ECF63
:1038C0008B2DDBCFE4E0EC1508F478CFEACFCC20E9
:1038D00041F3F9E38F1209C02FEF37EE63E0215077
:1038E00030406040E1F700C000008E2D0E94CF0AFA
:1038F00065CF8F2D86958695837061F0813009F0B4
:103900005DCFC7019370D11002C090E080E00E94AB
:10391000870454CFC7019370D11002C090E080E0BB
:103920000E949D044BCF8E2DDD2029F00E940207BE
:103930000E94DB0543CF0E940206FACF8F2D8370D1
:1039400091F5D1103BCF4E2D429546954770440FCF
:10395000440F8E2D8F70042E01C0880F0A94EAF751
:103960002E2D2071E4FE07C02FE030E001C0220FB1
:103970004A95EAF720953F2D3695369533703230CB
:1039800069F050F44091FA01313029F0822B842300
:103990000E94B60A13CF842B822BFACF282B80915A
:1039A000FA018227F5CF8695DD2011F08F2D8170E9
:1039B000882309F403CF4E2D429546954770440F56
:1039C000440F8E2D8F70042E01C0880F0A94EAF7E1
:1039D0002E2D2071E4FE07C02FE030E001C0220F41
:1039E0004A95EAF720953F2D36953695337032305B
:1039F00069F050F44091A902313029F0822B8423E0
:103A00000E94740ADBCE842B822BFACF282B809164
:103A1000A9028227F5CF7F2D7F70F72EDD2029F0B8
:103A2000872F0E94AB0A8E2D28CF8E2D0E94BA0AB6
:103A30008F2D0E94830AC2CE8E2D92EF891609F433
:103A40004AC0981570F0E0EF8E1631F1F1EF8F1645
:103A5000D1F1DD2009F45BC0C11093CE8F2D8F71A1
:103A600037C023EF8216E1F134EF8312F2CFDD206D
:103A700009F442C08F2D8F71F82E0E94AB0A8091FD
:103A8000740282FD07C08F2D880F880F880F836016
:103A90008093F5018F2D1CC0DD2081F064E06C1552
:103AA00008F48CCE2F2D2F7181E090E001C0880F9B
:103AB0002A95EAF79091A9028927A2CF75E07C1593
:103AC00008F47CCEEFCF8F2D8F71DD2009F4B1CFBC
:103AD0000E94AB0A73CE8F2D8F71DD20C9F3A9CF61
:103AE00080E0DD2009F48CCF9F2D9F7181E001C023
:103AF000880F9A95EAF784CF81E00E948F0A91E0BF
:103B00009C1508F05BCE82E00E948F0A57CECC2035
:103B100059F0893309F0E9CEEFEFF7EE23E0E150F9
:103B2000F0402040E1F7DFCE8F2D8F7182CFF0E1A2
:103B3000EF16FFE5FF0609F4CECB21E1E2162FE5F3
:103B4000F20609F4D2CBF701EB5BFC45E730F10557
:103B500008F04EC1E453F54D0C94C92930E1E31649
:103B60003FE5F30609F4BBCB61E1E6166FE5F60627
:103B700009F4BDCB93EFE9169CE5F90609F430CCC6
:103B800008F01AC1F8EDEF16FCE5FF0609F424CCA5
:103B900029EDE2162CE5F20609F42ECC37EDE316FA
:103BA0003CE5F30609F016C126E241EE61EEC801DC
:103BB0000E94B6179ACA85E0DE01119601900D9217
:103BC0008A95E1F7F801228189819A81211169CAD8
:103BD0000E94FA09F82E6DCA82722CECE2162CE5CE
:103BE000F20609F46ACD08F0A7C066ECE6166CE5AB
:103BF000F60609F44ECD08F076C093ECE9169CE584
:103C0000F90609F43ACD08F05DC0F2ECEF16FCE5D8
:103C1000FF0609F40BCD3AE5E3163DE5F30609F49A
:103C20008DCD08F066CDE1147CE5F70609F476CD7C
:103C30008EEDE8168CE5F80609F47DCDF801828159
:103C4000E080F180882309F47DCDC7010E94650FD3
:103C5000D82E682FC7010E94230AB7018D2D0E941C
:103C6000580F0E94B8077C01882EF801D280C580C9
:103C7000C2943FE0C3228091F5018770A1F0AD2C82
:103C8000DD2091F08F2D807F803421F080E28E0D39
:103C9000883048F082E00E948F0A8091F501877099
:103CA000AA24A3948111A12C9F2C92942FE09222FC
:103CB000FBE0F91508F482CDE92DF0E0ED52F54D69
:103CC0000C94C92924ECE2162CE5F20609F4DCCCAC
:103CD00047ED50E160EE70E135ECE3163CE5F306AC
:103CE00009F4CFCC98CF69ECE6166CE5F60609F43A
:103CF000DACC88F497ECE9169CE5F90609F4CECC09
:103D00004BEC50E16FEB70E1E8ECEE16ECE5FE06F3
:103D100009F4B7CC80CFFAECEF16FCE5FF0609F406
:103D2000C7CC49EE50E16AEF70E12BECE2162CE5CE
:103D3000F20609F4A6CC6FCF31EDE3163CE5F306AD
:103D400009F4CBCCB8F47EECE7167CE5F70609F471
:103D5000BCCC08F4B7CC9FECE9169CE5F90609F455
:103D6000B9CC6EE089E0E0EDEE16ECE5FE0609F474
:103D7000AECC51CFF4EDEF16FCE5FF0609F4B3CC61
:103D800078F432EDE3163CE5F30609F4A9CC63EDD3
:103D9000E6166CE5F60609F03ECF61E088E16ACCF4
:103DA00075EDE7167CE5F70609F4A0CC8DE5E8167D
:103DB000F80609F49AC92FCF65EFE6166CE5F6060A
:103DC00009F416CB08F410CB86EFE8168CE5F8065C
:103DD00009F483C0F6E1EF16FCE5FF0609F02ECFEB
:103DE0008091B001811120CC89E20E94910920CB01
:103DF00093EFE9169CE5F90609F4F2CA08F05FC0F2
:103E0000F8EDEF16FCE5FF0609F4E6CA29EDE21627
:103E10002CE5F20609F4F0CA37EDE3163CE5F306AB
:103E200009F4C2CE1092A80263E0E6166DE5F6062C
:103E300008F0E5CA7AEFE7167CE5F70630F4C7012B
:103E400082509C45449708F0E0CA0E94E00F90938E
:103E500074028093730290E1E9169CE5F90609F477
:103E6000BCCB08F026CBF8E0EF16FCE5FF0609F422
:103E7000A2CB08F0F6CA34E0E3163CE5F30609F4F9
:103E80008CCB08F0D8CA72E0E7167CE5F70609F497
:103E90007ACB83E0E8168CE5F80609F47ACB6091DA
:103EA0007302F090740284E090E00E94042A6F2D67
:103EB00082E290E00E94042A0E94E41216C965EF93
:103EC000E6166CE5F60609F493CA08F48DCA86EF87
:103ED000E8168CE5F80609F0A5CF27E245EE66EE78
:103EE00066CE1F93CF93DF938091C201807FA1F4B0
:103EF0008091BF01882381F02091F4011091C301CA
:103F00004091BD01A091BE01C091C001D091C101FD
:103F1000B42FBA23121304C0DF91CF911F910895DB
:103F200030E0209711F0BF3F21F42F5F3F4F277003
:103F3000F1CFC90166E070E00E949029FC01EC53CA
:103F4000FE4F81818A13F1CF80818413EECF82816D
:103F50008111EBCF838194818C1B9D0B883C910553
:103F600020F78091C2018F7080618093C201C901E6
:103F700066E070E00E949029FC01E753FE4F9081BB
:103F80009F70906190838DEB91E00E941A18DF91F1
:103F9000CF911F910C94F009AF92BF92CF92DF9214
:103FA000EF92FF920F931F93CF93DF93CDB7DEB7BE
:103FB00061970FB6F894DEBF0FBECDBF8C0185E0D0
:103FC000F801DE011D9601900D928A95E1F7D80166
:103FD0001296EC9012978DEBA82E81E0B82E60918E
:103FE000C0017091C1016115710509F438C190914A
:103FF000BD012091BE01892F82238F3F09F42FC17B
:104000004C911196EC9111971396CD90DC90F09015
:10401000BF01D601A61BB70BFF2009F4EBC08091AE
:10402000C201382F307FA83CB10508F0AEC0311175
:104030007AC0FE2C2E1321C094131FC0E1101DC0A6
:104040008F7080618093C201C5010E941A1880910F
:10405000C201F80185838F2D61960FB6F894DEBFFB
:104060000FBECDBFDF91CF911F910F91FF90EF90C9
:10407000DF90CF90BF90AF900895CD2829F0842F86
:104080008E238F3F09F006C180E0F82FF170DF2EFC
:104090002091F401F091C30180FD21C0EE20D9F2FE
:1040A0008091C20181608093C201F12CD4CF30E0B5
:1040B000C90166E070E00E949029DC01AC53BE4F5C
:1040C00011968C911197E81307C08C91481304C086
:1040D00012968C91E812E2CF2F5F3F4F27702F137B
:1040E000E6CF4D87EE878D859E850E94940F292F00
:1040F00022952F70223058F0243080F49F7059F0B0
:10410000D80115969C91907F31F4D12C0AC09F70F4
:1041100011F08823D1F3805E8830B8F3C8010E9483
:104120001A18FD2C98CF2E1306C0941304C0F80162
:10413000EE2009F479C0C8010E94A00F882309F17C
:10414000EE20F9F08091C201803270F02091BD0123
:104150003091BE0138872F831986DB86CA868C870B
:10416000CE0107960E941A1886E0F801ADEBB1E087
:1041700001900D928A95E1F70E94711FFF24F3943C
:104180006ACFC8010E941A18F9CF31110AC08DEB0D
:1041900091E00E941A1886E0D5011D928A95E9F7F0
:1041A00084CF2E130FC094130DC0E1100BC0F80183
:1041B0008583C8010E941A1886E0D5011D928A9550
:1041C000E9F749CFC8010E94A00F8823D1F2EE2061
:1041D000C1F28091C201803238F22091BD0130914C
:1041E000BE013A8329831B82DD82CC828E83CE017D
:1041F0000196B8CFA83CB105F8F6FE2CEE2009F2E6
:104200002E131FC094131DC08091C20180FD10C0E9
:10421000982F907F69F0F8018583903F31F0982FB7
:10422000907F905F8F70892B8583C8010E941A1838
:1042300086E0F801ADEBB1E001900D928A95E1F7CF
:104240000ACFC8010E94A00F81118ECF8091C201B8
:1042500081608093C201C8010E941A18FCCEEE2032
:1042600009F48FCFC8010E94A00FF82E882309F40B
:1042700088CF86E0F801ADEBB1E001900D928A9510
:10428000E1F78091BD019091BE010E94940F0E94C0
:10429000711FE1CE81E08E25F8CECF93DF93CDB7AD
:1042A000DEB767970FB6F894DEBF0FBECDBF4B8B5E
:1042B0005C8B6D8B7E8B8F8B61111092F7011A8A4C
:1042C000198A85E0FE017396DE011D9601900D921C
:1042D0008A95E1F786E0FE013D96DE011796019092
:1042E0000D928A95E1F7CE0107960E94CC1F8111AD
:1042F00012C086E0FE013796DE01119601900D9204
:104300008A95E1F78A859B85892B29F08F8198858D
:1043100089238F3FB1F58091F4019091C3018913F6
:104320001CC067960FB6F894DEBF0FBECDBFDF91FD
:10433000CF91089566E070E00E949029DC01AC53B3
:10434000BE4F96E0FE01319601900D929A95E1F7ED
:104350002093C3010E94F009DECF90E066E070E098
:104360000E9490298C539E4F0E94CC1F8823C9F233
:104370008091F40190E00196877099278093F40171
:10438000CACF8091C30190E09C012F5F3F4F2770FF
:1043900033274091F4014217130661F60E94E4129C
:1043A0001092C3011092F40186E0EDEBF1E0DF0121
:1043B0001D928A95E9F7AFCF1F920F920FB60F9219
:1043C00011242F933F934F935F936F937F938F931A
:1043D0009F93AF93BF93CF93DF93EF93FF93D091CE
:1043E000E900DF708091EC00C82FC17080FDC0E84B
:1043F0001092E9008091F000877F8093F00078941C
:104400000E94F9121092E9008091F0008860809378
:10441000F000CD2BCF70C093E900FF91EF91DF91B9
:10442000CF91BF91AF919F918F917F916F915F914C
:104430004F913F912F910F900FBE0F901F901895A5
:104440001F920F920FB60F9211242F933F934F9309
:104450005F936F937F938F939F93AF93BF93EF93EC
:10446000FF938091E10082FF09C08091E20082FF0A
:1044700005C08091E1008B7F8093E1008091E10095
:1044800080FF17C08091E20080FF13C08091E2009E
:104490008E7F8093E2008091E20080618093E20051
:1044A0008091D80080628093D80019BC85E0809309
:1044B0009C028091E10084FF29C08091E20084FF8A
:1044C00025C084E089BD86E089BD89B5982F9170AB
:1044D00080FFFBCF8091D8008F7D8093D8008091A2
:1044E000E1008F7E8093E1008091E2008F7E8093D7
:1044F000E2008091E20081608093E20080919D0261
:10450000882309F43FC084E080939C028091E100FD
:1045100083FF27C08091E20083FF23C08091E100E8
:10452000877F8093E10082E080939C0210929D023D
:104530008091E1008E7F8093E1008091E2008E7F88
:104540008093E2008091E20080618093E20042E08B
:1045500060E080E00E94DB038091F000886080933F
:10456000F000FF91EF91BF91AF919F918F917F915B
:104570006F915F914F913F912F910F900FBE0F90D0
:104580001F9018958091E30087FD93E090939C0223
:10459000BDCF78941F921FB61F9211248F939F93C3
:1045A000AF93BF9380916F0290917002A0917102BE
:1045B000B09172020196A11DB11D80936F0290937C
:1045C0007002A0937102B0937202BF91AF919F915C
:1045D0008F911F901FBE1F9018951F921FB61F929C
:1045E00011248F939F93AF93BF9380916E0281119B
:1045F00013C080916F0290917002A0917102B091EE
:1046000072024196A11DB11D80936F0290937002BA
:10461000A0937102B0937202BF91AF919F918F915D
:104620001F901FBE1F9018951F920F920FB60F92EA
:1046300011242F933F934F935F936F937F938F93A7
:104640009F93AF93BF93EF93FF93809166029091F6
:104650006702019668EB75E00E94A12990936702BA
:10466000809366026BE070E00E94A1296F778091D1
:104670006502823041F4603451F480916F008E7F86
:1046800080936F0004C0813011F46F37B1F3E62FCF
:10469000F0E0ED5AFB4F849190E061E071E00E9400
:1046A000902965E070E00E94A129CB01209164026D
:1046B000269526952695622F70E00E9490290E94EB
:1046C000BF0490938D0080938C00FF91EF91BF9178
:1046D000AF919F918F917F916F915F914F913F919A
:1046E0002F910F900FBE0F901F901895CDB7DEB78A
:1046F000AA970FB6F894DEBF0FBECDBF84B7877FF1
:1047000084BF0FB6F894A89580916000886180936B
:104710006000109260000FBE80E890E00FB6F89441
:1047200080936100909361000FBE8CE597E09093B9
:104730008F0180938E011092E2001092E10080912F
:10474000E00081608093E0008091D8008F778093B3
:10475000D80019BC8091630081608093630010923F
:10476000FE01809163008E7F8093630081E08093DF
:10477000FE011092E2001092E1008091D8008F7744
:104780008093D8008091D80080688093D800809171
:10479000D8008F7D8093D80084E089BD86E089BDF4
:1047A00089B5282F2170F22E80FFFACF10929C023B
:1047B00010929D0210929B0210929A0242E060E0D9
:1047C00080E00E94DB038091E1008E7F8093E10016
:1047D0008091E20081608093E2008091E200886035
:1047E0008093E2008091E0008E7F8093E0008091D2
:1047F000E20084608093E200789480919C02882398
:10480000A1F01091E9001F709091EC00892F817048
:1048100090FD80E8182B1092E9008091E80083FD5C
:104820000E94F9121F701093E90082E084BD93E0AA
:1048300095BD9AEF97BD80936E000E94C70F8111BE
:1048400002C00E94D40E00E511E046E5C42E41E00E
:10485000D42EF80181918F018F3F11F00E945E07E5
:10486000C016D106B1F784E60E945E0785E60E9475
:104870005E0783E30E945E0782E30E945E07EFEF1C
:10488000F1E0AFE0B2E011921D9222E0E530F207D4
:10489000D1F70E94B312811102C00E94761182E00A
:1048A00090E00E94F029809316020E94E00F9093FE
:1048B0007402809373020E94E0118FE39CE90197D8
:1048C000F1F700C000000E94E01180910F0280FF0C
:1048D00008C06FEF7FEF90E080E00E94222A0E94E4
:1048E000C50B83E090E00E94F0290E94B60A249A4A
:1048F0002C9A279A2F988AE08093800089E18093F0
:1049000081008FEF9FEF90938700809386000E9435
:10491000BE128091640281FF0BC010926702109258
:1049200066021092650280916F00816080936F0033
:104930000E94BE1280910502811133C00E94B31201
:10494000811104C00E9476110E94671188E090E0F6
:104950000E94F82960935F02709360028093610265
:10496000909362026E7F71F40E94671188E090E07C
:104970000E94F82960935F02709360028093610245
:10498000909362020E943F0510922B0280915F0279
:1049900080FF04C060E086950E940B1181E0809347
:1049A000050280E091E090936B0280936A0298E1A7
:1049B000C92ED12C20E4722E8FE092E036E0E32E57
:1049C000E80E80919C02BB24B39404E016E085308D
:1049D00009F49AC10E94E011882359F08FB7F89426
:1049E00040916F0250917002609171027091720259
:1049F0008FBFE9E0F2E0AFE0B2E010E000E0302F7E
:104A00008D919191981709F4A3C1292F282790E03F
:104A1000BF2C422F4B2109F496C199A33AA38B21B5
:104A200091E009F490E09BA30E947B048160782FC1
:104A30009DA38CA349A15AA16BA18DA10E944D21D8
:104A4000F801E75FFD4F8081B826B08280912B028C
:104A50008823D1F180912A02E0915F02E695E81B5C
:104A6000E0932602823009F08AC1F0E0E65BFD4F58
:104A7000E4910E2F10E086E4A82E8EE0B82E8091EF
:104A80002702882361F0109227020E947B049093F2
:104A900025028093240210922902109228020E947B
:104AA0007B04E0912402F09125028E1B9F0B8F3F27
:104AB0009F4750F4E00FF11FF0932502E09324028A
:104AC00084E292E0F501099586E0EEE1F2E0DE0194
:104AD000119601900D928A95E1F7A0902002B09076
:104AE00021021091220200912302109220021092C2
:104AF000210210922202109223028A2D8B2991F01A
:104B000080911C0290911D020E946C04FC01209176
:104B10001802222309F48DC180910B018E171F0604
:104B200008F496C1812F802B09F44DC080911A02A0
:104B300090911B020E946C049C0190911702992392
:104B400009F4E0C32536310508F43DC09F3F19F054
:104B50009F5F90931702112351F00E947B066FEF25
:104B600011160CF46F2D0E948729809322020023D6
:104B700051F00E947B066FEF10160CF46F2D0E940F
:104B8000872980932302809122028823E1F02091DB
:104B900023022223C1F0082E000C990B65EB70E074
:104BA0000E949029992309F496C190932202822FA2
:104BB000220F990B65EB70E00E949029992309F46C
:104BC0008EC1909323028091200290912102892B23
:104BD00090912202892B90912302892B11F00E943F
:104BE000DB0586E0FE013196AEE1B2E001900D9268
:104BF0008A95E1F70E94B30490910802891731F079
:104C00000E94B304809308020E942C0B80919C02A6
:104C1000843009F0D6CE83E08093E9008091E800EB
:104C200082FFCFCE8091E80090E085FF06C00E9411
:104C30006103882309F457C191E08091E8008B77E4
:104C40008093E800992309F4BCCEE981E150E33177
:104C500008F0CBC1F0E0E152F54D0C94C9298091E8
:104C60009C02843009F443C080E00E94FA0480E092
:104C70000E942C0B10922B0280910702811116C00A
:104C8000B092070280915F02982F91709093060274
:104C90008E7F80935F029FEFE0E7F2E09150E0406B
:104CA000F040E1F700C000000E94E90B10926E0294
:104CB0000FB6F894A895C09260000FBE7092600085
:104CC00083B7817F846083BF83B7816083BF78941B
:104CD000889583B78E7F83BF0FB6F894A89580918F
:104CE0006000886180936000109260000FBE809128
:104CF0009B02882349F00E94E011EFE0F2E08191ED
:104D00008111E1C2EE12FBCF80919C02853009F443
:104D1000A6CF0E94E4120E94BE120E94B3040E9419
:104D20002C0B1092070280910602882349F0809193
:104D30005F02816080935F0260E086950E940B11A4
:104D40000E94EE0F47CE9F5FBB0C943009F061CEFE
:104D50000F5F1F4F0630110509F051CE8FEF8EA364
:104D60008FA318A60E947B048160782F9AA789A739
:104D70004EA15FA168A58AA50E944D2167CE86300D
:104D800059F4F0E0E95BFD4FE4910E2F10E0B6E33B
:104D9000AB2EBEE0BB2E73CE893061F4E695F0E019
:104DA000EC5BFD4FE4910E2F10E0A2EAAA2EADE0DD
:104DB000BA2E65CE8F3061F4E695F0E0EF5BFD4FE3
:104DC000E4910E2F10E0FEE3AF2EFDE0BF2E57CE94
:104DD000853159F4F0E0E25CFD4FE4910E2F10E0D4
:104DE000E0EFAE2EECE0BE2E4ACE08E210E057E532
:104DF000A52E5CE0B52E883109F441CE833249F40A
:104E0000ECE3F2E0059114917DEDA72E7DE0B72E45
:104E100036CE04EF11E06EE1A62E6CE0B62E8432A1
:104E200009F42DCE00ED17E04EE3A42E45E0B42E9C
:104E300026CE80910A0190E06AE070E00E949029FD
:104E40008E179F0708F06ECE2F5F2093180202C0C6
:104E50002F3FD1F7AA2051F00E94B6066FEF1A1427
:104E60000CF46F2D0E94872980932002BB2051F003
:104E70000E94B6066FEF1B140CF46F2D0E94872959
:104E80008093210280912002882309F44BCE209147
:104E90002102222309F446CE082E000C990B65EB63
:104EA00070E00E949029992371F090932002822F44
:104EB000220F990B65EB70E00E949029992339F03D
:104EC000909321022FCE81E080932002F0CF81E0E9
:104ED0008093210227CE81E08093220268CE81E078
:104EE0008093230270CE00E210E0CE0101965C01B7
:104EF0008091E80085FD0AC08091E8008B7780935F
:104F0000E8000E946103882399F396CE8091F10016
:104F1000F50181935F010150110951F78DCE1A827D
:104F200089E08B832DC08A81823009F4E2C183300D
:104F3000A9F0813009F059C02FB7F89460916F0241
:104F40007091700280917102909172022FBF0E9445
:104F5000CF296B837C838D839E8312C080910F0247
:104F60008B83809110028C83809111028D838091BC
:104F700012028E83809113028F838091140288879E
:104F800080919C02843009F01CCD1091E9001F70C3
:104F90009091EC00892F817090FD80E8182B82E0C1
:104FA0008093E9008091E80080FF0DC050E040E070
:104FB00060E270E0CE0101960E9492038091E800C9
:104FC0008E778093E8001F701093E900FACC8A81F5
:104FD000823059F46B817C818D819E810E94CF2922
:104FE00086E290E00E94042ACBCF8FEF8983C8CF5E
:104FF0004C816B818A810E942D0F982789279827E1
:105000009E838D83BDCFAD80BE80BA24AB24BA24ED
:105010008A8190E060E370E00E9490290B8110E0AB
:1050200023E0000F111F2A95E1F7080F191F8C814B
:1050300090E0880F991F080F191F6B2DC8018796E4
:105040000E94042A6A2DC8018896CCCF0E946A0E5D
:1050500097CF8A81893091F08A30F1F08A81813846
:1050600079F118F5803809F08BCF20E04B81609101
:105070006102809160020E94161082CF8B8190E0C5
:1050800065E070E00E9490296FEF70E00E94A12916
:10509000862F0E942305E2CF8B81811103C00E94DD
:1050A000E80EDCCF0E94FE0ED9CF823859F183384A
:1050B00009F066CF20E0409162026C818B81DBCFEA
:1050C00060E08B810E940B119B8180915F029111A6
:1050D00011C08E7F80935F0210922B02FFEF20E7BA
:1050E00082E0F15020408040E1F700C000000E94C3
:1050F000E90B46CF816080935F0260E086950E9455
:105100000B113ECF8B81809363023ACF8A81893025
:1051100059F08A30C9F0813841F1D8F4803809F06B
:105120002FCF80916202FDCE809164028695869594
:10513000869590E06FEF70E00E94902965E070E046
:105140000E94A1296B831CCF809164028695817097
:10515000E8CE823891F0833809F012CF8091600256
:105160008B83809161028C830BCF80915F0280FFE3
:1051700002C08695D6CE80E0D4CE80916302D1CE97
:10518000809164020E94E30E60915F027091600260
:1051900080916102909162020E940410F1CE80E140
:1051A0008A83EECE83E08A8389E1BBCE0A811B81AC
:1051B000102701271027FE0131965F018C80CF0157
:1051C000880D911D4C01C80189519F4F8A149B0481
:1051D00009F4D6CE0931E3E01E0750F40E94F0290D
:1051E000F50184830F5F1F4FFFEFAF1ABF0AEBCFAC
:1051F000F5011482F7CF0A811B81102701271027A0
:10520000CE0101964C01AC80A00EB12EB11CC8019C
:1052100089519F4FA016B10609F4B2CE0931E3E0DF
:105220001E0720F4F40164810E94042AFFEF8F1A04
:105230009F0A0F5F1F4FEBCF0E945A0EA1CE84E052
:10524000AFCF0A811B81102701271027CE010196BD
:105250005C018C80FC01E80DF11D4F01C8018796AF
:105260008A149B0409F48CCE003C110550F40E9472
:10527000F029F50184830F5F1F4FFFEFAF1ABF0ABC
:10528000EDCFF5011482F7CF0A811B81102701278A
:105290001027CE0101964C01AC80A00EB12EB11C9E
:1052A000C8018796A016B10609F46ACE003C110524
:1052B00020F4F40164810E94042AFFEF8F1A9F0AF0
:1052C0000F5F1F4FEDCF09BD19BD09B400FEFDCF23
:1052D0008091D8008F7D8093D8008091E00082601B
:1052E0008093E0008091E00081FDFCCF0E94E412F9
:1052F0000BCD86E290E00E94F0291B821C821D8269
:105300008E833ECE2D32314008F022CC5CCC00247E
:1053100080FD060E660F11F08695D1F7802D089559
:105320000024552704C0080E591F880F991F0097A5
:1053300029F076956795B8F37105B9F7802D952F0B
:105340000895AA1BBB1B51E107C0AA1FBB1FA617CC
:10535000B70710F0A61BB70B881F991F5A95A9F71E
:1053600080959095BC01CD01089597FB072E16F40A
:10537000009407D077FD09D00E94A12907FC05D031
:105380003EF4909581959F4F0895709561957F4F5C
:105390000895EE0FFF1F0590F491E02D0994692701
:1053A000962769277827872778270895FC01415099
:1053B000504030F001900616D1F73197CF01089593
:1053C000882799270895FB01DC0104C08D91019085
:1053D000801921F441505040C8F7881B990B08955B
:1053E000F999FECF92BD81BDF89A992780B50895AD
:1053F000A6E1B0E044E050E00C942A2AA8E1B0E035
:1054000042E050E00C942A2A262FF999FECF92BD53
:1054100081BDF89A019700B4021639F01FBA20BD79
:105420000FB6F894FA9AF99A0FBE08950396272FAB
:105430000E94052A0E94042A252F0E94052A242F53
:105440000C94052A0196272F0E94052A0C94042A01
:10545000DC01CB01FC01F999FECF06C0F2BDE1BD34
:10546000F89A319600B40D9241505040B8F7089523
:10547000EE27FF27AA27BB2708C0A20FB31FE41FF0
:10548000F51F220F331F441F551F9695879577955B
:10549000679598F37040A9F7009799F7BD01CF0180
:1054A0000895A1E21A2EAA1BBB1BFD010DC0AA1F65
:1054B000BB1FEE1FFF1FA217B307E407F50720F07D
:1054C000A21BB30BE40BF50B661F771F881F991FF8
:1054D0001A9469F760957095809590959B01AC0141
:1054E000BD01CF010895F894FFCFB20FB20FBB0FEB
:1054F000BB0FBD0FBB0FBB0FBB0FB20FB20FC20F65
:10550000BB0FBB0FC20FDC13041457140414571441
:1055100037146F1457146B157815D415CB15E11586
:10552000C9152E162E16C9152E162E16FD152E1659
:10553000081613162E162E162E162E16C9152E16F2
:105540002E16C9152E16EF152E162E162C162C16E5
:105550002C162C162C162C162C162C162C161E1649
:105560002E16D415C7152E162E162E162E162E16DE
:105570002E162E162E162E162E161E162E162E161B
:10558000C9152E162416241624162416241624169D
:105590002416241624161E167919811983199F19A9
:1055A000B319CB19E219A71BA71B1B1C1B1C791CC9
:1055B000931CDE1BDE1B9E1C0B1D1C1D1C1D8F2740
:1055C0009327E727F8270328262829288628C02894
:1055D000F527F527CF28D228D628FB281C291F29F4
:0455E0002129442910
:1055E4006904850B640B600B5C0B1E32140A2808DB
:1055F40001191A1B1C1D1E1F2021220102010181F9
:105604008283E200E900EA00B500B600B700CD00ED
:105614008301CC008A019201940121022302240215
:105624002502260227022A02B300B4006F0070008C
:105634009391926667366465333200010202020276
:105644000606060909090909090F0F0F0F0F0F159F
:105654001515181919191919191919191923244083
:0E56640022B64C012A017400A505BE05DE0524
:00000001FF
