:100000000C948D020C94C5020C94C5020C94C5028C
:100010000C94C5020C94C5020C94C5020C94C50244
:100020000C94C5020C94C5020C94C5020C94721E6B
:100030000C942E1E0C94411F0C94C5020C94C50206
:100040000C94C5020C94C5020C94681F0C941D1FDF
:100050000C94C5020C94C5020C94C5020C94C50204
:100060000C94C5020C94C5020C94C5020C94C502F4
:100070000C94C50205010902A10185020901A10034
:100080000509190129081500250195087501810246
:100090000501093009311581257F95027508810612
:1000A00009381581257F950175088106050C0A38E8
:1000B000021581257F950175088106C0C0050109DB
:1000C00080A101850319012AB700150126B7009503
:1000D0000175108100C0050C0901A10185041901F9
:1000E0002AA002150126A002950175108100C00505
:1000F000010906A1018506050719E029E715002574
:10010000019508750181020507190029EF150025E1
:100110000195F075018102050819012905950575FC
:10012000019102950175039101C00660FF0961A16B
:10013000010962150026FF009520750881020963F8
:10014000150026FF00952075089102C005010906DB
:10015000A101050719E029E715002501950875019A
:1001600081029501750881010507190029FF150015
:1001700026FF0095067508810005081901290595D7
:100180000575019102950175039101C00000000001
:10019000000000000000000000000000000000005F
:1001A000000000000000000000000000000000004F
:1001B0007E0F00D4FFFFFFC70000007800000000A2
:1001C000000000002A2B28000000000000000000B2
:1001D0000000000000000029000000002C1E342058
:1001E000212224342627252E362D3738271E1F207E
:1001F0002122232425263333362E37381F040506C3
:100200000708090A0B0C0D0E0F1011121314151606
:100210001718191A1B1C1D2F3130232D3504050604
:100220000708090A0B0C0D0E0F10111213141516E6
:100230001718191A1B1C1D2F3130354C00010101F4
:100240000101010101010202020202020202020393
:100250000303030303030304040404040404050563
:100260000505050606060606070707070708080826
:1002700008090909090A0A0A0B0B0B0C0C0C0D0DD5
:100280000D0E0E0E0F0F0F1010111111121213136D
:100290001414151516161717181819191A1A1B1BE6
:1002A0001C1D1D1E1E1F2020212222232424252642
:1002B00026272829292A2B2C2D2D2E2F303132327A
:1002C000333435363738393A3B3C3D3E3F40414286
:1002D000434445464748494A4C4D4E4F505153546C
:1002E000555658595A5B5D5E5F6162646566686920
:1002F0006B6C6D6F7072737577787A7B7D7E8082A0
:10030000838587888A8C8E8F91939596989A9C9EE8
:10031000A0A2A3A5A7A9ABADAFB1B3B5B7BABCBEF8
:10032000C0C2C4C6C9CBCDCFD1D4D6D8DBDDDFE2C5
:10033000E4E7E9EBEEF0F3F5F8FAFDFF000000006A
:100340000000000000000001010203040506080A85
:100350000C0F1114181C2024292E33393F464C53FE
:100360005B626A7179818A929AA2AAB2B9C1C8CF36
:10037000D5DCE1E7EBF0F4F7FAFCFDFEFFFEFDFC57
:10038000FAF7F4F0EBE7E1DCD5CFC8C1B9B2AAA225
:100390009A928A8179716A625B534C463F39332E57
:1003A0002924201C1814110F0C0A08060504030246
:1003B0000101000000000000000000002900B20060
:1003C00001522A0053005400550056005F0060009F
:1003D000610057005C005D005E00570059005A0044
:1003E0005B00580062006200630058000100625226
:1003F0006352005243004400450046004000410063
:1004000042002B003D003E003F002B003A003B0025
:100410003C0058007C007C007D0058000100015227
:1004200063520052710072007300E7006E006F00AB
:10043000700007036B006C006D0007036800690023
:100440006A001003A800A800A8001003007C015255
:10045000025200520100010001000100DA00CD004B
:10046000D9000703CF00D100D0000703DB00CE0086
:10047000DC001003A800A8000100100309025B00C3
:10048000030100A0FA090400000103010100092191
:100490001101000122400007058103080001090441
:1004A00001000203000000092111010001222200C5
:1004B000070582032000010705030320000109044A
:1004C0000200010300000009211101000122B60011
:1004D0000705840320000112010002000000080348
:1004E000A1060001000102000118034B0042004474
:1004F000005000410044002D004D004B00490049D0
:1005000000000010034B0042004400660061006ED2
:100510000073000000040309040011241FBECFEF84
:10052000D4E0DEBFCDBF04B603FE18C080919102B7
:1005300090919202A0919302B09194028730904BD7
:10054000A740B04B59F4109291021092920210926F
:10055000930210929402E0E0F8E3099522E0A2E60B
:10056000B1E001C01D92A139B207E1F711E0A0E0AE
:10057000B1E0ECE4FEE402C005900D92A236B107B2
:10058000D9F70E94E31F0C9477260C940000209169
:10059000E4003091E50095E6A9012091EC00822F5E
:1005A000817020FF06C08091E80080FF06C080E0D7
:1005B00008952091E80022FD1AC0809184028823CA
:1005C00089F0853089F08091EB0085FD0FC0209186
:1005D000E4003091E50042175307F9F29150E1F63B
:1005E00084E0089582E0089583E0089581E008950D
:1005F0008091860287FF13C08091E80082FF06C0C9
:100600008091E8008B778093E80004C08091840299
:100610008111F2CF0895809184028823D9F38091CB
:10062000E80080FFF8CF8091E8008E77ECCF982F1C
:100630009093E900242F762F50E0891731F07091C4
:10064000EC002091ED005091F00021FD07C09F5F6C
:10065000953071F78093E90081E008953091EB00C7
:100660003E7F3093EB003091ED003D7F3093ED0005
:100670003091EB0031603093EB007093EC002093ED
:10068000ED005093F0002091EE0027FDE0CF80E0D8
:100690000895FC0180918C0290918D028617970736
:1006A000A0F06115710529F49091E8009E77909370
:1006B000E80090E06115710551F4911108C0809136
:1006C000E80082FF32C080E00895BC01F2CF809143
:1006D00084028823B1F18530B1F18091E80083FD77
:1006E0002EC08091E80082FDEACF8091E80080FF73
:1006F000E1CF2091F20030E06115710519F028304A
:10070000310558F091E02830310509F090E0209152
:10071000E8002E772093E800CDCF81918093F100FF
:10072000615071092F5F3F4FE7CF8091840288238A
:1007300041F0853041F08091E80083FFC0CF81E037
:10074000089582E0089583E00895809161020895FC
:100750009C014FB7F89480915A0290915B02A0914E
:100760005C02B0915D024FBF821B930B08952FB7BF
:10077000F89480915A0290915B02A0915C02B09132
:100780005D022FBF0895A3E0B0E0E9ECF3E00C9424
:10079000C025209157023091580228173907A1F03F
:1007A0009093580280935702E0915502F0915602BF
:1007B000309751F024E029839B838A830680F78158
:1007C000E02DCE01019609952396E2E00C94DC25FC
:1007D000A3E0B0E0EEEEF3E00C94C02520915302CC
:1007E0003091540228173907A1F090935402809356
:1007F0005302E0915502F0915602309751F023E0F8
:1008000029839B838A830680F781E02DCE010196A0
:1008100009952396E2E00C94DC25E0915502F091D5
:100820005602309729F00190F081E02D0995089546
:1008300080E00895B0E0A0E0E0E2F4E00C94B6259A
:100840008C0180918600909187006CE070E00E949E
:100850007B256017710758F0C80169E070E00E94BD
:100860007B25CB01CDB7DEB7ECE00C94D22580918F
:10087000860090918700E0908600F0908700C090FD
:100880008600D0908700C6E0D0E0BE010E947B25A4
:1008900030E020E0060F171F211D311D48015901CE
:1008A00085E0880C991CAA1CBB1C8A95D1F7C7014E
:1008B000BE010E947B25F12CE12CA7019601260F99
:1008C000371F411D511DC501B4010E945526690104
:1008D0007A01C0918600D0918700CA01B9010E94B7
:1008E0003C269E0150E040E00E943C26A701960174
:1008F0000E943C262FE096958795779567952A95D7
:10090000D1F7009186001091870030E020E00617B3
:1009100017072807390708F0A4CF60918600709167
:1009200087009FCF282F863008F5811120C0909135
:100930008000977F909380002F986091860070913F
:10094000870090E080E030E050E040E00E943C26EC
:1009500025E030E040E050E00E945526C9010E94A9
:100960001A0490938D0080938C00089525E0909157
:100970008000986090938000E0CF282F220F220FF4
:10098000220F90914D029770922B90934D02987F79
:1009900021E009F420E090914D0220FB90F9909322
:1009A0004D020E9492040895FA01811101C0FB01D9
:1009B0000995089580914802982F9E7F39F480917F
:1009C0004802817082608093480208958430B8F7AD
:1009D00008950E94B7039C01909114028091150222
:1009E000982B21F03093110220931002909116025F
:1009F00080911702982B21F030930F0220930E0262
:100A0000E0915502F0915602309749F082E08093D0
:100A100012020480F581E02D82E192E009950895AB
:100A200080910D0280FF0CC060910D0170E0759502
:100A30006795759567956115710559F1862F08952C
:100A400081FF06C060910D0170E075956795F3CF49
:100A500060910D0170E082FD0CC060910C02662374
:100A6000A9F020910C0180910D0190E0621730F007
:100A7000BC0160387105F8F28FE7089570E00E94BC
:100A80006A25622F70E00E948F25F3CF61E070E04D
:100A9000D5CF81E0089580910D0280FF0DC0609157
:100AA0000B0170E0660F771F60387105A8F56115BE
:100AB0007105A1F1862F089581FF08C060910B0197
:100AC00070E0660F771F660F771FEECF60910B0106
:100AD00070E082FD0BC080910B028823D1F0209141
:100AE0000A0160910B0170E0821730F043E0660F5D
:100AF000771F4A95E1F7D8CF90E00E946A2533E04E
:100B0000880F991F3A95E1F7622F70E00E948F25B8
:100B1000CBCF68E070E0CECF8FE7089581E00895F5
:100B200080E00895F894E82FE295EF70F0E031A1AD
:100B3000282F2F7081E090E001C0880F2A95EAF7F6
:100B4000982F9095932391A392A1892B82A37894B7
:100B5000089590915E0292FF06C0282F28712830D8
:100B6000F9F4877F846093FF06C0282F287128310D
:100B7000F1F4877E846120915F0220FF06C0382F48
:100B800038713830D9F4877F816021FF06C0282F63
:100B900028712831D1F4877E816194FD877E089584
:100BA000282F24712430F9F68B7F8860DCCF282F22
:100BB0002471243101F78B7E8861DDCF382F3171AC
:100BC000313019F78E7F8860E0CF282F21712131D5
:100BD00021F78E7E8861E1CF82389105B9F1B0F4BA
:100BE0008133910509F47DC048F48932910509F4F7
:100BF0006DC08A32910509F47BC008958533910553
:100C000009F45FC08933910509F10895833E910588
:100C1000D9F138F4803E910529F1823E910579F1B0
:100C20000895863E9105D9F1873E910509F43EC0AD
:100C3000843E910541F520915F0221FF24C08091FF
:100C40005E0284FD19C087EE90E0089520915E0257
:100C5000237009F05AC020915F0223FF14C089E27B
:100C600090E0089520915E0220FD38C030915F022F
:100C700030FF09C024FF43C090E080E00895209138
:100C80005E0222FDF7CF089520915E0222FD3AC058
:100C900030915F0230FD39C024FFF5CFEDCF2091B8
:100CA0005E0223FFF0CF24FDE7CFCDCF20915E027F
:100CB00023FD2EC030915F0231FFEECF84EE90E035
:100CC000089520915E0225FFDECFC9CF20915E02FC
:100CD00025FD21C020915F0223FFD5CF89E390E05D
:100CE000D2CF20915E0226FFCECF8AE290E0089517
:100CF00020915E0226FFC7CF81E390E0089583EE46
:100D000090E0089582EE90E0089580EE90E00895DE
:100D100086EE90E0089585E390E008951F93CF93C9
:100D2000DF930E94EC05EC01C11580E5D807F0F5D2
:100D3000C11580E4D80708F09EC0C03ED10520F55B
:100D4000CD3CD10508F084C0C83AD10578F4C53A45
:100D5000D10508F075C0C130D10519F1209709F10E
:100D6000C430D105F0F4D0E0C0E01BC0C33CD105D5
:100D7000D0F7C85AD0E0CC0FDD1FCD5EDE4F099012
:100D8000D881C02DD4640DC0C11580E2D80708F009
:100D9000D7C0C11581E0D80708F05CC0C83ED105B6
:100DA00010F7CE01DF91CF911F910895C03682E5F3
:100DB000D80728F5C03482E5D80708F06DC0C032E6
:100DC00082E5D80708F061C0C11582E5D80708F4AC
:100DD0009DC02C2F2695269530E085E0220F331FED
:100DE0008A95E1F78C2F8370C1E0D0E002C0CC0F70
:100DF000DD1F8A95E2F7C22BD32BDD68D2CFC03A34
:100E000082E5D80760F4C03882E5D80708F45BC0F3
:100E1000CF71D0E0DC2FCC27C46FD06AC2CFC03CEA
:100E200082E5D80708F466C0C03E82E5D80708F01E
:100E30009ACFDC2FCC27CC27DF71C06FD06AB1CF1F
:100E4000C55AD0E0C05FDE4FC881D0E0D064A9CFE2
:100E5000D065A7CF8D2F0E94A905182FCE01992705
:100E60000E94EC05C12FD0E0DC2FCC27CC27DF710E
:100E7000C82BD92B96CFCE0199270E94EC05CC2701
:100E8000DF70C82BD92BD06A8CCFCF71D0E0DC2F8C
:100E9000CC27C16FD06A85CF2C2F26952695277039
:100EA00030E0B5E0220F331FBA95E1F78C2F837045
:100EB000C1E0D0E002C0CC0FDD1F8A95E2F7C22B63
:100EC000D32BDC686ECF2C2F26952695277030E02B
:100ED000A5E0220F331FAA95E1F78C2F8370C1E0A4
:100EE000D0E002C0CC0FDD1F8A95E2F7C22BD32BD6
:100EF000DA6857CF8C2F8F710E94A905C82FD0E0D8
:100F0000DC2FCC27CC27DF71D0624BCF8C2F8F7199
:100F10000E94A90555E0D695C7955A95E1F7CF707F
:100F2000D0E0DC2FCC27282F30E084FF05C044E040
:100F3000220F331F4A95E1F7C22BD32BD06931CF53
:100F40008D2F8F710E94A905182FCE0199270E941D
:100F5000EC05C12FD0E0DC2FCC27CC27DF71C82BCC
:100F6000D92BD2CF8091EC0181111092EC01089520
:100F700080959091EB0198239093EB0108959091C7
:100F80000F019923D1F090915E0297FF16C0E82FD0
:100F9000E695E695E695EE31E0F4F0E0EC59FE4F8B
:100FA000282F277081E090E001C0880F2A95EAF78A
:100FB00080959281892382830895E6E6F1E09191FC
:100FC000891303C0DF0111971C9291E0EC36F907F9
:100FD000B1F7089590910F019923C1F090915E02AD
:100FE00097FF14C0E82FE695E695E695EE31F8F404
:100FF000F0E0EC59FE4F877021E030E001C0220F95
:101000008A95EAF78281822B82830895A6E6B1E071
:10101000EFEF90E02D91821751F0EF3F19F421117D
:1010200001C0E92F9F5F9630A9F7EF3F09F40895BB
:101030000E2E000CFF0BEC59FE4FE6CFCF93B82FCE
:10104000C62F2091C801A09197012A1303C080E008
:10105000CF91089530E0C90166E070E00E946A25F2
:10106000FC01E856FE4F81818C1306C080818B13F2
:1010700003C08281841304C02F5F3F4F2770E5CFE8
:1010800081E0E6CF8091C80190919701981301C04B
:1010900008958F5F8770FACF963090F5843080F591
:1010A000292F30E0220F331F220F331F820F932F7F
:1010B000911DA82FA77023E0969587952A95E1F7B3
:1010C00063E070E00E946A25FC01E857FE4F50E0A3
:1010D00040E080E0219130E00A2E02C0369527954D
:1010E0000A94E2F721703327042E01C0220F0A94DC
:1010F000EAF7822B4F5F5F4F4330510559F7089550
:1011000080E00895CF93DF93F62F9630B8F58430C2
:10111000A8F5292F30E0220F331F220F331F820F33
:10112000932F911D282F2770E1E001C0EE0F2A9523
:10113000EAF723E0969587952A95E1F763E070E05A
:101140000E946A25DC01A857BE4F50E040E06F2F97
:1011500070E08D91ED0121979B01042E02C0369520
:1011600027950A94E2F72170219528272E23282716
:1011700028834F5F5F4F4330510559F7DF91CF917F
:1011800008958093ED010895662309F45DC08D3CB8
:1011900041F40E944B058195809315020E94E90459
:1011A00008958E3C19F40E944B05F6CF8F3C31F424
:1011B0000E944B05819580931402F0CF803D19F475
:1011C0000E944B05F8CF893D29F40E9410058093B9
:1011D0001602E4CF8A3D21F40E9410058195F7CFD5
:1011E0008B3D31F40E941005819580931702D6CF74
:1011F0008C3D19F40E941005F8CF9FE2980F9830AB
:1012000070F4815D990B21E030E001C0220F8A95D6
:10121000EAF780911302822B80931302BFCF8D3D9A
:1012200031F480910D02816080930D02B7CF8E3D25
:1012300021F480910D028260F7CF8F3D09F0AECF8F
:1012400080910D028460F0CF409114028D3C59F4DE
:101250008091150287FF0DC01092150241110BC03D
:1012600010920B0208C08E3C81F480911502181672
:101270009CF3442381F08091160290911702892BF0
:1012800009F08CCF10920C0289CF8F3C49F447FFB4
:10129000F0CF10921402809115028111ECCFE0CFB3
:1012A000803D19F41416ACF3E4CF90911602893DF9
:1012B00029F41916F4F610921602DBCF8A3D19F4C0
:1012C00097FFD7CFF8CF909117028B3D29F497FF66
:1012D000D0CF10921702CDCF8C3D19F41916CCF354
:1012E000C8CF9FE2980F983090F4815D990B21E070
:1012F00030E0B90102C0660F771F8A95E2F7CB0193
:10130000809590911302892380931302B2CF8D3D73
:1013100031F480910D028E7F80930D02AACF8E3D15
:1013200021F480910D028D7FF7CF8F3D09F0A1CF81
:1013300080910D028B7FF0CF80FD03C02C9A81E05D
:1013400008952C98FCCF982F92959F7011F0892FBB
:1013500094E0282F2695269511F09E5F822F869582
:1013600009F09F5F892F08950F931F93CF93DF9309
:101370008B01EA0190918402943061F58093E90039
:101380008FEF9091E800815095FD06C095ED9A95FC
:10139000F1F700008111F5CF8091E80085FF1AC0B8
:1013A0000E94C702811111C08091E80085FD06C02E
:1013B0008091E8008E778093E800F2CFF801819168
:1013C0008F018093F100219779F78091E8008E7763
:1013D0008093E800DF91CF911F910F91089543E032
:1013E00050E0BC0184E00E94B409089546E050E05A
:1013F000BC0184E00E94B4090895CF93DF93EC010F
:1014000080910F01811111C048E050E0BE0181E0E0
:101410000E94B40980E2FE01A2E6B2E001900D92C2
:101420008A95E1F7DF91CF91089580915E0287FF61
:1014300005C040E284E050E0BE01EACF48E081E030
:10144000FACF81E08093E00080E28093D800109290
:10145000C9008FE19EE40197F1F700C0000087E02A
:1014600090EBDC018093910290939202A0939302FF
:10147000B093940288E19CE00FB6F894A89580930D
:1014800060000FBE90936000FFCF8091480280FD06
:101490000AC0E8E1F2E0118210821282339652E033
:1014A000E834F507C1F7259A35B13F7D25B12062B3
:1014B0004FB7F89488E192E0FC015191CF0168E0C8
:1014C00025B9000000C057FF35B9550F000000C016
:1014D00000C000C035B900C06A9591F7F2E08834C9
:1014E0009F0751F74FBF8FE594E00197F1F700C0D8
:1014F000000008959091480290FF0CC0E8E1F2E0EE
:10150000818360834283339692E0E834F907C1F720
:101510000E94450A0895CF93C82F0E94A3098230E4
:1015200061F0833071F0813081F441E16CEC8AEA42
:101530000E947A0A8C2FCF91089540E069E98FEFDD
:10154000F7CF47E760E08EEEF3CF40E060E080E069
:10155000EFCF0E948B0A8093FA0108959091FA01CF
:1015600021E030E0F90101C0EE0F8A95EAF7D901D8
:1015700002C0AA0FBB1F6A95E2F7EA2B01C0220F37
:101580004A95EAF7892F8E23E81305C0292B822F6D
:101590000E94A90A089520952923F9CF21E030E07F
:1015A00001C0220F8A95EAF720958091FA018223E3
:1015B0000E94A90A08959091C9018095892380937A
:1015C000C901282F277091F4282F082E000C330B07
:1015D0009217130659F090915F0292FF07C085950C
:1015E000859585950E94CE0A1092C901089521E043
:1015F00030E001C0220F8A95EAF78091FA01822B30
:101600000E94A90A0895CF93DF93C6EED0E060E070
:10161000CE010E9408262196C11584E0D807B9F7AB
:10162000DF91CF9108951F93CF93DF93122F8430D2
:1016300008F56630F8F44430E8F4C62FD0E093E0C3
:10164000CC0FDD1F9A95E1F750E0440F551FC40FF2
:10165000D51F90E060E370E00E946A25C80FD91F93
:10166000632FCE0186960E940826612FCE018796B1
:101670000E940826DF91CF911F910895AF92BF92EB
:10168000CF92DF92EF92FF921F93CF93DF938CEB79
:10169000C82E83E0D82ED0E07601C0E014C0F5015A
:1016A00025913491412F6C2F8D2F0E94130B82E0D6
:1016B000A80EB11C1F5F143091F788E0E80EF11CF2
:1016C000CF5FC63019F0570110E0E9CFDF5F80E34C
:1016D000C80ED11CD43001F7DF91CF911F91FF903C
:1016E000EF90DF90CF90BF90AF900895CF93C82F29
:1016F0006FEF811163E282E290E00E9408266FEFB3
:10170000C11163E083E290E00E9408266FEFC111EF
:1017100069E184E290E00E940826CF91089580E07C
:101720000E94760B60E085E290E00E9408260E940D
:101730003E0B0E94030B81E00E94760B0895682FF8
:1017400086E090E00E940826089580914D0281FF76
:1017500011C08D7F80934D020E949F0B80916F007E
:101760008E7F80936F0080914D0286958695869539
:101770000E949204089580914D0281FD10C0826004
:1017800080934D020E949F0B1092500210924F02C4
:1017900010924E0280916F00816080936F000895D7
:1017A00080914D0280FF08C08E7F80934D020E9481
:1017B0009F0B80E00E949204089580914D0280FD6D
:1017C00013C0816080934D02813019F489E08093C9
:1017D0004D0280914D020E949F0B80914D02869593
:1017E000869586950E94920408950F931F93CF9338
:1017F000DF93843058F5663048F5443038F5C62F0D
:10180000D0E093E0CC0FDD1F9A95E1F750E0440F54
:10181000551FC40FD51F90E060E370E00E946A2559
:10182000C80FD91FCE0186960E94F425082F10E01C
:10183000102F0027CE0187960E94F4259801282BAF
:10184000C901DF91CF911F910F91089590E080E041
:10185000F8CF462F763040F4643030F4843020F4F2
:10186000672F0E94F50B089590E080E00895CF92D5
:10187000DF92FF920F931F93CF93DF936C01009140
:10188000FA018091ED01082BC3E0D0E010E0FC2EBE
:10189000C8010C2E02C0959587950A94E2F780FD49
:1018A0000CC02197A0F7F12C8F2DDF91CF911F91C4
:1018B0000F91FF90DF90CF900895B6018C2F0E947A
:1018C000290C0E948E06019761F3EECFCF93DF9330
:1018D000EC010E94370CBE010E94290C0E948E066A
:1018E000DF91CF910895FC0183819481892B29F0A8
:1018F0008081918189238F3F51F480E00895843F56
:10190000E1F717C0883EA8F0813FB9F712C0808187
:1019100091810E94660C92959F70963099F358F4CD
:10192000925F9F70923048F7803F19F040F7883EF1
:1019300020F781E008959A5FF4CF82E290E00E9460
:10194000F425833289F483E290E00E94F425833009
:1019500059F484E290E00E94F42591E0893109F085
:1019600090E0892F8170089580E0FCCFCF92DF92C4
:10197000EF92FF926B017C010E94DA04B701A6018D
:1019800088E090E00E941A26FF90EF90DF90CF90C1
:101990000895B0E0A0E0EFECFCE00C94B525B82E83
:1019A000F62EE42EA22E8091480280FF22C08E7F68
:1019B000823069F4E42FF0E0E45CFD4F61111EC059
:1019C0009491492FE92F692F8E2F0E947A0AB092A5
:1019D0004902F0924A02E0924B02AA2051F0609133
:1019E00048027091490280914A0290914B020E94F4
:1019F000B60CCDB7DEB7EDE00C94D125CB2DD0E001
:101A0000C62ED12CE4917E2E8E2E912CCE0166E036
:101A100070E00E946A250FEF10E0B8010E947B255C
:101A20009B01CC0FDD1FCB0165E570E00E946A25AC
:101A3000C81BD90B8C2F880FC80FC8018C199D09A2
:101A4000B4010E946A25492FD0E0CE01B6010E9460
:101A50006A25692F70E0C801861B970BB4010E94AC
:101A60006A25F92FC8018C1B9D0BB6010E946A25BF
:101A7000692F70E0C801861B970BB4010E946A258C
:101A8000892F22303105A1F050F42115310509F4D8
:101A90009ACF2130310581F0942F4F2F94CF2430ED
:101AA000310569F080F02630310509F48CCFF4CF90
:101AB0009E2FE42F482F87CF9E2FEF2F84CF942F78
:101AC0004E2FE82F80CFE42F472D9F2F7CCFE8E4C7
:101AD000F2E0438128E0421B08F440E021E062810B
:101AE00081810E94C90C0895E8E4F2E0438128E076
:101AF000420F08F44FEF21E0628181810E94C90CFE
:101B00000895E8E4F2E0628128E0621B08F460E0F6
:101B100021E0438181810E94C90C0895E8E4F2E04C
:101B2000628128E0620F08F46FEF21E04381818138
:101B30000E94C90C0895E8E4F2E0818121E043812C
:101B4000628188500E94C90C0895E8E4F2E0818126
:101B500021E043816281885F0E94C90C08958091D1
:101B60004C02882319F0815080934C026091480206
:101B70007091490280914A0290914B020E94B60CEA
:101B8000089580914C02833018F48F5F80934C024B
:101B9000609148027091490280914A0290914B02F3
:101BA0000E94B60C08958091480280FF19C0817090
:101BB000826080934802662351F0609148027091E0
:101BC000490280914A0290914B020E94B60C20E09B
:101BD00040914B0260914A02809149020E94C90CD7
:101BE0000895E8E4F2E080818160808360E086957A
:101BF0000E94D30D0895809148028695815009F482
:101C000081E061E00E94D30D089561E081E00E94CF
:101C1000D30D0895E8E4F2E083E0808311828FEF32
:101C200082831382148260817181828193810E94F8
:101C3000B60C08958091EB019091EA01892B809375
:101C400064019091EC019923A1F0892B80936401A8
:101C500080910F018823E1F180915E0287FF38C0F7
:101C60008EE1E6E6F1E090E08150A0F591110E944E
:101C7000B20740E250E06AEC71E084E691E00E9435
:101C8000E725892B21F180E2E4E6F1E0AAECB1E05E
:101C900001900D928A95E1F7E0915502F09156027C
:101CA0003097A9F080910F01882359F080915E024E
:101CB00087FF07C0809164018093650186E080936F
:101CC00064010280F381E02D84E691E00995089596
:101CD00086E0C7CF2191222339F29F5FC5CF8823A9
:101CE00021F00E94B8070E941A0E0895882339F047
:101CF0009091EB01982B9093EB010E941A0E08959E
:101D0000882309F456C0823879F40E940D0481FFBB
:101D100050C089E30E94EA070E941A0E89E30E94DC
:101D2000BF070E941A0E0895833859F40E940D04CB
:101D300080FF3FC083E50E94EA070E941A0E83E5F8
:101D4000EECF843859F40E940D0482FF32C087E43C
:101D50000E94EA070E941A0E87E4E1CF9CEF980FD9
:101D6000913AE8F290E2980F983050F4877091E041
:101D700001C0990F8A95EAF7892F0E94B807D1CF41
:101D80009BE5980F933028F490E080E00E94E803F0
:101D9000089598E5980F9B3128F490E080E00E9428
:101DA000C303089593E3980F933118F460E00E9401
:101DB000C408089567EE7EEF90E080E00E9426263A
:101DC00060E082E090E00E94082660E083E090E01E
:101DD0000E9408261092ED0160E074E184E090E03A
:101DE0000E94262660E086E090E00E9408266FEFC1
:101DF00087E090E00E94082640E050E0BA0188E0C9
:101E000090E00E941A2660E08DE090E00E94082693
:101E100040E050E0BA0188E190E00E941A2660E0BC
:101E200087E190E00E94082640E050E0BA018CE192
:101E300090E00E941A2670E060E080E290E00E944C
:101E4000262640E050E0BA0188E190E00E941A2680
:101E500080E00E94760B0E948F0B40E050E0BA01B8
:101E60008FE090E00E941A2640E050E0BA0183E142
:101E700090E00E941A26089590915F0292FB22271B
:101E800020F9281779F080FB92F990935F02609116
:101E90005E0270915F0284E090E00E94262682E05C
:101EA0000E94DB0A089590E080E00E940226873EAF
:101EB0009E4F19F40E949D0C089580E008950E94A1
:101EC000530F81110AC00E94DA0E80914D02847076
:101ED000896280934D020E949F0B86E090E00E94F1
:101EE000F42580934D02803320F0877088628093C0
:101EF0004D0290914D02892F817090FF04C0892F6F
:101F00008695869586950E94920408951092EB011D
:101F100080910F01E6E6F1E0882329F180915E02CD
:101F200087FF21C08EE1DF011D928A95E9F790E0DD
:101F300080E00E94E80390E080E00E94C3031092DA
:101F4000EA010E941A0E86E0E2E1F2E0DF011D9252
:101F50008A95E9F710920B0210920C0210920D0272
:101F60000E94E904089586E0DECFAAE2B0E0EBEB40
:101F7000FFE00C94BF2586E892E02091F100DC019F
:101F80002D93CD01B2E08E389B07B9F7809187027F
:101F9000833009F470C0B8F4813009F447C082304E
:101FA00009F4B1C08091E80083FF88C28091860265
:101FB000909187029A3008F081C2E92FF0E0E7584B
:101FC000F94D0C94A3258A3009F48CC08B3009F4A8
:101FD0006FC0893039F780918602813219F780917C
:101FE0008A0290918B02009711F00297D9F68091A6
:101FF000E800877F8093E8008091E80082FF36C088
:102000008091F200823031F48091F100813011F042
:10201000863021F48091F100809361028091E80084
:102020008B778093E8000E94F802BCCF80918602F3
:10203000813A09F0B7CF8091E800877F8093E8006C
:1020400080918A0290918B02892B61F460E282E692
:1020500092E070E00E9449038091E8008B778093C2
:10206000E800A0CF60E090E080E0F3CF80918402B0
:102070008111C2CF97CF80918602813A09F092CF29
:1020800080918A0290918B02892B09F08BCF8091ED
:10209000E800877F8093E8008091E80080FFFCCF14
:1020A00080910F018093F1008091E8008E77B9CF85
:1020B00080918602813209F075CF80918A029091D9
:1020C0008B02892B09F06ECF8091E800877F809387
:1020D000E8000E94F8028091880280930F010E941C
:1020E000860F60CF80918602813209F05BCF8091AC
:1020F000E800877F8093E8000E94F80280918902BF
:10210000809360024FCF80918602813A09F04ACFD6
:102110008091E800877F8093E8008091E80080FF4D
:10212000FCCF80916002BECF803899F0823809F0F0
:10213000C5C180918A028F70853008F0BFC180933D
:10214000E9008091EB0085FB882780F91092E90077
:1021500006C08091820290918302911182609091D9
:10216000E800977F9093E8008093F1001092F100CF
:102170008091E8008E779EC1882309F48CC182305B
:1021800009F09CC18091880281118FC180918A02DF
:102190008F702FEF280F243008F090C18093E90052
:1021A0002091EB0020FF81C1933031F48091EB004E
:1021B00080628093EB0079C19091EB0090619093E5
:1021C000EB0021E030E001C0220F8A95EAF720936E
:1021D000EA001092EA008091EB008860EACF81115A
:1021E0006DC1109188021F778091E3008078812B68
:1021F0008093E3008091E800877F8093E8000E944D
:10220000F8028091E80080FFFCCF8091E3008068B5
:102210008093E30082E0111183E0809384024EC139
:102220008058823008F04AC120918802309189029A
:102230002C3DE3E03E07A1F583E08A838AE28983AF
:102240004FB7F894DE01139620E03EE051E2E32F11
:10225000F0E050935700E49120FF03C0E295EF7047
:102260003F5FEF708E2F90E0EA30C0F0C7968D93FD
:102270009D932F5F243159F74FBF8091E800877FEE
:102280008093E8006AE270E0CE0101960E94490363
:102290008091E8008B778093E80010C1C096E7CF6B
:1022A00080918A0290918B02432F5527433051052C
:1022B00009F44AC078F54130510509F47AC08BE53C
:1022C00090E0ECE7F4E04230510509F0F7C02091CE
:1022D000E800277F2093E80020918C0230918D0246
:1022E0008217930708F49C0140E02115310509F09D
:1022F00065C0411163C08091E80082FDC9CF809123
:102300008402882329F2853019F28091E80083FF46
:10231000F2CFBECF4132510509F43CC042325105E3
:1023200009F0CCC08330910508F0C8C0FC01EE0F65
:10233000FF1FEA5AFE4F0190F081E02D8D5A9E4F0B
:10234000DC018C9190E01AC0332721303105D1F0A7
:102350002115310561F02230310509F0AFC0E9EEF9
:10236000F4E0E4918E2F90E0E9EEF4E007C0E5E1BF
:10237000F5E0E4918E2F90E0E5E1F5E0009709F4B7
:102380009DC0A5CFE3E0F5E0E4918E2F90E0E3E07F
:10239000F5E0F4CF8330910508F090C0880F991FC5
:1023A000FC01E45AFE4F0190F081E02D89E090E0BD
:1023B0008ECF82E190E0E7EDF4E089CF8091840256
:1023C000882309F465CF853009F462CF8091E80055
:1023D00083FD5ECF8091E80082FD8DCF8091E80083
:1023E00080FF83CF8091F20090E02115310519F034
:1023F0008830910550F041E0089709F040E0809165
:10240000E8008E778093E80070CF44914093F1000C
:102410003196215031090196E8CF803809F04EC03D
:102420008091E800877F8093E80080918502809307
:10243000F1009ECE811142C0109188021230F0F559
:102440008091E800877F8093E800109385020E94C6
:10245000F802112311F084E005C08091E30087FDAC
:10246000FACF81E08093840242E061EC81E00E9437
:10247000170342E261EC84E00E94170342E261EC40
:1024800082E00E94170342E260EC83E00E9417039F
:102490008091840213C080918802813079F481E0B8
:1024A000933009F080E0809383021092E9008091DC
:1024B000E800877F8093E8000E94F8028091E8009E
:1024C00083FF0AC08091E800877F8093E8008091B5
:1024D000EB0080628093EB00AA96E3E00C94DB258E
:1024E000EBEFE80FEF3308F06CC0F0E0ED57F94D7B
:1024F0000C94A3250E94DA0E81E008958091520287
:10250000807F8093520281E08093510208950E945F
:10251000860F2FEF84E39CE0215080409040E1F74C
:1025200000C000000E94210A90915202892F8E7FE4
:1025300090FF81608093520280FDDECF817F809387
:102540005202DACF90915202892F8D7F91FF8260E3
:102550008093520281FFD0CF809152028160EFCFF1
:1025600090915202892F8B7F92FF84608093520258
:1025700082FDF2CFC1CF90915202892F877F93FFC6
:1025800088608093520283FDE7CFB6CF0E94860F0A
:1025900090915E02892F97FB87F9805880935E02A5
:1025A000ABCF81E00E94C1080E94860FA5CF89535E
:1025B00091E001C0990F8A95EAF7892FF3CF8D51E9
:1025C000F7CF80E00895CF93C82F8823C9F08238D1
:1025D000C9F40E940D0481FD13C089E30E94EA073B
:1025E0000E941A0E2FEF87EE93E02150804090401A
:1025F000E1F700C0000089E30E94BF070E941A0EA5
:10260000CF9108958338A1F40E940D0480FDF8CF86
:1026100083E50E94EA070E941A0E2FEF81EE94E0F4
:10262000215080409040E1F700C0000083E5E4CFF6
:102630008438A1F40E940D0482FDE2CF87E40E9459
:10264000EA070E941A0E2FEF81EE94E0215080409D
:102650009040E1F700C0000087E4CECF8CEF8C0FF4
:10266000813A08F0E7C0809151028130B9F18823A6
:1026700059F1823009F44DC01092510280910F013E
:10268000882309F4C8C080915E0287FFC4C0EC2F84
:10269000E695E695E695F0E0EC59FE4F828190E0F4
:1026A0004C2F477021E030E002C0220F331F4A95C3
:1026B000E2F782239323892B09F4B8C08C2F0E9460
:1026C000BF070E941A0EB2C08091EB018232B1F6B0
:1026D0008C2F0E947012811193CFD0CF8091EB018B
:1026E0008232B1F3C43171F038F4CB3049F0C031EB
:1026F00061F080E08170EFCFC93221F0C833C9F7B3
:1027000081E0F8CF10925102F4CF82E08093510221
:10271000F7CFC93209F453C080F5C43109F44FC072
:10272000B0F4C73009F06CCF81E08093080184E1F8
:10273000809309018AE080930B018EE180930A0166
:1027400088E080930D0188E280930C0159CF82EEDE
:102750008C0F8A3008F054CFCD51C0938701C3301D
:1027600009F448C0C0F5C13009F441C089E091E0E6
:10277000C230C1F11092870143CFC03509F443C084
:10278000C0F48AE0CF3409F03BCFE0918501F091AD
:102790008601309709F434CF2081082E000C990B64
:1027A000820F911D8F3F910591F18CF18FEF808306
:1027B00027CFC13551F181E0C23539F321CF809166
:1027C0008701882309F41CCF10928701109286019B
:1027D0001092850115CFC53099F078F08CE091E02A
:1027E000C63041F6909386018093850109CF88E039
:1027F00091E0F8CF8BE091E0F5CF8AE091E0F2CF65
:102800008DE091E0EFCF86EFC0CF8FEFBECF97FF87
:10281000CECF1082F5CEE6E6F1E08CE691E0219194
:10282000C21709F44BCF8E179F07C9F78C2F0E9450
:10283000EA07E4CE80E28C0F883068F4C77021E0AC
:1028400030E001C0220FCA95EAF78091EB01822B9C
:102850008093EB01D3CEEBE5EC0FE33040F4F0E0F6
:10286000E05FFE4F808190E00E94E803C9CEE8E57A
:10287000EC0FEB3150F4F0E0EE0FFF1FED5EFE4F7A
:10288000808191810E94C303BBCE83E38C0F83318F
:1028900008F0B6CE61E08C2F0E94C408B1CE1F9321
:1028A000CF93DF93182FD0E0C0E0893311F4C0E557
:1028B000D0E0812F0E94E312209739F4812F0E94EB
:1028C000800EDF91CF911F9108958FE99FE00197CE
:1028D000F1F700C000002197EFCF0F931F93CF9324
:1028E000DF93C62FD42F022FFC0182818823A9F009
:1028F000609390020E94B70390938F0280938E02A0
:10290000C77081E001C0880FCA95EAF70E94760E71
:10291000DF91CF911F910F910895809190026813DC
:1029200032C080918E0290918F020E94A803883C51
:10293000910548F510E21D0FCD17B9F080E28C0F1C
:10294000883040F4C77081E001C0880FCA95EAF76B
:102950000E946F0E183048F481E09D2F977001C0DF
:10296000880F9A95EAF70E94760E802F0E944F14E6
:10297000183070F6D77081E001C0880FDA95EAF759
:102980000E946F0EC5CFC77081E001C0880FCA9545
:10299000EAF7F6CF0E94860F2FEF84E39CE02150E8
:1029A00080409040E1F700C0000088E19CE00FB655
:1029B000F894A895809360000FBE90936000FFCFBD
:1029C000A8E0B0E0E6EEF4E10C94B3258C01DC0164
:1029D00013968D919C911497892B39F08C911196B7
:1029E0009C9189238F3F09F08BC52896EFE00C94CA
:1029F000CF250E94370CF82E682F89819A810E947A
:102A0000820869817A818F2D0E94290C7C01F8014E
:102A10008281882309F4D9C5C70197578038910569
:102A200008F035C1FFE0FE1508F489C08FEF93E090
:102A30000E94F425811183C056EEA52EB12CE11021
:102A400048C0FE01339686E0DF011D928A95E9F7C2
:102A50007501BFEFEB1AFB0AC5010E94F4258983BB
:102A60001A82882309F46BC0813009F07BC06501AC
:102A7000E2E0CE0ED11CC7010E94F4258A83882390
:102A800009F45DC09FEF980F933088F5F3E0AF0E27
:102A9000B11CC6010E94F4258B83882309F44FC022
:102AA0001C82CE0101967C01D7012C91222381F258
:102AB000213009F097C011969C91119712968C9134
:102AC000913009F051C0B2E0EB0EF11C0E944F149E
:102AD00052C0A11424E0B20691F1C5010E94F42570
:102AE000811101C0EA943FEFA31AB30AA8CF56019F
:102AF0008430B9F642E0E42EF12C56012FEFA21AF1
:102B0000B20AC6010E94F425E1E0F0E0EC0FFD1FDF
:102B1000EE0DFF1D8083882391F08C3741F4E2E0B5
:102B2000F0E0EC0FFD1FEE0DFF1D1082BACF3FEF5E
:102B3000E31AF30A650167E0E616F104F1F6809105
:102B4000C901877009F451CFD80112968C9188235E
:102B500009F44BCF80915F0282FF47CF82E00E9451
:102B6000DB0A43CF57019DCF923049F4E2E0EE0EED
:102B7000F11C0E94E312FFEFEF1AFF0A95CF93308A
:102B800031F4F2E0EF0EF11C0E94800EF4CF94308D
:102B900021F02FEFE21AF20AEECF32E0E30EF11C41
:102BA00050E040E0D7011196F701D180682F6053C3
:102BB000770B9B016A30710550F041505109D8F2F2
:102BC0008FE99FE00197F1F700C00000F6CFCA013E
:102BD0006AE070E00E946A25A901480F591F8D2DF7
:102BE0007D01E0CFE22FF0E0E454FE4F5490822FBD
:102BF00086958695869590E0FC01E455FE4F64909D
:102C00002770712C022E02C0759467940A94E2F723
:102C1000A1E06A227724FC01E456FE4F8490912CB7
:102C2000022E02C0959487940A94E2F7B1E08B22B9
:102C30009924FC01E457FE4FC490D12C02C0D594D6
:102C4000C7942A95E2F7E1E0CE22DD2461147104F5
:102C500019F081EE0E94E3128114910419F086EEBE
:102C60000E94E312852D0E944F148114910419F0E3
:102C700086EE0E94800E6114710419F081EE0E94AC
:102C8000800EC114D10409F476CF8CE21FCFF70176
:102C9000F857E730F10508F0A3C4EE53F94D0C9452
:102CA000A32585E00E94BD0480914D020E949F0BE8
:102CB00046CF80E0F7CF80914D02982F987F79F032
:102CC000885080934D02887F91E009F490E08091D4
:102CD0004D0290FB80F980934D020E949F0B8091E2
:102CE0004D028695869586950E94920428CF809104
:102CF0004D02982F969596959695953040F49F5F46
:102D0000990F990F990F8770892B80934D028091AD
:102D10004D028160E0CF80914D0280FF03C00E9490
:102D2000D00B0DCF0E94DD0B0ACF90914D02892F61
:102D30008695869586958F5F8F719770863048F45B
:102D4000880F880F880F892B80934D0280914D0248
:102D5000BACF90934D02FACF80914D0281FF03C00C
:102D60000E94A50BECCE0E94BB0BE9CE26E241EE01
:102D700061EEC8010E946D14E2CE27E245EE65EED9
:102D8000F8CF26E241EE60EEF4CF27E245EE64EEA6
:102D9000F0CF26E241EE62EEECCF27E245EE66EEA2
:102DA000E8CF28E241E0EBCF80915E028160809322
:102DB0005E0295C080915F02886080935F028FC041
:102DC00080915E028260F3CF80915E028460EFCFDB
:102DD00080915E028860EBCF80915F028160EDCFD1
:102DE00080915F028260E9CF80915E028061DFCFD7
:102DF00080915E028062DBCF80915E028064D7CFDB
:102E00000E94860F80915E028068D1CF80915E0221
:102E10008C60CDCF80915F028360CFCF80915E02C6
:102E20008E7FC5CF80915F02877FC7CF80915E0282
:102E30008D7FBDCF80915E028B7FB9CF80915E0286
:102E4000877FB5CF80915F028E7FB7CF80915F0281
:102E50008D7FB3CF80915E028F7EA9CF80915E027D
:102E60008F7DA5CF80915E028F7BA1CF0E94860FC0
:102E700080915E028F779BCF80915E02837F97CF98
:102E800080915F028C7F99CF80915E0282FB9927AF
:102E900090F921E0922790FB82F990FB83F987CF8C
:102EA00080915F02982F909591708E7F892B90FB77
:102EB00081F983CF90915E02892F8F7B96FF80648A
:102EC00076CF0E94860F90915E02892F97FB87F93B
:102ED00080586DCF61E08EE090E00E9408266091FE
:102EE0005E0270915F0284E090E00E9426260E94BC
:102EF000860F25CE60E0EFCF90915E02892F8F7E06
:102F000094FF806154CF90915E02892F8E7F90FF55
:102F100081604DCF90915F02892F877F93FF8860FA
:102F20004CCF85E310C385E31DC38091480280FF29
:102F300010C08E7F809348026091480270914902D0
:102F400080914A0290914B020E94B60C0E94450A61
:102F5000F6CD81608093480261E086950E94D30D92
:102F6000EECD4BEF5DE065E07EE00E94D404E7CD5E
:102F700045E05EE06BEF7DE0F8CF4BE95DE065EAB0
:102F80007DE0F3CF45EA5DE06BE97DE0EECF41E81F
:102F90005DE06EE87DE0E9CF4EE85DE061E87DE070
:102FA000E4CF47E65DE064E77DE0DFCF44E75DE046
:102FB00067E67DE0DACF4FEA5DE061EC7DE0D5CFFA
:102FC00041EC5DE06FEA7DE0D0CF61E081E0C6CF0B
:102FD00027E7E2162CE7F20609F460C038E7E316AB
:102FE0003CE7F30609F45EC0F8018281E080F180DD
:102FF000882309F48BC0C7010E94370CD82E682F94
:10300000C7010E948208B7018D2D0E94290C0E94E1
:103010008E067C01882ED8011296DC9012971596A8
:10302000BC90B2943FE0B3228091C9018770F1F067
:10303000AD2CDD20E1F08F2D807F803451F080E2D7
:103040008E0D883098F0B11004C08F2D807E8032B4
:1030500069F080915F0282FF09C082E00E94DB0A72
:103060008091C9018770AA24A3948111A12C9F2C5F
:1030700092942FE09222BBE0B91508F4B9C0E92D73
:10308000F0E0E753F94D0C94A32581E00E94F70A84
:1030900043E062E081E00E94AE0A51CD81E00E94EF
:1030A000CE0AF6CF82E0FBCFABE5EA16ACE7FA0634
:1030B00059F1BCE5EB16BCE7FB06E1F0EAE5EE16DC
:1030C000ECE7FE0609F090CF81E01BC00E94860F5E
:1030D000FFEF24E33CE0F15020403040E1F700C036
:1030E00000000E94210A6FEF7FEF90E080E00E94D5
:1030F00026265BC280915F0282FB882780F991E0DF
:1031000089270E943C0F70CF80E0FBCFC7010E944F
:103110004C08D82E78CFEF2DEF70CE2E8F2D807FDC
:1031200019F0C29490EFC922DD20B9F0CC2069F0EB
:1031300080E28E0D883010F0811009C08091EB0183
:10314000C82AC092EB010E941A0E8E2D4FC08091AA
:10315000EA01C82AC092EA01F6CF8E2D0E94800EA5
:10316000CC2009F445C080E28E0D883010F081102B
:1031700004C08C2D0E94B80706C0C0948091EA015B
:10318000C822C092EA010E941A0E32C0FF2DFF70C1
:10319000CF2E8F2D807F803219F0C29480EFC8220D
:1031A0008820A1F021E0821609F471C0DD2009F425
:1031B0007BC0BB2009F471C0D80115968C9115977E
:1031C00080FFC3CF8F7015968C9367C020915F02EC
:1031D00022FD36C0DD2071F1CC2039F08091EB0169
:1031E000C82AC092EB010E941A0E80E00E94E312EE
:1031F000A92DA850BB0B149720F40E940D040E9427
:103200009C09AA2009F4F1CB8091C90180FDEDCB86
:10321000F80112828595859585950E94F70AC80167
:103220000E94E0148091C9018595859585950E943D
:10323000CE0ADBCB80E00E94800ECC20C9F299CF71
:10324000DD2099F09091EC018C2D892BB11003C0F9
:103250000E94760ECDCF31E0B312FACF22FFC8CF55
:10326000891731F28093EC01C3CFB11006C00E94E0
:10327000B2078C2D0E946F0EBBCF61E0B61609F429
:10328000B7CF8C2D0E946F0E0E94B207B1CFDD2008
:1032900031F075E07B1508F4ABCF8C2DD9CF84E0ED
:1032A0008B1508F4A5CFE5CFBB2019F3B9E38B123A
:1032B00009C0EFEFF7EE23E0E150F0402040E1F7E6
:1032C00000C000008E2D0E94800E92CF8F2D86951B
:1032D0008695837061F0813009F08ACFC7019370C1
:1032E000D11002C080E090E00E94C30381CFC701EB
:1032F0009370D11002C080E090E00E94E80378CF84
:103300006D2D8E2D0E94C40873CF8F2D837091F583
:10331000D1106ECF4E2D429546954770440F440F05
:103320008E2D8F70042E01C0880F0A94EAF72E2D7F
:103330002071E4FE07C02FE030E001C0220F4A9563
:10334000EAF720953F2D369536953370323069F087
:1033500050F44091ED01313029F0822B84230E94FA
:10336000C10846CF842B822BFACF282B8091ED0108
:103370008227F5CF8695DD2011F08F2D817088236F
:1033800009F436CF4E2D429546954770440F440FB1
:103390008E2D8F70042E01C0880F0A94EAF72E2D0F
:1033A0002071E4FE07C02FE030E001C0220F4A95F3
:1033B000EAF720953F2D369536953370323069F017
:1033C00050F44091FA01313029F0822B84230E947D
:1033D000A90A0ECF842B822BFACF282B8091FA01D9
:1033E0008227F5CF3F2D3F70F32EDD2029F0832F6C
:1033F0000E94F70A8E2D2CCF8E2D0E946F0E8F2DDE
:103400000E94CE0AF5CE8E2D62EF8616B1F16815B8
:1034100070F070EF8716D1F091EF891691F0DD20F2
:1034200009F45EC0B11091CE8F2D8F712AC0A3EF29
:103430008A1651F1B4EF8B12F2CF80915F0282FDB8
:103440002FC08F2D8F71DD20D9F21BC0DD2081F0C0
:10345000E4E0EB1508F4CCCE2F2D2F7181E090E045
:1034600001C0880F2A95EAF79091FA018927AFCF1A
:10347000F5E0FB1508F4BCCEEFCF8F2D8F71D11086
:10348000BFCF0E94F70AB4CE80E0DD2009F49FCFC1
:103490009F2D9F7181E001C0880F9A95EAF797CF21
:1034A000DD2099F02F2D2F71F22E822F0E94F70A26
:1034B00080915F0282FF07C08F2D880F880F880FD1
:1034C00083608093C9018F2DDCCF81E00E94DB0AED
:1034D00031E03B1508F08CCE82E00E94DB0A88CEFA
:1034E000BB2059F0893309F0EDCE6FEF77EE83E022
:1034F000615070408040E1F7E3CE8F2D8F7180CF17
:1035000085E0F801DE01119601900D928A95E1F7B0
:10351000D80112962C9189819A8121116ACA0E9440
:103520004C08F82E6ECAB6E1EB16BCE7FB06E9F4D0
:103530008091EB018A7A91E009F490E09093840104
:103540008111EFCC89E20E94EA070E941A0EF7CAA5
:10355000E6E1EE16ECE7FE0651F58091840181115B
:10356000E2CC89E20E94BF07F0CFF7E7EF16FCE755
:10357000FF0609F48ACD82E028E7E2162CE7F2067E
:1035800009F484CD63E0E6166CE7F60609F4ABCDEA
:1035900008F08ACDE1148CE7F80609F497CD91E0A4
:1035A000E9169CE7F90609F01FCD0E94CA14809124
:1035B000EB018272F701E052F847E531F10508F0BE
:1035C00007CDEB52F94D0C94A325F701E851FC47C8
:1035D000E730F10508F0BCCFE651F94D0C94A32576
:1035E000F701E851FC47E730F105B0F31092900283
:1035F000C7019057839708F096CF84E090E00E942F
:10360000022690935F0280935E02F701E150F0473B
:10361000E232F10508F0C8CBEF50F94D0C94A32528
:103620001F93CF93DF9380919601807F09F04AC06A
:1036300080919301882309F445C02091C801B0917D
:10364000970140919101A0919201C0919401D09174
:103650009501142F1A23B217A9F130E02097B1F188
:103660001F3FA1F1C90166E070E00E946A25FC01DC
:10367000E856FE4F81818A1329C08081841326C0B9
:103680008281811123C0838194818C1B9D0B883C96
:103690009105E0F4809196018F708061809396018E
:1036A000C90166E070E00E946A25FC01E356FE4F06
:1036B00090819F709061908381E991E00E94E01475
:1036C0000E944208DF91CF911F9108952F5F3F4FD5
:1036D0002770C1CFA1E1B0E0E0E7FBE10C94B62593
:1036E0008C0185E0F801DE011D9601900D928A950E
:1036F000E1F7F801E28081E9882E81E0982E40917F
:103700009401509195014115510509F430C19091F2
:10371000910120919201892F82238F3F09F427C1C3
:10372000D080C180A380B480F0909301B501641B68
:10373000750BFF2009F4E7C080919601382F307F88
:10374000683C710508F0ABC0311178C0FE2C2C111B
:1037500014C09D1112C0E11010C08F708061809361
:103760009601C4010E94E01480919601F8018583BE
:103770008F2D6196ECE00C94D225A114B104C9F10F
:103780008D2D8C218F3FA9F181E08E2580FF05C012
:103790004E2D6C2D8D2D0E941E08A114B10459F1DF
:1037A0008D2D8C218F3F39F181E08E25F82FF1701E
:1037B000BF2E80FF39C04E2D6C2D8D2D0E941E080E
:1037C000A82E811131C0DD86CE868D859E850E9412
:1037D000660C292F22952F70243078F49F702230A8
:1037E000A8F09923B9F0F8019581907F99F4FA2C0B
:1037F000BFCF80E0CBCF80E0D9CF2A5F2F702230BF
:1038000068F0C8010E94E014AB2CF1CF992311F0AD
:10381000882369F3805E883050F3F3CF803F38F31C
:10382000815F833070F7E3CFEE2009F4A1CF809160
:103830009601816080939601F12C9ACF2C1105C0DE
:103840009D1103C0EE2009F477C0C8010E94730CDB
:10385000882309F1EE20F9F080919601803270F012
:10386000209191013091920138872F831986BB8670
:10387000AA868C87CE0107960E94E01486E0F801A4
:10388000A1E9B1E001900D928A95E1F70E94101B29
:10389000FF24F3946DCFC8010E94E014F9CF3111D9
:1038A0000AC081E991E00E94E01486E0F4011192DF
:1038B0008A95E9F7C1CF2C110EC09D110CC0E11003
:1038C0000AC08583C8010E94E01486E0F4011192C9
:1038D0008A95E9F74DCFC8010E94730C8823D9F26D
:1038E000EE20C9F280919601803240F22091910140
:1038F000309192013A8329831B82BD82AC828E83F0
:10390000CE010196B9CF683C7105F8F6FE2CEE2089
:1039100011F22C111EC09D111CC08091960180FDDA
:103920000FC0982F907F61F08583903F31F0982FE2
:10393000907F905F8F70892B8583C8010E94E0146F
:1039400086E0F801A1E9B1E001900D928A95E1F7D6
:103950000FCFC8010E94730C811190CF8091960106
:10396000816080939601C8010E94E01401CFEE208F
:1039700009F491CFC8010E94730CF82E882309F432
:103980008ACF86E0F801A1E9B1E001900D928A9515
:10399000E1F780919101909192010E94660C0E9442
:1039A000101BE6CEA7E1B0E0E8EDFCE10C94C025E9
:1039B0004B8B5C8B6D8B7E8B8F8B61111092EA0130
:1039C0001A8A198A85E0FE017396DE011D96019020
:1039D0000D928A95E1F786E0FE013D96DE0117968D
:1039E00001900D928A95E1F7CE0107960E946A1B1D
:1039F000811112C086E0FE013796DE01119601901A
:103A00000D928A95E1F78A859B85892B29F08F8114
:103A1000988589238F3F89F58091C80190919701FE
:103A2000891317C06796E2E00C94DC2566E070E02D
:103A30000E946A25DC01A856BE4F96E0FE01319631
:103A400001900D929A95E1F7209397010E94420808
:103A5000E3CF90E066E070E00E946A2588569E4FB2
:103A60000E946A1B8823F1F28091C80190E00196C0
:103A7000877099278093C801CFCF8091970190E0FC
:103A80009C012F5F3F4F277033274091C801421799
:103A9000130661F60E94860F109297011092C801DA
:103AA00086E0E1E9F1E0DF011D928A95E9F7B4CF04
:103AB000A5E0B0E0EEE5FDE10C94BE250E94B70361
:103AC0008C018091EE019091EF0180179107A1F098
:103AD0008FEF89838A831B820E94B7038160782FCE
:103AE0009D838C8349815A816B818D810E94D21C78
:103AF0001093EF010093EE012596E4E00C94DA2593
:103B0000A6E0B0E0E6E8FDE10C94B7258E010F5F7A
:103B10001F4F86E0F80111928A95E9F789E4C82ED3
:103B200081E0D82EF12CE12CAA24A394B12CF6012B
:103B300081916F018F3F09F443C0F894E82FE2951B
:103B4000EF70F0E021A18F70A50102C0440F551F56
:103B50008A95E2F7CA01922F982B91A392A18095A2
:103B6000892382A3789400C0EFE4F1E0912C31E046
:103B700021912F3F09F465C0A22FA295AF70B0E04C
:103B800090968C9190E02F7002C0959587952A951C
:103B9000E2F780FD56C0832F982A330F51E0E335BA
:103BA000F50731F7F601319780818F3F11F00E94C0
:103BB000920580EA8A95F1F7F801EE0DFF1D9082DB
:103BC000EFEFEE1AFE0AF6E0EF16F10409F0AFCFC0
:103BD00046E050E0B80184EF91E00E94E725892B90
:103BE00091F186E0F801A4EFB1E001900D928A9581
:103BF000E1F781E08093F2010E94B7039093F10115
:103C00008093F0018091F0019091F1010E94A8034E
:103C10000597E8F046E050E064EF71E085E092E05F
:103C20000E94E725892BC1F086E0E4EFF1E0A5E0F2
:103C3000B2E001900D928A95E1F781E01092F201D5
:103C400007C080E0A9CF8091F2018111DBCF80E035
:103C50002696EBE00C94D32580E0F0CF1F920F92D4
:103C60000FB60F9211242F933F934F935F936F934F
:103C70007F938F939F93AF93BF93CF93DF93EF93F4
:103C8000FF93D091E900DF708091EC00C82FC170E4
:103C900080FDC0E81092E9008091F000877F80935A
:103CA000F00078940E94B50F1092E9008091F00026
:103CB00088608093F000CD2BCF70C093E900FF9116
:103CC000EF91DF91CF91BF91AF919F918F917F91B4
:103CD0006F915F914F913F912F910F900FBE0F9079
:103CE0001F9018951F920F920FB60F9211242F93C9
:103CF0003F934F935F936F937F938F939F93AF9374
:103D0000BF93EF93FF938091E10082FF09C0809100
:103D1000E20082FF05C08091E1008B7F8093E1008B
:103D20008091E10080FF17C08091E20080FF13C006
:103D30008091E2008E7F8093E2008091E2008061BA
:103D40008093E2008091D80080628093D80019BCF3
:103D500085E0809384028091E10084FF2BC08091F4
:103D6000E20084FF27C084E089BD86E089BD89B573
:103D7000982F917080FFFBCF8091D8008F7D80932A
:103D8000D8008091E1008F7E8093E1008091E20075
:103D90008F7E8093E2008091E20081608093E20058
:103DA00080918502882309F441C084E080938402D5
:103DB000809184028091E10083FF27C08091E2001E
:103DC00083FF23C08091E100877F8093E10082E040
:103DD00080938402109285028091E1008E7F80930F
:103DE000E1008091E2008E7F8093E2008091E2000A
:103DF00080618093E20042E060E080E00E9417036F
:103E00008091F00088608093F000FF91EF91BF9166
:103E1000AF919F918F917F916F915F914F913F9162
:103E20002F910F900FBE0F901F9018958091E30077
:103E300087FD93E090938402BBCF78941F921FB6C6
:103E40001F9211248F939F93AF93BF9380915A0237
:103E500090915B02A0915C02B0915D020196A11D60
:103E6000B11D80935A0290935B02A0935C02B093C1
:103E70005D02BF91AF919F918F911F901FBE1F90C8
:103E800018951F921FB61F9211248F939F93AF9383
:103E9000BF9380915902811113C080915A02909171
:103EA0005B02A0915C02B0915D024196A11DB11D23
:103EB00080935A0290935B02A0935C02B0935D02E0
:103EC000BF91AF919F918F911F901FBE1F9018952A
:103ED0001F920F920FB60F9211242F933F934F937F
:103EE0005F936F937F938F939F93AF93BF93EF9362
:103EF000FF9380910E018230A1F08F5F80930E01BD
:103F0000FF91EF91BF91AF919F918F917F916F91B1
:103F10005F914F913F912F910F900FBE0F901F9087
:103F2000189581E080930E0180914F02909150028C
:103F3000019660ED72E00E947B2590935002809381
:103F40004F0265E070E00E947B2567FD6FE780917E
:103F50004E02823041F4603451F480916F008E7FC4
:103F600080936F0004C0813011F46F37B1F3E62FF6
:103F7000F0E0E45CFC4F6491209186003091870072
:103F800070E090E080E050E040E00E943C262FEF9F
:103F900030E040E050E00E945526C90165E070E045
:103FA0000E947B25CB0120914D02269526952695D2
:103FB000622F70E00E946A250E941A0490938D007F
:103FC00080938C009DCFCDB7DEB7A5970FB6F89440
:103FD000DEBF0FBECDBF84B7877F84BF0FB6F89416
:103FE000A8958091600088618093600010926000C5
:103FF0000FBE80E890E00FB6F89480936100909334
:1040000061000FBE80E995E09093630180936201A7
:104010001092E2001092E1008091E00081608093B4
:10402000E0008091D8008F778093D80019BC8091F0
:1040300063008160809363001092F30180916300BC
:104040008E7F8093630081E08093F3011092E20001
:104050001092E1008091D8008F778093D8008091F2
:10406000D80080688093D8008091D8008F7D80939D
:10407000D80084E089BD86E089BD89B5282F2170EC
:10408000B22E80FFFACF1092840210928502109215
:1040900083021092820242E060E080E00E941703F7
:1040A0008091E1008E7F8093E1008091E200816049
:1040B0008093E2008091E20088608093E20080912A
:1040C000E0008E7F8093E0008091E2008460809326
:1040D000E2007894809184028823A1F01091E90095
:1040E0001F709091EC00892F817090FD80E8182B53
:1040F0001092E9008091E80083FD0E94B50F1F70C7
:104100001093E90082E084BD93E095BD9AEF97BDDE
:1041100080936E000E949D0C811102C00E948F0B43
:1041200009E411E0D8018D918D018F3F11F00E94BB
:104130009205B1E00F341B07A9F784E60E949205AF
:1041400085E60E94920583E30E94920582E30E9425
:10415000920586E0E5E0F2E0DF01282F1D922A9526
:10416000E9F7E4EFF1E0DF011D928A95E9F740E01D
:1041700060E080E00E947A0A0E94530F811102C021
:104180000E94DA0E82E090E00E94F42580935202B1
:1041900084E090E00E94022690935F0280935E028A
:1041A0000E94801DBFEFE6E7F1E0B150E040F04033
:1041B000E1F700C000000E94801D8091050280FF91
:1041C00008C06FEF7FEF90E080E00E9426260E94FB
:1041D000210A83E090E00E94F4250E94C1088091AA
:1041E000FA010E948B0A249A2C9A279A2F988AE027
:1041F0008093800089E1809381008FEF9FEF9093FF
:104200008700809386000E945F0F80914D0281FF9E
:104210000BC01092500210924F0210924E028091E9
:104220006F00816080936F000E945F0F8091FB019F
:10423000811131C00E94530F811104C00E94DA0E17
:104240000E940A0E88E090E00E94FC2560934802DC
:104250007093490280934A0290934B026E7F71F4EF
:104260000E940A0E88E090E00E94FC2560934802BC
:104270007093490280934A0290934B020E94DA04A1
:104280008091480280FF04C060E086950E94D30DB3
:1042900081E08093FB0180E091E09093560280934F
:1042A000550228E1E22EF12C85E092E036E0A32EC3
:1042B000A80E44E0C42E42E0D42E809184028530C2
:1042C000D1F490E4992E8824839404E016E0809140
:1042D0008402853009F45CC00E94860F0E945F0F43
:1042E0000E940D040E949C091092FD018091FC0126
:1042F00081110E94F10D0E94801D0EEF11E085E0FA
:10430000882E82E0982ED401F80191918D91CE16DD
:10431000DF0609F489C09817C1F3712CD4016D90A0
:104320004D01F80131908F01361411F13624512CD2
:104330004B2C832D8421A1F059A27AA291E0862DE5
:10434000842109F490E09BA30E94B7038160782F39
:104350009DA38CA349A15AA16BA18DA10E94D21C3F
:104360005394440CF4E05F12E4CFF801319760827B
:10437000739426E07212D2CF8FB7F89440915A020C
:1043800050915B0260915C0270915D028FBF50C0E2
:1043900080918402843009F438C080E00E94920445
:1043A00080E00E949C098091FD0181110DC08092E6
:1043B000FD0180914802982F91709093FC018E7FAF
:1043C000809348020E94450A109259020FB6F89451
:1043D000A895E09260000FBE9092600083B7817F45
:1043E000846083BF83B7816083BF7894889583B7E7
:1043F0008E7F83BF0FB6F894A89580916000886186
:1044000080936000109260000FBE80918302882329
:1044100009F45DCF0E94801DE5E0F2E081918111F9
:104420002CC3AE12FBCF53CF981377CF0E94581DE9
:1044300086E0E2E1F2E0DE01119601900D928A95AC
:10444000E1F71092140210921502109216021092C7
:1044500017028B819C81892B91F0809110029091A1
:1044600011020E94A803FC0120910B02222309F4EF
:10447000BBC0809109018E171F0608F4C4C08D814E
:104480009E81892B09F44FC080910E0290910F02FA
:104490000E94A8039C0190910C02992309F40CC37B
:1044A0002135310508F43FC09F3F19F09F5F90937D
:1044B0000C021D81112351F00E9410056FEF11169F
:1044C0000CF46B2D0E946125809316021E8111232E
:1044D00051F00E9410056FEF11160CF46B2D0E9425
:1044E000612580931702809116028823E1F02091C4
:1044F00017022223C1F0082E000C990B65EB70E027
:104500000E946A25992309F4C3C090931602822F52
:10451000220F990B65EB70E00E946A25992309F43C
:10452000BBC09093170246E050E0BE016F5F7F4F23
:1045300082E192E00E94E725892B61F480911402C8
:1045400090911502892B90911602892B9091170258
:10455000892B11F00E94E90486E0FE013196A2E168
:10456000B2E001900D928A95E1F70E940D049091BE
:104570000402891779F0809304029FB7F894409160
:104580005A0250915B0260915C0270915D029FBF84
:104590000E949C0980918402843009F08ECE83E0D1
:1045A0008093E9008091E80082FF87CE8091E80047
:1045B00090E085FF06C00E94C702882309F470C0FE
:1045C00091E08091E8008B778093E800992309F4CB
:1045D00074CE8981EFEFE80FE33108F088C0F0E096
:1045E000ED5EF84D0C94A3258091080190E06AE0FF
:1045F00070E00E946A258E179F0708F040CF2F5F5A
:1046000020930B0202C02F3FD1F71B81112351F0E1
:104610000E944B056FEF11160CF46B2D0E94612563
:10462000809314021C81112351F00E944B056FEFFF
:1046300011160CF46B2D0E94612580931502809158
:104640001402882309F41BCF20911502222309F4B8
:1046500016CF082E000C990B65EB70E00E946A25BE
:10466000992371F090931402822F220F990B65EB1E
:1046700070E00E946A25992339F090931502FFCECD
:1046800081E080931402F0CF81E080931502F7CE91
:1046900081E0809316023BCF81E08093170243CFE5
:1046A00000E210E0CE0101964C018091E80085FD0A
:1046B0000AC08091E8008B778093E8000E94C702CF
:1046C000882399F37DCF8091F100D4018D934D0122
:1046D0000150110951F774CF1A828CE08B8324C0EA
:1046E0008A81823009F4DFC128F4813061F08FEFD4
:1046F00089831AC0833009F18430C9F71B821C8278
:104700001D821E8211C02FB7F89460915A027091D9
:104710005B0280915C0290915D022FBF0E94A925EF
:104720006B837C838D839E8340E250E0BE016F5F8C
:104730007F4F82E00E94B409C0CD2B81822F90E090
:10474000FE013496245E8630910570F7DC01AB5F84
:10475000BD4F3C91319301962813F5CFE5CF8A8167
:104760008230A1F0853019F680914D0280FF19C08A
:104770000E94D00B8091480280FF16C080914802B1
:104780008E7F809348020E94450ACECF6B817C8148
:104790008D819E810E94A92585E290E00E940826D5
:1047A000C3CF0E94DD0BE6CF0E94F10DBDCF4C813F
:1047B0006B818A810E94F50B9827892798279E8311
:1047C0008D83B2CF2D813E813227232732274C8122
:1047D0006B818A810E94130BA7CF0E943E0BA4CF4E
:1047E0009A81913009F042C08830F9F08930C9F1DE
:1047F0008B81813049F0823009F096CF8C81811114
:1048000011C00E94A50B90CF8C8190E065E070E014
:104810000E946A256FEF70E00E947B25862F0E9420
:10482000BD0482CF0E94BB0B7FCF8B81813049F0CA
:10483000823009F079CF80914D02869581708C830A
:1048400073CF80914D0286958695869590E06FEFA7
:1048500070E00E946A2565E070E00E947B256C8311
:1048600063CF80914D020E949F0B5ECF923009F082
:104870003ECF8830B9F1893009F45CC08B81823039
:1048800011F1B0F4813009F04FCF8C8190E06FEFDF
:1048900070E00E946A256FEF70E00E947B25462F32
:1048A00020E060914A02809149020E94C90C3CCFED
:1048B0008330A1F0843009F037CF20E040914B02E3
:1048C0006D818C81F2CF8C81882309F457CF0E94AF
:1048D000F10D60E08C810E94D30D26CF8C818093F6
:1048E0004C0222CF8B818230D1F068F4813009F004
:1048F0001BCF80914B0290E06FEF70E00E946A2521
:104900006FEF70E0AACF833091F0843009F00CCFC4
:10491000809149028C8380914A028D8305CF8091DA
:10492000480280FF02C086958ACF80E088CF8091C0
:104930004C0285CF609148027091490280914A02F1
:1049400090914B020E94B60CEFCE80E18A83ECCEB0
:1049500083E08A838AE1C2CE0A811B811027012766
:104960001027FE0131963F018C80CF01880D911DEB
:104970004C01C8018A519F4F8614970409F4D4CE84
:104980000A31A3E01A0750F40E94F425F30184834E
:104990000F5F1F4FBFEF6B1A7B0AEBCFD30114964B
:1049A0001C92F6CF0A811B81102701271027FE01D8
:1049B00031963F018C80800E912E911CC8018A5146
:1049C0009F4F8016910609F4AFCE0A31F3E01F071E
:1049D00028F4D30114966C910E940826BFEF6B1A3D
:1049E0007B0A0F5F1F4FEACF0E94030B9DCE84E02E
:1049F000ADCF0A811B81102701271027FE013196B8
:104A00003F018C80CF01880D911D4C01C801869615
:104A10006814790409F488CE003C110558F40E940A
:104A2000F425D30114968C930F5F1F4FFFEF6F1A7D
:104A30007F0AECCFF3011482F7CF0A811B81102784
:104A400001271027CE0101963C018C80800E912E0B
:104A5000911CC80186968016910609F465CE003C2B
:104A6000110528F4D30114966C910E940826BFEF1B
:104A70006B1A7B0A0F5F1F4FECCF09BD19BD09B43C
:104A800000FEFDCF8091D8008F7D8093D80080916B
:104A9000E00082608093E0008091E00081FDFCCF27
:104AA0000E94860F14CC85E290E00E94F4251B82C0
:104AB0001C821D828E8338CE2B30310508F0F6CC57
:104AC00032CD002480FD060E660F11F08695D1F7D9
:104AD000802D08950024552704C0080E591F880F03
:104AE000991F009729F076956795B8F37105B9F786
:104AF000802D952F0895AA1BBB1B51E107C0AA1F4B
:104B0000BB1FA617B70710F0A61BB70B881F991F6E
:104B10005A95A9F780959095BC01CD01089597FB12
:104B2000072E16F4009407D077FD09D00E947B254C
:104B300007FC05D03EF4909581959F4F08957095A0
:104B400061957F4F0895EE0FFF1F0590F491E02DC2
:104B50000994692796276927782787277827089552
:104B60002F923F924F925F926F927F928F929F927D
:104B7000AF92BF92CF92DF92EF92FF920F931F936B
:104B8000CF93DF93CDB7DEB7CA1BDB0B0FB6F8941C
:104B9000DEBF0FBECDBF09942A88398848885F845C
:104BA0006E847D848C849B84AA84B984C884DF80CD
:104BB000EE80FD800C811B81AA81B981CE0FD11DB1
:104BC0000FB6F894DEBF0FBECDBFED010895FB0117
:104BD000DC0104C08D910190801921F441505040B6
:104BE000C8F7881B990B0895F999FECF92BD81BD36
:104BF000F89A992780B50895A6E1B0E044E050E026
:104C00000C942E26A8E1B0E042E050E00C942E2651
:104C1000262FF999FECF92BD81BDF89A019700B475
:104C2000021639F01FBA20BD0FB6F894FA9AF99A15
:104C30000FBE08950396272F0E9409260E9408267A
:104C4000252F0E940926242F0C9409260196272F30
:104C50000E9409260C940826DC01CB01FC01F9997D
:104C6000FECF06C0F2BDE1BDF89A319600B40D92B8
:104C700041505040B8F70895EE27FF27AA27BB27D9
:104C800008C0A20FB31FE41FF51F220F331F441FDC
:104C9000551F969587957795679598F37040A9F776
:104CA000009799F7BD01CF010895A1E21A2EAA1B22
:104CB000BB1BFD010DC0AA1FBB1FEE1FFF1FA217CC
:104CC000B307E407F50720F0A21BB30BE40BF50BC9
:104CD000661F771F881F991F1A9469F76095709552
:104CE000809590959B01AC01BD01CF010895F8948A
:104CF000FFCF9410BC105E12BC105E12EF101011AA
:104D00005E120D121A1287127E1294127C12E11298
:104D1000E1127C12E112E112B012E112BB12C612D2
:104D2000E112E112E112E1127C12E112E1127C12B5
:104D3000E112A212E112E112DF12DF12DF12DF1222
:104D4000DF12DF12DF12DF12DF12D112E11287123F
:104D50007A12E112E112E112E112E112E112E11222
:104D6000E112E112E112D112E112E1127C12E11220
:104D7000D712D712D712D712D712D712D712D712EB
:104D8000D712D112511659168B165B167716951637
:104D9000AC168B188B18C618C61866198019F81827
:104DA000F8188519F219031A031A9517B117B817CD
:104DB000BD17C217C717CC17D117D617DB17E017C7
:104DC000E5179F159F159F159F159F159F159F15FB
:104DD0009F159F15C116C516B616BD16C916CD1658
:104DE000D1160E1783171617E016E4161A17E816D1
:104DF0001E172A17F4167C17F8162E17FC163217F2
:104E00005A1700173617611706173C174417EC1688
:104E10002217F01626170A17401750176A177A1725
:104E2000DA1612178A176C237023AF23D723E223D5
:104E3000ED23F023F023F02377237723A524A82460
:0C4E4000AC24D224F424F724F9241D250E
:104E4C00A503FD09F609EF0901141E0A2808010142
:104E5C00818283E200E900EA00B500B600B700CD1C
:104E6C00008301CC008A01920194012102230224C7
:104E7C00022502260227022A02B300B4006F00703A
:104E8C00009F01CB019F02A002939192666736644A
:104E9C006533324022B64C012A0174008E04A704FB
:024EAC00C70439
:00000001FF
