:100000000C9418030C9450030C9450030C9450035C
:100010000C9450030C9450030C9450030C94500314
:100020000C9450030C9450030C9450030C945222E3
:100030000C940E220C9421230C9450030C94500326
:100040000C9450030C9450030C9448230C94FD2200
:100050000C9450030C9450030C9450030C945003D4
:100060000C9450030C9450030C9450030C945003C4
:100070000C94500305010902A10185020901A100A8
:100080000509190129081500250195087501810246
:100090000501093009311581257F95027508810612
:1000A00009381581257F950175088106050C0A38E8
:1000B000021581257F950175088106C0C0050109DB
:1000C00080A101850319012AB700150126B7009503
:1000D0000175108100C0050C0901A10185041901F9
:1000E0002AA002150126A002950175108100C00505
:1000F000010906A1018506050719E029E715002574
:10010000019508750181020507190029EF150025E1
:100110000195F075018102050819012905950575FC
:10012000019102950175039101C00660FF0961A16B
:10013000010962150026FF009520750881020963F8
:10014000150026FF00952075089102C005010906DB
:10015000A101050719E029E715002501950875019A
:1001600081029501750881010507190029FF150015
:1001700026FF0095067508810005081901290595D7
:100180000575019102950175039101C00000000001
:10019000000000000000000000000000000000005F
:1001A000000000000000000000000000000000004F
:1001B0007E0F00D4FFFFFFC70000007800000000A2
:1001C000000000002A2B28000000000000000000B2
:1001D0000000000000000029000000002C1E342058
:1001E000212224342627252E362D3738271E1F207E
:1001F0002122232425263333362E37381F040506C3
:100200000708090A0B0C0D0E0F1011121314151606
:100210001718191A1B1C1D2F3130232D3504050604
:100220000708090A0B0C0D0E0F10111213141516E6
:100230001718191A1B1C1D2F3130354C00047F3F35
:100240001F643214643214783C1E1E140A05000127
:100250000101010101010101020202020202020286
:100260000203030303030303030404040404040458
:10027000050505050506060606060707070707081C
:10028000080808090909090A0A0A0B0B0B0C0C0CCF
:100290000D0D0D0E0E0E0F0F0F1010111111121269
:1002A00013131414151516161717181819191A1AE6
:1002B0001B1B1C1D1D1E1E1F202021222223242447
:1002C000252626272829292A2B2C2D2D2E2F303183
:1002D0003232333435363738393A3B3C3D3E3F4095
:1002E0004142434445464748494A4C4D4E4F505180
:1002F0005354555658595A5B5D5E5F61626465663A
:1003000068696B6C6D6F7072737577787A7B7D7EC0
:100310008082838587888A8C8E8F91939596989A10
:100320009C9EA0A2A3A5A7A9ABADAFB1B3B5B7BA28
:10033000BCBEC0C2C4C6C9CBCDCFD1D4D6D8DBDDFC
:10034000DFE2E4E7E9EBEEF0F3F5F8FAFDFFFFAAF0
:100350007F55402223252628292A2C2D2F30323361
:100360003536383A3B3D3E4042434547494A4C4E7C
:100370005051535557595A5C5E6062646668696BA8
:100380006D6F71737577797B7D7F81838587898AAE
:100390008C8E90929496989A9C9E9FA1A3A5A7A8B4
:1003A000AAACAEAFB1B3B4B6B8B9BBBCBEBFC1C2E4
:1003B000C3C5C6C7C9CACBCCCDCED0D1D2D2D3D477
:1003C000D5D6D7D7D8D9D9DADADBDBDBDCDCDCDC95
:1003D000DCDDDDDDDDDCDCDCDCDCDBDBDBDADAD963
:1003E000D9D8D7D7D6D5D4D3D2D2D1D0CECDCCCBE5
:1003F000CAC9C7C6C5C3C2C1BFBEBCBBB9B8B6B403
:10040000B3B1AFAEACAAA8A7A5A3A19F9E9C9A9892
:10041000969492908E8C8A89878583817F7D7B7963
:10042000777573716F6D6B6968666462605E5C5A44
:100430005957555351504E4C4A4947454342403E07
:100440003D3B3A3836353332302F2D2C2A29282699
:100450002523220000000000000000000000010130
:100460000203040506080A0C0F1114181C20242985
:100470002E33393F464C535B626A7179818A929A76
:10048000A2AAB2B9C1C8CFD5DCE1E7EBF0F4F7FA24
:10049000FCFDFEFFFEFDFCFAF7F4F0EBE7E1DCD536
:1004A000CFC8C1B9B2AAA29A928A8179716A625BF5
:1004B000534C463F39332E2924201C1814110F0C9D
:1004C0000A08060504030201010000000000000004
:1004D0000000002900B20001582A005300540055C2
:1004E0000056005F006000610057005C005D005E28
:1004F00000570059005A005B005800620062006318
:1005000000580001000253035310504300440045BB
:100510000046004000410042002B003D003E003FED
:10052000002B003A003B003C0058007C007C007D22
:1005300000580001001150035310507100720073F5
:1005400000E7006E006F00700069006B006C006DCA
:10055000006900680069006A006800A800A800A897
:10056000006800005C1150125010500100010001A1
:10057000000100FA00F000F9000100F200F400F3BD
:10058000000100FB00F100FC00100301000100016C
:1005900000100309025B00030100A0FA0904000037
:1005A000010301010009211101000122400007059A
:1005B0008103080001090401000203000000092171
:1005C0001101000122220007058203200001070516
:1005D00003032000010904020001030000000921B7
:1005E0001101000122B60007058403200001120159
:1005F00000020000000803A1060001000102000142
:1006000018034B00420044005000410044002D00FC
:100610004D004B0049004900000010034B00420010
:100620004400660061006E007300000004030904CA
:1006300011241FBECFEFD4E0DEBFCDBF04B603FE52
:1006400018C08091CD029091CE02A091CF02B091BE
:10065000D0028730904BA740B04B59F41092CD0296
:100660001092CE021092CF021092D002E0E0F8E396
:10067000099522E0A2E9B1E001C01D92AD3CB207AC
:10068000E1F711E0A0E0B1E0E6EFF6E502C0059089
:100690000D92A239B107D9F70E94C3230C940A2BFB
:1006A0000C9400002091E4003091E50095E6A9014A
:1006B0002091EC00822F817020FF06C08091E8001D
:1006C00080FF06C080E008952091E80022FD1AC056
:1006D0008091BF02882389F0853089F08091EB00FA
:1006E00085FD0FC02091E4003091E50042175307CB
:1006F000F9F29150E1F684E0089582E0089583E0F4
:10070000089581E00895EF92FF920F931F93CF9386
:100710007C018B010E945203C82F811117C0809168
:10072000E80085FD0BC08091E8008E778093E8009B
:100730000E945203882399F3C82F08C0F7018191C2
:100740007F018093F1000150110949F78C2FCF915F
:100750001F910F91FF90EF9008958091C10287FF44
:1007600013C08091E80082FF06C08091E8008B777B
:100770008093E80004C08091BF028111F2CF0895F8
:100780008091BF028823D9F38091E80080FFF8CFE1
:100790008091E8008E77ECCF982F9093E900242F7A
:1007A000762F50E0891731F07091EC002091ED0028
:1007B0005091F00021FD07C09F5F953071F7809345
:1007C000E90081E008953091EB003E7F3093EB002B
:1007D0003091ED003D7F3093ED003091EB003160C2
:1007E0003093EB007093EC002093ED005093F000F9
:1007F0002091EE0027FDE0CF80E00895FC0180917C
:10080000C7029091C80286179707A0F0611571057D
:1008100029F49091E8009E779093E80090E06115AC
:10082000710551F4911108C08091E80082FF32C037
:1008300080E00895BC01F2CF8091BF028823B1F11E
:100840008530B1F18091E80083FD2EC08091E800F1
:1008500082FDEACF8091E80080FFE1CF2091F20095
:1008600030E06115710519F02830310558F091E03C
:100870002830310509F090E02091E8002E77209390
:10088000E800CDCF81918093F100615071092F5F15
:100890003F4FE7CF8091BF02882341F0853041F080
:1008A0008091E80083FFC0CF81E0089582E0089541
:1008B00083E00895089580919C0208959C014FB7AC
:1008C000F8948091920290919302A0919402B09139
:1008D00095024FBF821B930B08952FB7F894809118
:1008E000920290919302A0919402B09195022FBF31
:1008F000089520918F02309190022817390771F0E6
:100900009093900280938F02E0918D02F0918E027D
:10091000309721F00084F185E02D0995089520910C
:100920008B0230918C022817390771F090938C025A
:1009300080938B02E0918D02F0918E02309721F02E
:100940000680F781E02D09950895E0918D02F091E0
:100950008E02309729F00190F081E02D09950895DD
:1009600080E00895B0E0A0E0E8EBF4E00C943C2ACD
:100970008C0180918600909187006CE070E00E946D
:10098000012A6017710758F0C80169E070E00E9401
:10099000012ACB01CDB7DEB7ECE00C94582A809148
:1009A000860090918700E0908600F0908700C090CC
:1009B0008600D0908700C6E0D0E0BE010E94012AE8
:1009C00030E020E0060F171F211D311D480159019D
:1009D00085E0880C991CAA1CBB1C8A95D1F7C7011D
:1009E000BE010E94012AF12CE12CA7019601260FDD
:1009F000371F411D511DC501B4010E94E82A69013C
:100A00007A01C0918600D0918700CA01B9010E9485
:100A1000CF2A9E0150E040E00E94CF2AA701960114
:100A20000E94CF2A2FE096958795779567952A950E
:100A3000D1F7009186001091870030E020E0061782
:100A400017072807390708F0A4CF60918600709136
:100A500087009FCF282F863008F5811120C0909104
:100A60008000977F909380002F986091860070910E
:100A7000870090E080E030E050E040E00E94CF2A24
:100A800025E030E040E050E00E94E82AC9010E94E1
:100A9000B20490938D0080938C00089525E090918E
:100AA0008000986090938000E0CF282F220F220FC3
:100AB000220F909185029770922B90938502987FD8
:100AC00021E009F420E09091850220FB90F99093B9
:100AD00085020E942A050895FA01811101C0FB01D7
:100AE00009950895089580918002982F9E7F29F49A
:100AF000817082608093800208958A34E8F3817067
:100B00008864F8CFB0E0A0E0E8E8F5E00C943E2A75
:100B10008901E42FF0E0E25BFD4F61110FC0949179
:100B2000392FE92FD8011196EC9311979C931296C7
:100B30003C93CDB7DEB7EAE00C945A2AC82FD0E038
:100B4000E62EF12CE4914E2FAE2EB12CCE0166E0B4
:100B500070E00E94F029CC24CA94D12CB6010E94E6
:100B6000012ADB01CC0FDD1FCB0165E570E00E949F
:100B7000F029C81BD90B8C2F880FC80FC6018E19FE
:100B80009F09B5010E94F029392FD0E0CE01B701AD
:100B90000E94F029692F70E0C601861B970BB501F2
:100BA0000E94F029292FC6018C1B9D0BB7010E94C2
:100BB000F029692F70E0C601861B970BB5010E94D2
:100BC000F029892FA230B10589F040F4109709F47B
:100BD000A9CF119779F0932F322FA4CFA430B1056C
:100BE00061F078F0169709F49DCFF5CF9E2FE32F93
:100BF000382F98CF9E2FE22F95CF932F3E2FE82F9F
:100C000091CFE32F342F922F8DCF0E946D049C0142
:100C10009091410280914202982B21F030933E0244
:100C200020933D029091430280914402982B21F041
:100C300030933C0220933B02E0918D02F0918E02B2
:100C4000309749F082E080933F020480F581E02DE7
:100C50008FE392E00995089540914102803F59F455
:100C60008091420287FF0DC01092420241110BC0D9
:100C70001092390208C0813F81F480914202181617
:100C80009CF3442381F08091430290914402892B8C
:100C900009F05AC0109238020895823F49F447FF84
:100CA000F0CF10924102809142028111ECCFE0CF4F
:100CB000833F19F41416ACF3E4CF90914302893FBB
:100CC00029F41916F4F610924302DBCF8A3F19F487
:100CD00097FFD7CFF8CF909144028B3F29F497FF2D
:100CE000D0CF10924402CDCF8C3F19F41916CCF31B
:100CF000C8CF9CE0980F953090F4845F990B21E069
:100D000030E0B90102C0660F771F8A95E2F7CB0188
:100D1000809590914002892380934002B2CF8D3F0D
:100D200031F480913A028E7F80933A02AACF8E3FAF
:100D300021F480913A028D7FF7CF8F3F09F0A1CF48
:100D400080913A028B7FF0CF089580913A0280FF24
:100D50000CC06091110170E0759567957595679568
:100D60006115710559F1862F089581FF06C06091C4
:100D7000110170E075956795F3CF6091110170E0F6
:100D800082FD0CC0609138026623A9F02091100109
:100D90008091110190E0621730F0BC01603871055C
:100DA000F8F28FE7089570E00E94F029622F70E05A
:100DB0000E94152AF3CF61E070E0D5CF81E008955D
:100DC00080913A0280FF0DC060910F0170E0660FC4
:100DD000771F60387105A8F561157105A1F1862F9F
:100DE000089581FF08C060910F0170E0660F771FC2
:100DF000660F771FEECF60910F0170E082FD0BC090
:100E0000809139028823D1F020910E0160910F0169
:100E100070E0821730F043E0660F771F4A95E1F7E4
:100E2000D8CF90E00E94F02933E0880F991F3A95BF
:100E3000E1F7622F70E00E94152ACBCF68E070E0E6
:100E4000CECF8FE7089581E00895803F31F40E946E
:100E5000E0068195809342020895813F19F40E9433
:100E6000E006F8CF823F31F40E94E006819580933E
:100E700041020895833F19F40E94E006F8CF893FAC
:100E800029F40E94A5068093430208958A3F21F425
:100E90000E94A5068195F7CF8B3F31F40E94A506ED
:100EA00081958093440208958C3F19F40E94A50611
:100EB000F8CF9CE0980F953070F4845F990B21E097
:100EC00030E001C0220F8A95EAF780914002822B20
:100ED0008093400208958D3F31F480913A02816001
:100EE00080933A0208958E3F21F480913A02826005
:100EF000F7CF8F3FB9F780913A028460F1CF80E05D
:100F00000895F894E82FE295EF70F0E031A1282FD2
:100F10002F7081E090E001C0880F2A95EAF7982FA2
:100F20009095932391A392A1892B82A378940895FD
:100F30009091960292FF06C0282F28712830F9F46C
:100F4000877F846093FF06C0282F28712831F1F431
:100F5000877E84612091970220FF06C0382F387168
:100F60003830D9F4877F816021FF06C0282F28718F
:100F70002831D1F4877E816194FD877E0895282FE2
:100F800024712430F9F68B7F8860DCCF282F247100
:100F9000243101F78B7E8861DDCF382F31713130FC
:100FA00019F78E7F8860E0CF282F2171213121F73A
:100FB0008E7E8861E1CFCF93DF93EC01823891057B
:100FC000B1F108F040C08133910509F49DC048F5A6
:100FD0008932910509F48DC08A9709F49CC0C11526
:100FE00021E5D20708F0C3C0C11530E5D30708F0EA
:100FF0001DC1C83ED10508F0A3C0C03ED10588F58B
:10100000C83AD10508F08EC0C53AD10508F006C12E
:10101000C130D10531F1209721F1C430D10508F557
:1010200045C08533910509F45FC0C997C1F6809129
:101030009602837009F04FC18091970283FF11C01F
:10104000C9E2D0E00EC0833E910599F170F4803E74
:10105000910501F1823E910511F68091960282FD83
:1010600021C0CE01DF91CF910895863E910561F1B7
:10107000873E910571F1843E910509F0B0CF8091D2
:10108000970281FFEECF80919602C7EED0E084FDFB
:101090000DC0E7CF8091960280FD33C090919702FA
:1010A00090FFDFCFC3EED0E084FFDBCFD0E0C0E025
:1010B000D8CF8091960282FD0BC19091970290FD4E
:1010C0000AC184FFCECFF2CF8091960283FDDDCF9F
:1010D000C8CF8091960283FD01C19091970291FF44
:1010E000F0CFC4EED0E0BDCF8091960285FFB9CF9E
:1010F000A7CF8091960285FDF4C08091970283FF6F
:10110000B0CFC9E3D0E0ADCF8091960286FFA9CFE2
:10111000CAE2D0E0A6CF8091960286FFA2CFC1E3BB
:10112000D0E09FCFCF3BD10508F6C85AD0E0CC0F16
:10113000DD1FCB5DDE4F0990D881C02DD46491CFE7
:10114000C11540E2D40758F4C11581E0D80708F072
:1011500088CFC03FD10508F4A9CFD06582CFC11593
:1011600020E4D20708F4A2CFDF70D06A7ACFC1158D
:1011700035E5D30710F5C11544E5D40708F090C054
:10118000C11583E5D80708F075C0C11522E5D2075F
:1011900008F46BC0CE018370992721E030E002C0D3
:1011A000220F331F8A95E2F7C695C695D0E0E5E099
:1011B000CC0FDD1FEA95E1F754C0C11539E5D3071F
:1011C000A8F4C11548E5D40708F06FC0C11586E53D
:1011D000D80708F06BCF8C2F0E949807C82FD0E05B
:1011E000DC2FCC27CC27DF71D0623BCFC1152AE59D
:1011F000D20708F45FC0CE0190568115904208F0E6
:1012000055CF8D2F8F710E94980790E0982F8827D7
:1012100088279F719C012C2BE901E6CFC55AD0E0AD
:10122000CE5DDE4FC881D0E0D0641BCFCE01A4E0FC
:1012300096958795AA95E1F783702C2F269526958C
:10124000237030E0B5E0220F331FBA95E1F7382B59
:101250008C2F8370C1E0D0E002C0CC0FDD1F8A95D7
:10126000E2F7C22BD32BDC68FCCEDC2FCC27C16F7E
:10127000D06AF7CECE018370992721E030E002C01A
:10128000220F331F8A95E2F7C695C695D0E075E028
:10129000CC0FDD1F7A95E1F7C22BD32BDA68E1CEB4
:1012A000DC2FCC27C46FD06ADCCEDC2FCC27C06FFC
:1012B000D06AD7CE8C2F8F700E94980734E0D695D5
:1012C000C7953A95E1F7CF709C2FEC01D069C9CE54
:1012D000C2EED0E0C6CEC0EED0E0C3CEC6EED0E0C7
:1012E000C0CEC5E3D0E0BDCE80911C02811110922A
:1012F0001C020895809590911B02982390931B02E5
:101300000895909121019923D1F09091960297FF31
:1013100016C0E82FE695E695E695EE31E0F4F0E0AC
:10132000EC56FE4F282F277081E090E001C0880F17
:101330002A95EAF780959281892382830895E6E9C8
:10134000F1E09191891303C0DF0111971C9291E0A4
:10135000EC39F907B1F70895909121019923C1F073
:101360009091960297FF14C0E82FE695E695E695D2
:10137000EE31F8F4F0E0EC56FE4F877021E030E0FB
:1013800001C0220F8A95EAF78281822B8283089519
:10139000A6E9B1E0EFEF90E02D91821751F0EF3F19
:1013A00019F4211101C0E92F9F5F9630A9F7EF3F93
:1013B00009F408950E2E000CFF0BEC56FE4FE6CFFD
:1013C0008091F8019091C701981301C008958F5F33
:1013D0008770FACF963090F5843080F5292F30E071
:1013E000220F331F220F331F820F932F911DA82F1F
:1013F000A77023E0969587952A95E1F763E070E062
:101400000E94F029FC01E854FE4F50E040E080E0EB
:10141000219130E00A2E02C0369527950A94E2F712
:1014200021703327042E01C0220F0A94EAF7822B81
:101430004F5F5F4F4330510559F7089580E008959D
:10144000CF93DF93F62F9630B8F58430A8F5292F87
:1014500030E0220F331F220F331F820F932F911D75
:10146000282F2770E1E001C0EE0F2A95EAF723E06C
:10147000969587952A95E1F763E070E00E94F02940
:10148000DC01A854BE4F50E040E06F2F70E08D911A
:10149000ED0121979B01042E02C0369527950A94F1
:1014A000E2F72170219528272E23282728834F5FD4
:1014B0005F4F4330510559F7DF91CF91089580FD7B
:1014C00002C02C9A08952C980895809398027093E6
:1014D0009A02609399028091BF028430F9F480935C
:1014E000E9008FEF9091E800815095FD06C095EDE1
:1014F0009A95F1F700008111F5CF8091E80085FF02
:101500000DC050E040E063E070E088E992E00E94A6
:1015100083038091E8008E778093E8000895BC01F2
:1015200084E00E94650A0895BC0183E00E94650A78
:1015300008959C0184E08093E9009FEF8091E8008A
:10154000915085FD06C085ED8A95F1F70000911157
:10155000F5CF8091E80085FF0CC050E040E066E0E8
:1015600070E0C9010E9483038091E8008E77809328
:10157000E8000895CF93DF93EC0180912101882347
:10158000B1F18091960287FF32C060E284E08093DF
:10159000E9008FEF9091E800815095FD06C095ED30
:1015A0009A95F1F700008111F5CF8091E80085FF51
:1015B0001BC08091210170E050E040E0811104C027
:1015C00050E040E068E070E0CE010E94830380912B
:1015D000E8008E778093E80080E2FE01ADE9B2E09A
:1015E00001900D928A95E1F7DF91CF91089568E01F
:1015F00081E0CDCF81E08093E00080E28093D8004D
:101600001092C9008FE19EE40197F1F700C000003D
:1016100087E090EBDC018093CD029093CE02A09303
:10162000CF02B093D00288E19CE00FB6F894A89561
:10163000809360000FBE90936000FFCF8091800286
:1016400080FD0AC0E0E5F2E011821082128233963A
:1016500052E0E038F507C1F7259A35B13F7D25B155
:1016600020624FB7F89480E592E0FC015191CF01E0
:1016700068E025B9000000C057FF35B9550F0000DC
:1016800000C000C000C035B900C06A9591F7F2E013
:1016900080389F0751F74FBF8FE594E00197F1F72E
:1016A00000C000000895EF92FF920F931F93CF9315
:1016B000DF938C01C0E5D2E0F12CE12CF80194819C
:1016C0006091820280918102F8E0EF16F104ECF45F
:1016D0009923E9F09E01409183020E9482052FEF39
:1016E000E21AF20A239680E1E816F10439F70E9423
:1016F0001E0BF801848190E0019681709927848304
:10170000CDB7DEB7E6E00C945E2A992319F39E016B
:1017100040E0E3CFB0E0A0E0E0E9FBE00C94382A41
:101720008C01FC01C481CC2ED12CF12CE12CA70121
:101730009601C701B6010E94CF2AA70196010E9417
:10174000CF2A2B013C0140E2C42ED12CCC1AD10867
:101750000D2C000CEE08FF0825E530E040E050E0DD
:101760000E94CF2A4B015C01A7019601C701B60177
:101770000E94CF2AA70196010E94CF2A9B01AC01AB
:10178000240D351D461D571DC501B4010E94E82AD0
:10179000D22E822F90E0F9E2F217B8F163E070E008
:1017A0000E94F02997FD019695958795C82FC095C1
:1017B00030E5E32E32E0F32ED0E085E5C82ECD18DB
:1017C0008C2DD1FD8D2D97014C2F609182020E94AE
:1017D0008205DF5F53E0E50EF11CD03189F70E94EE
:1017E0001E0BF801948181E0992319F0903219F4CD
:1017F0008FEF80931F0180911F01890FF80184836F
:10180000CDB7DEB7E0E10C94542A25E530E0A9011C
:10181000481B590BCA01C2CF0F931F93CF93DF937D
:10182000C0E5D2E0FE01118210821282339682E07E
:10183000E038F807C1F710E000E080914E02082E72
:10184000000C990B081719078CF180911E01082EC6
:10185000000C990B801791074CF19E014091830277
:1018600060918202809181020E9482050F5F1F4F6A
:1018700023960031110509F70E941E0B80911D016E
:1018800090914E02980F90934E0220911E01280FC6
:1018900020931E01121614F49F301CF08195809342
:1018A0001D01DF91CF911F910F9108951982188228
:1018B0001A82DCCFB0E0A0E0E0E6FCE00C94402A25
:1018C000FC018281DD24DA9480FD02C0DD24D39402
:1018D000C0E5D2E010E000E0198218821A8234E0FC
:1018E000E32EF12CC12C80914D028C0D8131ACF195
:1018F0008F70082E000C990B8017910791F480913E
:10190000830290E0B7010E94F029959587959595FF
:1019100087959E01482F60918202809181020E94EA
:101920008205CD0CF1E0EF1AF108E9F60F5F1F4FC9
:1019300023960031110581F60E941E0B80914D0205
:1019400091E0D91210C081110CC08FE080934D023C
:10195000CDB7DEB7E8E00C945C2A87FFCACF805F82
:10196000C8CF8150F3CF90E001968F709927EECFCA
:10197000EF92FF921F93CF93DF93EC0180E5E82E67
:1019800082E0F82E10E08C819701409183026091F3
:101990008202810F0E948205115F83E0E80EF11C34
:1019A000103F89F70E941E0B9A818C8190FF08C01E
:1019B0008F5F8C83DF91CF911F91FF90EF900895FF
:1019C0008150F7CF9091800290FF0CC0E0E5F2E0EB
:1019D000818360834283339692E0E038F907C1F750
:1019E0000E941E0B0895A3E0B0E0E9EFFCE00C9428
:1019F000442A8C0180914F0281110AC09E012F5F01
:101A00003F4F4FEF6FEF0E9482058A8180934F0214
:101A1000F8016481613069F080914F0240E06623F3
:101A200061F040E0623011F440914F0280E060E0EC
:101A300004C060914F0240E080E00E94E20CF80197
:101A4000848190E0019663E070E00E94152A84830F
:101A50002396E4E00C94602AA3E0B0E0E2E3FDE02A
:101A60000C94462A9091800290FF0AC09E012F5F3D
:101A70003F4F0E9482054B8169818A810E94E20C5E
:101A80002396E2E00C94622ACF93DF93EC01E0E826
:101A9000F2E0438162818C810E942C0D8C818F5FEA
:101AA0008C83DF91CF910895CF93DF93EC01EC818C
:101AB000F0E0ED5AFC4F4491E0E8F2E06281818170
:101AC0000E942C0D8C818F5F8C83DF91CF910895C4
:101AD000CF93DF93C7EED0E060E0CE010E949B2A57
:101AE0002196C11584E0D807B9F7DF91CF91089509
:101AF0001F93CF93DF93122F843008F56630F8F4EC
:101B00004430E8F4C62FD0E093E0CC0FDD1F9A9567
:101B1000E1F750E0440F551FC40FD51F90E060E37C
:101B200070E00E94F029C80FD91F632FCE0187965D
:101B30000E949B2A612FCE0188960E949B2ADF91EA
:101B4000CF911F910895AF92BF92CF92DF92EF9203
:101B5000FF921F93CF93DF9383EDC82E84E0D82E9E
:101B6000D0E07601C0E014C0F50125913491412FF9
:101B70006C2F8D2F0E94780D82E0A80EB11C1F5F84
:101B8000143091F788E0E80EF11CCF5FC63019F0F1
:101B9000570110E0E9CFDF5F80E3C80ED11CD430DD
:101BA00001F7DF91CF911F91FF90EF90DF90CF90E1
:101BB000BF90AF900895CF93C82F6FEF811161E26E
:101BC00083E290E00E949B2A6FEFC11167E084E2FC
:101BD00090E00E949B2A6FEFC11165E185E290E0E1
:101BE0000E949B2ACF91089580E00E94DB0D60E067
:101BF00086E290E00E949B2A0E94A30D0E94680D3D
:101C000081E00E94DB0D0895682F86E090E00E943D
:101C10009B2A08958091850281FF11C08D7F80935A
:101C200085020E94040E80916F008E7F80936F006A
:101C3000809185028695869586950E942A0508954D
:101C40008091850281FD10C08260809385020E9490
:101C5000040E1092880210928702109286028091E0
:101C60006F00816080936F0008950F931F93CF934F
:101C7000DF93843058F5663048F5443038F5C62F88
:101C8000D0E093E0CC0FDD1F9A95E1F750E0440FD0
:101C9000551FC40FD51F90E060E370E00E94F0294B
:101CA000C80FD91FCE0187960E94872A082F10E0FF
:101CB000102F0027CE0188960E94872A9801282B92
:101CC000C901DF91CF911F910F91089590E080E0BD
:101CD000F8CF462F843040F4763030F4643020F46E
:101CE000672F0E94350E089590E080E00895CF920E
:101CF000DF92FF920F931F93CF93DF936C010091BC
:101D0000CC0280911D02082BC7E0D0E010E0FC2E31
:101D1000C8010C2E02C0959587950A94E2F780FDC4
:101D20000CC02197A0F7F12C8F2DDF91CF911F913F
:101D30000F91FF90DF90CF900895B6018C2F0E94F5
:101D4000690E0E94DB07019761F3EECFCF93DF931B
:101D5000EC010E94770EBE010E94690E0E94DB0713
:101D6000DF91CF910895FC01808191810E94A60EA0
:101D700092959F70963091F058F4925F9F709230D8
:101D800058F4803F19F030F4883E30F481E0089533
:101D90009A5FF4CF843FD1F380E00895883EB0F39A
:101DA000813FD1F7F3CF83E290E00E94872A81320E
:101DB00089F484E290E00E94872A873059F485E212
:101DC00090E00E94872A91E0853109F090E0892F08
:101DD0008170089580E0FCCFCF9384E090E00E9472
:101DE000872AC82F82E290E00E94872A982F8C2FA2
:101DF000CF91089560918002669570E04BE050E0CD
:101E000082E191E00E946D2A892B19F481E0809390
:101E10004C020E946D0490934602809345020895FF
:101E2000CF92DF92EF92FF926B017C010E947305CB
:101E3000B701A60188E090E00E94AD2AFF90EF90E4
:101E4000DF90CF900895A3E0B0E0E9E2FFE00C94CA
:101E50003B2AF82EB62EE42EA22E9091800290FFFF
:101E600029C0E92FE695AE2FB0E0A35ABE4F8C9162
:101E700080934B029E7F923009F59E012F5F3F4F6A
:101E80008F2D0E9482054B8169818A810E94E20C1C
:101E9000F0928102B0928202E0928302AA2051F075
:101EA0006091800270918102809182029091830200
:101EB0000E94100F2396EDE00C94572A823019F4FB
:101EC000E0908302E5CF863019F4F0908102E0CFF4
:101ED0008930D9F38931E1F6E9512E2F2170722E24
:101EE000E695F0E0E25BFC4FE4910E2F10E030E568
:101EF000C32E32E0D32E912C812CC40124E0969580
:101F000087952A95E1F7711013C08F0D96014E2D1C
:101F10006B2D0E948205800E911E83E0C80ED11C9D
:101F200020E8C21622E0D20641F70E941E0BB0CF75
:101F30002F2D281B822FEACFE0E8F2E0438128E032
:101F4000421B08F440E021E0628181810E94230F5E
:101F50000895E0E8F2E0438128E0420F08F44FEFF3
:101F600021E0628181810E94230F0895E0E8F2E080
:101F7000628128E0621B08F460E021E043818181F6
:101F80000E94230F0895E0E8F2E0628128E0620FEA
:101F900008F46FEF21E0438181810E94230F0895AF
:101FA000E0E8F2E0818121E04381628188500E9473
:101FB000230F0895E0E8F2E0818121E0438162810E
:101FC000885F0E94230F089580918402882319F06E
:101FD000815080938402609180027091810280918F
:101FE0008202909183020E94100F089580918402D2
:101FF000833018F48F5F8093840260918002709127
:10200000810280918202909183020E94100F0895B4
:102010009091800290FF2CC0917081112AC0926033
:1020200090938002662351F060918002709181024A
:1020300080918202909183020E94100F6091800231
:10204000669570E04BE050E082E191E00E946D2ADD
:10205000892BB1F010924C0281E08093480220E07D
:102060004091830260918202809181020E94230F3D
:102070000895853210F09864D3CF880F982BD0CF75
:102080000E94FA0EE9CF809180028695815009F472
:1020900084E261E00E940810089580918002869594
:1020A0008F5F853208F081E061E00E94081008959A
:1020B0009091800290FF08C09695981728F0961787
:1020C00018F40E944D10089561E00E9408100895D0
:1020D000E0E8F2E083E080831182128213821482AE
:1020E00060817181828193810E94100F0895809197
:1020F0001B0290911A02892B8093940190911C02EB
:102100009923A1F0892B8093940180912101882348
:10211000E1F18091960287FF38C08EE1E6E9F1E0B7
:1021200090E08150A0F591110E94740940E250E0C6
:102130006AEF71E084E991E00E947A2A892B21F10B
:1021400080E2E4E9F1E0AAEFB1E001900D928A9516
:10215000E1F7E0918D02F0918E023097A9F0809125
:102160002101882359F08091960287FF07C0809152
:1021700094018093950186E0809394010280F3811D
:10218000E02D84E991E00995089586E0C7CF21917B
:10219000222339F29F5FC5CF90E080E00E948F0438
:1021A00090E080E00E94790410921A020E94771059
:1021B00086E0EFE3F2E0DF011D928A95E9F71092E5
:1021C00039021092380210923A020E9405060895D0
:1021D0008093CC020E94CC1008958091CC02982F5D
:1021E0009670963021F488600E94E8100895877FE9
:1021F000FBCF21E030E001C0220F8A95EAF720955D
:102200008091CC0282230E94E81008959091F901F8
:10221000809589238093F901282F277091F4282F26
:10222000082E000C330B9217130659F09091970269
:1022300092FF07C08595859585950E94F9101092AB
:10224000F9010895CF93C0919702C2FB992790F9A5
:10225000981791F080FBC2F9C093970260919602A3
:1022600084E090E00E949B2A6C2F82E290E00E9422
:102270009B2A82E00E940611CF91089521E030E070
:1022800001C0220F8A95EAF78091CC02822B0E942E
:10229000E810089580931D020E94CC1008958823B1
:1022A00021F00E947A090E9477100895882339F05E
:1022B00090911B02982B90931B020E947710089517
:1022C000882309F455C0823879F40E94A50481FF5F
:1022D0004FC089E30E94AC090E94771089E30E94F5
:1022E00081090E9477100895833859F40E94A5044B
:1022F00080FF3EC083E50E94AC090E94771083E511
:10230000EECF843859F40E94A50482FF31C087E4DF
:102310000E94AC090E94771087E4E1CF9CEF980FF0
:10232000913AE8F290E2980F983050F4877091E07B
:1023300001C0990F8A95EAF7892F0E947A09D1CFB7
:102340009BE5980F933028F490E080E00E948F0482
:10235000089598E5980F973128F490E080E00E9466
:1023600079040895803F20F00E942C060E94050603
:10237000089568EE7EEF90E080E00E94B92A60E068
:1023800082E090E00E949B2A60E083E090E00E945F
:102390009B2A10921D0260E084E090E00E949B2A3C
:1023A00064E082E290E00E949B2A60E085E090E099
:1023B0000E949B2A60E086E090E00E949B2A6FEFDB
:1023C00087E090E00E949B2A40E050E0BA0188E05C
:1023D00090E00E94AD2A60E08DE090E00E949B2A90
:1023E00040E050E0BA0188E190E00E94AD2A60E050
:1023F00087E190E00E949B2A40E050E0BA018CE126
:1024000090E00E94AD2A70E060E080E290E00E94DF
:10241000B92A40E050E0BA0188E190E00E94AD2A7C
:1024200080E00E94DB0D0E94F40D40E050E0BA0114
:102430008FE090E00E94AD2A40E050E0BA0183E1D5
:1024400090E00E94AD2A089510921B028091210114
:10245000E6E9F1E0882361F08091960287FF08C0E9
:102460008EE1DF011D928A95E9F70E94CC10089554
:1024700086E0F7CFAAE2B0E0E0E4F2E10C94452A6E
:1024800081EC92E02091F100DC012D93CD01B2E0CE
:10249000893C9B07B9F78091C202833009F470C070
:1024A000B8F4813009F447C0823009F4B1C080919A
:1024B000E80083FF88C28091C1029091C2029A30E5
:1024C00008F081C2E92FF0E0E45FF44D0C94292A72
:1024D0008A3009F48CC08B3009F46FC0893039F729
:1024E0008091C102813219F78091C5029091C60294
:1024F000009711F00297D9F68091E800877F8093CA
:10250000E8008091E80082FF36C08091F2008230BE
:1025100031F48091F100813011F0863021F4809106
:10252000F10080939C028091E8008B778093E80013
:102530000E94AD03BCCF8091C102813A09F0B7CFB0
:102540008091E800877F8093E8008091C502909198
:10255000C602892B61F460E28DE992E070E00E948E
:10256000FE038091E8008B778093E800A0CF60E0C5
:1025700090E080E0F3CF8091BF028111C2CF97CF6E
:102580008091C102813A09F092CF8091C502909169
:10259000C602892B09F08BCF8091E800877F80935A
:1025A000E8008091E80080FFFCCF809121018093BA
:1025B000F1008091E8008E77B9CF8091C10281321D
:1025C00009F075CF8091C5029091C602892B09F060
:1025D0006ECF8091E800877F8093E8000E94AD0372
:1025E0008091C302809321010E94241260CF8091C8
:1025F000C102813209F05BCF8091E800877F809330
:10260000E8000E94AD038091C40280939B024FCFEB
:102610008091C102813A09F04ACF8091E800877F1A
:102620008093E8008091E80080FFFCCF80919B02BE
:10263000BECF803899F0823809F0C5C18091C502BB
:102640008F70853008F0BFC18093E9008091EB0066
:1026500085FB882780F91092E90006C08091BD02B1
:102660009091BE02911182609091E800977F9093C3
:10267000E8008093F1001092F1008091E8008E77DD
:102680009EC1882309F48CC1823009F09CC18091DD
:10269000C30281118FC18091C5028F702FEF280F67
:1026A000243008F090C18093E9002091EB0020FFD6
:1026B00081C1933031F48091EB0080628093EB0014
:1026C00079C19091EB0090619093EB0021E030E0B4
:1026D00001C0220F8A95EAF72093EA001092EA00DF
:1026E0008091EB008860EACF81116DC11091C30227
:1026F0001F778091E3008078812B8093E3008091A5
:10270000E800877F8093E8000E94AD038091E80095
:1027100080FFFCCF8091E30080688093E30082E03B
:10272000111183E08093BF024EC18058823008F0BF
:102730004AC12091C3023091C4022C3DE3E03E0720
:10274000A1F583E08A838AE289834FB7F894DE019A
:10275000139620E03EE051E2E32FF0E05093570063
:10276000E49120FF03C0E295EF703F5FEF708E2F82
:1027700090E0EA30C0F0C7968D939D932F5F24318F
:1027800059F74FBF8091E800877F8093E8006AE2A5
:1027900070E0CE0101960E94FE038091E8008B77E5
:1027A0008093E80010C1C096E7CF8091C502909158
:1027B000C602432F55274330510509F44AC078F526
:1027C0004130510509F47AC08BE590E0E3E9F5E08A
:1027D0004230510509F0F7C02091E800277F20938F
:1027E000E8002091C7023091C8028217930708F4CD
:1027F0009C0140E02115310509F065C0411163C01D
:102800008091E80082FDC9CF8091BF02882329F220
:10281000853019F28091E80083FFF2CFBECF4132BC
:10282000510509F43CC04232510509F0CCC0833057
:10283000910508F0C8C0FC01EE0FFF1FEB57FE4FDB
:102840000190F081E02D8E579E4FDC018C9190E03D
:102850001AC0332721303105D1F02115310561F03F
:102860002230310509F0AFC0E0E0F6E0E4918E2FB0
:1028700090E0E0E0F6E007C0ECE2F6E0E4918E2FB5
:1028800090E0ECE2F6E0009709F49DC0A5CFEAE104
:10289000F6E0E4918E2F90E0EAE1F6E0F4CF8330A9
:1028A000910508F090C0880F991FFC01E557FE4F75
:1028B0000190F081E02D89E090E08ECF82E190E000
:1028C000EEEEF5E089CF8091BF02882309F465CF51
:1028D000853009F462CF8091E80083FD5ECF80915E
:1028E000E80082FD8DCF8091E80080FF83CF80914A
:1028F000F20090E02115310519F08830910550F073
:1029000041E0089709F040E08091E8008E778093DD
:10291000E80070CF44914093F10031962150310985
:102920000196E8CF803809F04EC08091E800877F9B
:102930008093E8008091C0028093F1009ECE8111C7
:1029400042C01091C3021230F0F58091E800877FF9
:102950008093E8001093C0020E94AD03112311F090
:1029600084E005C08091E30087FDFACF81E0809389
:10297000BF0242E061EC81E00E94CC0342E261ECE4
:1029800084E00E94CC0342E261EC82E00E94CC032E
:1029900042E260EC83E00E94CC038091BF0213C04E
:1029A0008091C302813079F481E0933009F080E0B6
:1029B0008093BE021092E9008091E800877F8093A7
:1029C000E8000E94AD038091E80083FF0AC0809177
:1029D000E800877F8093E8008091EB00806280931D
:1029E000EB00AA96E3E00C94612AEBEFE80FEF33DB
:1029F00008F06CC0F0E0EA5EF44D0C94292A0E94C5
:102A0000B91181E0089580918A02807F80938A02C3
:102A100081E08093890208950E9424122FEF84E3BD
:102A20009CE0215080409040E1F700C000000E94EF
:102A3000FA0A90918A02892F8E7F90FF816080939D
:102A40008A0280FDDECF817F80938A02DACF909167
:102A50008A02892F8D7F91FF826080938A0281FF95
:102A6000D0CF80918A028160EFCF90918A02892F26
:102A70008B7F92FF846080938A0282FDF2CFC1CF68
:102A800090918A02892F877F93FF886080938A02C2
:102A900083FDE7CFB6CF0E94241290919602892F32
:102AA00097FB87F9805880939602ABCF81E00E9414
:102AB0004A110E942412A5CF895391E001C0990FB9
:102AC0008A95EAF7892FF3CF8D51F7CF80E00895EB
:102AD000CF93C82F8823C9F08238C9F40E94A50477
:102AE00081FD13C089E30E94AC090E9477102FEF8B
:102AF00087EE93E0215080409040E1F700C0000055
:102B000089E30E9481090E947710CF91089583384C
:102B1000A1F40E94A50480FDF8CF83E50E94AC09D2
:102B20000E9477102FEF81EE94E02150804090407A
:102B3000E1F700C0000083E5E4CF8438A1F40E94EF
:102B4000A50482FDE2CF87E40E94AC090E947710C1
:102B50002FEF81EE94E0215080409040E1F700C0DB
:102B6000000087E4CECF8CEF8C0F813A08F0E7C0ED
:102B7000809189028130B9F1882359F1823009F4BA
:102B80004DC01092890280912101882309F4C8C0A8
:102B90008091960287FFC4C0EC2FE695E695E695F6
:102BA000F0E0EC56FE4F828190E04C2F477021E020
:102BB00030E002C0220F331F4A95E2F782239323AD
:102BC000892B09F4B8C08C2F0E9481090E947710CC
:102BD000B2C080911B028232B1F68C2F0E94F51494
:102BE000811193CFD0CF80911B028232B1F3C431D7
:102BF00071F038F4CB3049F0C03161F080E0817081
:102C0000EFCFC93221F0C833C9F781E0F8CF109275
:102C10008902F4CF82E080938902F7CFC93209F4A8
:102C200053C080F5C43109F44FC0B0F4C73009F087
:102C30006CCF81E080930C0184E180930D018AE0E8
:102C400080930F018EE180930E0188E08093110143
:102C500088E28093100159CF82EE8C0F8A3008F001
:102C600054CFCD51C093B701C33009F448C0C0F56B
:102C7000C13009F441C08DE091E0C230C1F1109241
:102C8000B70143CFC03509F443C0C0F48AE0CF3464
:102C900009F03BCFE091B501F091B601309709F40E
:102CA00034CF2081082E000C990B820F911D8F3F8D
:102CB000910591F18CF18FEF808327CFC13551F1D0
:102CC00081E0C23539F321CF8091B701882309F41F
:102CD0001CCF1092B7011092B6011092B50115CF1A
:102CE000C53099F078F080E191E0C63041F69093DC
:102CF000B6018093B50109CF8CE091E0F8CF8FE069
:102D000091E0F5CF8EE091E0F2CF81E191E0EFCF5D
:102D100086EFC0CF8FEFBECF97FFCECF1082F5CE1C
:102D2000E6E9F1E08CE991E02191C21709F44BCF7B
:102D30008E179F07C9F78C2F0E94AC09E4CE80E262
:102D40008C0F883068F4C77021E030E001C0220F9A
:102D5000CA95EAF780911B02822B80931B02D3CE87
:102D6000EBE5EC0FE33040F4F0E0EE5DFE4F8081E8
:102D700090E00E948F04C9CEE8E5EC0FE73150F4F3
:102D8000F0E0EE0FFF1FEB5DFE4F808191810E940E
:102D90007904BBCEC03F08F4B8CE8C2F0E94250723
:102DA0000E940506B2CE1F93CF93DF93182FD0E079
:102DB000C0E0893311F4C0E5D0E0812F0E9468158E
:102DC000209739F4812F0E946011DF91CF911F91DC
:102DD00008958FE99FE00197F1F700C00000219767
:102DE000EFCF0F931F93CF93DF93C62FD42F022FD4
:102DF000FC0182818823A9F06093CB020E946D04BC
:102E00009093CA028093C902C77081E001C0880F05
:102E1000CA95EAF70E945611DF91CF911F910F9149
:102E200008958091CB02681332C08091C9029091BD
:102E3000CA020E945E04883C910548F510E21D0F0D
:102E4000CD17B9F080E28C0F883040F4C77081E074
:102E500001C0880FCA95EAF70E944F11183048F454
:102E600081E09D2F977001C0880F9A95EAF70E9424
:102E70005611802F0E94D316183070F6D77081E05B
:102E800001C0880FDA95EAF70E944F11C5CFC770CD
:102E900081E001C0880FCA95EAF7F6CF0E9424129C
:102EA0002FEF84E39CE0215080409040E1F700C088
:102EB000000088E19CE00FB6F894A895809360002C
:102EC0000FBE90936000FFCFA5E0B0E0EAE6F7E127
:102ED0000C94382A8C01FC0183819481892B31F078
:102EE0008081918189238F3F09F0EDC52596E0E12E
:102EF0000C94542A0E94770EF82E682F89819A81AB
:102F00000E94200A69817A818F2D0E94690E7C01BE
:102F1000F8018281882309F4A9C5C70182519F4520
:102F2000409708F08CC58FEF93E00E94872A8111AB
:102F300025C0FEEEEF0E47EE842E912CE11030C03E
:102F40001C821B824424439474016FEFE61AF60A34
:102F5000C4010E94872A89831A82882379F09FEF0F
:102F6000980F933058F58A83498272E0870E911C3E
:102F7000C7010E94872A8B83811121C08091F901AA
:102F8000877009F4B3CFF8018281882309F4AECFAA
:102F90008091970282FFAACF82E00E940611A6CFFD
:102FA000811424E0920651F3C4010E94872A811102
:102FB00001C0EA943FEF831A930AC0CF4701CE01C4
:102FC00001967C01F7012081222309F4BDCF213035
:102FD00009F048C091818281913031F4F2E0EF0E26
:102FE000F11C0E94D31607C0923049F422E0E20E91
:102FF000F11C0E9468153FEFE31AF30AE3CF933008
:1030000031F432E0E30EF11C0E946011F4CF9430F1
:1030100021F06FEFE61AF60AEECF72E0E70EF11C30
:1030200050E040E0D7011196F701D180682F60533E
:10303000770B9B016A30710550F041505109D8F26D
:103040008FE99FE00197F1F700C00000F6CFCA01B9
:103050006AE070E00E94F029A901480F591F8D2DE8
:103060007D01E0CFE22FF0E0E454FE4F5490822F38
:1030700086958695869590E0FC01E455FE4F649018
:103080002770712C022E02C0759467940A94E2F79F
:10309000E1E06E227724FC01E456FE4FA490B12CAF
:1030A000022E02C0B594A7940A94E2F7F1E0AF2291
:1030B000BB24FC01E457FE4FC490D12C02C0D59430
:1030C000C7942A95E2F721E0C222DD24611471043D
:1030D00019F081EE0E946815A114B10419F086EE72
:1030E0000E946815852D0E94D316A114B10419F011
:1030F00086EE0E9460116114710419F081EE0E9445
:103100006011C114D10409F476CF8CE26ACF81E05A
:103110000E943E1103C081E00E94F9100E94ED1050
:103120002DCF82E0F5CF82E0F7CF85E00E945505F4
:10313000809185020E94040E21CF80E0F7CF80911C
:103140008502982F987F79F0885080938502887F38
:1031500091E009F490E08091850290FB80F98093E2
:1031600085020E94040E809185028695869586953B
:103170000E942A0503CF80918502982F96959695F7
:103180009695953040F49F5F990F990F990F87702E
:10319000892B80938502809185028160E0CF8091A8
:1031A000850280FF07C08E7F809385020E94040EF7
:1031B00080E0DECF80FDE2CE8160809385028130A9
:1031C00019F489E08093850280918502CACF90919D
:1031D0008502892F8695869586958F5F8F7197706A
:1031E000863048F4880F880F880F892B80938502DA
:1031F00080918502ACCF90938502FACF80918502B1
:1032000081FF03C00E940A0EB9CE0E94200EB6CEE6
:1032100027E245EE65EE53C426E241EE60EE4FC470
:1032200027E245EE64EE4BC426E241EE62EE47C46F
:1032300028E241E0EFCF85EAE8168DE5F80609F4CB
:1032400072C5E0F4E1E6EE16EDE5FE0609F46BC5A5
:10325000F6E1EF16FCE5FF0609F0C0C480911B0201
:103260008A7A91E009F490E09093B40181113DC114
:1032700089E20E94AC090E94771080CEC7018D5A66
:103280009D45039728F74FC580919602806227E0FD
:10329000E2162CE5F206E1F180919602806138E0B9
:1032A000E3163CE5F306A0F180919602806430C0FD
:1032B0006DE0E6166CE5F60609F4D5C090F48BE0F7
:1032C000E8168CE5F80609F4C6C0809196028C6079
:1032D0009CE0E9169CE5F906D8F0809196028D7F76
:1032E00017C0EFE0EE16ECE5FE0609F4CCC008F4DA
:1032F000BEC020E1E2162CE5F20609F4C8C08091B8
:1033000096028F7B31E1E3163CE5F30609F03AC5FE
:103310008093960237C56FEFE6166CE5F60609F462
:10332000C4C0C8F58AEFE8168CE5F80609F485C034
:10333000D0F4E4E1EE16ECE5FE0609F4C4C008F4AE
:10334000B0C025E1E2162CE5F20609F01BC580911C
:10335000960282FB992790F921E0922790FB82F94F
:1033600090FB83F9D5CF3CEFE3163CE5F30609F477
:1033700082C008F466C07DEFE7167CE5F70609F425
:103380007EC08EEFE8168CE5F80609F0FBC480914C
:103390009702836043C091E6E9169DE5F90609F4BA
:1033A0009DC0A0F4F1E0EF16FDE5FF0609F494C01E
:1033B00008F47FC060E032E0E3163DE5F30609F073
:1033C000E1C48EE090E00E949B2ADCC46DEAE61620
:1033D0006DE5F60601F168F485EAE8168DE5F80674
:1033E00009F0D0C490919602892F8E7F90FF816062
:1033F0008FCF9EEAE9169DE5F90689F1EFEAEE1610
:10340000EDE5FE0609F0BEC490919702892F877FF3
:1034100093FF886003C08091970288608093970231
:10342000B1C480919602826073CF809196028460CD
:103430006FCF8091960288606BCF809197028160F8
:10344000EDCF809197028260E9CF0E942412809193
:10345000960280685DCF809196028E7F59CF8091D1
:103460009702877FDBCF809196028B7F51CF80912F
:103470009602877F4DCF809197028E7FCFCF80912C
:1034800097028D7FCBCF809196028F7E41CF809126
:1034900096028F7D3DCF0E942412809196028F77F5
:1034A00037CF80919602837F33CF809197028C7FB4
:1034B000B5CF80919702982F909591708E7F892B30
:1034C00090FB81F9ABCF0E94241290919602892F34
:1034D00097FB87F980581CCF61E073CF90919602DB
:1034E000892F8F7E94FF806113CF85E3C2CE8091B8
:1034F000B401811104C089E20E948109BCCE85E338
:10350000FBCF81608093800261E086950E94081065
:1035100035CD43E450E16DE470E10E946C052ECDA1
:103520004DE450E163E470E1F8CF4AED5FE060ED17
:103530007FE0F3CF46EB5FE063EC7FE0EECF4CE95A
:103540005FE069EA7FE0E9CF49EA5FE06CE97FE0AC
:10355000E4CF46EF5FE064EE7FE0DFCF61E081E043
:10356000D5CF65E082E00E94581008CD68E086E083
:10357000FACF64E18FE0F7CF67E185E1F4CF62E253
:1035800089E1F1CF61E083E2C1CF0E9424127FEF95
:1035900084E39CE0715080409040E1F700C000005F
:1035A0000E94FA0A8091970282FB882780F991E0B5
:1035B00089270E942211F8018281E080F18088230E
:1035C00009F445C0C7010E94770ED82E682FC701A5
:1035D0000E94200AB7018D2D0E94690E0E94DB0710
:1035E0007C01882EF801D280B580B2943FE0B322EE
:1035F0008091F9018770C1F0AD2CDD20B1F08F2DE5
:10360000807F803421F080E28E0D883068F08091D8
:10361000970282FF09C082E00E9406118091F901A1
:103620008770AA24A3948111A12C9F2C92942FE03F
:103630009222FBE0F91508F479C0E92DF0E0EB5A8D
:10364000F44D0C94292A81E0B4CF80E0B2CFC701B9
:103650000E94EA09D82EBECF2F2D2F70C22E8F2D9B
:10366000807F19F0C29490EFC922DD20B9F0CC2000
:1036700069F080E28E0D883010F0811009C08091D1
:103680001B02C82AC0921B020E9477108E2D4CC0CC
:1036900080911A02C82AC0921A02F6CF8E2D0E947B
:1036A0006011CC2009F442C080E28E0D883010F009
:1036B000811004C08C2D0E947A0906C0C0948091AC
:1036C0001A02C822C0921A020E9477102FC03F2D02
:1036D0003F70C32E8F2D807F803219F0C29480EF0F
:1036E000C822882089F061E0861609F46AC0DD20CE
:1036F00009F474C0BB2009F46AC0F801858180FF19
:10370000C5CF8F70858363C02091970222FD37C09B
:10371000DD2079F1CC2039F080911B02C82AC092BB
:103720001B020E94771080E00E946815692D685086
:10373000770B6430710520F40E94A5040E945F0A93
:10374000AA2009F4D3CB8091F90180FDCFCBF801F9
:1037500012828595859585950E943E11C8010E942B
:1037600064178091F9018595859585950E94F910DA
:10377000BDCB80E00E946011CC20C1F29BCFDD2048
:1037800099F090911C028C2D892BB11003C00E94DE
:103790005611CCCF71E0B712FACF22FFC7CF9817DE
:1037A00029F280931C02C2CFB11006C00E94740996
:1037B0008C2D0E944F11BACF81E0B81609F4B6CF14
:1037C000F5CFDD2031F095E09B1508F4AFCF8C2DBF
:1037D000DECFE4E0EB1508F4A9CFEACFBB2041F33C
:1037E000F9E38F1209C02FEF37EE63E0215030402C
:1037F0006040E1F700C000008E2D0E94601196CF5E
:103800008F2D86958695837061F0813009F08ECF7B
:10381000C7019370D11002C090E080E00E9479044B
:1038200085CFC7019370D11002C090E080E00E9464
:103830008F047CCF8E2DDD2029F00E9425070E9469
:10384000050674CF0E942C06FACF8F2D837091F558
:10385000D1106CCF4E2D429546954770440F440FC2
:103860008E2D8F70042E01C0880F0A94EAF72E2D3A
:103870002071E4FE07C02FE030E001C0220F4A951E
:10388000EAF720953F2D369536953370323069F042
:1038900050F440911D02313029F0822B84230E9484
:1038A0004A1144CF842B822BFACF282B80911D0202
:1038B0008227F5CF8695DD2011F08F2D817088232A
:1038C00009F434CF4E2D429546954770440F440F6E
:1038D0008E2D8F70042E01C0880F0A94EAF72E2DCA
:1038E0002071E4FE07C02FE030E001C0220F4A95AE
:1038F000EAF720953F2D369536953370323069F0D2
:1039000050F44091CC02313029F0822B84230E9464
:10391000E8100CCF842B822BFACF282B8091CC027D
:103920008227F5CF7F2D7F70F72EDD2029F0872F9E
:103930000E943E118E2D2BCF8E2D0E944F118F2D68
:103940000E94F910F3CE8E2D92EF8916B1F19815E1
:1039500070F0E0EF8E16D1F0F1EF8F1691F0DD20D0
:1039600009F45DC0B11092CE8F2D8F712AC023EF64
:10397000821651F134EF8312F2CF8091970282FDCB
:103980002FC08F2D8F71DD20D9F21BC0DD2081F07B
:1039900064E06B1508F4CACE2F2D2F7181E090E002
:1039A00001C0880F2A95EAF79091CC028927AFCF02
:1039B00075E07B1508F4BACEEFCF8F2D8F71D11043
:1039C000BFCF0E943E11B2CE80E0DD2009F49FCF30
:1039D0009F2D9F7181E001C0880F9A95EAF797CFDC
:1039E000DD2091F08F2D8F71F82E0E943E11809175
:1039F000970282FF07C08F2D880F880F880F836082
:103A00008093F9018F2DDDCF81E00E94061191E0B6
:103A10009B1508F08BCE82E00E94061187CEBB205A
:103A200059F0893309F0E8CEEFEFF7EE23E0E150EB
:103A3000F0402040E1F7DECE8F2D8F7181CFF0E195
:103A4000EF16FFE5FF0609F462CB21E1E2162FE550
:103A5000F20609F466CBF701EB5BFC45E730F105B4
:103A600008F034C1EF59F44D0C94292A30E1E316E3
:103A70003FE5F30609F44FCB61E1E6166FE5F60684
:103A800009F451CB83EFE8168CE5F80609F4C4CBB2
:103A900008F0C8C0E8EDEE16ECE5FE0609F4B8CB78
:103AA000F9EDEF16FCE5FF0609F4C2CB27EDE216AF
:103AB0002CE5F20609F0C4C026E241EE61EEC80131
:103AC0000E94F1165BCA85E0DE01119601900D920D
:103AD0008A95E1F7F801228189819A8121110ACA28
:103AE0000E94EA09F82E0ECA24ECE2162CE5F20632
:103AF00009F416CD40ED5FE06AED7FE035ECE316AA
:103B00003CE5F30609F409CD56CD69ECE6166CE503
:103B1000F60609F414CD88F497ECE9169CE5F9064D
:103B200009F408CD43EC5FE066EB7FE0E8ECEE16CD
:103B3000ECE5FE0609F4F1CC3ECDFAECEF16FCE51F
:103B4000FF0609F401CD44EE5FE066EF7FE02BEC69
:103B5000E2162CE5F20609F4E0CC2DCD31EDE316AA
:103B60003CE5F30609F405CDB8F47EECE7167CE5F8
:103B7000F70609F4F6CC08F4F1CC9FECE9169CE5C5
:103B8000F90609F4F3CC6EE089E0E0EDEE16ECE521
:103B9000FE0609F4E8CC0FCDF4EDEF16FCE5FF06C8
:103BA00009F4EDCC78F432EDE3163CE5F30609F4C4
:103BB000E3CC63EDE6166CE5F60609F0FCCC61E0BB
:103BC00088E1A4CC75EDE7167CE5F70609F4DACCBC
:103BD0008DE5E816F80609F4D1C9EDCC9AE5E916A9
:103BE0009DE5F90609F42FCD78F4E114FCE5FF0614
:103BF00009F4CBCC2EEDE2162CE5F20609F0DBCC75
:103C00000E94B9110E944E173CE5E3163DE5F3060C
:103C100009F4C8CC08F419CD77EAE7167DE5F70674
:103C200089F3C9CC35EFE3163CE5F30609F4FCCA89
:103C300008F4F6CA76EFE7167CE5F70609F4C0C08B
:103C4000F6E1EF16FCE5FF0609F451CC80911B026A
:103C500082722CECE2162CE5F20609F47ACC08F01C
:103C60007DCF66ECE6166CE5F60609F45ECC08F04E
:103C70004CCF93ECE9169CE5F90609F44ACC08F020
:103C800033CFF2ECEF16FCE5FF0609F094CC8091FF
:103C9000800280FF36CC8E7F80938002609180020C
:103CA0007091810280918202909183020E94100F94
:103CB00010924C022FEF30E762E02150304060401C
:103CC000E1F700C000000E941E0B58C983EFE81600
:103CD0008CE5F80609F4A0CA08F064C0E8EDEE1619
:103CE000ECE5FE0609F494CAF9EDEF16FCE5FF06D3
:103CF00009F49ECA27EDE2162CE5F20609F4DCCEA3
:103D00001092CB0263E0E6166DE5F60608F093CA62
:103D10007AEFE7167CE5F70630F4C70182509C4540
:103D2000449708F095CA0E94EC0E909397028093F6
:103D30009602F2E1EF16FCE5FF0609F4ACCB08F0C1
:103D4000EACA39E0E3163CE5F30609F47ECB08F055
:103D5000AFCA75E0E7167CE5F70609F46ACB08F010
:103D600093CA93E0E9169CE5F90609F45ACB08F0EA
:103D70005CCB809196028160F2E0EF16FCE5FF06D5
:103D800009F4C6CA60919602F090970284E090E030
:103D90000E949B2A6F2D82E290E00E949B2A0E9443
:103DA0002412ECC835EFE3163CE5F30609F43CCAEF
:103DB00008F436CA76EFE7167CE5F70609F0A0CFDF
:103DC00027E245EE66EE7BCE1F93CF93DF93809183
:103DD000C601807F09F04EC08091C301882309F499
:103DE00049C02091F8011091C7014091C101A091F3
:103DF000C201C091C401D091C501B42FBA231217DA
:103E0000C9F130E0209711F0BF3F21F42F5F3F4F01
:103E10002770F5CFC90166E070E00E94F029FC012F
:103E2000E853FE4F81818A13F1CF80818413EECF56
:103E300082818111EBCF838194818C1B9D0B883C07
:103E4000910520F78091C6018F7080618093C60133
:103E5000C90166E070E00E94F029FC01E353FE4FC7
:103E600090819F709061908381EC91E00E94641733
:103E70000E94E009DF91CF911F910895A1E1B0E088
:103E8000E4E4FFE10C943E2A8C0185E0F801DE01B8
:103E90001D9601900D928A95E1F7D8011296EC904B
:103EA000129781ECA82E81E0B82E6091C401709128
:103EB000C5016115710509F42CC19091C1012091D2
:103EC000C201892F82238F3F09F423C14C9111969F
:103ED000EC9111971396CD90DC90F090C301D60130
:103EE000A61BB70BFF2009F4DFC08091C601382F55
:103EF000307FA83CB10508F0A2C031116EC0FE2C85
:103F00002E1314C0941312C0E11010C08F70806182
:103F10008093C601C5010E9464178091C601F80113
:103F200085838F2D6196EAE00C945A2AC114D1043E
:103F300029F0842F8E238F3F09F006C180E0F82FEF
:103F4000F170DF2E2091F801F091C70180FD21C0B2
:103F5000EE2039F38091C60181608093C601F12C77
:103F6000E0CF30E0C90166E070E00E94F029DC019A
:103F7000A853BE4F11968C911197E81307C08C91EE
:103F8000481304C012968C91E812E2CF2F5F3F4F86
:103F900027702F13E6CF4D87EE878D859E850E9473
:103FA000A60E292F22952F70223058F0243080F44D
:103FB0009F7059F0D80115969C91907F31F4D12CC7
:103FC0000AC09F7011F08823D1F3805E8830B8F367
:103FD000C8010E946417FD2CA4CF2E1306C09413B1
:103FE00004C0F801EE2009F479C0C8010E94B30EA4
:103FF000882309F1EE20F9F08091C601803270F03B
:104000002091C1013091C20138872F831986DB8648
:10401000CA868C87CE0107960E94641786E0F80155
:10402000A1ECB1E001900D928A95E1F70E94E41EA7
:10403000FF24F39476CFC8010E946417F9CF3111A1
:104040000AC081EC91E00E94641786E0D5011D92C0
:104050008A95E9F784CF2E130FC094130DC0E11099
:104060000BC0F8018583C8010E94641786E0D50162
:104070001D928A95E9F755CFC8010E94B30E882397
:10408000D1F2EE20C1F28091C601803238F2209147
:10409000C1013091C2013A8329831B82DD82CC8227
:1040A0008E83CE010196B8CFA83CB105F8F6FE2C60
:1040B000EE2009F22E131FC094131DC08091C6017B
:1040C00080FD10C0982F907F69F0F8018583903FA4
:1040D00031F0982F907F905F8F70892B8583C80176
:1040E0000E94641786E0F801A1ECB1E001900D9206
:1040F0008A95E1F716CFC8010E94B30E81118ECFC9
:104100008091C60181608093C601C8010E94641736
:1041100008CFEE2009F48FCFC8010E94B30EF82E0D
:10412000882309F488CF86E0F801A1ECB1E0019082
:104130000D928A95E1F78091C1019091C2010E9490
:10414000A60E0E94E41EEDCE81E08E25F8CEA7E1FA
:10415000B0E0EDEAF0E20C94462A4B8B5C8B6D8B61
:104160007E8B8F8B611110921A021A8A198A85E050
:10417000FE017396DE011D9601900D928A95E1F77E
:1041800086E0FE013D96DE01179601900D928A951C
:10419000E1F7CE0107960E943E1F811112C086E012
:1041A000FE013796DE01119601900D928A95E1F796
:1041B0008A859B85892B29F08F81988589238F3F5C
:1041C00089F58091F8019091C701891317C067960E
:1041D000E2E00C94622A66E070E00E94F029DC01C3
:1041E000A853BE4F96E0FE01319601900D929A952C
:1041F000E1F72093C7010E94E009E3CF90E066E079
:1042000070E00E94F02988539E4F0E943E1F882331
:10421000F1F28091F80190E00196877099278093E0
:10422000F801CFCF8091C70190E09C012F5F3F4FF5
:10423000277033274091F8014217130661F60E9458
:1042400024121092C7011092F80186E0E1ECF1E02F
:10425000DF011D928A95E9F7B4CFA6E0B0E0E3E371
:10426000F1E20C943D2A8E010F5F1F4F86E0F801AA
:1042700011928A95E9F783E5C82E81E0D82EF12CBA
:10428000E12CAA24A394B12CF60181916F018F3FF8
:1042900009F443C0F894E82FE295EF70F0E021A113
:1042A0008F70A50102C0440F551F8A95E2F7CA011D
:1042B000922F982B91A392A18095892382A3789421
:1042C00000C0E9E5F1E0912C31E021912F3F09F4A4
:1042D00065C0A22FA295AF70B0E090968C9190E04F
:1042E0002F7002C0959587952A95E2F780FD56C0FC
:1042F000832F982A330F51E0ED35F50731F7F6019A
:10430000319780818F3F11F00E94810780EA8A9562
:10431000F1F7F801EE0DFF1D9082EFEFEE1AFE0AA5
:10432000F6E0EF16F10409F0AFCF46E050E0B80137
:1043300082E292E00E947A2A892B91F186E0F801CC
:10434000A2E2B2E001900D928A95E1F781E08093BC
:1043500020020E946D0490931F0280931E028091A0
:104360001E0290911F020E945E040597E8F046E04D
:1043700050E062E272E082E392E00E947A2A892BA6
:10438000C1F086E0E2E2F2E0A2E3B2E001900D9239
:104390008A95E1F781E01092200207C080E0A9CF62
:1043A000809120028111DBCF80E02696EBE00C9417
:1043B000592A80E0F0CF90E080E00E94952A883E64
:1043C0009E4F19F40E94D30E089580E008950E9434
:1043D000DB2181110AC00E94B9118091850284708D
:1043E0008962809385020E94040E86E090E00E941C
:1043F000872A80938502803320F0877088628093BB
:10440000850290918502892F817090FF04C0892FC9
:104410008695869586950E942A0508951F920F928B
:104420000FB60F9211242F933F934F935F936F9387
:104430007F938F939F93AF93BF93CF93DF93EF932C
:10444000FF93D091E900DF708091EC00C82FC1701C
:1044500080FDC0E81092E9008091F000877F809392
:10446000F00078940E943A121092E9008091F000D6
:1044700088608093F000CD2BCF70C093E900FF914E
:10448000EF91DF91CF91BF91AF919F918F917F91EC
:104490006F915F914F913F912F910F900FBE0F90B1
:1044A0001F9018951F920F920FB60F9211242F9301
:1044B0003F934F935F936F937F938F939F93AF93AC
:1044C000BF93EF93FF938091E10082FF09C0809139
:1044D000E20082FF05C08091E1008B7F8093E100C4
:1044E0008091E10080FF17C08091E20080FF13C03F
:1044F0008091E2008E7F8093E2008091E2008061F3
:104500008093E2008091D80080628093D80019BC2B
:1045100085E08093BF028091E10084FF2BC08091F1
:10452000E20084FF27C084E089BD86E089BD89B5AB
:10453000982F917080FFFBCF8091D8008F7D809362
:10454000D8008091E1008F7E8093E1008091E200AD
:104550008F7E8093E2008091E20081608093E20090
:104560008091C002882309F441C084E08093BF0297
:104570008091BF028091E10083FF27C08091E2001B
:1045800083FF23C08091E100877F8093E10082E078
:104590008093BF021092C0028091E1008E7F8093D1
:1045A000E1008091E2008E7F8093E2008091E20042
:1045B00080618093E20042E060E080E00E94CC03F2
:1045C0008091F00088608093F000FF91EF91BF919F
:1045D000AF919F918F917F916F915F914F913F919B
:1045E0002F910F900FBE0F901F9018958091E300B0
:1045F00087FD93E09093BF02BBCF78941F921FB6C4
:104600001F9211248F939F93AF93BF938091920237
:1046100090919302A0919402B09195020196A11DF0
:10462000B11D8093920290939302A0939402B09351
:104630009502BF91AF919F918F911F901FBE1F90C8
:1046400018951F921FB61F9211248F939F93AF93BB
:10465000BF9380919102811113C080919202909139
:104660009302A0919402B09195024196A11DB11DB3
:104670008093920290939302A0939402B093950238
:10468000BF91AF919F918F911F901FBE1F90189562
:104690001F920F920FB60F9211242F933F934F93B7
:1046A0005F936F937F938F939F93AF93BF93EF939A
:1046B000FF93809120018230A1F08F5F80932001D1
:1046C000FF91EF91BF91AF919F918F917F916F91EA
:1046D0005F914F913F912F910F900FBE0F901F90C0
:1046E000189581E080932001809187029091880243
:1046F000019660ED72E00E94012A909388028093F7
:10470000870265E070E00E94012A67FD6FE78091F3
:104710008602823041F4603451F480916F008E7FC4
:1047200080936F0004C0813011F46F37B1F3E62F2E
:10473000F0E0ED5AFB4F64912091860030918700A4
:1047400070E090E080E050E040E00E94CF2A2FEF40
:1047500030E040E050E00E94E82AC90165E070E0E6
:104760000E94012ACB012091850226952695269547
:10477000622F70E00E94F0290E94B20490938D0095
:1047800080938C009DCFCDB7DEB7AA970FB6F89473
:10479000DEBF0FBECDBF84B7877F84BF0FB6F8944E
:1047A000A8958091600088618093600010926000FD
:1047B0000FBE80E890E00FB6F8948093610090936C
:1047C00061000FBE8FE797E0909393018093920171
:1047D0001092E2001092E1008091E00081608093ED
:1047E000E0008091D8008F778093D80019BC809129
:1047F00063008160809363001092210280916300C6
:104800008E7F8093630081E0809321021092E2000A
:104810001092E1008091D8008F778093D80080912A
:10482000D80080688093D8008091D8008F7D8093D5
:10483000D80084E089BD86E089BD89B5282F217024
:10484000D22E80FFFACF1092BF021092C0021092B7
:10485000BE021092BD0242E060E080E00E94CC0304
:104860008091E1008E7F8093E1008091E200816081
:104870008093E2008091E20088608093E200809162
:10488000E0008E7F8093E0008091E200846080935E
:10489000E20078948091BF028823A1F01091E90092
:1048A0001F709091EC00892F817090FD80E8182B8B
:1048B0001092E9008091E80083FD0E943A121F7077
:1048C0001093E90082E084BD93E095BD9AEF97BD17
:1048D00080936E000E94D30E811102C00E94F40DDD
:1048E00003E511E089E5E82E81E0F82ED8018D91ED
:1048F0008D018F3F11F00E948107E016F106B1F79C
:1049000084E60E94810785E60E94810783E30E9476
:10491000810782E30E94810786E0E2E3F2E0DF01A3
:10492000282F1D922A95E9F7E2E2F2E0DF011D92BD
:104930008A95E9F70E94DB21811102C00E94B9111A
:1049400082E090E00E94872A80938A020E94EC0E07
:1049500090939702809396020E942D21EFE3FCE949
:104960003197F1F700C000000E942D2180913202A2
:1049700080FF08C06FEF7FEF90E080E00E94B92ACF
:104980000E94FA0A83E090E00E94872A0E944A115E
:10499000249A2C9A279A2F988AE08093800089E1A4
:1049A000809381008FEF9FEF909387008093860024
:1049B0000E94E7218091850281FF0BC0109288023E
:1049C000109287021092860280916F00816080931E
:1049D0006F000E94E72180912802811133C00E945C
:1049E000DB21811104C00E94B9110E94681088E087
:1049F00090E00E948F2A60938002709381028093DE
:104A00008202909383026E7F71F40E94681088E0A6
:104A100090E00E948F2A60938002709381028093BD
:104A20008202909383020E94730510924C0280913F
:104A3000800280FF04C060E086950E94081081E03B
:104A40008093280280E091E090938E0280938D0203
:104A5000A8E1EA2EF12C82E392E0B6E0CB2EC80E5C
:104A60008091BF02853021F5F0E4BF2EAA24A394E3
:104A700004E016E08091BF02853009F46EC10E9407
:104A800024120E94E7210E94A5040E945F0A10924E
:104A90002A0280912902882349F080918002816056
:104AA0008093800260E086950E9408100E94FA0EB2
:104AB0000E942D21882359F08FB7F89440919202DB
:104AC0005091930260919402709195028FBFA2E37E
:104AD000B2E0EBE2F2E010E000E0302F8D91919136
:104AE000981709F496C1292F282790E0BD2C422F52
:104AF0004B2109F489C199A33AA38B2191E009F4D0
:104B000090E09BA30E946D048160782F9DA38CA3ED
:104B100049A15AA16BA18DA10E94A720F801E55DD2
:104B2000FD4F8081B826B08280914C028823D1F15C
:104B300080914B02E0918002E695E81BE0934702EA
:104B4000823009F07DC1F0E0E65BFD4FE4910E2F6D
:104B500010E0E4E5AE2EEDE0BE2E80914802882301
:104B600061F0109248020E946D0490934602809377
:104B7000450210924A02109249020E946D04E0918F
:104B80004502F09146028E1B9F0B8F3F9F4750F4CA
:104B9000E00FF11FF0934602E093450285E492E0B6
:104BA000F501099586E0EFE3F2E0DE011196019050
:104BB0000D928A95E1F710924102109242021092F2
:104BC0004302109244028B819C81892B91F0809149
:104BD0003D0290913E020E945E04FC012091390248
:104BE000222309F487C180910D018E171F0608F456
:104BF00090C18D819E81892B09F44FC080913B0229
:104C000090913C020E945E049C019091380299238D
:104C100009F4D8C32135310508F43FC09F3F19F08E
:104C20009F5F909338021D81112351F00E94A506C9
:104C30006FEF11160CF46D2D0E94E729809343024B
:104C40001E81112351F00E94A5066FEF11160CF47E
:104C50006D2D0E94E72980934402809143028823AE
:104C6000E1F0209144022223C1F0082E000C990BA0
:104C700065EB70E00E94F029992309F48FC19093AD
:104C80004302822F220F990B65EB70E00E94F029FE
:104C9000992309F487C19093440246E050E0BE0195
:104CA0006F5F7F4F8FE392E00E947A2A892B61F435
:104CB0008091410290914202892B90914302892B6D
:104CC00090914402892B11F00E94050686E0FE01B6
:104CD0003196AFE3B2E001900D928A95E1F70E9420
:104CE000A50490913102891779F0809331029FB722
:104CF000F8944091920250919302609194027091C5
:104D000095029FBF0E945F0A8091BF02843009F024
:104D1000A7CE83E08093E9008091E80082FFA0CED7
:104D20008091E80090E085FF06C00E94520388232E
:104D300009F43CC191E08091E8008B778093E80012
:104D4000992309F48DCEE981E150E33108F0B0C137
:104D5000F0E0E859F44D0C94292A8091BF02843088
:104D600009F443C080E00E942A0580E00E945F0AA7
:104D700010924C0280912A02811116C0A0922A0240
:104D800080918002982F9170909329028E7F80935A
:104D90008002FFEF20E782E0F15020408040E1F701
:104DA00000C000000E941E0B109291020FB6F894F2
:104DB000A895E09260000FBEB092600083B7817F3B
:104DC000846083BF83B7816083BF7894889583B7FD
:104DD0008E7F83BF0FB6F894A8958091600088619C
:104DE00080936000109260000FBE8091BE02882305
:104DF00009F440CE0E942D21E2E3F2E0819181117D
:104E0000C2C2CE12FBCF36CE9F5FBB0C943009F0EE
:104E10006ECE0F5F1F4F0630110509F05ECE8FEF8B
:104E20008EA38FA318A60E946D048160782F9AA785
:104E300089A74EA15FA168A58AA50E94A72074CE6C
:104E4000863059F4F0E0E95BFD4FE4910E2F10E05D
:104E500074E4A72E7DE0B72E80CE893061F4E6950C
:104E6000F0E0EC5BFD4FE4910E2F10E068EBA62E16
:104E70006CE0B62E72CE8F3061F4E695F0E0EF5B19
:104E8000FD4FE4910E2F10E05AE5A52E5CE0B52E03
:104E900064CE853159F4F0E0E25CFD4FE4910E2FD1
:104EA00010E04CE0A42E4CE0B42E57CE08E210E007
:104EB0009AE8A92E9BE0B92E883109F44ECE8332B0
:104EC00049F4ECE3F2E00591149133EFA32E3CE0BA
:104ED000B32E43CE04EF11E023E5A22E2BE0B22E39
:104EE000843209F43ACE00ED17E082E7A82E85E07F
:104EF000B82E33CE80910C0190E06AE070E00E9401
:104F0000F0298E179F0708F074CE2F5F2093390287
:104F100002C02F3FD1F71B81112351F00E94E00600
:104F20006FEF11160CF46D2D0E94E729809341025A
:104F30001C81112351F00E94E0066FEF11160CF452
:104F40006D2D0E94E72980934202809141028823BF
:104F500009F44FCE20914202222309F44ACE082EB2
:104F6000000C990B65EB70E00E94F029992371F019
:104F700090934102822F220F990B65EB70E00E9403
:104F8000F029992339F09093420233CE81E0809347
:104F90004102F0CF81E0809342022BCE81E08093EA
:104FA00043026FCE81E08093440277CE00E210E0AE
:104FB000CE0101965C018091E80085FD0AC08091D8
:104FC000E8008B778093E8000E945203882399F3CE
:104FD000B1CE8091F100D5018D935D010150110991
:104FE00051F7A8CE1A828AE08B832DC08A81823045
:104FF00009F4DFC18330A9F0813009F059C02FB71F
:10500000F894609192027091930280919402909131
:1050100095022FBF0E942F2A6B837C838D839E83F2
:1050200012C0809132028B83809133028C838091F5
:1050300034028D83809135028E83809136028F8376
:105040008091370288878091BF02843009F008CDB3
:105050001091E9001F709091EC00892F817090FDF4
:1050600080E8182B82E08093E9008091E80080FFBF
:105070000DC050E040E060E270E0CE0101960E9479
:1050800083038091E8008E778093E8001F7010936F
:10509000E900E6CC8A81823059F46B817C818D8174
:1050A0009E810E942F2A86E290E00E949B2ACBCF0D
:1050B0008FEF8983C8CF4C816B818A810E94350E26
:1050C0009827892798279E838D83BDCF2D813E8188
:1050D0003227232732274C816B818A810E94780DE9
:1050E000B2CF0E94A30DAFCF8A818930E1F08A3020
:1050F00041F18A818138C9F168F5803809F0A3CF80
:105100008B8190E06FEF70E00E94F0296FEF70E00C
:105110000E94012A462F20E0609182028091810244
:105120000E94230F90CF8B8190E065E070E00E9499
:10513000F0296FEF70E00E94012A862F0E9455052A
:10514000D8CF8B81811103C00E940A0ED2CF0E945A
:10515000200ECFCF823859F1833809F074CF20E088
:10516000409183026C818B81DBCF60E08B810E9458
:1051700008109B8180918002911111C08E7F8093D5
:10518000800210924C02BFEFE0E7F2E0B150E04045
:10519000F040E1F700C000000E941E0B54CF816078
:1051A0008093800260E086950E9408104CCF8B812E
:1051B0008093840248CF8A81893091F08A3001F14E
:1051C000813879F110F5803809F03DCF8091830264
:1051D00090E06FEF70E00E94F0296FEF70E00CC07C
:1051E0008091850286958695869590E06FEF70E0B8
:1051F0000E94F02965E070E00E94012A6B8323CFB2
:105200008091850286958170EFCE823891F0833847
:1052100009F019CF809181028B83809182028C8367
:1052200012CF8091800280FF02C08695DDCE80E0A3
:10523000DBCE80918402D8CE809185020E94040E3C
:10524000609180027091810280918202909183022C
:105250000E94100FF8CE80E18A83F5CE83E08A8326
:1052600089E1C2CE0A811B81102701271027CE01B8
:1052700001965C018C80DC01A80DB11D4D01C801B7
:1052800089519F4F8A149B0409F4DDCE0931B3E0A4
:105290001B0750F40E94872AF50184830F5F1F4F7C
:1052A000BFEFAB1ABB0AEBCFD50114961C92F6CF19
:1052B0000A811B81102701271027FE0131964F011B
:1052C000AC80A00EB12EB11CC80189519F4FA01611
:1052D000B10609F4B8CE0931F3E01F0728F4D40170
:1052E00014966C910E949B2ABFEF8B1A9B0A0F5F4A
:1052F0001F4FEACF0E94680DA6CE84E0ADCF0A8191
:105300001B81102701271027FE0131965F018C8039
:10531000CF01880D911D4C01C80187968A149B040A
:1053200009F491CE003C110558F40E94872AD5015A
:1053300014968C930F5F1F4FFFEFAF1ABF0AECCF8D
:10534000F5011482F7CF0A811B811027012710274E
:10535000CE0101964C01AC80A00EB12EB11CC8014B
:105360008796A016B10609F46ECE003C110528F40C
:10537000D40114966C910E949B2ABFEF8B1A9B0A52
:105380000F5F1F4FECCF09BD19BD09B400FEFDCF63
:105390008091D8008F7D8093D8008091E00082605A
:1053A0008093E0008091E00081FDFCCF0E942412F8
:1053B00061CB86E290E00E94872A1B821C821D82BC
:1053C0008E8341CE2B30310508F02ACC66CC0024E8
:1053D00080FD060E660F11F08695D1F7802D089599
:1053E0000024552704C0080E591F880F991F0097E5
:1053F00029F076956795B8F37105B9F7802D952F4B
:105400000895AA1BBB1B51E107C0AA1FBB1FA6170B
:10541000B70710F0A61BB70B881F991F5A95A9F75D
:1054200080959095BC01CD01089597FB072E16F449
:10543000009407D077FD09D00E94012A07FC05D00F
:105440003EF4909581959F4F0895709561957F4F9B
:105450000895EE0FFF1F0590F491E02D0994692740
:105460009627692778278727782708952F923F92D4
:105470004F925F926F927F928F929F92AF92BF9264
:10548000CF92DF92EF92FF920F931F93CF93DF9310
:10549000CDB7DEB7CA1BDB0B0FB6F894DEBF0FBE6D
:1054A000CDBF09942A88398848885F846E847D84BA
:1054B0008C849B84AA84B984C884DF80EE80FD80BC
:1054C0000C811B81AA81B981CE0FD11D0FB6F89432
:1054D000DEBF0FBECDBFED010895FC01415050402D
:1054E00030F001900616D1F73197CF010895882743
:1054F00099270895FB01DC0104C08D91019080196A
:1055000021F441505040C8F7881B990B0895F99930
:10551000FECF92BD81BDF89A992780B50895A6E186
:10552000B0E044E050E00C94C12AA8E1B0E042E0D1
:1055300050E00C94C12A262FF999FECF92BD81BD6F
:10554000F89A019700B4021639F01FBA20BD0FB6C1
:10555000F894FA9AF99A0FBE08950396272F0E949D
:105560009C2A0E949B2A252F0E949C2A242F0C945F
:105570009C2A0196272F0E949C2A0C949B2ADC01CE
:10558000CB01FC01F999FECF06C0F2BDE1BDF89A4E
:10559000319600B40D9241505040B8F70895EE276F
:1055A000FF27AA27BB2708C0A20FB31FE41FF51FC0
:1055B000220F331F441F551F969587957795679542
:1055C00098F37040A9F7009799F7BD01CF010895AE
:1055D000A1E21A2EAA1BBB1BFD010DC0AA1FBB1FF7
:1055E000EE1FFF1FA217B307E407F50720F0A21B69
:1055F000B30BE40BF50B661F771F881F991F1A94D6
:1056000069F760957095809590959B01AC01BD01FF
:10561000CF010895F894FFCF19134113E3144113F8
:10562000E31474139513E31492149F140C150315CB
:1056300019150115661566150115661566153515DA
:10564000661540154B156615661566156615011528
:105650006615661501156615271566156615641518
:105660006415641564156415641564156415641572
:10567000561566150C15FF14661566156615661524
:105680006615661566156615661566155615661552
:105690006615011566155C155C155C155C155C15C9
:1056A0005C155C155C155C1556152C1B2C1B671BBB
:1056B000671B001C1A1C961B961B251C921CA31C06
:1056C000A31C95189D189F18BB18CF18E718FE1833
:1056D000F227F6274A285B28662871287428DB28D9
:1056E0001C29582858282B292E29322958297A294B
:0656F0007D297F29A3299A
:1056F6005B04BA0A990A940A8F0A5A0401141E0A0C
:10570600280801191A1B1C1D1E1F20212201020137
:105716000101818283E200E900EA00B500B600B724
:1057260000CD008301CC008A01920194012102235D
:105736000224022502260227022A02B300B4006FC1
:1057460000700093919266673664653332000102F9
:105756000202020606060909090909090F0F0F0FB9
:105766000F0F1515151819191919191919191919C4
:1057760023244022B64C012A017400A505BE05DE8D
:0257860005001C
:00000001FF
