:100000000C941A030C9461030C9461030C94610327
:100010000C9461030C9461030C9461030C946103D0
:100020000C9461030C9461030C9461030C940F23F2
:100030000C94CB220C943C2A0C9461030C94610325
:100040000C9461030C9461030C94632A0C94182A99
:100050000C9461030C9461030C9461030C94610390
:100060000C9461030C9461030C9461030C94610380
:100070000C94610305010902A10185020901A10097
:100080000509190129081500250195087501810246
:100090000501093009311581257F95027508810612
:1000A00009381581257F950175088106050C0A38E8
:1000B000021581257F950175088106C0C0050109DB
:1000C00080A101850319012AB700150126B7009503
:1000D0000175108100C0050C0901A10185041901F9
:1000E0002AA002150126A002950175108100C00505
:1000F000010906A1018505050719E029E715002575
:10010000019508750181020507190029EF150025E1
:100110000195F075018102050819012905950575FC
:10012000019102950175039101C00660FF0961A16B
:10013000010962150026FF009520750881020963F8
:10014000150026FF00952075089102C005010906DB
:10015000A101050719E029E715002501950875019A
:1001600081029501750881010507190029FF150015
:1001700026FF0095067508810005081901290595D7
:100180000575019102950175039101C000010101FE
:100190000101010101010202020202020202020344
:1001A0000303030303030304040404040404050514
:1001B00005050506060606060707070707080808D7
:1001C00008090909090A0A0A0B0B0B0C0C0C0D0D86
:1001D0000D0E0E0E0F0F0F1010111111121213131E
:1001E0001414151516161717181819191A1A1B1B97
:1001F0001C1D1D1E1E1F20202122222324242526F3
:1002000026272829292A2B2C2D2D2E2F303132322A
:10021000333435363738393A3B3C3D3E3F40414236
:10022000434445464748494A4C4D4E4F505153541C
:10023000555658595A5B5D5E5F61626465666869D0
:100240006B6C6D6F7072737577787A7B7D7E808250
:10025000838587888A8C8E8F91939596989A9C9E99
:10026000A0A2A3A5A7A9ABADAFB1B3B5B7BABCBEA9
:10027000C0C2C4C6C9CBCDCFD1D4D6D8DBDDDFE276
:10028000E4E7E9EBEEF0F3F5F8FAFDFFFFAA7F559E
:10029000402223252628292A2C2D2F30323335368B
:1002A000383A3B3D3E4042434547494A4C4E505107
:1002B000535557595A5C5E6062646668696B6D6F2E
:1002C00071737577797B7D7F81838587898A8C8E31
:1002D00090929496989A9C9E9FA1A3A5A7A8AAAC39
:1002E000AEAFB1B3B4B6B8B9BBBCBEBFC1C2C3C573
:1002F000C6C7C9CACBCCCDCED0D1D2D2D3D4D5D615
:10030000D7D7D8D9D9DADADBDBDBDCDCDCDCDCDD47
:10031000DDDDDDDCDCDCDCDCDBDBDBDADAD9D9D82B
:10032000D7D7D6D5D4D3D2D2D1D0CECDCCCBCAC9C3
:10033000C7C6C5C3C2C1BFBEBCBBB9B8B6B4B3B1F2
:10034000AFAEACAAA8A7A5A3A19F9E9C9A9896948D
:1003500092908E8C8A89878583817F7D7B79777562
:1003600073716F6D6B6968666462605E5C5A595741
:10037000555351504E4C4A4947454342403E3D3B00
:100380003A3836353332302F2D2C2A29282625238A
:100390002200000000000000000000000101020334
:1003A000040506080A0C0F1114181C2024292E33EA
:1003B000393F464C535B626A7179818A929AA2AA4C
:1003C000B2B9C1C8CFD5DCE1E7EBF0F4F7FAFCFD38
:1003D000FEFFFEFDFCFAF7F4F0EBE7E1DCD5CFC859
:1003E000C1B9B2AAA29A928A8179716A625B534CAE
:1003F000463F39332E2924201C1814110F0C0A08EB
:1004000006050403020101000000000000000000D6
:10041000002900B20001542A005300540055005630
:10042000005F006000610057005C005D005E0057E7
:100430000059005A005B00580062006200630058D7
:10044000000100025303531050430044004500468E
:10045000004000410042002B003D003E003F002BC9
:10046000003A003B003C0058007C007C007D0058B6
:1004700000005C0153035310500100010001000112
:1004800000FA00F000F9000100F200F400F30001AE
:1004900000FB00F100FC000100010001000100016F
:1004A0000001000100010001000100010001000144
:1004B0000001000100010001000100010001000134
:1004C0000001000100010001000100010001000124
:1004D000000000000000000000000000000000001C
:1004E000000000000000000000000000000000000C
:1004F00000000000007E0F00D4FFFFFFC7000000D7
:100500007800000000000000002A2B2800000000F6
:1005100000000000000000000000000029000000B2
:10052000002C1E3420212224342627252E362D3758
:1005300038271E1F202122232425263333362E3729
:10054000381F0405060708090A0B0C0D0E0F1011C1
:1005500012131415161718191A1B1C1D2F313023CE
:100560002D350405060708090A0B0C0D0E0F101196
:1005700012131415161718191A1B1C1D2F3130359C
:100580004C1E0F0500047F3F1F6432146432147840
:100590003C1E1E140A0509025B00030100A0FA09B3
:1005A00004000001030101000921110100012240A2
:1005B000000705810308000A090401000203000086
:1005C00000092111010001222200070582032000F9
:1005D00001070503032000010904020001030000D4
:1005E0000009211101000122B60007058403200043
:1005F0000A120100020000000803A1060001000128
:1006000002000118034B0042004400500041004426
:10061000002D004D004B0049004900000010034B25
:100620000042004400660061006E00730000000498
:100630000309040011241FBECFEFD4E0DEBFCDBFFD
:1006400004B603FE27C080910C0390910D03A09186
:100650000E03B0910F038730904BA740B04BD1F4FD
:1006600010920C0310920D0310920E0310920F03C0
:1006700014BE84B7877F84BF0FB6F894A895809185
:100680006000886180936000109260000FBEE0E01F
:10069000F8E3099523E0A2EAB1E001C01D92AC3075
:1006A000B207E1F711E0A0E0B1E0E2E7F9E502C04E
:1006B00005900D92A23AB107D9F70E94B8230C9485
:1006C0003A2C0C9400002091E4003091E50095E66E
:1006D000A9012091EC00822F817020FF06C080913B
:1006E000E80080FF06C080E008952091E80022FD28
:1006F0001AC08091FE02882389F0853089F08091AC
:10070000EB0085FD0FC02091E4003091E500421719
:100710005307F9F29150E1F684E0089582E00895DC
:1007200083E0089581E00895EF92FF920F931F9365
:10073000CF937C018B010E946303C82F811117C0E6
:100740008091E80085FD0BC08091E8008E77809352
:10075000E8000E946303882399F3C82F08C0F701BB
:1007600081917F018093F1000150110949F78C2F8D
:10077000CF911F910F91FF90EF900895809100030A
:1007800087FF13C08091E80082FF06C08091E800D7
:100790008B778093E80004C08091FE028111F2CF34
:1007A00008958091FE028823D9F38091E80080FFAC
:1007B000F8CF8091E8008E77ECCF982F9093E900E6
:1007C000242F762F50E0891731F07091EC002091A2
:1007D000ED005091F00021FD07C09F5F953071F74B
:1007E0008093E90081E008953091EB003E7F3093E3
:1007F000EB003091ED003D7F3093ED003091EB0048
:1008000031603093EB007093EC002093ED00509337
:10081000F0002091EE0027FDE0CF80E00895FC017C
:10082000809106039091070386179707A0F0611542
:10083000710529F49091E8009E779093E80090E08C
:100840006115710551F4911108C08091E80082FF93
:1008500032C080E00895BC01F2CF8091FE0288236F
:10086000B1F18530B1F18091E80083FD2EC0809117
:10087000E80082FDEACF8091E80080FFE1CF20917F
:10088000F20030E06115710519F02830310558F09B
:1008900091E02830310509F090E02091E8002E77B2
:1008A0002093E800CDCF81918093F10061507109D0
:1008B0002F5F3F4FE7CF8091FE02882341F08530C4
:1008C00041F08091E80083FFC0CF81E0089582E08D
:1008D000089583E00895089580E008958091DB02F3
:1008E00008959C014FB7F8948091D6029091D70259
:1008F000A091D802B091D9024FBF821B930B0895EB
:100900002FB7F8948091D6029091D702A091D80287
:10091000B091D9022FBF0895809197028111109252
:10092000970208958091960290919502892B90915B
:100930009402892B8093A401909197029923A1F0AE
:10094000892B8093A40180912201882341F1809119
:100950009D0287FF24C08EE1E6EAF1E090E081503D
:1009600000F591110E948C04E091A902F091AA0275
:100970003097E1F080912201882359F080919D0207
:1009800087FF07C08091A4018093A50185E0809333
:10099000A4010280F381E02D84EA91E0099486E0CD
:1009A000DBCF21912223D9F29F5FD9CF0895909177
:1009B00022019923D1F090919D0297FF16C0E82F54
:1009C000E695E695E695EE31E0F4F0E0EC55FE4F65
:1009D000282F277081E090E001C0880F2A95EAF760
:1009E00080959281892382830895E6EAF1E09191CE
:1009F000891303C0DF0111971C9291E0EC3AF907CB
:100A0000B1F70895909122019923C1F090919D0230
:100A100097FF14C0E82FE695E695E695EE31F8F4D9
:100A2000F0E0EC55FE4F877021E030E001C0220F6E
:100A30008A95EAF78281822B82830895A6EAB1E043
:100A4000EFEF90E02D91821751F0EF3F19F4211153
:100A500001C0E92F9F5F9630A9F7EF3F09F4089591
:100A60000E2E000CFF0BEC55FE4FE6CF990F990FA1
:100A7000890FA82FA77086958695869590E063E0EC
:100A800070E00E94CE2AFC01E657FD4F50E040E0A6
:100A900080E0219130E00A2E02C0369527950A9415
:100AA000E2F721703327042E01C0220F0A94EAF7DF
:100AB000822B4F5F5F4F4330510559F70895CF9315
:100AC000DF93262F990F990F890F982F9770E1E0E8
:100AD00001C0EE0F9A95EAF786958695869590E087
:100AE00063E070E00E94CE2ADC01A657BD4F50E0C3
:100AF00040E0622F70E08D91ED0121979B01042E63
:100B000002C0369527950A94E2F72170219528278F
:100B10002E23282728834F5F5F4F4330510559F715
:100B2000DF91CF9108958091890290915802981396
:100B300001C008958F5F8770FACF882341F08095B8
:100B4000909196028923809396020C9492040895C2
:100B5000882339F090919602982B909396020C94EA
:100B60009204089520914C0230914D0228173907C4
:100B700071F090934D0280934C02E091A902F091A4
:100B8000AA02309721F00084F185E02D09940895A0
:100B900020914A0230914B022817390771F0909347
:100BA0004B0280934A02E091A902F091AA02309789
:100BB00021F00680F781E02D09940895E091A902C3
:100BC000F091AA02309721F00190F081E02D099474
:100BD00080E00895CF92DF92EF92FF928C3724E16C
:100BE000920750F469E070E00E94EB2ACB01FF907D
:100BF000EF90DF90CF900895B0E0A0E0BC01CD0170
:100C00006A50774D8F4F9F4F982F872F762F6627EB
:100C100025EF38E241E050E00E94182C69017A018A
:100C2000CA01B9010E94E02BA70196010E94E02BA6
:100C3000672F782F892F99276115710521E0820789
:100C40009105A1F66FEF7FEFD1CF863000F58111CE
:100C50001FC090918000977F909380002F98682FFD
:100C600070E090E080E02FEF3FEF40E050E00E9426
:100C7000E02B25E030E040E050E00E94182CC90154
:100C80000E94EA0590938D0080938C00089585E082
:100C900090918000986090938000E1CF282F220FE0
:100CA000220F220F9091C8029770922B9093C80246
:100CB000987F21E009F420E09091C80220FB90F990
:100CC0009093C8020C942506FA01811101C0FB0122
:100CD00009948091CB02982F9E7F29F481708260C5
:100CE0008093CB0208958635E8F381708465F8CF50
:100CF000AF92BF92CF92DF92EF92FF920F931F932A
:100D0000CF93DF938901E42FF0E0E457FE4F6111A8
:100D100015C09491392FE92FD8011196EC931197B2
:100D20009C9312963C93DF91CF911F910F91FF906E
:100D3000EF90DF90CF90BF90AF900895C82FD0E094
:100D4000E62EF12CE4914E2FAE2EB12CCE0166E0B2
:100D500070E00E94CE2ACC24CA94D12CB6010E9405
:100D6000EB2ADB01CC0FDD1FCB0165E570E00E94B3
:100D7000CE2AC81BD90B8C2F880FC80FC6018E191D
:100D80009F09B5010E94CE2A392FD0E0CE01B701CC
:100D90000E94CE2A692F70E0C601861B970BB50111
:100DA0000E94CE2A292FC6018C1B9D0BB7010E94E1
:100DB000CE2A692F70E0C601861B970BB5010E94F1
:100DC000CE2A892FA230B10589F040F4109709F49A
:100DD000A3CF119779F0932F322F9ECFA430B10576
:100DE00061F078F0169709F497CFF5CF9E2FE32F97
:100DF000382F92CF9E2FE22F8FCF932F3E2FE82FA9
:100E00008BCFE32F342F922F87CF0E9480049C0139
:100E10009091BC028091BD02982B21F03093B902D1
:100E20002093B8029091BE028091BF02982B21F0CE
:100E30003093B6022093B502E091A902F091AA0284
:100E4000309749F082E08093BA020480F581E02D6A
:100E50008AEB92E00994089590E080E00E94C80532
:100E600090E080E00E94B2051092950210929402E8
:100E70000E94920486E0EAEBF2E0DF011D928A957F
:100E8000E9F71092B7021092B402109251020C943A
:100E9000050780930B030C942C0780910B03982F6C
:100EA0009670963019F488600C944907877FFCCFC0
:100EB00021E030E001C0220F8A95EAF72095809169
:100EC0000B0382230C944907909193028095892308
:100ED00080939302282F277039F4282F082E000CB6
:100EE000330B9217130621F490919E0292FF07C0D4
:100EF0008595859585950E945807109293020895CF
:100F000021E030E001C0220F8A95EAF780910B03BF
:100F1000822B0C944907809398020C942C074091E3
:100F2000BC02803F59F48091BD0287FF0DC0109232
:100F3000BD0241110BC01092B70208C0813F81F47D
:100F40008091BD0218169CF3442381F08091BE026B
:100F50009091BF02892B09F05AC01092B4020895F3
:100F6000823F49F447FFF0CF1092BC028091BD024E
:100F70008111ECCFE0CF833F19F41416ACF3E4CF2A
:100F80009091BE02893F29F41916F4F61092BE0220
:100F9000DBCF8A3F19F497FFD7CFF8CF9091BF02EC
:100FA0008B3F29F497FFD0CF1092BF02CDCF8C3F5B
:100FB00019F41916CCF3C8CF9CE0980F953090F433
:100FC000845F990B21E030E0B90102C0660F771F02
:100FD0008A95E2F7CB0180959091BB02892380939B
:100FE000BB02B2CF8D3F31F4809151028E7F80934E
:100FF0005102AACF8E3F21F4809151028D7FF7CF0D
:101000008F3F09F0A1CF809151028B7FF0CF0895DF
:10101000882309F459C0823871F40E94DE0581FFEB
:1010200053C089E30E9402050E94920489E30E9452
:10103000D7040C949204833859F40E94DE0580FF93
:1010400043C083E50E9402050E94920483E5EFCF2E
:10105000843859F40E94DE0582FF36C087E40E947E
:1010600002050E94920487E4E2CF9CEF980F913A28
:10107000F0F290E2980F983088F4877021E030E029
:10108000A90102C0440F551F8A95E2F7CA01809555
:1010900090919602892380939602CBCF9BE5980F7F
:1010A000933020F490E080E00C94C80598E5980F08
:1010B000973120F490E080E00C94B205803F20F05E
:1010C0000E948F070C94050708958091510280FFBC
:1010D0000CC06091130170E07595679575956795E3
:1010E0006115710559F1862F089581FF06C0609141
:1010F000130170E075956795F3CF6091130170E06F
:1011000082FD0CC06091B4026623A9F02091120107
:101110008091130190E0621730F0BC0160387105D6
:10112000F8F28FE7089570E00E94CE2A622F70E0F7
:101130000E94FF2AF3CF61E070E0D5CF81E00895EF
:101140008091510280FF11C08091150190E065E00F
:1011500070E00E94CE2A9595879595958795803861
:101160009105B0F50097B1F1089581FF0AC0809113
:10117000150190E065E070E00E94CE2A9595879574
:10118000EECF82FF08C08091150190E065E070E02D
:101190000E94CE2AE4CF8091B7028823B1F020913B
:1011A00014016091150170E0821710F0CB01EECFB1
:1011B00090E00E94CE2A65E070E00E94CE2A622F65
:1011C00070E00E94FF2ACB01CACF85E090E008952D
:1011D0008FE7089581E00895803F31F40E94A008D0
:1011E00081958093BD020895813F19F40E94A00863
:1011F000F8CF823F31F40E94A00881958093BC0211
:101200000895833F19F40E94A008F8CF893F29F47C
:101210000E9465088093BE0208958A3F21F40E94CF
:1012200065088195F7CF8B3F31F40E946508819561
:101230008093BF0208958C3F19F40E946508F8CF8F
:101240009CE0980F953070F4845F990B21E030E0BA
:1012500001C0220F8A95EAF78091BB02822B80930E
:10126000BB0208958D3F31F48091510281608093DB
:10127000510208958E3F21F4809151028260F7CF90
:101280008F3FB9F7809151028460F1CF833011F123
:1012900028F4813049F0823091F00895853081F151
:1012A00020F18630C1F1089580911601681720F46D
:1012B000861B80931601089510921601089580915F
:1012C0001701681720F4861B809317010895109268
:1012D0001701089580911501681720F4861B8093EB
:1012E0001501089510921501089580911401681751
:1012F00020F4861B80931401089510921401089520
:1013000080911301681720F4861B809313010895C0
:1013100010921301089580911201681720F4861B22
:10132000809312010895109212010895833081F183
:1013300028F4813059F08230D1F00895853009F4D5
:1013400049C0B8F1863009F456C00895809116015D
:10135000482F460F5527551F4F3F510524F4680F5E
:101360006093160108958FEF809316010895809180
:101370001701482F460F5527551F4F3F510524F49D
:10138000680F6093170108958FEF809317010895F8
:1013900080911501482F460F5527551F4F3F510586
:1013A00024F4680F6093150108958FEF8093150161
:1013B000089580911401482F460F5527551F4F3F20
:1013C000510524F4680F6093140108958FEF809302
:1013D0001401089580911301482F460F5527551F7A
:1013E0004F3F510524F4680F6093130108958FEF68
:1013F00080931301089580911201482F460F5527BD
:10140000551F4F3F510524F4680F60931201089552
:101410008FEF809312010895F894E82FE295EF7012
:10142000F0E031A1282F2F7081E090E001C0880FFB
:101430002A95EAF7982F9095932391A392A1892B4F
:1014400082A37894089590919D0292FF06C0282F60
:1014500028712830F9F4877F846093FF06C0282F15
:1014600028712831F1F4877E846120919E0220FF4B
:1014700006C0382F38713830D9F4877F816021FF5A
:1014800006C0282F28712831D1F4877E816194FD10
:10149000877E0895282F24712430F9F68B7F886089
:1014A000DCCF282F2471243101F78B7E8861DDCFBA
:1014B000382F3171313019F78E7F8860E0CF282FB7
:1014C0002171213121F78E7E8861E1CF80FD02C03C
:1014D0002C9A08952C980895CF9384E090E00E9470
:1014E000982BC82F82E290E00E94982B982F8C2F87
:1014F000CF9108950F931F93CF93DF93C62FD0E022
:1015000093E0CC0FDD1F9A95E1F750E0440F551F93
:10151000C40FD51F90E060E370E00E94CE2AC80F90
:10152000D91FCE0187960E94982B082F10E0102F0C
:101530000027CE0188960E94982B9801282BC9017C
:10154000DF91CF911F910F910895462F843038F489
:10155000763028F4643018F4672F0C947A0A90E0FF
:1015600080E00895CF93DF930E94A50AEC018238B2
:101570009105A9F1D8F58133910509F496C048F594
:101580008932910509F48AC08A9709F495C0C1157A
:1015900021E5D20708F0BCC0C11530E5D30708F03B
:1015A00016C1C83ED10508F09CC0C03ED10560F50B
:1015B000C83AD10508F087C0C53AD10508F0FFC088
:1015C000C130D10509F12097F9F0C430D105E0F41C
:1015D00040C08533910509F45AC0C997C1F680917E
:1015E0009D02837089F0C0EED0E00EC0833E91056D
:1015F00099F170F4803E910501F1823E910539F632
:1016000080919D0282FD21C0CE01DF91CF9108958E
:10161000863E910561F1873E910571F1843E910509
:1016200009F0B5CF80919E0281FFEECF80919D029F
:10163000C7EED0E084FD0DC0E7CF80919D0280FD14
:1016400018C190919E0290FFDFCFC3EED0E084FFDF
:10165000DBCFD0E0C0E0D8CF80919D0282FD0CC1ED
:1016600090919E0290FDBFCF84FFCECFF2CF8091AC
:101670009D0283FDDDCFC8CF80919D0283FDFFC019
:1016800090919E0291FFF0CFC4EED0E0BDCF80914B
:101690009D0285FFB9CFC9E2D0E0B6CF80919D020F
:1016A00085FFB2CFC5E3D0E0AFCF80919D0286FF2A
:1016B000ABCFCAE2D0E0A8CF80919D0286FFA4CF35
:1016C000C1E3D0E0A1CFCF3BD10518F6C85AD0E096
:1016D000CC0FDD1FC55ADE4F0990D881C02DD464D0
:1016E00093CFC11540E2D40758F4C11581E0D80763
:1016F00008F08ACFC03FD10508F4ABCFD06584CFC6
:10170000C11520E4D20708F4A4CFDF70D06A7CCFE3
:10171000C11535E5D30710F5C11544E5D40708F028
:1017200090C0C11583E5D80708F075C0C11522E542
:10173000D20708F46BC0CE018370992721E030E016
:1017400002C0220F331F8A95E2F7C695C695D0E0F6
:10175000E5E0CC0FDD1FEA95E1F754C0C11539E58E
:10176000D307A8F4C11548E5D40708F06FC0C11528
:1017700086E5D80708F06DCF8C2F0E94230AC82F6A
:10178000D0E0DC2FCC27CC27DF71D0623DCFC11554
:101790002AE5D20708F45FC0CE0190568115904229
:1017A00008F057CF8D2F8F710E94230A90E0982F59
:1017B000882788279F719C012C2BE901E6CFC55A09
:1017C000D0E0C85ADE4FC881D0E0D0641DCFCE0132
:1017D000A4E096958795AA95E1F783702C2F26951E
:1017E0002695237030E0B5E0220F331FBA95E1F75C
:1017F000382B8C2F8370C1E0D0E002C0CC0FDD1FEE
:101800008A95E2F7C22BD32BDC68FECEDC2FCC27E7
:10181000C16FD06AF9CECE018370992721E030E004
:1018200002C0220F331F8A95E2F7C695C695D0E015
:1018300075E0CC0FDD1F7A95E1F7C22BD32BDA6868
:10184000E3CEDC2FCC27C46FD06ADECEDC2FCC27D2
:10185000C06FD06AD9CE8C2F8F700E94230A34E0DB
:10186000D695C7953A95E1F7CF709C2FEC01D069DA
:10187000CBCEC9E3D0E0C8CEC2EED0E0C5CEC6EE36
:10188000D0E0C2CECF92DF92FF920F931F93CF93FF
:10189000DF936C0100910B0380919802082BC7E045
:1018A000D0E010E0FC2EC8010C2E02C09595879563
:1018B0000A94E2F780FD0CC02197A0F7F12C8F2D40
:1018C000DF91CF911F910F91FF90DF90CF900895FE
:1018D000B6018C2F0E94B20A019771F3F0CFCF931B
:1018E000DF93EC010E94420CBE01DF91CF910C947A
:1018F000B20A0E946F0C292F2F7092959F70925000
:101900009E3078F4E92FF0E0E45CF34D0C94132B57
:10191000803F19F020F4883E20F481E00895843F50
:10192000E1F380E00895883EC0F3813FD1F7F5CF21
:10193000822F86958695869508956F927F928F92D5
:101940009F92AF92BF92CF92DF92EF92FF920F934E
:101950001F93CF93DF9381E1C82E84E0D82E0FE54B
:1019600010E0E801E09736011CC0F50185909490E5
:10197000692DC7010E94AC2B682DC70101960E94FA
:10198000AC2B82E0A80EB11C82E0E80EF11CCE1553
:10199000DF0559F788E0680E711C28960C171D07A3
:1019A00031F07E0188E0E81AF1085301DECF005DD6
:1019B0001F4F80E3C80ED11C0F3181E0180789F654
:1019C000DF91CF911F910F91FF90EF90DF90CF901B
:1019D000BF90AF909F908F907F906F900895CF931E
:1019E000C0919E02C2FB992790F9981781F080FB65
:1019F000C2F9C0939E0260919D0284E090E00E9433
:101A0000AC2B6C2F82E290E0CF910C94AC2BCF9159
:101A10000895CF93DF93C7EED0E060E0CE010E943F
:101A2000AC2B2196C11584E0D807B9F7DF91CF918F
:101A30000895682F86E090E00C94AC2B8091C8024A
:101A400081FF11C08D7F8093C8020E94190D809183
:101A50006F008E7F80936F008091C8028695869577
:101A600086950C94250608958091C80281FD10C0CA
:101A700082608093C8020E94190D1092A1021092F8
:101A8000A00210929F0280916F00816080936F008E
:101A900008959091FE02943029F5809399027093F5
:101AA0009B0260939A029093E9008FEF9091E80077
:101AB000815095FD06C095ED9A95F1F700008111D2
:101AC000F5CF8091E80085FF0DC050E040E063E075
:101AD00070E089E992E00E9494038091E8008E779B
:101AE0008093E8000895BC0184E00C94490DBC018A
:101AF00083E00C94490D9C0184E08093E9009FEF02
:101B00008091E800915085FD06C085ED8A95F1F73A
:101B100000009111F5CF8091E80085FF0CC050E0E6
:101B200040E066E070E0C9010E9494038091E80003
:101B30008E778093E8000895CF93DF93EC01809136
:101B400022018823B1F180919D0287FF32C060E2BB
:101B500084E08093E9008FEF9091E800815095FD3B
:101B600006C095ED9A95F1F700008111F5CF8091AF
:101B7000E80085FF1BC08091220170E050E040E04A
:101B8000811104C050E040E068E070E0CE010E94A6
:101B900094038091E8008E778093E80080E2FE0154
:101BA000ACEDB2E001900D928A95E1F7DF91CF9113
:101BB000089568E081E0CDCF81E08093E00080E28D
:101BC0008093D8001092C9008FE19EE40197F1F74D
:101BD00000C0000087E090EBDC0180930C03909341
:101BE0000D03A0930E03B0930F0388E19CE00FB6A2
:101BF000F894A895809360000FBE90936000FFCF8B
:101C00008091CB0280FD0AC0EAECF1E011821082E3
:101C10001282339651E0EA3FF507C1F7259A35B1B4
:101C20003F7D25B120624FB7F8948AEC91E0FC012A
:101C30005191CF0168E025B9000000C057FF35B9C8
:101C4000550F000000C000C000C035B900C06A9543
:101C500091F7F1E08A3F9F0751F74FBF8FE594E07E
:101C60000197F1F700C000000895EF92FF921F93D3
:101C7000CF93DF93EC018AECE82E81E0F82E10E0A0
:101C80008C8197014091CE026091CD02810F0E941C
:101C90007806115F83E0E80EF11C103F89F70E947F
:101CA000000E9A818C8190FF08C08F5F8C83DF913A
:101CB000CF911F91FF90EF9008958150F7CFCF9271
:101CC000DF92EF92FF920F931F93CF93DF93FC016C
:101CD0008281DD24DA9480FD02C0DD24D394CAEC35
:101CE000D1E010E000E0198218821A8234E0E32E7D
:101CF000F12CC12C8091C7018C0D8131CCF18F70FA
:101D0000082E000C990B8017910791F48091CE0258
:101D100090E0B7010E94CE2A959587959595879575
:101D20009E01482F6091CD028091CC020E947806DE
:101D3000CD0CF1E0EF1AF108E9F60F5F1F4F239683
:101D40000031110581F60E94000E8091C70191E0DB
:101D5000D91214C0811110C08FE08093C701DF91A8
:101D6000CF911F910F91FF90EF90DF90CF9008954A
:101D700087FFC6CF805FC4CF8150EFCF90E0019640
:101D80008F709927EACF0F931F93CF93DF93CAECFD
:101D9000D1E0FE01118210821282339681E0EA3F87
:101DA000F807C1F710E000E08091C801082E000C90
:101DB000990B081719078CF180911001082E000C5F
:101DC000990B801791074CF19E014091CE026091D2
:101DD000CD028091CC020E9478060F5F1F4F2396A0
:101DE0000031110509F70E94000E80910F019091BA
:101DF000C801980F9093C80120911001280F2093DB
:101E00001001121614F49F301CF0819580930F017D
:101E1000DF91CF911F910F910895198218821A8234
:101E2000DCCF4F925F926F927F928F929F92AF9290
:101E3000BF92CF92DF92EF92FF920F931F93CF93B7
:101E4000DF938C01FC01C481CC2ED12CF12CE12C30
:101E5000A7019601C701B6010E94E02BA7019601D8
:101E60000E94E02B2B013C0140E2C42ED12CCC1A65
:101E7000D1080D2C000CEE08FF0825E530E040E00D
:101E800050E00E94E02B4B015C01A7019601C701C5
:101E9000B6010E94E02BA70196010E94E02B9B0156
:101EA000AC01240D351D461D571DC501B4010E940E
:101EB000182CD22E822F90E0F9E2F21708F443C0DA
:101EC00063E070E00E94CE2A97FD01969595879574
:101ED000C82FC0953AECE32E31E0F32ED0E085E533
:101EE000C82ECD188C2DD1FD8D2D97014C2F6091D2
:101EF000CD020E947806DF5F53E0E50EF11CD03181
:101F000089F70E94000EF801948181E0992319F06D
:101F1000903219F48FEF8093110180911101890F94
:101F2000F8018483DF91CF911F910F91FF90EF9083
:101F3000DF90CF90BF90AF909F908F907F906F90E9
:101F40005F904F90089525E530E0A901481B590B9B
:101F5000CA01B6CFEF92FF920F931F93CF93DF93F7
:101F60008C01CAECD1E0F12CE12CF8019481609154
:101F7000CD028091CC02F8E0EF16F104FCF4992335
:101F8000F9F09E014091CE020E9478062FEFE21AEE
:101F9000F20A239680E1E816F10439F70E94000E58
:101FA000F801848190E00196817099278483DF9104
:101FB000CF911F910F91FF90EF900895992309F30E
:101FC0009E0140E0E1CF9091CB0290FF0CC0EAEC83
:101FD000F1E0818360834283339691E0EA3FF90721
:101FE000C1F70C94000E08950F931F93CF93DF93C6
:101FF00000D00F92CDB7DEB78C018091C90181115D
:102000000AC09E012F5F3F4F4FEF6FEF0E9478068F
:102010008A818093C901F8016481613069F08091FF
:10202000C90140E0662361F040E0623011F4409164
:10203000C90180E060E004C06091C90140E080E037
:102040000E94E30FF801848190E0019663E070E064
:102050000E94FF2A84830F900F900F90DF91CF9101
:102060001F910F910895CF93DF9300D00F92CDB7BA
:10207000DEB79091CB0290FF0AC09E012F5F3F4FC9
:102080000E9478064B8169818A810E94E30F0F903C
:102090000F900F90DF91CF910895CF93DF93EC01D4
:1020A000EC81F0E0EF56FD4F4491EBECF2E0628101
:1020B00081810E9433108C818F5F8C83DF91CF915F
:1020C0000895CF93DF93EC01EBECF2E04381628162
:1020D0008C810E9433108C818F5F8C83DF91CF9134
:1020E00008955F926F927F928F929F92AF92BF926C
:1020F000CF92DF92EF92FF920F931F93CF93DF93D4
:10210000FC016280548081E08483E1E9F2E0749014
:10211000E0E1F3E0E491CAEFD1E08AECE82E81E05F
:10212000F82E9AE4A92E92E0B92E88248A94912C54
:10213000E7190E2F10E082E0861530F08091CC0276
:1021400088838091CD028983511020C01B821A821E
:1021500097014A81698188810E947806259683E0EB
:10216000E80EF11CAC16BD0631F7DF91CF911F913F
:102170000F91FF90EF90DF90CF90BF90AF909F9026
:102180008F907F906F905F900C94000E8B818823CE
:1021900021F181508B8390E06FEF70E00E94CE2A96
:1021A0006C8170E00E94EB2AFB01FF27EF56FD4F88
:1021B000E491E7198E2F90E06FEF70E00E94CE2A35
:1021C000B8010E94EB2A2091CE0230E0862F90E0E9
:1021D000B9010E94CE2A9A83BBCF0E946E2B9C012C
:1021E0008091CE028695815890E062E071E00E9475
:1021F000CE2AC92ED12C2C153D050CF0A9CF82E09A
:10220000861588F40E946E2BB4010E94FF2A8883F1
:102210000E946E2B2091CD022695622F70E00E94C5
:10222000FF2A280F29831A828091CE02893C20F050
:1022300088EC8C838B838CCF8431D8F784E1F9CF01
:102240006AEE7EEF90E080E00E94CA2B60E082E0C0
:1022500090E00E94AC2B60E083E090E00E94AC2B09
:102260001092980260E084E090E00E94AC2B60E065
:1022700082E290E00E94AC2B60E085E090E00E945A
:10228000AC2B60E086E090E00E94AC2B6FEF87E023
:1022900090E00E94AC2B40E050E0BA0188E090E072
:1022A0000E94BE2B60E08DE090E00E94AC2B40E0ED
:1022B00050E0BA0188E190E00E94BE2B60E087E127
:1022C00090E00E94AC2B40E050E0BA018CE190E03D
:1022D0000E94BE2B70E060E080E290E00E94CA2B7A
:1022E00040E050E0BA0188E190E00E94BE2B40E05F
:1022F00050E0BA018FE090E00E94BE2B40E050E039
:10230000BA0183E190E00C94BE2B90E080E00E9443
:10231000A62B8A3E9E4F51F00E9420118091C80248
:10232000847089628093C8020E94190D86E090E053
:102330000E94982B8093C802803320F087708862B7
:102340008093C8029091C802892F817090FF04C0C9
:10235000892F8695869586950C942506CF92DF92D7
:10236000EF92FF926B017C010E946906B701A60102
:1023700088E090E0FF90EF90DF90CF900C94BE2B20
:102380007F928F929F92AF92BF92CF92DF92EF9205
:10239000FF920F931F93CF93DF9300D00F92CDB78F
:1023A000DEB7182FD62E042FC22E9091CB0290FFAD
:1023B00029C0E92FE695AE2FB0E0AD5DBE4F8C9100
:1023C0008093C9029E7F923071F59E012F5F3F4F2F
:1023D000812F0E9478064B8169818A810E94E30FD8
:1023E0001093CC02D092CD020093CE02CC2051F0BB
:1023F0006091CB027091CC028091CD029091CE027F
:102400000E94AE110F900F900F90DF91CF911F910E
:102410000F91FF90EF90DF90CF90BF90AF909F9083
:102420008F907F900895823019F40091CE02D8CF1A
:10243000863019F41091CC02D3CF8930D9F3893189
:1024400079F6E9512E2F2170722EE695F0E0E457CF
:10245000FD4F8590949099243AECE32E31E0F32ED1
:10246000B12CA12CC50124E0969587952A95E1F71A
:10247000711013C0810F9701402F6D2D0E947806B7
:10248000A80CB91C83E0E80EF11C2AEFE21621E04B
:10249000F20641F70E94000EA3CF212F281B822FA6
:1024A000EACFEBECF2E0438128E0421B08F440E085
:1024B00021E0628181810C94C011EBECF2E0438158
:1024C00028E0420F08F44FEF21E0628181810C94F3
:1024D000C011EBECF2E0628128E0621B08F460E0DE
:1024E00021E0438181810C94C011EBECF2E0628128
:1024F00028E0620F08F46FEF21E0438181810C94A2
:10250000C011EBECF2E0818121E0438162818850CF
:102510000C94C011EBECF2E0818121E043816281F7
:10252000885F0C94C0118091CF02882319F08150EC
:102530008093CF026091CB027091CC028091CD024A
:102540009091CE020C94AE118091CF02833018F49A
:102550008F5F8093CF026091CB027091CC0280910B
:10256000CD029091CE020C94AE11EBECF2E083E040
:10257000808311828FEF82838383148260817181D3
:10258000828193810C94AE11109296028091220167
:10259000E6EAF1E0882359F080919D0287FF07C0A9
:1025A0008EE1DF011D928A95E9F70C942C0786E0F5
:1025B000F8CF1F93CF93DF93CDB7DEB7AA970FB6AF
:1025C000F894DEBF0FBECDBF80E093E02091F10014
:1025D000DC012D93CD01B3E088309B07B9F78091E2
:1025E0000103833009F46FC0B8F4813009F446C0A8
:1025F000823009F4B0C08091E80083FF38C1809137
:102600000003909101039A3008F031C1E92FF0E006
:10261000E65BF34D0C94132B8A3009F48BC08B309E
:1026200009F46EC0893039F780910003813219F7BF
:102630008091040390910503009711F00297D9F659
:102640008091E800877F8093E8008091E80082FF16
:1026500035C08091F200823029F48091F1008B7FA7
:10266000813021F48091F1008093DB028091E800B9
:102670008B778093E8000E94BE03BDCF809100035A
:10268000813A09F0B8CF8091E800877F8093E80015
:102690008091040390910503892B61F460E28CED35
:1026A00092E070E00E940F048091E8008B778093A5
:1026B000E800A1CF60E090E080E0F3CF8091FE02DF
:1026C0008111C3CF98CF80910003813A09F093CF55
:1026D0008091040390910503892B09F08CCF8091A0
:1026E000E800877F8093E8008091E80080FFFCCFBE
:1026F000809122018093F1008091E8008E77B9CF1C
:1027000080910003813209F076CF8091040390918B
:102710000503892B09F06FCF8091E800877F8093B4
:10272000E8000E94BE0380910203809322010E9470
:10273000C41261CF80910003813209F05CCF809197
:10274000E800877F8093E8000E94BE038091030326
:102750008093DA0250CF80910003813A09F04BCF89
:102760008091E800877F8093E8008091E80080FFF7
:10277000FCCF8091DA02BECF803899F0823809F020
:1027800076C0809104038F70853008F070C080930C
:10279000E9008091EB0085FB882780F91092E90021
:1027A00006C08091FC029091FD029111826090918F
:1027B000E800977F9093E8008093F1001092F10079
:1027C0008091E8008E77B4C1882309F4A1C18230DA
:1027D00009F04DC0809102038111A5C180910403CD
:1027E0008F702FEF280F243008F041C08093E9004C
:1027F0002091EB0020FF97C1933031F48091EB00E2
:1028000080628093EB008FC19091EB009061909378
:10281000EB0021E030E001C0220F8A95EAF7209317
:10282000EA001092EA008091EB008860EACF811103
:102830001EC0109102031F778091E3008078812BE6
:102840008093E3008091E800877F8093E8000E94F6
:10285000BE038091E80080FFFCCF8091E300806898
:102860008093E30082E0111183E08093FE02809167
:10287000E80083FF0AC08091E800877F8093E8002A
:102880008091EB0080628093EB00AA960FB6F894DB
:10289000DEBF0FBECDBFDF91CF911F91089580584D
:1028A000823028F720910203309103032C3DE3E0AE
:1028B0003E07A1F583E08A838AE289834FB7F894C3
:1028C000DE01139620E03EE051E2E32FF0E050936A
:1028D0005700E49120FF03C0E295EF703F5FEF7077
:1028E0008E2F90E0EA30C0F0C7968D939D932F5FB6
:1028F000243159F74FBF8091E800877F8093E8002B
:102900006AE270E0CE0101960E940F048091E80017
:102910008B778093E800ABCFC096E7CF809104031C
:1029200090910503432F55274330510509F44AC0C0
:1029300078F54130510509F47AC08BE590E0E6E97D
:10294000F5E04230510509F092CF2091E800277F51
:102950002093E80020910603309107038217930724
:1029600008F49C0140E02115310509F065C04111D2
:1029700063C08091E80082FDC9CF8091FE02882368
:1029800029F2853019F28091E80083FFF2CFBECFA3
:102990004132510509F43CC04232510509F067CF7C
:1029A0008330910508F063CFFC01EE0FFF1FEA565C
:1029B000FE4F0190F081E02D8D569E4FDC018C91F1
:1029C00090E01AC0332721303105D1F021153105AF
:1029D00061F02230310509F04ACFE3E0F6E0E491FE
:1029E0008E2F90E0E3E0F6E007C0EFE2F6E0E4913E
:1029F0008E2F90E0EFE2F6E0009709F438CFA5CFF4
:102A0000EDE1F6E0E4918E2F90E0EDE1F6E0F4CF19
:102A10008330910508F02BCF880F991FFC01E456F5
:102A2000FE4F0190F081E02D89E090E08ECF82E1B1
:102A300090E0E1EFF5E089CF8091FE02882309F470
:102A400065CF853009F462CF8091E80083FD5ECFC9
:102A50008091E80082FD8DCF8091E80080FF83CFD8
:102A60008091F20090E02115310519F08830910530
:102A700050F041E0089709F040E08091E8008E773F
:102A80008093E80070CF44914093F100319621503B
:102A900031090196E8CF803809F0E9CE8091E8004D
:102AA000877F8093E8008091FF028093F10088CEB9
:102AB0008111DDCE10910203123008F0D8CE809142
:102AC000E800877F8093E8001093FF020E94BE0316
:102AD000112311F084E005C08091E30087FDFACF57
:102AE00081E08093FE0242E061EC81E00E94DD0320
:102AF00042E261EC84E00E94DD0342E261EC82E0AC
:102B00000E94DD0342E260EC83E00E94DD03AFCE71
:102B100080910203813009F0AACE81E0933009F060
:102B200080E08093FD021092E9008091E800877FA9
:102B30008093E8000E94BE039ACEEBEFE80FEF33DC
:102B400008F06CC0F0E0EC5AF34D0C94132B0E948B
:102B5000201181E008958091C102807F8093C1029D
:102B600081E08093500208950E94C4122FEF84E305
:102B70009CE0215080409040E1F700C000000E949E
:102B8000DC0D9091C102892F8E7F90FF8160809330
:102B9000C10280FDDECF817F8093C102DACF9091A8
:102BA000C102892F8D7F91FF82608093C10281FFD6
:102BB000D0CF8091C1028160EFCF9091C102892F67
:102BC0008B7F92FF84608093C10282FDF2CFC1CFE0
:102BD0009091C102892F877F93FF88608093C10203
:102BE00083FDE7CFB6CF0E94C41290919D02892F3A
:102BF00097FB87F9805880939D02ABCF81E00E94BC
:102C00008B070E94C412A5CF895391E001C0990F90
:102C10008A95EAF7892FF3CF8D51F7CF80E0089599
:102C2000CF93C82F882309F4A9C08238C1F40E9429
:102C3000DE0581FDA3C089E30E9402050E94920483
:102C40002FEF81EE94E0215080409040E1F700C0EA
:102C5000000089E30E94D704CF910C94920483383A
:102C6000A1F40E94DE0580FD89C083E50E94020573
:102C70000E9492042FEF81EE94E02150804090401A
:102C8000E1F700C0000083E5E5CF8438A1F40E949D
:102C9000DE0582FD73C087E40E9402050E94920453
:102CA0002FEF81EE94E0215080409040E1F700C08A
:102CB000000087E4CFCF8CEF8C0F813A08F0B1C0D1
:102CC000809150028130B9F1882359F1823009F4A2
:102CD0004DC01092500280912201882309F492C0C5
:102CE00080919D0287FF8EC0EC2FE695E695E695D4
:102CF000F0E0EC55FE4F828190E04C2F477021E0D0
:102D000030E002C0220F331F4A95E2F7822393235B
:102D1000892B09F482C08C2F0E94D7040E94920450
:102D20007CC0809196028232B1F68C2F0E949D1554
:102D3000811124C0D0CF809196028232B1F3C43188
:102D400071F038F4CB3049F0C03161F080E081702F
:102D5000EFCFC93221F0C833C9F781E0F8CF109224
:102D60005002F4CF82E080935002F7CFC93221F1B4
:102D700090F4C43109F120F4C73089F1CF9108955E
:102D8000CE51C630D8F7EC2FF0E0E25BFE4F8081E9
:102D900080934F02F3CFCE3401F140F46AE0CB349C
:102DA00069F780914F02CF910C949609C13579F063
:102DB00061E0C235B1F3E2CF80914F02882319F070
:102DC00010924F02DBCF81E080935002D7CF61E0B9
:102DD00080914F02CF910C9446096AE0F9CF8EE1C1
:102DE0008093160182E3809317018AE08093150196
:102DF00084E18093140188E08093130188E280933A
:102E00001201BCCFE6EAF1E08CEA91E02191C21711
:102E100009F481CF8E179F07C9F78C2F0E940205F6
:102E20001BCF80E28C0F883068F4C77021E030E05F
:102E300001C0220FCA95EAF780919602822B8093F7
:102E400096020ACFEBE5EC0FE33040F4F0E0E85AED
:102E5000FE4F808190E0CF910C94C805E8E5EC0F1F
:102E6000E73150F4F0E0EE0FFF1FE55AFE4F80818E
:102E70009181CF910C94B205C03F08F47FCF8C2F85
:102E80000E94EC08CF910C9405071F93CF93DF931A
:102E9000182FD0E0C0E0893311F4C0E5D0E0812FD5
:102EA0000E941016209731F4812FDF91CF911F914E
:102EB0000C9408088FE99FE00197F1F700C000002B
:102EC0002197F0CF0F931F93CF93DF93C62FD42F6B
:102ED000022FFC0182818823A1F060930A030E94E3
:102EE00080049093090380930803C77081E001C0B8
:102EF000880FCA95EAF7DF91CF911F910F910C943B
:102F0000A80580910A03681335C080910803909149
:102F100009030E947104883C910560F510E21D0FC1
:102F2000CD17B9F080E28C0F883040F4C77081E093
:102F300001C0880FCA95EAF70E949D05183048F431
:102F400081E09D2F977001C0880F9A95EAF70E9443
:102F5000A805802F0E944517183098F4D77081E09B
:102F600001C0880FDA95EAF7DF91CF911F910F9199
:102F70000C949D05C77081E001C0880FCA95EAF7DF
:102F8000F3CFDF91CF911F910F9108956091CB0204
:102F9000669570E04BE050E084E091E00E947E2B6B
:102FA000892B19F481E08093CA020E9480049093D7
:102FB000AF028093AE0208959091CB0290FF36C08D
:102FC0009170811129C092609093CB02662351F0D9
:102FD0006091CB027091CC028091CD029091CE0293
:102FE0000E94AE116091CB02669570E04BE050E01C
:102FF00084E091E00E947E2B892BA9F01092CA02F6
:1030000081E08093B10220E04091CE026091CD0238
:103010008091CC020C94C0118B3210F09465D4CF07
:10302000880F982BD1CF0E94C617EACF08958091C0
:10303000CB028695815009F48AE261E00C94DC179A
:103040008091CB0286958F5F8B3208F081E061E042
:103050000C94DC179091CB0290FF07C096959817BF
:1030600020F0961710F40C94201861E00C94DC17F3
:103070004F925F926F927F928F929F92AF92BF9288
:10308000CF92DF92EF92FF920F931F93CF93DF9334
:1030900000D000D00F92CDB7DEB78C01FC01838148
:1030A0009481892B31F08081918189238F3F09F0B0
:1030B00095C50F900F900F900F900F90DF91CF91CB
:1030C0001F910F91FF90EF90DF90CF90BF90AF9046
:1030D0009F908F907F906F905F904F9008950E9487
:1030E000420CF82E682F89819A810E945F056981C0
:1030F0007A818F2D0E94A50A7C01F80182818823A4
:1031000009F43FC5C70182519F45409708F022C589
:103110008FEF93E00E94982BFEEEEF0E47EE842E89
:10312000912C882371F180919302877011F2F8013C
:103130008281882309F4BDCF82E00F900F900F9019
:103140000F900F90DF91CF911F910F91FF90EF9013
:10315000DF90CF90BF90AF909F908F907F906F90B7
:103160005F904F900C946407811424E09206D9F28A
:10317000C4010E94982B811101C0EA943FEF831A89
:10318000930AE110F1CF1C821B8244244394740102
:103190006FEFE61AF60AC4010E94982B89831A82FF
:1031A000882309F4C0CF9FEF980F933000F58A83EE
:1031B000498272E0870E911CC7010E94982B8B8375
:1031C000882309F4B0CFCE0101967C01F70120815C
:1031D0002223E9F2213009F04AC0918182819130A5
:1031E00041F4F2E0EF0EF11C0E94451709C04701BF
:1031F000EACF923049F422E0E20EF11C0E94101650
:103200003FEFE31AF30AE2CF933031F432E0E30EFA
:10321000F11C0E940808F4CF943021F06FEFE61AF9
:10322000F60AEECF72E0E70EF11C50E040E0D70165
:103230001196F701D180682F6053770B9B016A309C
:10324000710550F041505109D8F28FE99FE0019784
:10325000F1F700C00000F6CFCA016AE070E00E94FA
:10326000CE2AA901480F591F8D2D7D01E0CFE22FF5
:10327000F0E0EF5FFA4F5490822F86958695869501
:1032800090E0FC01EF50FB4F64902770712C022EF0
:1032900002C0759467940A94E2F7E1E06E22772405
:1032A000FC01EF51FB4FA490B12C022E02C0B5944B
:1032B000A7940A94E2F7F1E0AF22BB24FC01EF529D
:1032C000FB4FC490D12C02C0D594C7942A95E2F745
:1032D00021E0C222DD246114710419F081EE0E9404
:1032E0001016A114B10419F086EE0E941016852D57
:1032F0000E944517AB2819F086EE0E94080867283F
:1033000019F081EE0E940808CD2809F479CF8CE2EB
:103310006BCF81E00E9480070E944D0704CF81E0BF
:103320000E945807F9CF82E0F5CF82E0F9CF85E01F
:103330000E944E068091C8020E94190DF4CE80E0D2
:10334000F7CF8091C802982F987F79F088508093AA
:10335000C802887F91E009F490E08091C80290FB58
:1033600080F98093C8020E94190D8091C802869549
:10337000869586950E942506D6CE8091C802982F04
:10338000969596959695953040F49F5F990F990F75
:10339000990F8770892B8093C8028091C802816041
:1033A000E0CF8091C80280FF07C08E7F8093C80263
:1033B0000E94190D80E0DECF80FDB5CE8160809344
:1033C000C802813019F489E08093C8028091C80254
:1033D000CACF9091C802892F8695869586958F5F72
:1033E0008F719770863048F4880F880F880F892B6B
:1033F0008093C8028091C802ACCF9093C802FACFE4
:103400008091C80281FF03C00E941E0D8CCE0E94D5
:10341000340D89CE27E245EE65EEDCC326E241EEAF
:1034200060EED8C327E245EE64EED4C326E241EE57
:1034300062EED0C328E241E0EFCF86E0E8168CE5EB
:10344000F80609F4ADC080919D02886097E0E91606
:103450009CE5F90608F499C080919D02806295C0B0
:1034600080919D028D7FECE0EE16ECE5FE0609F4FE
:103470008CC078F480919D028C602AE0E2162CE5E5
:10348000F20609F482C008F493C080919D028E7FF9
:103490007CC080919D02877F6EE0E6166CE5F606A3
:1034A00009F473C080919D028B7F7FE0E7167CE575
:1034B000F70608F46AC080919D028F7E66C08BEF8C
:1034C000E8168CE5F80609F467C068F5E3E1EE1646
:1034D000ECE5FE0609F47AC090F421E1E2162CE551
:1034E000F20609F46FC032E1E3163CE5F30609F099
:1034F000ECC40E94C41280919D028F7746C065E1A2
:10350000E6166CE5F60609F469C008F47DC08AEF9A
:10351000E8168CE5F80609F0D8C480919E02816017
:1035200080939E02D2C49FEFE9169CE5F90609F448
:1035300051C0A0F480919E028D7FFDEFEF16FCE557
:10354000FF0671F380919E028E7F2EEFE2162CE52E
:10355000F20630F380919E028360E2CF31E0E31601
:103560003DE5F30609F459C008F444C060E072E098
:10357000E7167DE5F70609F0A8C48EE090E00E940A
:10358000AC2BA3C480919D02816080939D029DC459
:1035900080919D028460F9CF80919E028260C0CFAD
:1035A00080919D028061F1CF80919D028064EDCF7A
:1035B0000E94C41280919D028068E7CF80919D0295
:1035C0008F7DE3CF80919D028F7BDFCF80919D0225
:1035D000837FDBCF80919E028C7FA2CF80919D0262
:1035E00082FB992790F921E0922790FB82F990FBCA
:1035F00083F9CBCF80919E02982F909591708E7F0A
:10360000892B90FB81F98CCF0E94C41290919D026E
:10361000892F97FB87F98058B8CF61E0AECF8091B2
:10362000960296E1E9169CE5F90609F0E8C28A7A65
:1036300091E009F490E090934E02811106C089E276
:103640000E9402050E9492046ECD85E3F9CF85E3C6
:10365000DFC38091CB0280FF1BC08E7F8093CB02A3
:103660006091CB027091CC028091CD029091CE02FC
:103670000E94AE111092CA02EFEFF0E722E0E15093
:10368000F0402040E1F700C000000E94000E4BCD4A
:1036900081608093CB0261E086950E94DC1743CD68
:1036A00047E158E160E278E10E9464063CCD40E2E7
:1036B00058E167E178E1F8CF4AE852E161E872E168
:1036C000F3CF49E652E165E772E1EECF41E552E121
:1036D0006DE572E1E9CF4DE552E161E572E1E4CFDC
:1036E00044EA52E163E972E1DFCF61E081E0D5CFE6
:1036F00065E082E00E942A1816CD68E086E0FACFE5
:1037000064E18FE0F7CF67E185E1F4CF62E289E120
:10371000F1CF61E083E2C1CF9BE5E9169DE5F906B3
:1037200011F1ECE5EE16EDE5FE0609F09AC2809186
:103730009E0282FB882780F991E089270E94EF0C86
:1037400090C20E94C412FFEF24E33CE0F1502040FD
:103750003040E1F700C000000E94DC0D0E94201103
:10376000E2CC81E0EBCF80E0E9CFC7010E943605D3
:10377000D82E86C22F2D2F70C22E8F2D807F19F04C
:10378000C29490EFC922DD20C9F0CC2069F080E21C
:103790008E0D883010F081100BC080919602C82ADF
:1037A000C09296020E9492048E2D0E94101619C09B
:1037B00080919502C82AC0929502F4CF8E2D0E9466
:1037C0000808CC2071F0C09480E28E0D883010F093
:1037D00081103EC080919602C822C09296020E943B
:1037E0009204692D6850770B6430710520F40E94B3
:1037F000DE050E94660AAA2009F45BCC8091930240
:1038000080FD57CCF80112828595859585950E949B
:103810008007C8010E94381880919302859585958C
:1038200085950F900F900F900F900F90DF91CF9193
:103830001F910F91FF90EF90DF90CF90BF90AF90CE
:103840009F908F907F906F905F904F900C9458074F
:1038500080919502C822C0929502C1CF3F2D3F7042
:10386000B32E8F2D807F803219F0B29480EFB82272
:10387000882071F061E0861681F1DD20D9F1CC203D
:1038800091F1F801858180FF8FCF8F7085832BC0E8
:10389000DD20B1F0909197028B2D892BC11003C0D0
:1038A0000E94A8059ECF71E0C712FACF20919E0218
:1038B00022FD97CF981709F494CF8093970291CF68
:1038C000C11006C00E948C048B2D0E949D0589CFDB
:1038D00081E0C81609F485CFF5CFDD2031F095E001
:1038E0009C1508F47ECF8B2DDBCFE4E0EC1508F4BB
:1038F00078CFEACFCC2041F3F9E38F1209C02FEF44
:1039000037EE63E0215030406040E1F700C0000036
:103910008E2D0E94080865CF8F2D86958695837021
:1039200061F0813009F05DCFC7019370D11002C002
:1039300090E080E00E94B20554CFC7019370D1108F
:1039400002C090E080E00E94C8054BCF8E2DDD20A4
:1039500029F00E94EC080E94050743CF0E948F07C0
:10396000FACF8F2D837091F5D1103BCF4E2D42951C
:1039700046954770440F440F8E2D8F70042E01C062
:10398000880F0A94EAF72E2D2071E4FE07C02FE07D
:1039900030E001C0220F4A95EAF720953F2D369579
:1039A00036953370323069F050F4409198023130DE
:1039B00029F0822B84230E948B0713CF842B822B28
:1039C000FACF282B809198028227F5CF8695DD20AB
:1039D00011F08F2D8170882309F403CF4E2D42956D
:1039E00046954770440F440F8E2D8F70042E01C0F2
:1039F000880F0A94EAF72E2D2071E4FE07C02FE00D
:103A000030E001C0220F4A95EAF720953F2D369508
:103A100036953370323069F050F440910B033130F9
:103A200029F0822B84230E944907DBCE842B822B32
:103A3000FACF282B80910B038227F5CF7F2D7F7043
:103A4000F72EDD2029F0872F0E9480078E2D28CFAA
:103A50008E2D0E949D058F2D0E945807C2CE8E2D5F
:103A600092EF891609F44AC0981570F0E0EF8E16AF
:103A700031F1F1EF8F16D1F1DD2009F45BC0C110F7
:103A800093CE8F2D8F7137C023EF8216E1F134EF83
:103A90008312F2CFDD2009F442C08F2D8F71F82EF2
:103AA0000E94800780919E0282FD07C08F2D880FA3
:103AB000880F880F8360809393028F2D1CC0DD20B8
:103AC00081F064E06C1508F48CCE2F2D2F7181E00D
:103AD00090E001C0880F2A95EAF790910B0389279F
:103AE000A2CF75E07C1508F47CCEEFCF8F2D8F71BF
:103AF000DD2009F4B1CF0E94800773CE8F2D8F7126
:103B0000DD20C9F3A9CF80E0DD2009F48CCF9F2D03
:103B10009F7181E001C0880F9A95EAF784CF81E018
:103B20000E94640791E09C1508F05BCE82E00E9441
:103B3000640757CECC2059F0893309F0E9CEEFEF76
:103B4000F7EE23E0E150F0402040E1F7DFCE8F2D8B
:103B50008F7182CFF0E1EF16FFE5FF0609F4D9CBB4
:103B600021E1E2162FE5F20609F4DDCBF701EB5B6C
:103B7000FC45E730F10508F04EC1ED56F34D0C94CD
:103B8000132B30E1E3163FE5F30609F4C8CB61E1FE
:103B9000E6166FE5F60609F4C8CB93EFE9169CE547
:103BA000F90609F43BCC08F01AC1F8EDEF16FCE574
:103BB000FF0609F42FCC29EDE2162CE5F20609F4F4
:103BC00039CC37EDE3163CE5F30609F016C126E2E1
:103BD00041EE61EEC8010E946217A5CA85E0DE01D0
:103BE000119601900D928A95E1F7F8012281898161
:103BF0009A81211174CA0E943605F82E78CA827201
:103C00002CECE2162CE5F20609F46ACD08F0A5C00A
:103C100066ECE6166CE5F60609F44ECD08F074C0C5
:103C200093ECE9169CE5F90609F43ACD08F05BC07F
:103C3000F2ECEF16FCE5FF0609F40BCD3AE5E316CE
:103C40003DE5F30609F48DCD08F066CDE1147CE581
:103C5000F70609F476CD8EEDE8168CE5F80609F442
:103C60007DCDF8018281E080F180882309F47DCD4B
:103C7000C7010E94420CD82E682FC7010E945F0521
:103C8000B7018D2D0E94B20A7C01882EF801D280E6
:103C9000C580C2943FE0C322809193028770A1F057
:103CA000AD2CDD2091F08F2D807F803421F080E2DB
:103CB0008E0D883048F082E00E9464078091930264
:103CC0008770AA24A3948111A12C9F2C92942FE099
:103CD0009222FBE0F91508F484CDE92DF0E0E656D8
:103CE000F34D0C94132B24ECE2162CE5F20609F4A8
:103CF000DECC41E852E16AE872E135ECE3163CE5DE
:103D0000F30609F4D1CC9ACF69ECE6166CE5F60619
:103D100009F4DCCC88F497ECE9169CE5F90609F483
:103D2000D0CC45E752E169E672E1E8ECEE16ECE54D
:103D3000FE0609F4B9CC82CFFAECEF16FCE5FF06DB
:103D400009F4C9CC43E952E164EA72E12BECE216D2
:103D50002CE5F20609F4A8CC71CF31EDE3163CE571
:103D6000F30609F4CDCCB8F47EECE7167CE5F70653
:103D700009F4BECC08F4B9CC9FECE9169CE5F90631
:103D800009F4BBCC6EE089E0E0EDEE16ECE5FE0652
:103D900009F4B0CC53CFF4EDEF16FCE5FF0609F4BF
:103DA000B5CC78F432EDE3163CE5F30609F4ABCC80
:103DB00063EDE6166CE5F60609F040CF61E088E1B8
:103DC0006CCC75EDE7167CE5F70609F4A2CC8DE521
:103DD000E816F80609F032CF6AE285E28BCC65EF8F
:103DE000E6166CE5F60609F421CB08F41BCB86EF4A
:103DF000E8168CE5F80609F486C0F6E1EF16FCE556
:103E0000FF0609F02ECF80914E02811120CC89E26D
:103E10000E94D70417CC93EFE9169CE5F90609F444
:103E2000FDCA08F062C0F8EDEF16FCE5FF0609F4E4
:103E3000F1CA29EDE2162CE5F20609F4FBCA37EDCA
:103E4000E3163CE5F30609F4C2CE10920A0362E0E1
:103E5000E6166CE5F60608F4E2CB76E1E7167CE5BB
:103E6000F70630F0C7018A5F9C45099708F0D7CB69
:103E70000E946C0A90939E0280939D0280E1E81656
:103E80008CE5F80609F49ACB08F019CBE8E0EE16B9
:103E9000ECE5FE0609F488CB08F0E2CA24E0E2165D
:103EA0002CE5F20609F474CB08F0C7CA62E0E61606
:103EB0006CE5F60609F466CB80919D02826073E0A2
:103EC000E7167CE5F70609F460CB60919D02F0905F
:103ED0009E0284E090E00E94AC2B6F2D82E290E085
:103EE0000E94AC2B0E94C4121EC965EFE6166CE559
:103EF000F60609F49BCA08F495CA86EFE8168CE525
:103F0000F80609F0A2CF27E245EE66EE63CE1F93D6
:103F1000CF93DF9380915702807FA1F48091540268
:103F2000882381F020918902109158024091520219
:103F3000A0915302C0915502D0915602B42FBA23DA
:103F4000121304C0DF91CF911F91089530E02097A4
:103F500011F0BF3F21F42F5F3F4F2770F1CFC90110
:103F600066E070E00E94CE2AFC01E75AFD4F818195
:103F70008A13F1CF80818413EECF82818111EBCF40
:103F8000838194818C1B9D0B883C910520F7809147
:103F900057028F70806180935702C90166E070E01C
:103FA0000E94CE2AFC01E25AFD4F90819F709061E1
:103FB000908382E592E00E943818DF91CF911F91A3
:103FC0000C949305AF92BF92CF92DF92EF92FF9243
:103FD0000F931F93CF93DF93CDB7DEB761970FB6E3
:103FE000F894DEBF0FBECDBF8C0185E0F801DE0185
:103FF0001D9601900D928A95E1F7F801208131819B
:10400000E28082E5A82E82E0B82E60915502709180
:1040100056026115710509F43BC19091520240911D
:104020005302892F84238F3F09F432C1C380D48087
:10403000F0905402F601E61BF70BFF2009F4EFC0E5
:1040400080915702582F507FE83CF10508F0AFC02F
:10405000511178C0FE2C431321C092131FC0E110F0
:104060001DC08F70806180935702C5010E9438186F
:1040700080915702F80185838F2D61960FB6F894D1
:10408000DEBF0FBECDBFDF91CF911F910F91FF908B
:10409000EF90DF90CF90BF90AF900895CD2829F09A
:1040A000822F83238F3F09F011C180E0F82FF17038
:1040B000DF2EE09189024091580280FD20C0EE2061
:1040C000D9F280915702816080935702F12CD4CFAE
:1040D000F0E0CF0166E070E00E94CE2ADC01A75A32
:1040E000BD4F11968C911197381307C08C912813EE
:1040F00004C012968C91E812E2CF3196E770E41377
:10410000E7CF2D873E878D859E850E946F0C292FD6
:1041100022952F70223050F0243078F49F7051F0A7
:10412000F8019581907F31F4D12C0AC09F7011F075
:104130008823D1F3805E8830B8F3C8010E94381814
:10414000FD2C9ACF431306C0921304C0F801EE2051
:1041500009F480C02D873E878D859E850E94790C4D
:10416000882309F1EE20F9F080915702803270F037
:10417000209152023091530238872F831986DB86B3
:10418000CA868C87CE0107960E94381886E0F8010F
:10419000A2E5B2E001900D928A95E1F70E94871F97
:1041A000FF24F39469CFC8010E943818F9CF511148
:1041B0000AC082E592E00E94381886E0F50111926B
:1041C0008A95E9F783CF43130FC092130DC0E11016
:1041D0000BC0F8018583C8010E94381886E0F501FC
:1041E00011928A95E9F748CF2D873E878D859E8568
:1041F0000E94790C8823B9F2EE20A9F2809157022F
:10420000803220F220915202309153023A83298366
:104210001B82DD82CC828E83CE010196B5CFE83C35
:10422000F105E0F6FE2CEE2009F4BDCF43131FC0CC
:1042300092131DC08091570280FD10C0982F907F6F
:1042400069F0F8018583903F31F0982F907F905F5F
:104250008F70892B8583C8010E94381886E0F80189
:10426000A2E5B2E001900D928A95E1F705CF2D8786
:104270003E878D859E850E94790C811187CF809124
:104280005702816080935702C8010E943818F4CE0B
:10429000EE2009F488CF2D873E878D859E850E946C
:1042A000790CF82E882309F47ECF86E0F801A2E588
:1042B000B2E001900D928A95E1F7809152029091BF
:1042C00053020E946F0C0E94871FD6CE81E08E257C
:1042D000EDCECF93DF93CDB7DEB767970FB6F894E7
:1042E000DEBF0FBECDBF342F4B8B252F5C8B6D8B6C
:1042F0007E8B8F8B8E899F896111109295021A8A0D
:10430000198A3D872E876F87998B888B86E0FE01FF
:104310003D96DE01179601900D928A95E1F7CE0148
:1043200007960E94E21F811112C086E0FE013796B7
:10433000DE01119601900D928A95E1F78A859B85A1
:10434000892B29F08F81988589238F3FB1F5809142
:1043500089029091580289131CC067960FB6F89491
:10436000DEBF0FBECDBFDF91CF91089566E070E054
:104370000E94CE2ADC01A75ABD4F96E0FE0131967D
:1043800001900D929A95E1F7209358020E949305AF
:10439000DECF90E066E070E00E94CE2A875A9D4F03
:1043A0000E94E21F8823C9F28091890290E0019661
:1043B0008770992780938902CACF8091580290E034
:1043C0009C012F5F3F4F277033274091890242178E
:1043D000130661F60E94C4121092580210928902CC
:1043E00086E0E2E5F2E0DF011D928A95E9F7AFCFC2
:1043F0009F92AF92BF92CF92DF92EF92FF920F9374
:104400001F93CF93DF9300D000D000D0CDB7DEB79D
:104410008E010F5F1F4F86E0F80111928A95E9F730
:1044200089E8C82E81E0D82EF12CE12CAA24A3948F
:10443000B12CF60181916F018F3F09F449C0F894C6
:10444000E82FE295EF70F0E021A18F70A50102C086
:10445000440F551F8A95E2F7CA01922F982B91A31A
:1044600092A18095892382A3789400C0EFE8F1E0BF
:1044700030E020E0912C41914F3F09F473C0A42F0C
:10448000A295AF70B0E090968C9190E04F7002C012
:10449000959587954A95E2F780FD64C08A2D022E96
:1044A00001C0880F0A94EAF7982A2F5F3F4F243003
:1044B000310509F7F601319780818F3F11F00E9495
:1044C0000C0A50EA5A95F1F7F801EE0DFF1D9082A3
:1044D0008FEFE81AF80AE6E0EE16F10409F0A9CF2A
:1044E00046E050E0B80182EA92E00E948B2BFF2464
:1044F000F394009709F4F12C892BB1F186E0F801CF
:10450000A2EAB2E001900D928A95E1F781E08093F2
:10451000C6010E9480049093C5018093C4018091DC
:10452000C4019091C5010E947104059708F1809122
:10453000A2028093D0028091A3028093D102809145
:10454000A4028093D2028091A5028093D30280912D
:10455000A6028093D4028091A7028093D502109284
:10456000C60106C080E0A0CF8091C6018111D7CFDF
:104570008F2D26960FB6F894DEBF0FBECDBFDF910C
:10458000CF911F910F91FF90EF90DF90CF90BF9050
:10459000AF909F9008951F920F920FB60F92112423
:1045A0002F933F934F935F936F937F938F939F933B
:1045B000AF93BF93CF93DF93EF93FF93D091E90035
:1045C000DF708091EC00C82FC17080FDC0E81092B0
:1045D000E9008091F000877F8093F00078940E943A
:1045E000D9121092E9008091F00088608093F00069
:1045F000CD2BCF70C093E900FF91EF91DF91CF9168
:10460000BF91AF919F918F917F916F915F914F91EA
:104610003F912F910F900FBE0F901F9018951F92F2
:104620000F920FB60F9211242F933F934F935F93E6
:104630006F937F938F939F93AF93BF93EF93FF936A
:104640008091E10082FF09C08091E20082FF05C0F5
:104650008091E1008B7F8093E1008091E10080FFF9
:1046600017C08091E20080FF13C08091E2008E7F2E
:104670008093E2008091E20080618093E20080916B
:10468000D80080628093D80019BC85E08093FE0238
:104690008091E10084FF29C08091E20084FF25C061
:1046A00084E089BD86E089BD89B5982F917080FF2F
:1046B000FBCF8091D8008F7D8093D8008091E1005E
:1046C0008F7E8093E1008091E2008F7E8093E200F4
:1046D0008091E20081608093E2008091FF02882354
:1046E00009F43FC084E08093FE028091E10083FFE3
:1046F00027C08091E20083FF23C08091E100877F83
:104700008093E10082E08093FE021092FF0280918C
:10471000E1008E7F8093E1008091E2008E7F8093A4
:10472000E2008091E20080618093E20042E060E07C
:1047300080E00E94DD038091F00088608093F000AB
:10474000FF91EF91BF91AF919F918F917F916F9169
:104750005F914F913F912F910F900FBE0F901F903F
:1047600018958091E30087FD93E09093FE02BDCF02
:10477000CDB7DEB7AA970FB6F894DEBF0FBECDBF98
:1047800084B7877F84BF0FB6F894A89580916000A6
:10479000886180936000109260000FBE80E890E016
:1047A0000FB6F89480936100909361000FBE8CE681
:1047B00094E09093A3018093A2011092E2001092E2
:1047C000E1008091E00081608093E0008091D8005A
:1047D0008F778093D80019BC8091630081608093AB
:1047E000630010929C02809163008E7F809363002F
:1047F00081E080939C021092E2001092E10080918F
:10480000D8008F778093D8008091D80080688093FB
:10481000D8008091D8008F7D8093D80084E089BD36
:1048200086E089BD89B5282F2170F22E80FFFACF4E
:104830001092FE021092FF021092FD021092FC02F2
:1048400042E060E080E00E94DD038091E1008E7F25
:104850008093E1008091E20081608093E20080918A
:10486000E20088608093E2008091E0008E7F809378
:10487000E0008091E20084608093E200789480916F
:10488000FE028823A1F01091E9001F709091EC00C6
:10489000892F817090FD80E8182B1092E90080919B
:1048A000E80083FD0E94D9121F701093E90082E096
:1048B00084BD93E095BD9AEF97BD80936E0009E8A3
:1048C00011E05FE8C52E51E0D52EF80181918F01EE
:1048D0008F3F11F00E940C0AC016D106B1F784E692
:1048E0000E940C0A85E60E940C0A83E30E940C0ACF
:1048F00082E30E940C0AE2EAF2E0A0EDB2E011923B
:104900001D9222E0E83AF207D1F790E080E00E94A1
:10491000A62B8A3E9E4F11F00E94201182E090E06B
:104920000E94982B8093C1020E946C0A90939E0271
:1049300080939D020E94F8218FE39CE90197F1F793
:1049400000C000000E94F8218091D00280FF17C0B3
:104950006FEF83E290E00E94AC2B6FEF84E290E077
:104960000E94AC2B6FEF85E290E00E94AC2B6FEFC2
:104970007FEF90E080E00E94CA2B0E94DC0D83E074
:1049800090E00E94982B0E948B07249A2C9A279AD9
:104990002F988AE08093800089E1809381008FEFD7
:1049A0009FEF90938700809386000E9485118091ED
:1049B000C80281FF0BC01092A1021092A0021092B7
:1049C0009F0280916F00816080936F0083E290E08E
:1049D0000E94982B813209F004C584E290E00E9485
:1049E000982B873009F0FDC485E290E00E94982B57
:1049F000843209F0F6C40E9485118091A8028111C9
:104A000036C090E080E00E94A62B8A3E9E4F21F0A7
:104A10000E9420110E94B51288E090E00E94A02B15
:104A20006093CB027093CC028093CD029093CE0220
:104A30006E7F71F40E94B51288E090E00E94A02B76
:104A40006093CB027093CC028093CD029093CE0200
:104A50000E9469061092CA028091CB0280FF04C0B6
:104A600060E086950E94DC1781E08093A80288E1CF
:104A700091E09093AA028093A90228E1C22ED12C42
:104A800030E4732E80ED92E046E0E42EE80E809153
:104A9000FE02BB24B39404E016E0853009F49AC109
:104AA0000E94F821882359F08FB7F8944091D602DC
:104AB0005091D7026091D8027091D9028FBFE2EC79
:104AC000F2E0A0EDB2E010E000E0302F8D91919186
:104AD000981709F4A3C1292F282790E0BF2C422F53
:104AE0004B2109F496C199A33AA38B2191E009F4D3
:104AF00090E09BA30E9480048160782F9DA38CA3EB
:104B000049A15AA16BA18DA10E946921F801EE5320
:104B1000FD4F8081B826B0828091CA028823D1F1EE
:104B20008091C902E091CB02E695E81BE093B002C8
:104B3000823009F08AC1F0E0EE56FA4FE4910E2F70
:104B400010E09DE4A92E90E1B92E8091B102882356
:104B500061F01092B1020E9480049093AF028093A2
:104B6000AE021092B3021092B2020E948004E09151
:104B7000AE02F091AF028E1B9F0B8F3F9F4750F408
:104B8000E00FF11FF093AF02E093AE028EEA92E0E5
:104B9000F501099586E0EAEBF2E0DE01119601905D
:104BA0000D928A95E1F7A090BC02B090BD021091E1
:104BB000BE020091BF021092BC021092BD02109280
:104BC000BE021092BF028A2D8B2991F08091B8020B
:104BD0009091B9020E947104FC012091B702222336
:104BE00009F49FC1809117018E171F0608F4A8C110
:104BF000812F802B09F44DC08091B5029091B602AF
:104C00000E9471049C019091B402992309F40BC491
:104C10002536310508F43DC09F3F19F09F5F909302
:104C2000B402112351F00E9465086FEF11160CF4C5
:104C30006F2D0E94C52A8093BE02002351F00E946E
:104C400065086FEF10160CF46F2D0E94C52A809333
:104C5000BF028091BE028823E1F02091BF0222238F
:104C6000C1F0082E000C990B65EB70E00E94CE2A73
:104C7000992309F4A8C19093BE02822F220F990BA9
:104C800065EB70E00E94CE2A992309F4A0C19093AD
:104C9000BF028091BC029091BD02892B9091BE020F
:104CA000892B9091BF02892B11F00E94050786E0A5
:104CB000FE013196AAEBB2E001900D928A95E1F7E0
:104CC0000E94DE059091C002891731F00E94DE0536
:104CD0008093C0020E94660A8091FE02843009F02F
:104CE000D6CE83E08093E9008091E80082FFCFCEAA
:104CF0008091E80090E085FF06C00E94630388234E
:104D000009F469C191E08091E8008B778093E80015
:104D1000992309F4BCCEE981E150E33108F0DDC10B
:104D2000F0E0EA55F34D0C94132B8091FE02843091
:104D300009F443C080E00E94250680E00E94660AD4
:104D40001092CA028091AD02811116C0B092AD02DC
:104D50008091CB02982F91709093AC028E7F8093BC
:104D6000CB02FFEF20E782E0F15020408040E1F7E6
:104D700000C000000E94000E1092AB020FB6F89423
:104D8000A895C09260000FBE7092600083B7817FCB
:104D9000846083BF83B7816083BF7894889583B72D
:104DA0008E7F83BF0FB6F894A895809160008861CC
:104DB00080936000109260000FBE8091FD028823F6
:104DC00049F00E94F821E0EDF2E081918111F3C2F7
:104DD000EE12FBCF8091FE02853009F4A6CF0E942F
:104DE000C4120E9485110E94DE050E94660A10927C
:104DF000AD028091AC02882349F08091CB028160A2
:104E00008093CB0260E086950E94DC170E94C61753
:104E100047CE9F5FBB0C943009F061CE0F5F1F4FF0
:104E20000630110509F051CE8FEF8EA38FA318A67F
:104E30000E9480048160782F9AA789A74EA15FA164
:104E400068A58AA50E94692167CE863059F4F0E0F2
:104E5000E157FA4FE4910E2F10E081E6A82E80E191
:104E6000B82E73CE893061F4E695F0E0E457FA4F3E
:104E7000E4910E2F10E0B5E3AB2EBEE0BB2E65CE65
:104E80008F3061F4E695F0E0E757FA4FE4910E2F8A
:104E900010E0AFE5AA2EAEE0BA2E57CE853159F418
:104EA000F0E0EA57FA4FE4910E2F10E0F3ECAF2E4A
:104EB000FEE0BF2E4ACE08E210E061E1A62E6FE0D0
:104EC000B62E883109F441CE833249F4E4E8F5E0A6
:104ED00005911491E4EFAE2EEFE0BE2E36CE04EF36
:104EE00011E05AEAA52E5FE0B52E843209F42DCEEA
:104EF00000ED17E04BE6A42E44E0B42E853209F015
:104F000024CE8E2F63E00E94DF2AE92FF0E0EF57D6
:104F1000FA4FE4910E2F10E071E7A72E70E1B72E43
:104F200014CE8091160190E06AE070E00E94CE2AD3
:104F30008E179F0708F05CCE2F5F2093B70202C048
:104F40002F3FD1F7AA2051F00E94A0086FEF1A144A
:104F50000CF46F2D0E94C52A8093BC02BB2051F037
:104F60000E94A0086FEF1B140CF46F2D0E94C52A3D
:104F70008093BD028091BC02882309F439CE209130
:104F8000BD02222309F434CE082E000C990B65EBE8
:104F900070E00E94CE2A992371F09093BC02822F78
:104FA000220F990B65EB70E00E94CE2A992339F00D
:104FB0009093BD021DCE81E08093BC02F0CF81E0D2
:104FC0008093BD0215CE81E08093BE0256CE81E073
:104FD0008093BF025ECE00E210E0CE0101965C013C
:104FE0008091E80085FD0AC08091E8008B7780936E
:104FF000E8000E946303882399F384CE8091F10036
:10500000F50181935F010150110951F77BCE1A829E
:1050100089E08B832DC08A81823009F4FBC1833003
:10502000A9F0813009F059C02FB7F8946091D602E9
:105030007091D7028091D8029091D9022FBF0E941F
:10504000192B6B837C838D839E8312C08091D00249
:105050008B838091D1028C838091D2028D83809149
:10506000D3028E838091D4028F838091D50288876A
:105070008091FE02843009F00ACD1091E9001F7082
:105080009091EC00892F817090FD80E8182B82E0D0
:105090008093E9008091E80080FF0DC050E040E07F
:1050A00060E270E0CE0101960E9494038091E800D6
:1050B0008E778093E8001F701093E900E8CC8A8116
:1050C000823059F46B817C818D819E810E94192BE5
:1050D00086E290E00E94AC2BCBCF8FEF8983C8CFC4
:1050E0004C816B818A810E947A0A982789279827A8
:1050F0009E838D83BDCFAD80BE80BA24AB24BA24FD
:105100008A8190E060E370E00E94CE2A0B8110E07B
:1051100023E0000F111F2A95E1F7080F191F8C815A
:1051200090E0880F991F080F191F6B2DC8018796F3
:105130000E94AC2B6A2DC8018896CCCF0E949D0C92
:1051400097CF8A81893091F08A30F1F08A81813855
:1051500079F118F5803809F08BCF20E04B81609110
:10516000CD028091CC020E94C01182CF8B8190E051
:1051700065E070E00E94CE2A6FEF70E00E94EB2A9B
:10518000862F0E944E06E2CF8B81811103C00E94C0
:105190001E0DDCCF0E94340DD9CF823859F18338EF
:1051A00009F066CF20E04091CE026C818B81DBCF8D
:1051B00060E08B810E94DC179B818091CB02911172
:1051C00011C08E7F8093CB021092CA02FFEF20E7BE
:1051D00082E0F15020408040E1F700C000000E94D2
:1051E000000E46CF81608093CB0260E086950E94DE
:1051F000DC173ECF8B818093CF023ACF8A818930F2
:1052000059F08A30C9F0813841F1D8F4803809F07A
:105210002FCF8091CE02FDCE8091C80286958695D3
:10522000869590E06FEF70E00E94CE2A65E070E016
:105230000E94EB2A6B831CCF8091C80286958170F7
:10524000E8CE823891F0833809F012CF8091CC02F9
:105250008B838091CD028C830BCF8091CB0280FF1A
:1052600002C08695D6CE80E0D4CE8091CF02D1CE3A
:105270008091C8020E94190D6091CB027091CC02FE
:105280008091CD029091CE020E94AE11F1CE80E1CC
:105290008A83EECE83E08A8389E1BBCE0A811B81BB
:1052A000102701271027FE0131965F018C80CF0166
:1052B000880D911D4C01C80189519F4F8A149B0490
:1052C00009F4D6CE0931E3E01E0750F40E94982B72
:1052D000F50184830F5F1F4FFFEFAF1ABF0AEBCFBB
:1052E000F5011482F7CF0A811B81102701271027AF
:1052F000CE0101964C01AC80A00EB12EB11CC801AC
:1053000089519F4FA016B10609F4B2CE0931E3E0EE
:105310001E0720F4F40164810E94AC2BFFEF8F1A6A
:105320009F0A0F5F1F4FEBCF0E94090DA1CE84E0B3
:10533000AFCF0A811B81102701271027CE010196CC
:105340005C018C80FC01E80DF11D4F01C8018796BE
:105350008A149B0409F48CCE003C110550F40E9481
:10536000982BF50184830F5F1F4FFFEFAF1ABF0A21
:10537000EDCFF5011482F7CF0A811B811027012799
:105380001027CE0101964C01AC80A00EB12EB11CAD
:10539000C8018796A016B10609F46ACE003C110533
:1053A00020F4F40164810E94AC2BFFEF8F1A9F0A56
:1053B0000F5F1F4FEDCF09BD19BD09B400FEFDCF32
:1053C0008091D8008F7D8093D8008091E00082602A
:1053D0008093E0008091E00081FDFCCF0E94C41228
:1053E000F9CC60E086E290E00E94AC2B0E949D0C1C
:1053F0000E94090D61E283E290E00E94AC2B67E01D
:1054000084E290E00E94AC2B64E285E290E00E948E
:10541000AC2BF1CA86E290E00E94982B1B821C8282
:105420001D828E8325CE2D32314008F0F7CB31CC52
:1054300078941F921FB61F9211248F939F93AF935E
:10544000BF938091D6029091D702A091D802B091DB
:10545000D9020196A11DB11D8093D6029093D70267
:10546000A093D802B093D902BF91AF919F918F9131
:105470001F901FBE1F9018951F921FB61F921124D8
:105480008F939F93AF93BF938091AB02811113C011
:105490008091D6029091D702A091D802B091D90202
:1054A0004196A11DB11D8093D6029093D702A0937F
:1054B000D802B093D902BF91AF919F918F911F9065
:1054C0001FBE1F9018951F920F920FB60F921124B6
:1054D0002F933F934F935F936F937F938F939F93FC
:1054E000AF93BF93EF93FF938091A0029091A1029D
:1054F000019668EB75E00E94EB2A9093A1028093DD
:10550000A0026BE070E00E94EB2A6F7780919F020F
:10551000823041F4603451F480916F008E7F80932B
:105520006F0004C0813011F46F37B1F3E62FF0E063
:10553000EF56FC4F849190E061E071E00E94CE2A2A
:1055400065E070E00E94EB2ACB012091C80226950D
:1055500026952695622F70E00E94CE2A0E94EA05C9
:1055600090938D0080938C00FF91EF91BF91AF914C
:105570009F918F917F916F915F914F913F912F916B
:105580000F900FBE0F901F901895002480FD060EFF
:10559000660F11F08695D1F7802D089500245527C8
:1055A00004C0080E591F880F991F009729F076959F
:1055B0006795B8F37105B9F7802D952F0895991B5C
:1055C00079E004C0991F961708F0961B881F7A95FA
:1055D000C9F780950895AA1BBB1B51E107C0AA1FFC
:1055E000BB1FA617B70710F0A61BB70B881F991F84
:1055F0005A95A9F780959095BC01CD01089597FB28
:10560000072E16F4009407D077FD09D00E94EB2AEC
:1056100007FC05D03EF4909581959F4F08957095B5
:1056200061957F4F0895EE0FFF1F0590F491E02DD7
:105630000994692796276927782787277827089567
:105640008F929F92AF92BF92CF92DF92EF92FF9292
:10565000CF93DF93EC01688179818A819B81611509
:1056600071058105910521F464E279ED8BE597E000
:105670002DE133EF41E050E00E94F92B49015A013E
:1056800027EA31E440E050E00E94E02B6B017C010E
:105690002CEE34EF4FEF5FEFC501B4010E94E02B19
:1056A000DC01CB018C0D9D1DAE1DBF1DB7FF03C0DE
:1056B0000197A109B04888839983AA83BB839F7708
:1056C000DF91CF91FF90EF90DF90CF90BF90AF90A0
:1056D0009F908F9008950E94202B089580E091E084
:1056E0000E94202B0895B0E0A0E0809300019093E9
:1056F0000101A0930201B09303010895FC01415000
:10570000504030F001900616D1F73197CF0108953F
:10571000882799270895FB01DC0104C08D91019031
:10572000801921F441505040C8F7881B990B089507
:10573000F999FECF92BD81BDF89A992780B5089559
:10574000A6E1B0E044E050E00C94D22BA8E1B0E038
:1057500042E050E00C94D22B262FF999FECF92BD57
:1057600081BDF89A019700B4021639F01FBA20BD26
:105770000FB6F894FA9AF99A0FBE08950396272F58
:105780000E94AD2B0E94AC2B252F0E94AD2B242F05
:105790000C94AD2B0196272F0E94AD2B0C94AC2BB3
:1057A000DC01CB01FC01F999FECF06C0F2BDE1BDE1
:1057B000F89A319600B40D9241505040B8F70895D0
:1057C000EE27FF27AA27BB2708C0A20FB31FE41F9D
:1057D000F51F220F331F441F551F96958795779508
:1057E000679598F37040A9F7009799F7BD01CF012D
:1057F0000895052E97FB1EF400940E94102C57FD6F
:1058000007D00E94182C07FC03D04EF40C94102CE7
:1058100050954095309521953F4F4F4F5F4F0895DC
:1058200090958095709561957F4F8F4F9F4F08950C
:10583000A1E21A2EAA1BBB1BFD010DC0AA1FBB1F94
:10584000EE1FFF1FA217B307E407F50720F0A21B06
:10585000B30BE40BF50B661F771F881F991F1A9473
:1058600069F760957095809590959B01AC01BD019D
:10587000CF010895F894FFCF880C880C910C910CFF
:10588000930C910C910C910C880C880C980C910C39
:10589000910C980CBC13E4133714E4133714171449
:1058A0004F1437144B155815B415AB15C115A91560
:1058B0000E160E16A9150E160E16DD150E16E81587
:1058C000F3150E160E160E160E16A9150E160E163A
:1058D000A9150E16CF150E160E160C160C160C1654
:1058E0000C160C160C160C160C160C16FE150E16B5
:1058F000B415A7150E160E160E160E160E160E164B
:105900000E160E160E160E16FE150E160E16A915EE
:105910000E160416041604160416041604160416AD
:1059200004160416FE1597199F19A119BD19D1194E
:10593000E919001ABA1BBA1B2E1C2E1C8C1CA61CA3
:10594000F11BF11BB11C1E1D2F1D2F1D07280B283D
:105950005F2870287B289E28A128FE2838296D28DA
:105960006D2847294A294E2973299429972999296D
:02597000BC2950
:105972000100000001191A1B1C1D1E1F20212201FB
:1059820002012808140A1E326E049C0D7B0D770D4D
:10599200730D010001020202020606060909090945
:1059A20009090F0F0F0F0F0F1515151819191919CE
:1059B2001919191919192324252525252525010227
:1059C2000304050607080900818283E200E900EA70
:1059D20000B500B600B700CD008301CC008A019269
:1059E2000194012102230224022502260227022A0F
:1059F20002B300B4006F0070009391926667366440
:105A02006533324022B64C012A017400A805C10553
:025A1200E105AC
:00000001FF
