:100000000C9418030C945F030C945F030C945F032F
:100010000C945F030C945F030C945F030C945F03D8
:100020000C945F030C945F030C945F030C94912277
:100030000C944D220C9460230C945F030C945F038A
:100040000C945F030C945F030C9487230C943C2363
:100050000C945F030C945F030C945F030C945F0398
:100060000C945F030C945F030C945F030C945F0388
:100070000C945F0305010902A10185020901A10099
:100080000509190129081500250195087501810246
:100090000501093009311581257F95027508810612
:1000A00009381581257F950175088106050C0A38E8
:1000B000021581257F950175088106C0C0050109DB
:1000C00080A101850319012AB700150126B7009503
:1000D0000175108100C0050C0901A10185041901F9
:1000E0002AA002150126A002950175108100C00505
:1000F000010906A1018506050719E029E715002574
:10010000019508750181020507190029EF150025E1
:100110000195F075018102050819012905950575FC
:10012000019102950175039101C00660FF0961A16B
:10013000010962150026FF009520750881020963F8
:10014000150026FF00952075089102C005010906DB
:10015000A101050719E029E715002501950875019A
:1001600081029501750881010507190029FF150015
:1001700026FF0095067508810005081901290595D7
:100180000575019102950175039101C00000000001
:10019000000000000000000000000000000000005F
:1001A000000000000000000000000000000000004F
:1001B0007E0F00D4FFFFFFC70000007800000000A2
:1001C000000000002A2B28000000000000000000B2
:1001D0000000000000000029000000002C1E342058
:1001E000212224342627252E362D3738271E1F207E
:1001F0002122232425263333362E37381F040506C3
:100200000708090A0B0C0D0E0F1011121314151606
:100210001718191A1B1C1D2F3130232D3504050604
:100220000708090A0B0C0D0E0F10111213141516E6
:100230001718191A1B1C1D2F3130354C00047F3F35
:100240001F643214643214783C1E1E140A05000127
:100250000101010101010101020202020202020286
:100260000203030303030303030404040404040458
:10027000050505050506060606060707070707081C
:10028000080808090909090A0A0A0B0B0B0C0C0CCF
:100290000D0D0D0E0E0E0F0F0F1010111111121269
:1002A00013131414151516161717181819191A1AE6
:1002B0001B1B1C1D1D1E1E1F202021222223242447
:1002C000252626272829292A2B2C2D2D2E2F303183
:1002D0003232333435363738393A3B3C3D3E3F4095
:1002E0004142434445464748494A4C4D4E4F505180
:1002F0005354555658595A5B5D5E5F61626465663A
:1003000068696B6C6D6F7072737577787A7B7D7EC0
:100310008082838587888A8C8E8F91939596989A10
:100320009C9EA0A2A3A5A7A9ABADAFB1B3B5B7BA28
:10033000BCBEC0C2C4C6C9CBCDCFD1D4D6D8DBDDFC
:10034000DFE2E4E7E9EBEEF0F3F5F8FAFDFFFFAAF0
:100350007F55402223252628292A2C2D2F30323361
:100360003536383A3B3D3E4042434547494A4C4E7C
:100370005051535557595A5C5E6062646668696BA8
:100380006D6F71737577797B7D7F81838587898AAE
:100390008C8E90929496989A9C9E9FA1A3A5A7A8B4
:1003A000AAACAEAFB1B3B4B6B8B9BBBCBEBFC1C2E4
:1003B000C3C5C6C7C9CACBCCCDCED0D1D2D2D3D477
:1003C000D5D6D7D7D8D9D9DADADBDBDBDCDCDCDC95
:1003D000DCDDDDDDDDDCDCDCDCDCDBDBDBDADAD963
:1003E000D9D8D7D7D6D5D4D3D2D2D1D0CECDCCCBE5
:1003F000CAC9C7C6C5C3C2C1BFBEBCBBB9B8B6B403
:10040000B3B1AFAEACAAA8A7A5A3A19F9E9C9A9892
:10041000969492908E8C8A89878583817F7D7B7963
:10042000777573716F6D6B6968666462605E5C5A44
:100430005957555351504E4C4A4947454342403E07
:100440003D3B3A3836353332302F2D2C2A29282699
:100450002523220000000000000000000000010130
:100460000203040506080A0C0F1114181C20242985
:100470002E33393F464C535B626A7179818A929A76
:10048000A2AAB2B9C1C8CFD5DCE1E7EBF0F4F7FA24
:10049000FCFDFEFFFEFDFCFAF7F4F0EBE7E1DCD536
:1004A000CFC8C1B9B2AAA29A928A8179716A625BF5
:1004B000534C463F39332E2924201C1814110F0C9D
:1004C0000A08060504030201010000000000000004
:1004D0000000002900B20001582A005300540055C2
:1004E0000056005F006000610057005C005D005E28
:1004F00000570059005A005B005800620062006318
:1005000000580001000253035310504300440045BB
:100510000046004000410042002B003D003E003FED
:10052000002B003A003B003C0058007C007C007D22
:1005300000580001001150035310507100720073F5
:1005400000E7006E006F00700069006B006C006DCA
:10055000006900680069006A006800A800A800A897
:10056000006800005C1150125010500100010001A1
:10057000000100FA00F000F9000100F200F400F3BD
:10058000000100FB00F100FC00100301000100016C
:1005900000100309025B00030100A0FA0904000037
:1005A000010301010009211101000122400007059A
:1005B000810308000A090401000203000000092168
:1005C0001101000122220007058203200001070516
:1005D00003032000010904020001030000000921B7
:1005E0001101000122B6000705840320000A120150
:1005F00000020000000803A1060001000102000142
:1006000018034B00420044005000410044002D00FC
:100610004D004B0049004900000010034B00420010
:100620004400660061006E007300000004030904CA
:1006300011241FBECFEFD4E0DEBFCDBF04B603FE52
:1006400027C08091AE029091AF02A091B002B0910C
:10065000B1028730904BA740B04BD1F41092AE025C
:100660001092AF021092B0021092B10214BE84B781
:10067000877F84BF0FB6F894A89580916000886149
:1006800080936000109260000FBEE0E0F8E30995EF
:1006900022E0A2E9B1E001C01D92AE3AB207E1F753
:1006A00011E0A0E0B1E0E4EFF6E502C005900D92A4
:1006B000A239B107D9F70E94F6230C94FB2A0C94B7
:1006C00000002091E4003091E50095E6A901209119
:1006D000EC00822F817020FF06C08091E80080FF2F
:1006E00006C080E008952091E80022FD1AC08091A4
:1006F000A002882389F0853089F08091EB0085FD88
:100700000FC02091E4003091E50042175307F9F241
:100710009150E1F684E0089582E0089583E0089521
:1007200081E00895EF92FF920F931F93CF937C0186
:100730008B010E946103C82F811117C08091E800CE
:1007400085FD0BC08091E8008E778093E8000E94C1
:100750006103882399F3C82F08C0F70181917F01B5
:100760008093F1000150110949F78C2FCF911F910F
:100770000F91FF90EF9008958091A20287FF13C020
:100780008091E80082FF06C08091E8008B7780931B
:10079000E80004C08091A0028111F2CF08958091F9
:1007A000A0028823D9F38091E80080FFF8CF8091E0
:1007B000E8008E77ECCF982F9093E900242F762FC6
:1007C00050E0891731F07091EC002091ED005091CC
:1007D000F00021FD07C09F5F953071F78093E9001D
:1007E00081E008953091EB003E7F3093EB00309133
:1007F000ED003D7F3093ED003091EB0031603093A0
:10080000EB007093EC002093ED005093F0002091EA
:10081000EE0027FDE0CF80E00895FC018091A80262
:100820009091A90286179707A0F06115710529F428
:100830009091E8009E779093E80090E06115710533
:1008400051F4911108C08091E80082FF32C080E02D
:100850000895BC01F2CF8091A0028823B1F18530C8
:10086000B1F18091E80083FD2EC08091E80082FD07
:10087000EACF8091E80080FFE1CF2091F20030E0E4
:100880006115710519F02830310558F091E02830D4
:10089000310509F090E02091E8002E772093E800E0
:1008A000CDCF81918093F100615071092F5F3F4F4F
:1008B000E7CF8091A002882341F0853041F08091FC
:1008C000E80083FFC0CF81E0089582E0089583E0CF
:1008D0000895089580917D0208959C014FB7F89482
:1008E0008091730290917402A0917502B09176028A
:1008F0004FBF821B930B08952FB7F894809173021A
:1009000090917402A0917502B09176022FBF089564
:1009100020917002309171022817390771F090937D
:10092000710280937002E0916E02F0916F02309735
:1009300021F00084F185E02D0994089520916C0246
:1009400030916D022817390771F090936D028093F2
:100950006C02E0916E02F0916F02309721F00680F8
:10096000F781E02D09940895E0916E02F0916F02F5
:10097000309721F00190F081E02D099480E00895F6
:100980008F929F92AF92BF92CF92DF92EF92FF929F
:100990000F931F93CF93DF938C01809186009091EA
:1009A00087006CE070E00E94292A6017710798F0B8
:1009B000C80169E070E00E94292ACB01DF91CF9144
:1009C0001F910F91FF90EF90DF90CF90BF90AF906D
:1009D0009F908F9008958091860090918700E0907D
:1009E0008600F0908700C0908600D0908700C6E017
:1009F000D0E0BE010E94292A30E020E0060F171F38
:100A0000211D311D4801590185E0880C991CAA1C43
:100A1000BB1C8A95D1F7C701BE010E94292AF12C7F
:100A2000E12CA7019601260F371F411D511DC5015D
:100A3000B4010E94D92A69017A01C0918600D0913F
:100A40008700CA01B9010E94C02A9E0150E040E01F
:100A50000E94C02AA70196010E94C02A2FE0969505
:100A60008795779567952A95D1F700918600109123
:100A7000870030E020E0061717072807390708F03D
:100A80009CCF609186007091870097CF282F863089
:100A900008F5811120C090918000977F909380008D
:100AA0002F98609186007091870090E080E030E0A0
:100AB00050E040E00E94C02A25E030E040E050E0F5
:100AC0000E94D92AC9010E94C00490938D0080938E
:100AD0008C00089525E090918000986090938000AC
:100AE000E0CF282F220F220F220F909166029770DD
:100AF000922B90936602987F21E009F420E0909178
:100B0000660220FB90F9909366020C944605FA0168
:100B1000811101C0FB010994089580916102982F11
:100B20009E7F29F4817082608093610208958A34E7
:100B3000E8F381708864F8CFAF92BF92CF92DF92D2
:100B4000EF92FF920F931F93CF93DF938901E42FCE
:100B5000F0E0E25BFD4F611115C09491392FE92F50
:100B6000D8011196EC9311979C9312963C93DF91C8
:100B7000CF911F910F91FF90EF90DF90CF90BF909A
:100B8000AF900895C82FD0E0E62EF12CE4914E2FBF
:100B9000AE2EB12CCE0166E070E00E94182ACC2463
:100BA000CA94D12CB6010E94292ADB01CC0FDD1F8B
:100BB000CB0165E570E00E94182AC81BD90B8C2F69
:100BC000880FC80FC6018E199F09B5010E94182A07
:100BD000392FD0E0CE01B7010E94182A692F70E0AA
:100BE000C601861B970BB5010E94182A292FC60142
:100BF0008C1B9D0BB7010E94182A692F70E0C6015B
:100C0000861B970BB5010E94182A892FA230B105C7
:100C100089F040F4109709F4A3CF119779F0932F3E
:100C2000322F9ECFA430B10561F078F0169709F409
:100C300097CFF5CF9E2FE32F382F92CF9E2FE22F05
:100C40008FCF932F3E2FE82F8BCFE32F342F922F70
:100C500087CF0E947C049C01909122028091230204
:100C6000982B21F030931F0220931E0290912402B2
:100C700080912502982B21F030931D0220931C02B5
:100C8000E0916E02F0916F02309749F082E080931C
:100C900020020480F581E02D80E292E0099408951D
:100CA00040912202803F59F48091230287FF0DC0BA
:100CB0001092230241110BC010921A0208C0813F0A
:100CC00081F48091230218169CF3442381F08091D3
:100CD000240290912502892B09F05AC01092190222
:100CE0000895823F49F447FFF0CF1092220280918D
:100CF00023028111ECCFE0CF833F19F41416ACF33B
:100D0000E4CF90912402893F29F41916F4F6109249
:100D10002402DBCF8A3F19F497FFD7CFF8CF909109
:100D200025028B3F29F497FFD0CF10922502CDCF1B
:100D30008C3F19F41916CCF3C8CF9CE0980F95306E
:100D400090F4845F990B21E030E0B90102C0660F96
:100D5000771F8A95E2F7CB01809590912102892334
:100D600080932102B2CF8D3F31F480911B028E7FA0
:100D700080931B02AACF8E3F21F480911B028D7FAE
:100D8000F7CF8F3F09F0A1CF80911B028B7FF0CF6F
:100D9000089580911B0280FF0CC06091110170E0EA
:100DA00075956795759567956115710559F1862F4C
:100DB000089581FF06C06091110170E075956795F7
:100DC000F3CF6091110170E082FD0CC060911902B7
:100DD0006623A9F0209110018091110190E0621723
:100DE00030F0BC0160387105F8F28FE7089570E0CB
:100DF0000E94182A622F70E00E943D2AF3CF61E022
:100E000070E0D5CF81E0089580911B0280FF11C072
:100E100080910F0190E065E070E00E94182A95959E
:100E200087959595879580389105B0F50097B1F134
:100E3000089581FF0AC080910F0190E065E070E0A5
:100E40000E94182A95958795EECF82FF08C0809161
:100E50000F0190E065E070E00E94182AE4CF8091D5
:100E60001A028823B1F020910E0160910F0170E009
:100E7000821710F0CB01EECF90E00E94182A65E0B7
:100E800070E00E94182A622F70E00E943D2ACB0178
:100E9000CACF85E090E008958FE7089581E0089536
:100EA000803F31F40E9404078195809323020895C6
:100EB000813F19F40E940407F8CF823F31F40E9469
:100EC00004078195809322020895833F19F40E94BC
:100ED0000407F8CF893F29F40E94C90680932402B1
:100EE00008958A3F21F40E94C9068195F7CF8B3F70
:100EF00031F40E94C90681958093250208958C3FA4
:100F000019F40E94C906F8CF9CE0980F953070F450
:100F1000845F990B21E030E001C0220F8A95EAF747
:100F200080912102822B8093210208958D3F31F41C
:100F300080911B02816080931B0208958E3F21F4F3
:100F400080911B028260F7CF8F3FB9F780911B021F
:100F50008460F1CF80E00895F894E82FE295EF7077
:100F6000F0E031A1282F2F7081E090E001C0880FC0
:100F70002A95EAF7982F9095932391A392A1892B14
:100F800082A3789408959091770292FF06C0282F4B
:100F900028712830F9F4877F846093FF06C0282FDA
:100FA00028712831F1F4877E84612091780220FF36
:100FB00006C0382F38713830D9F4877F816021FF1F
:100FC00006C0282F28712831D1F4877E816194FDD5
:100FD000877E0895282F24712430F9F68B7F88604E
:100FE000DCCF282F2471243101F78B7E8861DDCF7F
:100FF000382F3171313019F78E7F8860E0CF282F7C
:101000002171213121F78E7E8861E1CFCF93DF936B
:10101000EC0182389105A9F1D8F58133910509F4E5
:1010200096C048F58932910509F48AC08A9709F477
:1010300095C0C11521E5D20708F0BCC0C11530E547
:10104000D30708F016C1C83ED10508F09CC0C03EC9
:10105000D10560F5C83AD10508F087C0C53AD10579
:1010600008F0FFC0C130D10509F12097F9F0C43074
:10107000D105E0F440C08533910509F45AC0C99701
:10108000C1F680917702837089F0C0EED0E00EC087
:10109000833E910599F170F4803E910501F1823E05
:1010A000910539F68091770282FD21C0CE01DF9152
:1010B000CF910895863E910561F1873E910571F1CA
:1010C000843E910509F0B5CF8091780281FFEECF83
:1010D00080917702C7EED0E084FD0DC0E7CF80910C
:1010E000770280FD18C19091780290FFDFCFC3EEA8
:1010F000D0E084FFDBCFD0E0C0E0D8CF8091770292
:1011000082FD0CC19091780290FDBFCF84FFCECFBD
:10111000F2CF8091770283FDDDCFC8CF8091770237
:1011200083FDFFC09091780291FFF0CFC4EED0E034
:10113000BDCF8091770285FFB9CFC9E2D0E0B6CFAD
:101140008091770285FFB2CFC5E3D0E0AFCF809129
:10115000770286FFABCFCAE2D0E0A8CF80917702BA
:1011600086FFA4CFC1E3D0E0A1CFCF3BD10518F6D5
:10117000C85AD0E0CC0FDD1FCB5DDE4F0990D8817F
:10118000C02DD46493CFC11540E2D40758F4C115E3
:1011900081E0D80708F08ACFC03FD10508F4ABCF73
:1011A000D06584CFC11520E4D20708F4A4CFDF7046
:1011B000D06A7CCFC11535E5D30710F5C11544E5DC
:1011C000D40708F090C0C11583E5D80708F075C0B2
:1011D000C11522E5D20708F46BC0CE0183709927B0
:1011E00021E030E002C0220F331F8A95E2F7C69556
:1011F000C695D0E0E5E0CC0FDD1FEA95E1F754C0DD
:10120000C11539E5D307A8F4C11548E5D40708F09E
:101210006FC0C11586E5D80708F06DCF8C2F0E94EE
:10122000C307C82FD0E0DC2FCC27CC27DF71D062DA
:101230003DCFC1152AE5D20708F45FC0CE01905614
:101240008115904208F057CF8D2F8F710E94C307F0
:1012500090E0982F882788279F719C012C2BE9010B
:10126000E6CFC55AD0E0CE5DDE4FC881D0E0D06475
:101270001DCFCE01A4E096958795AA95E1F78370DE
:101280002C2F26952695237030E0B5E0220F331FD2
:10129000BA95E1F7382B8C2F8370C1E0D0E002C003
:1012A000CC0FDD1F8A95E2F7C22BD32BDC68FECE74
:1012B000DC2FCC27C16FD06AF9CECE01837099277D
:1012C00021E030E002C0220F331F8A95E2F7C69575
:1012D000C695D0E075E0CC0FDD1F7A95E1F7C22B03
:1012E000D32BDA68E3CEDC2FCC27C46FD06ADECEF6
:1012F000DC2FCC27C06FD06AD9CE8C2F8F700E9484
:10130000C30734E0D695C7953A95E1F7CF709C2F87
:10131000EC01D069CBCEC9E3D0E0C8CEC2EED0E0BC
:10132000C5CEC6EED0E0C2CE8091FD0181111092F3
:10133000FD01089580959091FC0198239093FC0104
:1013400008958091FC019091FB01892B9091FA0105
:10135000892B809394019091FD019923A1F0892B11
:101360008093940180912101882341F1809177023B
:1013700087FF24C08EE1E6E9F1E090E0815000F5BE
:1013800091110E949409E0916E02F0916F023097E2
:10139000E1F080912101882359F08091770287FF45
:1013A00007C0809194018093950186E08093940119
:1013B0000280F381E02D84E991E0099486E0DBCF9F
:1013C00021912223D9F29F5FD9CF089590912101D5
:1013D0009923D1F09091770297FF16C0E82FE695F8
:1013E000E695E695EE31E0F4F0E0EC56FE4F282F5E
:1013F000277081E090E001C0880F2A95EAF7809578
:101400009281892382830895E6E9F1E0919189131D
:1014100003C0DF0111971C9291E0EC39F907B1F795
:101420000895909121019923C1F09091770297FF3F
:1014300014C0E82FE695E695E695EE31F8F4F0E075
:10144000EC56FE4F877021E030E001C0220F8A95F4
:10145000EAF78281822B82830895A6E9B1E0EFEF5B
:1014600090E02D91821751F0EF3F19F4211101C046
:10147000E92F9F5F9630A9F7EF3F09F408950E2EEC
:10148000000CFF0BEC56FE4FE6CF8091F8019091D7
:10149000C701981301C008958F5F8770FACF990F25
:1014A000990F890FA82FA77086958695869590E04D
:1014B00063E070E00E94182AFC01E854FE4F50E0FF
:1014C00040E080E0219130E00A2E02C03695279559
:1014D0000A94E2F721703327042E01C0220F0A94E8
:1014E000EAF7822B4F5F5F4F4330510559F708955C
:1014F000CF93DF93262F990F990F890F982F97700D
:10150000E1E001C0EE0F9A95EAF7869586958695FB
:1015100090E063E070E00E94182ADC01A854BE4FFE
:1015200050E040E0622F70E08D91ED0121979B012A
:10153000042E02C0369527950A94E2F72170219572
:1015400028272E23282728834F5F5F4F43305105DC
:1015500059F7DF91CF91089590E080E00E949E04BA
:1015600090E080E00E9488041092FB011092FA0142
:101570000E94A10986E0E0E2F2E0DF011D928A9577
:10158000E9F710921A021092190210921B020C94A1
:1015900029068093AD020C94AC0A8091AD02982F7D
:1015A0009670963019F488600C94C90A877FFCCF36
:1015B00021E030E001C0220F8A95EAF72095809162
:1015C000AD0282230C94C90A9091F9018095892378
:1015D0008093F901282F277091F4282F082E000CF2
:1015E000330B9217130659F09091780292FD07C0C1
:1015F0008595859585950E94D80A1092F9010895E0
:1016000021E030E001C0220F8A95EAF78091AD0217
:10161000822B0C94C90A8093FE010C94AC0A882397
:1016200021F00E949A090C94A1090895882339F0A9
:101630009091FC01982B9093FC010C94A1090895C2
:10164000882309F452C0823871F40E94B40481FFE7
:101650004CC089E30E94110A0E94A10989E30E94FB
:10166000E6090C94A109833859F40E94B40480FF60
:101670003CC083E50E94110A0E94A10983E5EFCFD7
:10168000843859F40E94B40482FF2FC087E40E947A
:10169000110A0E94A10987E4E2CF9CEF980F913ACA
:1016A000F0F290E2980F983050F4877091E001C00A
:1016B000990F8A95EAF7892F0E949A09D2CF9BE564
:1016C000980F933020F490E080E00C949E0498E50D
:1016D000980F973120F490E080E00C948804803FCC
:1016E00020F00E9450060C942906089580FD02C047
:1016F0002C9A08952C9808958093790270937B0218
:1017000060937A028091A0028430F9F48093E9001A
:101710008FEF9091E800815095FD06C095ED9A9568
:10172000F1F700008111F5CF8091E80085FF0DC031
:1017300050E040E063E070E089E792E00E949203AD
:101740008091E8008E778093E8000895BC0184E0E2
:101750000C947C0BBC0183E00C947C0B9C0184E01A
:101760008093E9009FEF8091E800915085FD06C0CD
:1017700085ED8A95F1F700009111F5CF8091E80091
:1017800085FF0CC050E040E066E070E0C9010E94B7
:1017900092038091E8008E778093E8000895CF93BC
:1017A000DF93EC01809121018823B1F180917702D0
:1017B00087FF32C060E284E08093E9008FEF909170
:1017C000E800815095FD06C095ED9A95F1F700006F
:1017D0008111F5CF8091E80085FF1BC08091210128
:1017E00070E050E040E0811104C050E040E068E06B
:1017F00070E0CE010E9492038091E8008E77809382
:10180000E80080E2FE01AEE7B2E001900D928A9519
:10181000E1F7DF91CF91089568E081E0CDCF81E0DD
:101820008093E00080E28093D8001092C9008FE19D
:101830009EE40197F1F700C0000087E090EBDC0127
:101840008093AE029093AF02A093B002B093B10226
:1018500088E19CE00FB6F894A895809360000FBED5
:1018600090936000FFCF8091610280FD0AC0E1E3A8
:10187000F2E0118210821282339652E0E136F507CF
:10188000C1F7259A35B13F7D25B120624FB7F89455
:1018900081E392E0FC015191CF0168E025B900009D
:1018A00000C057FF35B9550F000000C000C000C090
:1018B00035B900C06A9591F7F2E081369F0751F77C
:1018C0004FBF8FE594E00197F1F700C00000089545
:1018D000EF92FF920F931F93CF93DF938C01C1E39D
:1018E000D2E0F12CE12CF8019481609163028091A7
:1018F0006202F8E0EF16F104FCF49923F9F09E017E
:10190000409164020E949C052FEFE21AF20A23968E
:1019100080E1E816F10439F70E94330CF801848164
:1019200090E00196817099278483DF91CF911F9178
:101930000F91FF90EF900895992309F39E0140E0E5
:10194000E1CF4F925F926F927F928F929F92AF9270
:10195000BF92CF92DF92EF92FF920F931F93CF939C
:10196000DF938C01FC01C481CC2ED12CF12CE12C15
:10197000A7019601C701B6010E94C02AA7019601DE
:101980000E94C02A2B013C0140E2C42ED12CCC1A6B
:10199000D1080D2C000CEE08FF0825E530E040E0F2
:1019A00050E00E94C02A4B015C01A7019601C701CB
:1019B000B6010E94C02AA70196010E94C02A9B017D
:1019C000AC01240D351D461D571DC501B4010E94F3
:1019D000D92AD22E822F90E0F9E2F21708F443C000
:1019E00063E070E00E94182A97FD0196959587950F
:1019F000C82FC09531E3E32E32E0F32ED0E085E529
:101A0000C82ECD188C2DD1FD8D2D97014C2F6091B6
:101A100063020E949C05DF5F53E0E50EF11CD031AC
:101A200089F70E94330CF801948181E0992319F021
:101A3000903219F48FEF80931F0180911F01890F5D
:101A4000F8018483DF91CF911F910F91FF90EF9068
:101A5000DF90CF90BF90AF909F908F907F906F90CE
:101A60005F904F90089525E530E0A901481B590B80
:101A7000CA01B6CF0F931F93CF93DF93C1E3D2E098
:101A8000FE01118210821282339682E0E136F8075D
:101A9000C1F710E000E080912F02082E000C990B96
:101AA000081719078CF180911E01082E000C990B64
:101AB000801791074CF19E0140916402609163028E
:101AC000809162020E949C050F5F1F4F2396003198
:101AD000110509F70E94330C80911D0190912F028E
:101AE000980F90932F0220911E01280F20931E0122
:101AF000121614F49F301CF0819580931D01DF9124
:101B0000CF911F910F910895198218821A82DCCF0C
:101B1000CF92DF92EF92FF920F931F93CF93DF93B9
:101B2000FC018281DD24DA9480FD02C0DD24D3949F
:101B3000C1E3D2E010E000E0198218821A8234E09A
:101B4000E32EF12CC12C80912E028C0D8131CCF131
:101B50008F70082E000C990B8017910791F48091DB
:101B6000640290E0B7010E94182A95958795959593
:101B700087959E01482F60916302809162020E94C6
:101B80009C05CD0CF1E0EF1AF108E9F60F5F1F4F4D
:101B900023960031110581F60E94330C80912E02AC
:101BA00091E0D91214C0811110C08FE080932E02F1
:101BB000DF91CF911F910F91FF90EF90DF90CF9029
:101BC000089587FFC6CF805FC4CF8150EFCF90E0EC
:101BD00001968F709927EACFEF92FF921F93CF93D0
:101BE000DF93EC0181E3E82E82E0F82E10E08C8197
:101BF00097014091640260916302810F0E949C05ED
:101C0000115F83E0E80EF11C103F89F70E94330C4E
:101C10009A818C8190FF08C08F5F8C83DF91CF9178
:101C20001F91FF90EF9008958150F7CF909161023E
:101C300090FF0CC0E1E3F2E081836083428333963E
:101C400092E0E136F907C1F70C94330C08950F9335
:101C50001F93CF93DF9300D00F92CDB7DEB78C01E7
:101C60008091300281110AC09E012F5F3F4F4FEFDC
:101C70006FEF0E949C058A8180933002F801648195
:101C8000613069F08091300240E0662361F040E00D
:101C9000623011F44091300280E060E004C0609155
:101CA000300240E080E00E94160EF801848190E04E
:101CB000019663E070E00E943D2A84830F900F90AC
:101CC0000F90DF91CF911F910F910895CF93DF93E4
:101CD00000D00F92CDB7DEB79091610290FF0AC09D
:101CE0009E012F5F3F4F0E949C054B8169818A8135
:101CF0000E94160E0F900F900F90DF91CF910895D4
:101D0000CF93DF93EC01E1E6F2E0438162818C81C5
:101D10000E94660E8C818F5F8C83DF91CF91089536
:101D2000CF93DF93EC01EC81F0E0ED5AFC4F44914E
:101D3000E1E6F2E0628181810E94660E8C818F5F14
:101D40008C83DF91CF910895CF93DF93C7EED0E0DE
:101D500060E0CE010E948C2A2196C11584E0D8074C
:101D6000B9F7DF91CF9108956F927F928F929F92F2
:101D7000AF92BF92CF92DF92EF92FF920F931F9399
:101D8000CF93DF9383EDC82E84E0D82E0FE510E0CB
:101D9000E801E09736011CC0F50185909490692D0B
:101DA000C7010E948C2A682DC70101960E948C2AC7
:101DB00082E0A80EB11C82E0E80EF11CCE15DF0512
:101DC00059F788E0680E711C28960C171D0731F032
:101DD0007E0188E0E81AF1085301DECF005D1F4F55
:101DE00080E3C80ED11C0F3181E0180789F6DF911E
:101DF000CF911F910F91FF90EF90DF90CF90BF9008
:101E0000AF909F908F907F906F900895CF93C82F41
:101E10006FEF811161E283E290E00E948C2A6FEF04
:101E2000C11162E184E290E00E948C2A6FEFC1113F
:101E300061E185E290E0CF910C948C2A80E00E94D1
:101E4000060F60E086E290E00E948C2A0E94B40EA9
:101E50000E94A40E81E00C94060F682F86E090E0AB
:101E60000C948C2A8091660281FF11C08D7F809333
:101E700066020E942D0F80916F008E7F80936F000D
:101E8000809166028695869586950C944605089500
:101E90008091660281FD10C08260809366020E947C
:101EA0002D0F1092690210926802109267028091C1
:101EB0006F00816080936F000895CF93C091780286
:101EC000C2FB992790F9981799F080FBC2F9C0934B
:101ED00078026091770284E090E00E948C2A6C2F57
:101EE00082E290E00E948C2A82E0CF910C94E40A76
:101EF000CF9108950F931F93CF93DF93C62FD0E018
:101F000093E0CC0FDD1F9A95E1F750E0440F551F89
:101F1000C40FD51F90E060E370E00E94182AC80F3C
:101F2000D91FCE0187960E94782A082F10E0102F23
:101F30000027CE0188960E94782A9801282BC90193
:101F4000DF91CF911F910F910895462F843038F47F
:101F5000763028F4643018F4672F0C947A0F90E0F0
:101F600080E00895CF92DF92FF920F931F93CF935B
:101F7000DF936C010091AD028091FE01082BC7E058
:101F8000D0E010E0FC2EC8010C2E02C0959587957C
:101F90000A94E2F780FD0CC02197A0F7F12C8F2D59
:101FA000DF91CF911F910F91FF90DF90CF90089517
:101FB000B6018C2F0E94A50F0E940608019761F3BD
:101FC000EECFCF93DF93EC010E94B20FBE010E94CF
:101FD000A50FDF91CF910C940608FC0180819181BF
:101FE0000E94E10F292F2F7092959F7092509E3082
:101FF00078F4E92FF0E0E350F54D0C94512A803F3E
:1020000019F020F4883E20F481E00895843FE1F344
:1020100080E00895883EC0F3813FD1F7F5CF822F4D
:10202000869586958695089583E290E00E94782AA9
:10203000813289F484E290E00E94782A823159F456
:1020400085E290E00E94782A91E0813109F090E0E9
:10205000892F8170089580E0FCCFCF9384E090E0D9
:102060000E94782AC82F82E290E00E94782A982F56
:102070008C2FCF91089560916102669570E04BE0DE
:1020800050E082E191E00E945E2A892B19F481E000
:1020900080932D020E947C04909327028093260255
:1020A0000895CF92DF92EF92FF926B017C010E9424
:1020B0008D05B701A60188E090E0FF90EF90DF90DA
:1020C000CF900C949E2A7F928F929F92AF92BF9254
:1020D000CF92DF92EF92FF920F931F93CF93DF93F4
:1020E00000D00F92CDB7DEB7182FD62E042FC22EF8
:1020F0009091610290FF29C0E92FE695AE2FB0E0E4
:10210000A35ABE4F8C9180932C029E7F923071F522
:102110009E012F5F3F4F812F0E949C054B8169815B
:102120008A810E94160E10936202D092630200937D
:102130006402CC2051F06091610270916202809142
:102140006302909164020E9451100F900F900F90C3
:10215000DF91CF911F910F91FF90EF90DF90CF9083
:10216000BF90AF909F908F907F900895823019F428
:1021700000916402D8CF863019F410916202D3CF57
:102180008930D9F3893179F6E9512E2F2170722ED9
:10219000E695F0E0E25BFC4F85909490992431E362
:1021A000E32E32E0F32EB12CA12CC50124E096954C
:1021B00087952A95E1F7711013C0810F9701402F81
:1021C0006D2D0E949C05A80CB91C83E0E80EF11C43
:1021D00021E6E21622E0F20641F70E94330CA3CF7B
:1021E000212F281B822FEACFE1E6F2E0438128E08D
:1021F000421B08F440E021E0628181810C9463106D
:10220000E1E6F2E0438128E0420F08F44FEF21E0DD
:10221000628181810C946310E1E6F2E0628128E042
:10222000621B08F460E021E0438181810C9463101B
:10223000E1E6F2E0628128E0620F08F46FEF21E04E
:10224000438181810C946310E1E6F2E0818121E019
:102250004381628188500C946310E1E6F2E0818151
:1022600021E043816281885F0C9463108091650254
:10227000882319F08150809365026091610270910A
:10228000620280916302909164020C9451108091DB
:102290006502833018F48F5F80936502609161025C
:1022A0007091620280916302909164020C945110CB
:1022B0009091610290FF36C09170811129C09260A7
:1022C00090936102662351F0609161027091620205
:1022D00080916302909164020E94511060916102AA
:1022E000669570E04BE050E082E191E00E945E2A4A
:1022F000892BA9F010922D0281E08093290220E021
:102300004091640260916302809162020C946310B8
:10231000853210F09864D4CF880F982BD1CF0E94CB
:102320003B10EACF0895809161028695815009F4AF
:1023300084E261E00C9458118091610286958F5F70
:10234000853208F081E061E00C94581190916102AF
:1023500090FF07C09695981720F0961710F40C94EC
:102360009C1161E00C945811E1E6F2E083E0808377
:1023700011828FEF828383831482608171818281D5
:1023800093810C9451101092FC0180912101E6E997
:10239000F1E0882359F08091770287FF07C08EE132
:1023A000DF011D928A95E9F70C94AC0A86E0F8CF1C
:1023B0001F93CF93DF93CDB7DEB7AA970FB6F894EC
:1023C000DEBF0FBECDBF82EA92E02091F100DC01BA
:1023D0002D93CD01B2E08A3A9B07B9F78091A30211
:1023E000833009F470C0B8F4813009F447C08230FA
:1023F00009F4B1C08091E80083FF88C28091A202F5
:102400009091A3029A3008F081C2E92FF0E0E55FD5
:10241000F44D0C94512A8A3009F48CC08B3009F4A5
:102420006FC0893039F78091A202813219F780910B
:10243000A6029091A702009711F00297D9F6809119
:10244000E800877F8093E8008091E80082FF36C033
:102450008091F200823031F48091F100813011F0EE
:10246000863021F48091F10080937D028091E80014
:102470008B778093E8000E94BC03BCCF8091A202BE
:10248000813A09F0B7CF8091E800877F8093E80018
:102490008091A6029091A702892B61F460E28EE7F9
:1024A00092E070E00E940D048091E8008B778093A9
:1024B000E800A0CF60E090E080E0F3CF8091A00240
:1024C0008111C2CF97CF8091A202813A09F092CFB9
:1024D0008091A6029091A702892B09F08BCF809161
:1024E000E800877F8093E8008091E80080FFFCCFC0
:1024F000809121018093F1008091E8008E77B9CF1F
:102500008091A202813209F075CF8091A60290914C
:10251000A702892B09F06ECF8091E800877F809316
:10252000E8000E94BC038091A402809321010E94D4
:10253000C31160CF8091A202813209F05BCF8091FC
:10254000E800877F8093E8000E94BC038091A50289
:1025500080937C024FCF8091A202813A09F04ACF4A
:102560008091E800877F8093E8008091E80080FFF9
:10257000FCCF80917C02BECF803899F0823809F080
:10258000C5C18091A6028F70853008F0BFC18093CD
:10259000E9008091EB0085FB882780F91092E90023
:1025A00006C080919E0290919F029111826090914D
:1025B000E800977F9093E8008093F1001092F1007B
:1025C0008091E8008E779EC1882309F48CC1823007
:1025D00009F09CC18091A40281118FC18091A60253
:1025E0008F702FEF280F243008F090C18093E900FE
:1025F0002091EB0020FF81C1933031F48091EB00FA
:1026000080628093EB0079C19091EB009061909390
:10261000EB0021E030E001C0220F8A95EAF7209319
:10262000EA001092EA008091EB008860EACF811105
:102630006DC11091A4021F778091E3008078812BF7
:102640008093E3008091E800877F8093E8000E94F8
:10265000BC038091E80080FFFCCF8091E30080689C
:102660008093E30082E0111183E08093A0024EC1C9
:102670008058823008F04AC12091A4023091A5020E
:102680002C3DE3E03E07A1F583E08A838AE289835B
:102690004FB7F894DE01139620E03EE051E2E32FBD
:1026A000F0E050935700E49120FF03C0E295EF70F3
:1026B0003F5FEF708E2F90E0EA30C0F0C7968D93A9
:1026C0009D932F5F243159F74FBF8091E800877F9A
:1026D0008093E8006AE270E0CE0101960E940D044A
:1026E0008091E8008B778093E80010C1C096E7CF17
:1026F0008091A6029091A702432F552743305105A0
:1027000009F44AC078F54130510509F47AC08BE5E7
:1027100090E0E3E9F5E04230510509F0F7C020917F
:10272000E800277F2093E8002091A8023091A902B9
:102730008217930708F49C0140E02115310509F048
:1027400065C0411163C08091E80082FDC9CF8091CE
:10275000A002882329F2853019F28091E80083FFD6
:10276000F2CFBECF4132510509F43CC0423251058F
:1027700009F0CCC08330910508F0C8C0FC01EE0F11
:10278000FF1FEB57FE4F0190F081E02D8E579E4FBB
:10279000DC018C9190E01AC0332721303105D1F053
:1027A0002115310561F02230310509F0AFC0E0E0BC
:1027B000F6E0E4918E2F90E0E0E0F6E007C0ECE276
:1027C000F6E0E4918E2F90E0ECE2F6E0009709F459
:1027D0009DC0A5CFEAE1F6E0E4918E2F90E0EAE11A
:1027E000F6E0F4CF8330910508F090C0880F991F70
:1027F000FC01E557FE4F0190F081E02D89E090E06B
:102800008ECF82E190E0EEEEF5E089CF8091A002DC
:10281000882309F465CF853009F462CF8091E80000
:1028200083FD5ECF8091E80082FD8DCF8091E8002E
:1028300080FF83CF8091F20090E02115310519F0DF
:102840008830910550F041E0089709F040E0809110
:10285000E8008E778093E80070CF44914093F100B8
:102860003196215031090196E8CF803809F04EC0E9
:102870008091E800877F8093E8008091A102809397
:10288000F1009ECE811142C01091A4021230F0F5E9
:102890008091E800877F8093E8001093A1020E9456
:1028A000BC03112311F084E005C08091E30087FD93
:1028B000FACF81E08093A00242E061EC81E00E94C7
:1028C000DB0342E261EC84E00E94DB0342E261EC64
:1028D00082E00E94DB0342E260EC83E00E94DB03C3
:1028E0008091A00213C08091A402813079F481E02C
:1028F000933009F080E080939F021092E90080916C
:10290000E800877F8093E8000E94BC038091E80084
:1029100083FF0AC08091E800877F8093E800809160
:10292000EB0080628093EB00AA960FB6F894DEBFAE
:102930000FBECDBFDF91CF911F91089569EE7EEF5D
:1029400090E080E00E94AA2A60E082E090E00E948D
:102950008C2A60E083E090E00E948C2A1092FE01B5
:1029600060E084E090E00E948C2A60E082E290E0E7
:102970000E948C2A60E085E090E00E948C2A60E052
:1029800086E090E00E948C2A6FEF87E090E00E9442
:102990008C2A40E050E0BA0188E090E00E949E2A34
:1029A00060E08DE090E00E948C2A40E050E0BA01A7
:1029B00088E190E00E949E2A60E087E190E00E941A
:1029C0008C2A40E050E0BA018CE190E00E949E2AFF
:1029D00070E060E080E290E00E94AA2A40E050E0CF
:1029E000BA0188E190E00E949E2A80E00E94060FD2
:1029F0000E941E0F40E050E0BA018FE090E00E947C
:102A00009E2A40E050E0BA0183E190E00C949E2AB7
:102A1000EBEFE80FEF3308F06CC0F0E0EB5EF44D45
:102A20000C94512A0E949E1481E0089580916B02BB
:102A3000807F80936B0281E080936A0208950E94F8
:102A4000C3112FEF84E39CE0215080409040E1F7D8
:102A500000C000000E940F0C90916B02892F8E7FA6
:102A600090FF816080936B0280FDDECF817F809339
:102A70006B02DACF90916B02892F8D7F91FF82607C
:102A800080936B0281FFD0CF80916B028160EFCF8A
:102A900090916B02892F8B7F92FF846080936B02F1
:102AA00082FDF2CFC1CF90916B02892F877F93FF78
:102AB000886080936B0283FDE7CFB6CF0E94C3117D
:102AC00090917702892F97FB87F98058809377023E
:102AD000ABCF81E00E940B0B0E94C311A5CF89539D
:102AE00091E001C0990F8A95EAF7892FF3CF8D51B4
:102AF000F7CF80E00895CF93C82F882309F4ABC0A7
:102B00008238C1F40E94B40481FDA5C089E30E940B
:102B1000110A0E94A1092FEF81EE94E0215080401C
:102B20009040E1F700C0000089E30E94E609CF91E0
:102B30000C94A1098338A1F40E94B40480FD8BC0D9
:102B400083E50E94110A0E94A1092FEF81EE94E013
:102B5000215080409040E1F700C0000083E5E5CFC0
:102B60008438A1F40E94B40482FD75C087E40E94F9
:102B7000110A0E94A1092FEF81EE94E021508040BC
:102B80009040E1F700C0000087E4CFCF8CEF8C0FBE
:102B9000813A08F0E5C080916A028130B9F188235A
:102BA00059F1823009F44DC010926A0280912101DE
:102BB000882309F4C6C08091770287FFC2C0EC2F3A
:102BC000E695E695E695F0E0EC56FE4F828190E0C2
:102BD0004C2F477021E030E002C0220F331F4A958E
:102BE000E2F782239323892B09F4B6C08C2F0E942D
:102BF000E6090E94A109B0C08091FC018232B1F6C1
:102C00008C2F0E940815811126C0D0CF8091FC0125
:102C10008232B1F3C43171F038F4CB3049F0C031B5
:102C200061F080E08170EFCFC93221F0C833C9F77D
:102C300081E0F8CF10926A02F4CF82E080936A02BA
:102C4000F7CFC93209F43FC0E8F4C431E1F128F408
:102C5000C73009F45BC0CF91089582EE8C0F8A30A3
:102C6000D0F7CD51C093B701C33009F446C0B0F5D9
:102C7000C13009F43FC08DE091E0C230B1F1109253
:102C8000B701E9CFC03509F454C0B8F48AE0CF34B5
:102C900011F7E091B501F091B6013097E1F2208192
:102CA000082E000C990B820F911D8F3F910509F0A2
:102CB0000CF443C08FEF8083CECFC135E1F181E0CA
:102CC000C23539F3C8CF8091B701882321F2109221
:102CD000B7011092B6011092B501BDCFC53099F081
:102CE00078F080E191E0C63051F69093B601809380
:102CF000B501B1CF8CE091E0F8CF8FE091E0F5CF56
:102D00008EE091E0F2CF81E191E0EFCF8EE1809310
:102D10000C0182E380930D018AE080930F0184E12E
:102D200080930E0188E08093110188E28093100166
:102D300092CF86EFAECF8FEFACCF97FFBCCF108294
:102D40008ACFE6E9F1E08CE991E02191C21709F41C
:102D50004DCF8E179F07C9F78C2F0E94110AE7CE1F
:102D600080E28C0F883068F4C77021E030E001C049
:102D7000220FCA95EAF78091FC01822B8093FC0117
:102D8000D6CEEBE5EC0FE33040F4F0E0EE5DFE4F25
:102D9000808190E0CF910C949E04E8E5EC0FE73140
:102DA00050F4F0E0EE0FFF1FEB5DFE4F808191814C
:102DB000CF910C948804C03F08F44DCF8C2F0E9413
:102DC0005007CF910C9429061F93CF93DF93182FB0
:102DD000D0E0C0E0893311F4C0E5D0E0812F0E943B
:102DE0007B15209731F4812FDF91CF911F910C94A7
:102DF000200B8FE99FE00197F1F700C000002197B9
:102E0000F0CF0F931F93CF93DF93C62FD42F022FB2
:102E1000FC0182818823A1F06093AC020E947C04B3
:102E20009093AB028093AA02C77081E001C0880F23
:102E3000CA95EAF7DF91CF911F910F910C94160B71
:102E40008091AC02681335C08091AA029091AB02C8
:102E50000E946D04883C910560F510E21D0FCD17AE
:102E6000B9F080E28C0F883040F4C77081E001C077
:102E7000880FCA95EAF70E940F0B183048F481E0DA
:102E80009D2F977001C0880F9A95EAF70E94160B44
:102E9000802F0E94E416183098F4D77081E001C0AA
:102EA000880FDA95EAF7DF91CF911F910F910C947B
:102EB0000F0BC77081E001C0880FCA95EAF7F3CF06
:102EC000DF91CF911F910F9108954F925F926F9272
:102ED0007F928F929F92AF92BF92CF92DF92EF92AA
:102EE000FF920F931F93CF93DF9300D000D00F92E8
:102EF000CDB7DEB78C01FC0183819481892B31F041
:102F00008081918189238F3F09F0BDC50F900F907B
:102F10000F900F900F90DF91CF911F910F91FF9025
:102F2000EF90DF90CF90BF90AF909F908F907F9069
:102F30006F905F904F9008950E94B20FF82E682F07
:102F400089819A810E94780A69817A818F2D0E94F5
:102F5000A50F7C01F8018281882309F467C5C701A8
:102F600082519F45409708F04AC58FEF93E00E9439
:102F7000782AFEEEEF0E47EE842E912C882391F1F5
:102F80008091F901877011F2F8018281882309F498
:102F9000BDCF8091780282FDB9CF82E00F900F9073
:102FA0000F900F900F90DF91CF911F910F91FF9095
:102FB000EF90DF90CF90BF90AF909F908F907F90D9
:102FC0006F905F904F900C94E40A811424E0920675
:102FD000B9F2C4010E94782A811101C0EA943FEF3E
:102FE000831A930AE110F1CF1C821B82442443947C
:102FF00074016FEFE61AF60AC4010E94782A8983E9
:103000001A82882309F4BCCF9FEF980F933000F504
:103010008A83498272E0870E911CC7010E94782A38
:103020008B83882309F4ACCFCE0101967C01F70194
:1030300020812223E9F2213009F04AC09181828166
:10304000913041F4F2E0EF0EF11C0E94E41609C049
:103050004701EACF923049F422E0E20EF11C0E94CF
:103060007B153FEFE31AF30AE2CF933031F432E0FD
:10307000E30EF11C0E94200BF4CF943021F06FEF8F
:10308000E61AF60AEECF72E0E70EF11C50E040E0DF
:10309000D7011196F701D180682F6053770B9B0100
:1030A0006A30710550F041505109D8F28FE99FE024
:1030B0000197F1F700C00000F6CFCA016AE070E0A6
:1030C0000E94182AA901480F591F8D2D7D01E0CFBC
:1030D000E22FF0E0E454FE4F5490822F86958695BF
:1030E000869590E0FC01E455FE4F64902770712CAA
:1030F000022E02C0759467940A94E2F7E1E06E2212
:103100007724FC01E456FE4FA490B12C022E02C09D
:10311000B594A7940A94E2F7F1E0AF22BB24FC0136
:10312000E457FE4FC490D12C02C0D594C7942A9581
:10313000E2F721E0C222DD246114710419F081EE6E
:103140000E947B15A114B10419F086EE0E947B1534
:10315000852D0E94E416AB2819F086EE0E94200B04
:10316000672819F081EE0E94200BCD2809F479CF51
:103170008CE26BCF81E00E94000B03C081E00E94D3
:10318000D80A0E94CD0AFCCE82E0F5CF82E0F7CFCC
:1031900085E00E947105809166020E942D0FF0CE9D
:1031A00080E0F7CF80916602982F987F79F0885061
:1031B00080936602887F91E009F490E08091660236
:1031C00090FB80F9809366020E942D0F8091660229
:1031D0008695869586950E944605D2CE8091660298
:1031E000982F969596959695953040F49F5F990FF8
:1031F000990F990F8770892B8093660280916602E0
:103200008160E0CF8091660280FF07C08E7F80934F
:1032100066020E942D0F80E0DECF80FDB1CE81607E
:1032200080936602813019F489E080936602809170
:103230006602CACF90916602892F869586958695FB
:103240008F5F8F719770863048F4880F880F880FD2
:10325000892B8093660280916602ACCF90936602C0
:10326000FACF8091660281FF03C00E94320F88CEA0
:103270000E94480F85CE27E245EE65EE00C426E2A7
:1032800041EE60EEFCC327E245EE64EEF8C326E2B1
:1032900041EE62EEF4C328E241E0EFCF81E6E816AA
:1032A0008DE5F80609F43DC58091FC0196E1E9162B
:1032B0009CE5F90609F0F8C38A7A91E009F490E0F8
:1032C0009093B4018111FDC089E20E94110A0E940D
:1032D000A10956CE80917702806196E0E9169CE5BF
:1032E000F90609F4A2C0809177028860E7E0EE1643
:1032F000ECE5FE0608F499C080917702806295C0E3
:10330000809177028D7FFCE0EF16FCE5FF0609F463
:103310008CC078F4809177028C603AE0E3163CE54B
:10332000F30609F482C008F499C0809177028E7F79
:103330007CC080917702877F7EE0E7167CE5F70608
:1033400009F473C008F490C0809177028F7E6DC03D
:103350009CEFE9169CE5F90609F48AC0A0F5F4E1B2
:10336000EF16FCE5FF0609F49BC098F432E1E31682
:103370003CE5F30609F484C0809177028F7B63E11A
:10338000E6166CE5F60608F450C080917702837F5C
:103390004CC07AEFE7167CE5F70609F451C008F057
:1033A00055C095E1E9169CE5F90609F0E4C4809161
:1033B000770282FB992790F921E0922790FB82F90E
:1033C00090FB83F932C0E114EDE5FE0609F45EC01E
:1033D000A0F48091780283602EEFE2162CE5F206CD
:1033E00091F1809178028D7F3FEFE3163CE5F30683
:1033F00050F1809178028C7F26C062E0E6166DE580
:10340000F60609F45CC008F454C081E6E8168DE5C0
:10341000F80609F0B0C490917702892F8F7E94FF4F
:10342000806103C080917702816080937702A3C49A
:10343000809177028260F9CF809177028460F5CF26
:103440008091780281608093780295C4809178029F
:103450008260F9CF809177028064E7CF0E94C31128
:10346000809177028068E1CF809177028B7FDDCFFA
:10347000809178028E7FE7CF809177028F7DD5CFC4
:103480000E94C311809177028F77CFCF809178020D
:10349000982F909591708E7F892B90FB81F9D3CFD7
:1034A0000E94C31190917702892F97FB87F980586A
:1034B000BCCF61E08EE090E00E948C2A5CC460E0AA
:1034C000F9CF85E302CF85E3FCC38091610280FFE1
:1034D0001BC08E7F809361026091610270916202D5
:1034E00080916302909164020E94511010922D020B
:1034F000EFEFF0E722E0E150F0402040E1F700C0BC
:1035000000000E94330C3CCD81608093610261E039
:1035100086950E94581134CD43E951E16CE971E17F
:103520000E9487052DCD4CE951E163E971E1F8CFA7
:103530004DE251E164E271E1F3CF4CE051E168E129
:1035400071E1EECF44EF50E160E071E1E9CF40E09E
:1035500051E164EF70E1E4CF47E451E166E371E1EA
:10356000DFCF61E081E0D5CF65E082E00E94A61167
:1035700007CD68E086E0FACF64E18FE0F7CF67E13E
:1035800085E1F4CF62E289E1F1CF61E083E2C1CF6E
:103590009BE5E9169DE5F90611F1ECE5EE16EDE582
:1035A000FE0609F0B3C28091780282FB882780F979
:1035B00091E089270E945D0FA9C20E94C311FFEF0D
:1035C00024E33CE0F15020403040E1F700C000002F
:1035D0000E940F0C0E949E14D3CC81E0EBCF80E0C0
:1035E000E9CFC7010E944F0AD82E9FC22F2D2F70FE
:1035F000C22E8F2D807F19F0C29490EFC922DD205A
:10360000B9F0CC2069F080E28E0D883010F0811086
:1036100009C08091FC01C82AC092FC010E94A10946
:103620008E2D4DC08091FB01C82AC092FB01F6CFC0
:103630008E2D0E94200BCC2009F443C080E28E0D19
:10364000883010F0811004C08C2D0E949A0906C0A9
:10365000C0948091FB01C822C092FB010E94A10985
:1036600030C03F2D3F70C32E8F2D807F803219F0E8
:10367000C29480EFC822882089F061E0861609F4A0
:1036800080C0DD2009F48AC0BB2009F480C0F801A5
:10369000858180FFC5CF8F70858379C020917802A6
:1036A00022FF4CC0DD2009F443C0CC2039F08091CA
:1036B000FC01C82AC092FC010E94A10980E00E947E
:1036C0007B15692D6850770B6430710520F40E94DA
:1036D000B4040E94760BAA2009F418CC8091F90159
:1036E00080FD14CCF80112828595859585950E9400
:1036F000000BC8010E9465178091F9018595859599
:1037000085950F900F900F900F900F90DF91CF91B4
:103710001F910F91FF90EF90DF90CF90BF90AF90EF
:103720009F908F907F906F905F904F900C94D80AED
:1037300080E00E94200BCC2021F286CFDD20A1F07A
:103740009091FD018C2D892BB11003C00E94160BA6
:10375000B8CF71E0B712FACF22FDB3CF981709F4B2
:10376000B0CF8093FD01ADCFB11006C00E94940987
:103770008C2D0E940F0BA5CF81E0B81609F4A1CFC4
:10378000F5CFDD2031F095E09B1508F49ACF8C2D14
:10379000DDCFE4E0EB1508F494CFEACFBB2041F392
:1037A000F9E38F1209C02FEF37EE63E0215030406C
:1037B0006040E1F700C000008E2D0E94200B81CFF9
:1037C0008F2D86958695837061F0813009F079CFD1
:1037D000C7019370D11002C090E080E00E9488047D
:1037E00070CFC7019370D11002C090E080E00E94BA
:1037F0009E0467CF8E2DDD2029F00E9450070E9485
:1038000029065FCF0E945006FACF8F2D837091F565
:10381000D11057CF4E2D429546954770440F440F17
:103820008E2D8F70042E01C0880F0A94EAF72E2D7A
:103830002071E4FE07C02FE030E001C0220F4A955E
:10384000EAF720953F2D369536953370323069F082
:1038500050F44091FE01313029F0822B84230E94E4
:103860000B0B2FCF842B822BFACF282B8091FE01BC
:103870008227F5CF8695DD2011F08F2D817088236A
:1038800009F41FCF4E2D429546954770440F440FC3
:103890008E2D8F70042E01C0880F0A94EAF72E2D0A
:1038A0002071E4FE07C02FE030E001C0220F4A95EE
:1038B000EAF720953F2D369536953370323069F012
:1038C00050F44091AD02313029F0822B84230E94C4
:1038D000C90AF7CE842B822BFACF282B8091AD0218
:1038E0008227F5CF7F2D7F70F72EDD2029F0872FDF
:1038F0000E94000B8E2D2ACF8E2D0E940F0B8F2D34
:103900000E94D80ADECE8E2D92EF8916B1F198155D
:1039100070F0E0EF8E16D1F0F1EF8F1691F0DD2010
:1039200009F45DC0B1107CCE8F2D8F712AC023EFBA
:10393000821651F134EF8312F2CF8091780282FF28
:103940002FC08F2D8F71DD20D9F21BC0DD2081F0BB
:1039500064E06B1508F4B5CE2F2D2F7181E090E057
:1039600001C0880F2A95EAF79091AD028927AFCF61
:1039700075E07B1508F4A5CEEFCF8F2D8F71D11098
:10398000BFCF0E94000B9DCE80E0DD2009F49FCFC9
:103990009F2D9F7181E001C0880F9A95EAF797CF1C
:1039A000DD2091F08F2D8F71F82E0E94000B8091F9
:1039B000780282FD07C08F2D880F880F880F8360E3
:1039C0008093F9018F2DDDCF81E00E94E40A91E020
:1039D0009B1508F076CE82E00E94E40A72CEBB20EE
:1039E00059F0893309F0E8CEEFEFF7EE23E0E1502C
:1039F000F0402040E1F7DECE8F2D8F7181CFF0E1D6
:103A0000EF16FFE5FF0609F4B5CB21E1E2162FE53D
:103A1000F20609F4B9CBF701EB5BFC45E730F105A1
:103A200008F052C1EC5AF44D0C94512A30E1E316DF
:103A30003FE5F30609F4A2CB61E1E6166FE5F60671
:103A400009F4A4CB93EFE9169CE5F90609F417CC29
:103A500008F01EC1F8EDEF16FCE5FF0609F40BCCEB
:103A600029EDE2162CE5F20609F415CC37EDE31644
:103A70003CE5F30609F01AC126E241EE61EEC80109
:103A80000E9401177DCA85E0DE01119601900D921A
:103A90008A95E1F7F801228189819A8121114CCA26
:103AA0000E944F0AF82E50CA82722CECE2162CE5C6
:103AB000F20609F451CD08F0ABC066ECE6166CE5F1
:103AC000F60609F435CD08F07AC093ECE9169CE5CA
:103AD000F90609F421CD08F061C0F2ECEF16FCE51F
:103AE000FF0609F4F2CC3AE5E3163DE5F30609F4E6
:103AF00074CD08F04DCDE1147CE5F70609F45DCDF9
:103B00008EEDE8168CE5F80609F464CDF8018281A3
:103B1000E080F180882309F464CDC7010E94B20FD0
:103B2000D82E682FC7010E94780AB7018D2D0E94F8
:103B3000A50F0E9406087C01882EF801D280B5806E
:103B4000B2943FE0B3228091F9018770C1F0AD2CAF
:103B5000DD20B1F08F2D807F803421F080E28E0D4A
:103B6000883068F08091780282FD09C082E00E946E
:103B7000E40A8091F9018770AA24A3948111A12CF1
:103B80009F2C92942FE09222FBE0F91508F499CD36
:103B9000E92DF0E0E55AF44D0C94512A24ECE2169C
:103BA0002CE5F20609F4BFCC44E251E16DE271E18B
:103BB00035ECE3163CE5F30609F4B2CC94CF69EC9E
:103BC000E6166CE5F60609F4BDCC88F497ECE91628
:103BD0009CE5F90609F4B1CC48E151E16CE071E1F2
:103BE000E8ECEE16ECE5FE0609F49ACC7CCFFAEC94
:103BF000EF16FCE5FF0609F4AACC46E351E167E4C1
:103C000071E12BECE2162CE5F20609F489CC6BCFBE
:103C100031EDE3163CE5F30609F4AECCB8F47EECE6
:103C2000E7167CE5F70609F49FCC08F49ACC9FECE4
:103C3000E9169CE5F90609F49CCC6EE089E0E0ED1C
:103C4000EE16ECE5FE0609F491CC4DCFF4EDEF163F
:103C5000FCE5FF0609F496CC78F432EDE3163CE57A
:103C6000F30609F48CCC63EDE6166CE5F60609F074
:103C70003ACF61E088E14DCC75EDE7167CE5F706BB
:103C800009F483CC8DE5E816F80609F479C92BCF41
:103C900065EFE6166CE5F60609F4F9CA08F4F3CA0E
:103CA00086EFE8168CE5F80609F483C0F6E1EF1616
:103CB000FCE5FF0609F02ACF8091B401811103CC05
:103CC00089E20E94E60903CB93EFE9169CE5F90629
:103CD00009F4D5CA08F05FC0F8EDEF16FCE5FF0661
:103CE00009F4C9CA29EDE2162CE5F20609F4D3CA93
:103CF00037EDE3163CE5F30609F4BECE1092AC02B4
:103D000063E0E6166DE5F60608F0C8CA7AEFE71636
:103D10007CE5F70630F4C70182509C45449708F0D3
:103D2000C3CA0E942D10909378028093770290E18D
:103D3000E9169CE5F90609F49FCB08F009CBF8E0F9
:103D4000EF16FCE5FF0609F485CB08F0D9CA34E08C
:103D5000E3163CE5F30609F46FCB08F0BBCA72E04A
:103D6000E7167CE5F70609F45DCB83E0E8168CE501
:103D7000F80609F45DCB60917702F090780284E058
:103D800090E00E948C2A6F2D82E290E00E948C2AA3
:103D90000E94C311F5C865EFE6166CE5F60609F456
:103DA00076CA08F470CA86EFE8168CE5F80609F0C2
:103DB000A5CF27E245EE66EE62CE1F93CF93DF9349
:103DC0008091C601807FA1F48091C301882381F096
:103DD0002091F8011091C7014091C101A091C20149
:103DE000C091C401D091C501B42FBA23121304C0ED
:103DF000DF91CF911F91089530E0209711F0BF3FE0
:103E000021F42F5F3F4F2770F1CFC90166E070E0CA
:103E10000E94182AFC01E853FE4F81818A13F1CFDA
:103E200080818413EECF82818111EBCF83819481D5
:103E30008C1B9D0B883C910520F78091C6018F70EB
:103E400080618093C601C90166E070E00E94182A73
:103E5000FC01E353FE4F90819F709061908381EC51
:103E600091E00E946517DF91CF911F910C94450A54
:103E7000AF92BF92CF92DF92EF92FF920F931F9378
:103E8000CF93DF93CDB7DEB761970FB6F894DEBF5F
:103E90000FBECDBF8C0185E0F801DE011D960190BB
:103EA0000D928A95E1F7D8011296EC90129781EC69
:103EB000A82E81E0B82E6091C4017091C5016115F2
:103EC000710509F438C19091C1012091C201892F77
:103ED00082238F3F09F42FC14C911196EC911197D9
:103EE0001396CD90DC90F090C301D601A61BB70BC2
:103EF000FF2009F4EBC08091C601382F307FA83C29
:103F0000B10508F0AEC031117AC0FE2C2E1321C0CD
:103F100094131FC0E1101DC08F7080618093C60193
:103F2000C5010E9465178091C601F80185838F2D18
:103F300061960FB6F894DEBF0FBECDBFDF91CF9173
:103F40001F910F91FF90EF90DF90CF90BF90AF90B7
:103F50000895CD2829F0842F8E238F3F09F006C1C4
:103F600080E0F82FF170DF2E2091F801F091C70169
:103F700080FD21C0EE20D9F28091C601816080933E
:103F8000C601F12CD4CF30E0C90166E070E00E9498
:103F9000182ADC01A853BE4F11968C911197E81393
:103FA00007C08C91481304C012968C91E812E2CF9E
:103FB0002F5F3F4F27702F13E6CF4D87EE878D85FC
:103FC0009E850E94E10F292F22952F70223058F0F4
:103FD000243080F49F7059F0D80115969C91907F01
:103FE00031F4D12C0AC09F7011F08823D1F3805E88
:103FF0008830B8F3C8010E946517FD2C98CF2E13A6
:1040000006C0941304C0F801EE2009F479C0C80179
:104010000E94ED0F882309F1EE20F9F08091C6018E
:10402000803270F02091C1013091C20138872F8316
:104030001986DB86CA868C87CE0107960E94651793
:1040400086E0F801A1ECB1E001900D928A95E1F7CC
:104050000E94DD1EFF24F3946ACFC8010E946517F9
:10406000F9CF31110AC081EC91E00E94651786E01A
:10407000D5011D928A95E9F784CF2E130FC09413B2
:104080000DC0E1100BC0F8018583C8010E946517BF
:1040900086E0D5011D928A95E9F749CFC8010E94B3
:1040A000ED0F8823D1F2EE20C1F28091C60180325B
:1040B00038F22091C1013091C2013A8329831B82D9
:1040C000DD82CC828E83CE010196B8CFA83CB105AB
:1040D000F8F6FE2CEE2009F22E131FC094131DC01B
:1040E0008091C60180FD10C0982F907F69F0F80183
:1040F0008583903F31F0982F907F905F8F70892B50
:104100008583C8010E94651786E0F801A1ECB1E043
:1041100001900D928A95E1F70ACFC8010E94ED0F38
:1041200081118ECF8091C60181608093C601C80144
:104130000E946517FCCEEE2009F48FCFC8010E94C3
:10414000ED0FF82E882309F488CF86E0F801A1EC62
:10415000B1E001900D928A95E1F78091C1019091B3
:10416000C2010E94E10F0E94DD1EE1CE81E08E259A
:10417000F8CECF93DF93CDB7DEB767970FB6F8943D
:10418000DEBF0FBECDBF4B8B5C8B6D8B7E8B8F8B61
:1041900061111092FB011A8A198A85E0FE0173965B
:1041A000DE011D9601900D928A95E1F786E0FE01F1
:1041B0003D96DE01179601900D928A95E1F7CE01AA
:1041C00007960E94381F811112C086E0FE013796C3
:1041D000DE01119601900D928A95E1F78A859B8503
:1041E000892B29F08F81988589238F3FB1F58091A4
:1041F000F8019091C70189131CC067960FB6F89417
:10420000DEBF0FBECDBFDF91CF91089566E070E0B5
:104210000E94182ADC01A853BE4F96E0FE01319699
:1042200001900D929A95E1F72093C7010E94450AEB
:10423000DECF90E066E070E00E94182A88539E4F1F
:104240000E94381F8823C9F28091F80190E00196FE
:10425000877099278093F801CACF8091C70190E0B9
:104260009C012F5F3F4F277033274091F801421781
:10427000130661F60E94C3111092C7011092F80153
:1042800086E0E1ECF1E0DF011D928A95E9F7AFCF1E
:104290007F928F929F92AF92BF92CF92DF92EF92D6
:1042A000FF920F931F93CF93DF9300D000D000D0E5
:1042B000CDB7DEB78E010F5F1F4F86E0F801119278
:1042C0008A95E9F783E5C82E81E0D82EF12CE12C00
:1042D000AA24A394B12C2DE5822E21E0922EF60182
:1042E00081916F018F3F09F442C0F894E82FE29565
:1042F000EF70F0E021A18F70A50102C0440F551F9F
:104300008A95E2F7CA01922F982B91A392A18095EA
:10431000892382A3789400C0E9E5F1E0712C31E0B3
:1043200021912F3F09F46DC0A22FA295AF70B0E08C
:1043300090968C9190E02F7002C0959587952A9564
:10434000E2F780FD5EC0832F782A330F8E169F061A
:1043500039F7F601319780818F3F11F00E94AC0749
:1043600050EA5A95F1F7F801EE0DFF1D70828FEFBC
:10437000E81AF80AE6E0EE16F10409F0B0CF46E0DC
:1043800050E0B80183E092E00E946B2AFF24F3948E
:10439000009709F4F12C892BB1F186E0F801A3E034
:1043A000B2E001900D928A95E1F781E080930102DD
:1043B0000E947C04909300028093FF018091FF0192
:1043C000909100020E946D04059708F1809103020C
:1043D000809313028091040280931402809105025D
:1043E0008093150280910602809316028091070245
:1043F00080931702809108028093180210920102A4
:1044000006C080E0A1CF809101028111D7CF8F2D0E
:1044100026960FB6F894DEBF0FBECDBFDF91CF91C9
:104420001F910F91FF90EF90DF90CF90BF90AF90D2
:104430009F908F907F90089590E080E00E94862A60
:10444000893E9E4F11F40C94141080E008950E9450
:104450001C2281110AC00E949E1480916602847001
:104460008962809366020E942D0F86E090E00E9490
:10447000782A80936602803320F087708862809368
:10448000660290916602892F817090FF04C0892F87
:104490008695869586950C9446051F920F920FB6C9
:1044A0000F9211242F933F934F935F936F937F93BA
:1044B0008F939F93AF93BF93CF93DF93EF93FF932C
:1044C000D091E900DF708091EC00C82FC17080FDB1
:1044D000C0E81092E9008091F000877F8093F0009F
:1044E00078940E94D8111092E9008091F0008860C1
:1044F0008093F000CD2BCF70C093E900FF91EF9136
:10450000DF91CF91BF91AF919F918F917F916F91EB
:104510005F914F913F912F910F900FBE0F901F9081
:1045200018951F920F920FB60F9211242F933F935D
:104530004F935F936F937F938F939F93AF93BF93AB
:10454000EF93FF938091E10082FF09C08091E20028
:1045500082FF05C08091E1008B7F8093E100809114
:10456000E10080FF17C08091E20080FF13C08091BE
:10457000E2008E7F8093E2008091E2008061809370
:10458000E2008091D80080628093D80019BC85E059
:104590008093A0028091E10084FF2BC08091E20013
:1045A00084FF27C084E089BD86E089BD89B5982F46
:1045B000917080FFFBCF8091D8008F7D8093D800D1
:1045C0008091E1008F7E8093E1008091E2008F7EF8
:1045D0008093E2008091E20081608093E20080910C
:1045E000A102882309F441C084E08093A002809155
:1045F000A0028091E10083FF27C08091E20083FF49
:1046000023C08091E100877F8093E10082E0809366
:10461000A0021092A1028091E1008E7F8093E100C0
:104620008091E2008E7F8093E2008091E2008061C1
:104630008093E20042E060E080E00E94DB03809132
:10464000F00088608093F000FF91EF91BF91AF91EF
:104650009F918F917F916F915F914F913F912F919A
:104660000F900FBE0F901F9018958091E30087FD6B
:1046700093E09093A002BBCF78941F921FB61F9235
:1046800011248F939F93AF93BF9380917302909166
:104690007402A0917502B09176020196A11DB11D20
:1046A0008093730290937402A0937502B093760284
:1046B000BF91AF919F918F911F901FBE1F90189532
:1046C0001F921FB61F9211248F939F93AF93BF9396
:1046D00080917202811113C08091730290917402D3
:1046E000A0917502B09176024196A11DB11D8093F3
:1046F000730290937402A0937502B0937602BF91F7
:10470000AF919F918F911F901FBE1F9018951F9280
:104710000F920FB60F9211242F933F934F935F93F5
:104720006F937F938F939F93AF93BF93EF93FF9379
:10473000809120018230A1F08F5F80932001FF9152
:10474000EF91BF91AF919F918F917F916F915F9109
:104750004F913F912F910F900FBE0F901F90189582
:1047600081E0809320018091680290916902019616
:1047700060ED72E00E94292A90936902809368029A
:1047800065E070E00E94292A6F778091670282308D
:1047900041F4603451F480916F008E7F80936F00FC
:1047A00004C0813011F46F37B1F3E62FF0E0ED5A19
:1047B000FB4F8491609186007091870090E00E9489
:1047C000182A6BEF74E00E94292ACB01209166021F
:1047D000269526952695622F70E00E94182A0E9441
:1047E000C00490938D0080938C00A9CFCDB7DEB725
:1047F000AA970FB6F894DEBF0FBECDBF84B7877FF0
:1048000084BF0FB6F894A89580916000886180936A
:104810006000109260000FBE80E890E00FB6F89440
:1048200080936100909361000FBE8AEA97E09093B5
:104830009301809392011092E2001092E100809126
:10484000E00081608093E0008091D8008F778093B2
:10485000D80019BC8091630081608093630010923E
:104860000202809163008E7F8093630081E08093D9
:1048700002021092E2001092E1008091D8008F773E
:104880008093D8008091D80080688093D800809170
:10489000D8008F7D8093D80084E089BD86E089BDF3
:1048A00089B5282F2170D22E80FFFACF1092A00256
:1048B0001092A10210929F0210929E0242E060E0CC
:1048C00080E00E94DB038091E1008E7F8093E10015
:1048D0008091E20081608093E2008091E200886034
:1048E0008093E2008091E0008E7F8093E0008091D1
:1048F000E20084608093E20078948091A002882393
:10490000A1F01091E9001F709091EC00892F817047
:1049100090FD80E8182B1092E9008091E80083FD5B
:104920000E94D8111F701093E90082E084BD93E0CB
:1049300095BD9AEF97BD80936E000E94141081116F
:1049400002C00E941E0F03E511E049E5E42E41E09C
:10495000F42ED8018D918D018F3F11F00E94AC078C
:10496000E016F106B1F784E60E94AC0785E60E94E6
:10497000AC0783E30E94AC0782E30E94AC0786E0A9
:10498000E3E1F2E0DF01282F1D922A95E9F7E3E049
:10499000F2E0DF011D928A95E9F70E941C22811145
:1049A00002C00E949E1482E090E00E94782A8093C8
:1049B0006B020E942D1090937802809377020E94E0
:1049C0004821EFE3FCE93197F1F700C000000E94B5
:1049D00048218091130280FF08C06FEF7FEF90E0C5
:1049E00080E00E94AA2A0E940F0C83E090E00E94BF
:1049F000782A0E940B0B249A2C9A279A2F988AE0E7
:104A00008093800089E1809381008FEF9FEF9093E6
:104A10008700809386000E9427228091660281FF92
:104A20000BC0109269021092680210926702809186
:104A30006F00816080936F000E942722809109029D
:104A4000811133C00E941C22811104C00E949E1457
:104A50000E94B41188E090E00E94802A6093610275
:104A60007093620280936302909364026E7F71F48C
:104A70000E94B41188E090E00E94802A6093610255
:104A80007093620280936302909364020E948D058A
:104A900010922D028091610280FF04C060E0869533
:104AA0000E94581181E08093090280E091E0909388
:104AB0006F0280936E0228E1E22EF12C83E192E0F6
:104AC00036E0C32EC80E8091A002853021F590E417
:104AD000B92EAA24A39404E016E08091A0028530A8
:104AE00009F45EC10E94C3110E9427220E94B404EF
:104AF0000E94760B10920B0280910A02882349F0E3
:104B00008091610281608093610260E086950E94DD
:104B100058110E943B100E944821882359F08FB7FA
:104B2000F8944091730250917402609175027091F3
:104B300076028FBFA3E1B2E0EDE0F2E010E000E02A
:104B4000302F8D919191981709F486C1292F28272C
:104B500090E0BD2C4B2D422309F479C199A33AA3CF
:104B60008B2191E009F490E09BA30E947C0481607A
:104B7000782F9DA38CA349A15AA16BA18DA10E945E
:104B8000B920F801E35FFD4F8081B826B0828091A3
:104B90002D028823D1F180912C02E0916102E695EB
:104BA000E81BE0932802823009F06DC1F0E0E65B7B
:104BB000FD4FE4910E2F10E080E9A82E8EE0B82E74
:104BC00080912902882361F0109229020E947C04BE
:104BD000909327028093260210922B0210922A02B1
:104BE0000E947C04E0912602F09127028E1B9F0B0D
:104BF0008F3F9F4750F4E00FF11FF0932702E0939F
:104C0000260286E292E0F501099586E0E0E2F2E014
:104C1000DE01119601900D928A95E1F7A090220293
:104C2000B0902302109124020091250210922202DA
:104C30001092230210922402109225028A2D8B29B1
:104C400091F080911E0290911F020E946D04FC0160
:104C500020911A02222309F470C180910D018E1750
:104C60001F0608F479C1812F802B09F44DC0809173
:104C70001C0290911D020E946D049C0190911902EA
:104C8000992309F4C7C32536310508F43DC09F3F79
:104C900019F09F5F90931902112351F00E94C906E9
:104CA0006FEF11160CF46D2D0E940F2A80932402D1
:104CB000002351F00E94C9066FEF10160CF46D2D01
:104CC0000E940F2A80932502809124028823E1F01C
:104CD000209125022223C1F0082E000C990B65EBD0
:104CE00070E00E94182A992309F479C19093240254
:104CF000822F220F990B65EB70E00E94182A9923EE
:104D000009F471C1909325028091220290912302AF
:104D1000892B90912402892B90912502892B11F0E7
:104D20000E94290686E0FE013196A0E2B2E00190E1
:104D30000D928A95E1F70E94B40490910C028917B4
:104D400031F00E94B40480930C020E94760B809193
:104D5000A002843009F0B7CE83E08093E90080910F
:104D6000E80082FFB0CE8091E80090E085FF06C0A9
:104D70000E946103882309F43AC191E08091E80020
:104D80008B778093E800992309F49DCEE981E15067
:104D9000E33108F0AEC1F0E0E959F44D0C94512A2A
:104DA0008091A002843009F443C080E00E9446054F
:104DB00080E00E94760B10922D0280910B028111EF
:104DC00016C0A0920B0280916102982F917090936F
:104DD0000A028E7F80936102FFEF20E782E0F150AC
:104DE00020408040E1F700C000000E94330C109288
:104DF00072020FB6F894A895E09260000FBEB092D0
:104E0000600083B7817F846083BF83B7816083BF85
:104E10007894889583B78E7F83BF0FB6F894A89552
:104E200080916000886180936000109260000FBEE6
:104E300080919F02882309F450CE0E944821E3E12B
:104E4000F2E081918111C7C2CE12FBCF46CE9F5FA7
:104E5000BB0C943009F07ECE0F5F1F4F063011055A
:104E600009F06ECE8FEF8EA38FA318A60E947C044C
:104E70008160782F9AA789A74EA15FA168A58AA50E
:104E80000E94B92084CE863059F4F0E0E95BFD4FF2
:104E9000E4910E2F10E0B0E8AB2EBEE0BB2E90CE1A
:104EA000893061F4E695F0E0EC5BFD4FE4910E2F64
:104EB00010E0ACEEAA2EADE0BA2E82CE8F3061F4B7
:104EC000E695F0E0EF5BFD4FE4910E2F10E0F8E87F
:104ED000AF2EFDE0BF2E74CE853159F4F0E0E25CD8
:104EE000FD4FE4910E2F10E0EAE3AE2EEDE0BE2E72
:104EF00067CE08E210E051EAA52E5CE0B52E8831BD
:104F000009F45ECE833249F4ECE3F2E005911491AA
:104F100077E2A72E7EE0B72E53CE04EF11E068E6CD
:104F2000A62E6CE0B62E843209F44ACE00ED17E0CE
:104F30004CE8A42E45E0B42E43CE80910C0190E0C5
:104F40006AE070E00E94182A8E179F0708F08BCE47
:104F50002F5F20931A0202C02F3FD1F7AA2051F0F1
:104F60000E9404076FEF1A140CF46D2D0E940F2A93
:104F700080932202BB2051F00E9404076FEF1B14A4
:104F80000CF46D2D0E940F2A80932302809122023F
:104F9000882309F468CE20912302222309F463CEEA
:104FA000082E000C990B65EB70E00E94182A9923DB
:104FB00071F090932202822F220F990B65EB70E023
:104FC0000E94182A992339F0909323024CCE81E055
:104FD00080932202F0CF81E08093230244CE81E0CF
:104FE0008093240285CE81E0809325028DCE00E25D
:104FF00010E0CE0101965C018091E80085FD0AC0B9
:105000008091E8008B778093E8000E9461038823F9
:1050100099F3B3CE8091F100D5018D935D010150DC
:10502000110951F7AACE1A8289E08B832DC08A819B
:10503000823009F4E6C18330A9F0813009F059C00B
:105040002FB7F89460917302709174028091750289
:10505000909176022FBF0E94572A6B837C838D83A9
:105060009E8312C0809113028B83809114028C83E3
:10507000809115028D83809116028E838091170294
:105080008F838091180288878091A002843009F074
:105090001ACD1091E9001F709091EC00892F81705A
:1050A00090FD80E8182B82E08093E9008091E80071
:1050B00080FF0DC050E040E060E270E0CE0101965C
:1050C0000E9492038091E8008E778093E8001F7021
:1050D0001093E900F8CC8A81823059F46B817C818D
:1050E0008D819E810E94572A86E290E00E948C2A40
:1050F000CBCF8FEF8983C8CF4C816B818A810E948F
:105100007A0F9827892798279E838D83BDCFAD80FE
:10511000BE80BA24AB24BA248A8190E060E370E0B8
:105120000E94182A0B8110E023E0000F111F2A951E
:10513000E1F7080F191F8C8190E0880F991F080F65
:10514000191F6B2DC80187960E948C2A6A2DC801F1
:105150008896CCCF0E94B40E97CF8A81893091F087
:105160008A30F1F08A81813879F118F5803809F0B8
:105170008BCF20E04B8160916302809162020E949C
:10518000631082CF8B8190E065E070E00E94182A66
:105190006FEF70E00E94292A862F0E947105E2CFEE
:1051A0008B81811103C00E94320FDCCF0E94480F17
:1051B000D9CF823859F1833809F066CF20E0409189
:1051C00064026C818B81DBCF60E08B810E9458117F
:1051D0009B8180916102911111C08E7F8093610249
:1051E00010922D02BFEFE0E7F2E0B150E040F04056
:1051F000E1F700C000000E94330C46CF816080932D
:10520000610260E086950E9458113ECF8B818093A9
:1052100065023ACF8A81893059F08A30C9F08138E5
:1052200041F1D8F4803809F02FCF80916402FDCE8F
:105230008091660286958695869590E06FEF70E086
:105240000E94182A65E070E00E94292A6B831CCF17
:105250008091660286958170E8CE823891F083381D
:1052600009F012CF809162028B83809163028C835C
:105270000BCF8091610280FF02C08695D6CE80E080
:10528000D4CE80916502D1CE809166020E942D0F0E
:105290006091610270916202809163029091640258
:1052A0000E945110F1CE80E18A83EECE83E08A83A2
:1052B00089E1BBCE0A811B81102701271027CE016F
:1052C00001965C018C80DC01A80DB11D4D01C80167
:1052D00089519F4F8A149B0409F4D6CE0931B3E05B
:1052E0001B0750F40E94782AF50184830F5F1F4F3B
:1052F000BFEFAB1ABB0AEBCFD50114961C92F6CFC9
:105300000A811B81102701271027FE0131964F01CA
:10531000AC80A00EB12EB11CC80189519F4FA016C0
:10532000B10609F4B1CE0931F3E01F0728F4D40126
:1053300014966C910E948C2ABFEF8B1A9B0A0F5F08
:105340001F4FEACF0E94A40E9FCE84E0ADCF0A810A
:105350001B81102701271027FE0131965F018C80E9
:10536000CF01880D911D4C01C80187968A149B04BA
:1053700009F48ACE003C110558F40E94782AD50120
:1053800014968C930F5F1F4FFFEFAF1ABF0AECCF3D
:10539000F5011482F7CF0A811B81102701271027FE
:1053A000CE0101964C01AC80A00EB12EB11CC801FB
:1053B0008796A016B10609F467CE003C110528F4C3
:1053C000D40114966C910E948C2ABFEF8B1A9B0A11
:1053D0000F5F1F4FECCF09BD19BD09B400FEFDCF13
:1053E0008091D8008F7D8093D8008091E00082600A
:1053F0008093E0008091E00081FDFCCF0E94C3110A
:105400006CCB86E290E00E94782A1B821C821D826F
:105410008E833ACE2D32314008F03BCC75CC00243F
:1054200080FD060E660F11F08695D1F7802D089548
:105430000024552704C0080E591F880F991F009794
:1054400029F076956795B8F37105B9F7802D952FFA
:105450000895AA1BBB1B51E107C0AA1FBB1FA617BB
:10546000B70710F0A61BB70B881F991F5A95A9F70D
:1054700080959095BC01CD01089597FB072E16F4F9
:10548000009407D077FD09D00E94292A07FC05D097
:105490003EF4909581959F4F0895709561957F4F4B
:1054A0000895EE0FFF1F0590F491E02D09946927F0
:1054B000962769277827872778270895FC01415088
:1054C000504030F001900616D1F73197CF01089582
:1054D000882799270895FB01DC0104C08D91019074
:1054E000801921F441505040C8F7881B990B08954A
:1054F000F999FECF92BD81BDF89A992780B508959C
:10550000A6E1B0E044E050E00C94B22AA8E1B0E09B
:1055100042E050E00C94B22A262FF999FECF92BDBA
:1055200081BDF89A019700B4021639F01FBA20BD68
:105530000FB6F894FA9AF99A0FBE08950396272F9A
:105540000E948D2A0E948C2A252F0E948D2A242FAA
:105550000C948D2A0196272F0E948D2A0C948C2A58
:10556000DC01CB01FC01F999FECF06C0F2BDE1BD23
:10557000F89A319600B40D9241505040B8F7089512
:10558000EE27FF27AA27BB2708C0A20FB31FE41FDF
:10559000F51F220F331F441F551F9695879577954A
:1055A000679598F37040A9F7009799F7BD01CF016F
:1055B0000895A1E21A2EAA1BBB1BFD010DC0AA1F54
:1055C000BB1FEE1FFF1FA217B307E407F50720F06C
:1055D000A21BB30BE40BF50B661F771F881F991FE7
:1055E0001A9469F760957095809590959B01AC0130
:1055F000BD01CF010895F894FFCFFF0FFF0F0810F2
:1056000008100A10081008100810FF0FFF0F0F10E5
:10561000081008100F10BC12E4128614E41286144D
:10562000171338138614351442141F1516152C152C
:1056300014157915791514157915791548157915F5
:1056400053155E1579157915791579151415791590
:105650007915141579153A15791579157715771582
:1056600077157715771577157715771577156915E8
:1056700079151F151215791579157915791579157B
:1056800079157915791579157915691579157915BA
:10569000141579156F156F156F156F156F156F153B
:1056A0006F156F156F156915C818D018D218EE1838
:1056B00002191A193119F61AF61A311B311BE01B9F
:1056C000FA1B611B611B051C721C831C831C1328A5
:1056D00017286B287C288728AA28AD280A2944295E
:1056E00079287928532956295A298029A229A529B8
:0456F000A729CB29F2
:1056F4006A04CF0BAE0BAA0BA60B69041E32140A64
:10570400280801191A1B1C1D1E1F20212201020139
:105714000101818283E200E900EA00B500B600B726
:1057240000CD008301CC008A01920194012102235F
:105734000224022502260227022A02B300B4006FC3
:1057440000700093919266673664653332000102FB
:105754000202020606060909090909090F0F0F0FBB
:105764000F0F1515151819191919191919191919C6
:1057740023244022B64C012A017400A505BE05DE8F
:0257840005001E
:00000001FF
