:100000000C94CC010C9404020C9404020C94040291
:100010000C9404020C9404020C9404020C94040248
:100020000C9404020C9404020C9404020C942223F9
:100030000C94D3230C945E1E0C9404020C940402C2
:100040000C9404020C9404020C9413190C94E51EF5
:100050000C9404020C9404020C9404020C94040208
:100060000C9404020C9404020C9404020C940402F8
:100070000C9404022900E000E2002A00530054001E
:10008000550056005F006000610057005C005D0095
:100090005E00570059005A005B0058006200620081
:1000A0006300580000000000000000000000000194
:1000B000010203040506080A0C0F1114181C202461
:1000C000292E33393F464C535B626A7179818A929B
:1000D0009AA2AAB2B9C1C8CFD5DCE1E7EBF0F4F738
:1000E000FAFCFDFEFFFEFDFCFAF7F4F0EBE7E1DCC5
:1000F000D5CFC8C1B9B2AAA29A928A8179716A622F
:100100005B534C463F39332E2924201C1814110F01
:100110000C0A0806050403020101000000000000AB
:1001200000000000000101010101010101010202C2
:100130000202020202020203030303030303030495
:100140000404040404040505050505060606060660
:10015000070707070708080808090909090A0A0A1A
:100160000B0B0B0C0C0C0D0D0D0E0E0E0F0F0F10BC
:100170001011111112121313141415151616171746
:10018000181819191A1A1B1B1C1D1D1E1E1F2020B2
:10019000212222232424252626272829292A2B2CFC
:1001A0002D2D2E2F30313232333435363738393A1F
:1001B0003B3C3D3E3F404142434445464748494A17
:1001C0004C4D4E4F50515354555658595A5B5D5EE5
:1001D0005F616264656668696B6C6D6F7072737580
:1001E00077787A7B7D7E8082838587888A8C8E8FE4
:1001F00091939596989A9C9EA0A2A3A5A7A9ABAD12
:10020000AFB1B3B5B7BABCBEC0C2C4C6C9CBCDCFFF
:10021000D1D4D6D8DBDDDFE2E4E7E9EBEEF0F3F5AD
:10022000F8FAFDFF18034B00420044005000410063
:1002300044002D004D004B00490049000000100310
:100240004B0042004400660061006E007300000035
:100250000403090409023B00020100A0FA0904009A
:1002600000010301010009211101000122400007E2
:1002700005810308000109040100010300000009D1
:10028000211101000122B60007058203200001129E
:100290000100020000000803A106000100010200A5
:1002A0000105010902A10185020901A10005091941
:1002B000012908150025019508750181020501092C
:1002C0003009311581257F95027508810609381599
:1002D00081257F950175088106050C0A3802158174
:1002E000257F950175088106C0C005010980A1011F
:1002F000850319012AB700150126B700950175106D
:100300008100C0050C0901A101850419012AA00280
:10031000150126A002950175108100C0050109068E
:10032000A1018506050719E029E7150025019508B3
:10033000750181020507190029EF1500250195F0C7
:1003400075018102050819012905950575019102BC
:10035000950175039101C005010906A10105071961
:10036000E029E715002501950875018102950175C1
:100370000881010507190029FF150026FF009506D1
:100380007508810005081901290595057501910277
:10039000950175039101C00011241FBECFEFD4E079
:1003A000DEBFCDBF04B603FE18C08091D402909189
:1003B000D502A091D602B091D7028730904BA740CA
:1003C000B04B59F41092D4021092D5021092D6027A
:1003D0001092D702E0E0F8E3099511E0A0E0B1E067
:1003E000ECE5FEE402C005900D92A039B107D9F703
:1003F00022E0A0E9B1E001C01D92A43DB207E1F7FF
:100400000E9472110C9492260C940000811113C06A
:10041000663088F4443078F4E62FF0E0EE0FFF1FEA
:10042000EE0FFF1FE40FF11DEE0FFF1FEC58FF4F03
:1004300085919491089581E090E008950E940602CC
:10044000089581E0089581E008950E9423020895AF
:1004500008950E9428020895A5E0B0E0E2E3F2E0EA
:100460000C940C2649835A833091970189819A8193
:10047000311119C0662399F0222389F00E94630884
:10048000182F682F89819A810E943C0869817A819E
:10049000812F0E94FB0E2596E3E00C9428260E94F3
:1004A0004F08182FF3CF0E94630869817A81F1CF3A
:1004B000FC01262F408151816281738184810E94D9
:1004C0002C02089581E00895CF93DF93EC0160E062
:1004D0000E945802BE010E942902DF91CF91089527
:1004E0000E942C1008950E943010089508950E94D3
:1004F0000B070E9476022FEF84E39CE0215080409E
:100500009040E1F700C0000008950E9477020E9429
:10051000091F08950E9477020E942D1F08950F93CE
:100520001F93CF93DF938C0161E00E945802EC018E
:10053000B8010E942502811106C080E0DF91CF91B1
:100540001F910F910895B801CE010E942A188823A7
:10055000A1F3B801CE010E94861C882371F3B80173
:10056000CE010E94EF19882341F3B801CE010E9409
:10057000F81B882311F3B801CE010E94BB16882313
:10058000E1F2F8018281882361F0C330FCE7DF07E4
:10059000E9F058F4C115ECE7DE07A9F0C130DC47FB
:1005A000B9F0C8010E942102C9CFCB358CE7D8072A
:1005B000A9F0CC35ECE7DE0771F0CA35DC4789F7E6
:1005C0000E949B0CEECF0E948502B7CF0E94A30C25
:1005D0000E948A02B2CF0E94910CE3CF0E949F0C2E
:1005E000E0CF0E94411E80E00E94CD180E942803A7
:1005F0000E94561508950E9456170E942C030E94CF
:10060000AD160E94461E0895089581E0089580FD6C
:1006100002C02C9A08952C980895CF93DF93D82F79
:100620000E940503C82F882319F08D2F0E9407030D
:100630008C2FDF91CF910895249A2C9A0895CF930F
:10064000C82F0E9404038C2F0E940D03CF910895A0
:1006500080E00E941F0308950E94D41C0E941F0383
:100660000895CF930E94D41CC82F809192018C17BB
:1006700079F0C09392010E94CA1E60939301709317
:10068000940180939501909396018C2F0E941F03F3
:10069000CF910895ABE0B0E0E0E5F3E00C940D26D7
:1006A0004F83588769877A878B8761110E94DC0B9B
:1006B0001E821D8285E0FE013796DE0111960190B3
:1006C0000D928A95E1F78C819D81892B61F4498196
:1006D0005A816B817C818D819E810E94FF0A2B96BD
:1006E000E2E00C94292689819A8189238F3F79F34E
:1006F000CE0101960E9462028111E9CFF0CFFC0188
:10070000808191810E9495080895662329F00E94B6
:10071000FF110E94D21208950E945912FACFCF936E
:10072000C82F8823C9F08238C9F40E94D41C81FDE7
:1007300013C089E30E94940B0E94FD0B2FEF87EEFC
:1007400093E0215080409040E1F700C0000089E331
:100750000E949C0B0E94FD0BCF9108958338A1F459
:100760000E94D41C80FDF8CF83E50E94940B0E9468
:10077000FD0B2FEF81EE94E0215080409040E1F797
:1007800000C0000083E5E4CF8438A1F40E94D41CAB
:1007900082FDE2CF87E40E94940B0E94FD0B2FEFB5
:1007A00081EE94E0215080409040E1F700C00000CD
:1007B00087E4CECF8CEF8C0F813AB8F48C2F0E9457
:1007C0003D1B8111C9CF6C2F8091000190910101D7
:1007D0000E94671D882329F08C2F0E949C0B0E9489
:1007E000FD0B8C2F0E94940BB5CF80E28C0F8830CC
:1007F00048F4C77081E001C0880FCA95EAF70E94EB
:10080000BF0BA8CFEBE5EC0FE33040F4F0E0E45B86
:10081000FE4F808190E00E94091D9ECFE8E5EC0F1D
:10082000E93150F4F0E0EE0FFF1FE65EFE4F8081ED
:1008300091810E942E1D90CF83E38C0F833108F0AD
:100840008BCF61E08C2F0E94850386CF882309F42B
:1008500056C0823879F40E94D41C81FF50C089E3CD
:100860000E94940B0E94FD0B89E30E949C0B0E9446
:10087000FD0B0895833859F40E94D41C80FF3FC0BB
:1008800083E50E94940B0E94FD0B83E5EECF843834
:1008900059F40E94D41C82FF32C087E40E94940B5A
:1008A0000E94FD0B87E4E1CF9CEF980F913AE8F2AC
:1008B00090E2980F983050F4877091E001C0990F42
:1008C0008A95EAF7892F0E94C50BD1CF9BE5980F37
:1008D000933028F490E080E00E94091D089598E587
:1008E000980F993128F490E080E00E942E1D089521
:1008F00093E3980F933118F460E00E948503089504
:100900001F93CF93DF93182FEB010E948F03209743
:1009100039F4812F0E942604DF91CF911F91089511
:100920008FE99FE00197F1F700C000002197EFCF1A
:1009300070E060E0893311F460E570E00E948004AB
:100940000895882321F00E94BF0B0E94FD0B08959B
:10095000882321F00E94C50B0E94FD0B0895B0E092
:10096000A0E0E5EBF4E00C9406266C01D62FC72F2F
:10097000FC011281058102950F700E94B50BE82ED3
:100980008823E9F0E12E1123D1F08C2F807F803471
:1009900051F080E28D0F8830F8F0011104C08C2FE7
:1009A000807E8032C9F08091800282FF15C082E093
:1009B0000E94600C0E94B50B91E0E82EE926BC2E47
:1009C000B2949FE0B922FBE0FB15B8F1EB2DF0E00B
:1009D000EC56F94D0C94F725E12CF1CF0C2F0F704C
:1009E000C07F11F00295007F112399F0002359F088
:1009F00080E28D0F883010F0D11107C0802F0E9447
:100A0000BF0B0E94FD0B8D2F63C0802F0E94CF0B68
:100A1000F8CF8D2F0E942604002379F080E28D0FFD
:100A2000883010F0D11104C0802F0E94C50B03C084
:100A3000802F0E94D50B0E94FD0B2B2D2850330BCD
:100A40002430310520F40E94D41C0E941F03EE20A4
:100A500089F00E94B10B80FD0DC0F60112820E9448
:100A6000AB0B0E949A07C6010E94CB060E94AB0BFB
:100A70000E94AA07CDB7DEB7E9E00C9422262C2FFE
:100A80002F70F22EC07FC03219F0F29480EFF8225E
:100A9000DD2381F0D13009F449C0112309F451C09C
:100AA000002309F448C0F601858180FFACCF8F7028
:100AB000858341C08091800282FD15C0112359F0C9
:100AC000FF2029F08F2D0E94BF0B0E94FD0B80E0BC
:100AD0000E948F03B2CF80E00E942604FF2009F419
:100AE000ACCF8F2DA2CF112381F0011106C00E943F
:100AF000DF0B8F290E94A104A0CF0130C1F70E9413
:100B0000DF0B8F290E94E60B98CF011106C00E94CF
:100B1000F30B8F2D0E94A80490CF013009F48DCFE4
:100B20008F2D0E94A8040E94F30B87CF112329F078
:100B3000063008F082CF8F2DDDCF053008F07DCF55
:100B4000E8CF002331F3D93349F4FFEF27EE33E048
:100B5000F15020403040E1F700C000008D2F0E948E
:100B600026046BCF8C2F86958695837069F0813033
:100B700009F063CF8D2F9C2F9370111102C080E07C
:100B800090E00E942E1D59CF8D2F9C2F9370111134
:100B900002C080E090E00E94091D4FCF612F8D2F91
:100BA0000E9485034ACF8C2F8370A1F5111145CF88
:100BB0004D2F429546954770440F440F2D2F2F70AF
:100BC00030E0042E02C0220F331F0A94E2F790E0B7
:100BD00080E0D4FF09C08FE090E002C0880F991F29
:100BE0004A95E2F780959095C695C695C370822B7D
:100BF000932BC23049F058F4C13019F00E946A07B3
:100C00001CCF0E94610719CF0E94730716CF0E9464
:100C10005E0713CF8695112311F08C2F81708823E6
:100C200009F40BCF4D2F429546954770440F440F62
:100C30002D2F2F7030E0042E02C0220F331F0A9494
:100C4000E2F790E080E0D4FF09C08FE090E002C0BE
:100C5000880F991F4A95E2F780959095C695C6959D
:100C6000C370822B932BC23049F058F4C13019F075
:100C70000E94D507E2CE0E94CC07DFCE0E94DE079D
:100C8000DCCE0E948207D9CECF70112329F08C2FA1
:100C90000E949A078D2F2ECF8D2F0E94A8048C2F93
:100CA0000E94AA07CACED23F41F160F4D03FB9F00A
:100CB000D13F81F0112309F446C00111A4CE8C2F3D
:100CC0008F711FC0D33F01F1D43FA1F78091800203
:100CD00082FD24C08C2F8F71112311F312C01123B8
:100CE00041F0053008F0A9CE8C2F8F710E94BC070F
:100CF000A4CE063008F0A1CEF7CF8C2F8F71111142
:100D0000CFCF0E949A0799CE112329F08C2F8F7193
:100D10000E948E0792CE0E9489078FCE112349F040
:100D2000CF718C2F0E949A0763E08C2F0E94420C97
:100D300084CE81E00E94600C023008F47ECE82E016
:100D40000E94600C7ACE002359F0D93309F006CF07
:100D50008FEF97EEE3E081509040E040E1F7FCCE6A
:100D60008C2F8F719DCF0F931F93CF93DF93EC0147
:100D7000688179818A810E94A0088C010E94E7071E
:100D80000E945D07B801CE010E94AF04DF91CF91B0
:100D90001F910F910895CF93DF93EC018B819C817C
:100DA000892B29F08881998189238F3F51F4DF9124
:100DB000CF910895CE010E94B306CE010E94640235
:100DC000F6CFCE010E948F028111F4CF0E94B50BA5
:100DD000882369F38A81882351F38091800282FFFE
:100DE000E6CF82E00E94600CE2CF90E080E00E94BB
:100DF000091D90E080E00E942E1D0E94DC0B0E94E5
:100E0000FD0B0E94EE120E94D21208950E94A40BC4
:100E10000E94F50608950E94CC0B0E9406070895D3
:100E200092959F70963091F058F4925F9F70923037
:100E300058F4803F19F030F4883E30F481E0089592
:100E40009A5FF4CF843FD1F380E00895883EB0F3F9
:100E5000813FD1F7F3CFFC0183819481892B29F065
:100E60008081918189238F3F11F480E008958081F2
:100E700091810E9495080E9410070895A5E0B0E0B6
:100E8000E4E4F7E00C940D262596E2E00C94292684
:100E9000A6E0B0E0EEE4F7E00C940D262696E2E042
:100EA0000C94292608950E94520708950E94530722
:100EB0009093A7018093A601089508950E94560774
:100EC00008952091A6013091A701822B932B0E94B7
:100ED000560708952091A6013091A70182239323FC
:100EE0000E94560708952091A6013091A7018227FC
:100EF00093270E94560708950E94520708950E9462
:100F00007C0708950E947F079093A5018093A40118
:100F1000089590E080E00E948207089521E030E08B
:100F2000A90102C0440F551F8A95E2F7CA010E9429
:100F30008207089521E030E002C0220F331F8A9516
:100F4000E2F78091A4019091A501822B932B0E943E
:100F50008207089521E030E002C0220F331F8A95F6
:100F6000E2F7209530958091A4019091A50182230C
:100F700093230E948207089521E030E002C0220FEF
:100F8000331F8A95E2F78091A4019091A5018227F1
:100F900093270E94820708952091A4013091A50112
:100FA000822B932B0E94820708952091A4013091F7
:100FB000A501822393230E94820708952091A40112
:100FC0003091A501822793270E94820708950895F2
:100FD000262F277091E001C0990F2A95EAF723E0A8
:100FE000769567952A95E1F7660F771F660F771F4D
:100FF000FA01E60FF71F50E040E0682F70E08191A2
:10100000DF0111979B01042E02C0369527950A94A3
:10101000E2F7217021952827292328272C934F5F59
:101020005F4F4430510559F70895A82FA77023E06A
:10103000969587952A95E1F7880F991F880F991F34
:10104000FB01E80FF91F50E040E080E0219130E023
:101050000A2E02C0369527950A94E2F721703327AD
:10106000042E01C0220F0A94EAF7822B4F5F5F4FD4
:101070004430510559F70895262F963078F484307E
:1010800068F4692F70E0660F771F660F771F680F8F
:10109000711D48E951E0822F0E94E80708959630BB
:1010A00080F4843070F4292F30E0220F331F220F98
:1010B000331F68E971E0820F932F911D0E9415087C
:1010C000089580E00895B0E0A0E0E9E6F8E00C942F
:1010D00006267C010091A4011091A5018091A60132
:1010E0009091A701082B192BCFE0D0E0CC24C3941A
:1010F000D12CBC2EC6010C2E02C0880F991F0A9459
:10110000E2F780239123892B49F4219790F7B12CA2
:101110008B2DCDB7DEB7E9E00C942226B7018C2FDA
:101120000E94070F019789F3F3CFCF93DF93EC0170
:101130000E946308BE010E94070FDF91CF910895BE
:101140001F93CF93DF93EB0190919701992339F08F
:10115000CB010E949508DF91CF911F9108958823BC
:1011600069F0CB010E946308182F682FCE010E94FE
:101170003C08BE01812F0E94070FEDCFCB010E94DA
:101180004F08182FF6CFCF93DF93C091A80180911D
:10119000A9018C1303C0DF91CF910895D0E0CE0157
:1011A00066E070E00E948325FC01E655FE4F408119
:1011B000518162817381848195810E9448072196C3
:1011C000C770E5CF4091DA015091DB016091DC01FD
:1011D0007091DD018091DE019091DF010E9448074E
:1011E0000895CF93B82FC62F2091A801A091A901EF
:1011F0002A1303C080E0CF91089530E0C90166E072
:1012000070E00E948325FC01E655FE4F81818C131E
:1012100006C080818B1303C08281841304C02F5FBA
:101220003F4F2770E5CF81E0E6CF1F93CF93DF9349
:101230008091DF01807F09F04AC08091DC01882322
:1012400009F445C02091A801B091A9014091DA01AB
:10125000A091DB01C091DD01D091DE01142F1A2392
:10126000B217A9F130E02097B1F11F3FA1F1C901F8
:1012700066E070E00E948325FC01E655FE4F818107
:101280008A1329C08081841326C08281811123C0E2
:10129000838194818C1B9D0B883C9105E0F48091A7
:1012A000DF018F7080618093DF01C90166E070E02B
:1012B0000E948325FC01E155FE4F90819F70906153
:1012C00090838AED91E00E94CB060E94C308DF91D3
:1012D000CF911F9108952F5F3F4F2770C1CFA1E19C
:1012E000B0E0E5E7F9E00C9403268C0185E0F80115
:1012F000DE011D9601900D928A95E1F7F801F280CA
:101300008AEDA82E81E0B82E4091DD015091DE01DA
:101310004115510509F45AC19091DA012091DB0180
:10132000892F82238F3F09F451C1C080D1808380EF
:101330009480E090DC01B401641B750BEE2009F48D
:10134000F6C08091DF01382F307F683C710508F0CE
:10135000AFC031117AC0EF2C2D1116C09C1114C0F2
:10136000F11012C08F7080618093DF010E94E2084B
:10137000C5010E94CB068091DF01F80185838E2D87
:101380006196ECE00C941F2681149104C9F18C2D18
:101390008D218F3FA9F181E08F2580FF05C04F2D62
:1013A0006D2D8C2D0E94F1088114910459F18C2D22
:1013B0008D218F3F39F181E08F25F82FF170BF2EFD
:1013C00080FF39C04F2D6D2D8C2D0E94F108A82E65
:1013D000811131C0CD86DE868D859E850E9495085F
:1013E000292F22952F70243078F49F702230A8F096
:1013F0009923B9F0F8019581907F99F4EA2CBFCF39
:1014000080E0CBCF80E0D9CF2A5F2F70223068F008
:10141000C8010E94CB06AB2CF1CF992311F0882391
:1014200069F3805E883050F3F3CF803F38F3815FFB
:10143000833070F7E3CFFF2009F4A1CF8091DF0163
:1014400081608093DF01E12C9ACF2D1105C09C11A2
:1014500003C0FF2009F486C0C8010E942B0788231F
:1014600019F1FF2009F18091DF01803270F02091A5
:10147000DA013091DB0138872F8319869B868A86B3
:101480008C87CE0107960E94CB0686E0F801AAED74
:10149000B1E001900D928A95E1F70E9415090E9432
:1014A000E208EE24E3946BCFC8010E94CB06F9CF8B
:1014B000311114C0782D998A888AA6016F2D8989E7
:1014C0000E943E078AED91E00E94CB0686E0F5017E
:1014D00011928A95E9F70E94E208B5CF2D110EC04E
:1014E0009C110CC0F1100AC08583C8010E94CB0674
:1014F00086E0F50111928A95E9F741CFC8010E9473
:101500002B07882389F2FF2079F28091DF01803256
:1015100008F4BBCF2091DA013091DB013A832983B3
:101520001B829D828C828E83CE010196ACCF683C5B
:10153000710508F03DC0EF2CFF2009F4B5CF2D1147
:1015400029C09C1127C08091DF0180FD1AC0982F0F
:10155000907FB9F08583903F31F0982F907F905F16
:101560008F70892B8583C8010E94CB0686E0F80125
:10157000AAEDB1E001900D928A95E1F70E94E20890
:10158000FECE86E0F801AAEDB1E001900D928A95B9
:10159000E1F7F5CEC8010E942B07811176CF80912B
:1015A000DF0181608093DF01C8010E94CB06E7CE96
:1015B000782D998A888AA6016F2D89890E943E0715
:1015C00086E0F50111928A95E9F7D8CFFF2009F45A
:1015D0006BCFC8010E942B07E82E882309F464CF43
:1015E00086E0F801AAEDB1E001900D928A95E1F74D
:1015F0008AED91E00E947F030E941509BFCFACE005
:10160000B0E0E5E0FBE00C940D264F835887698736
:101610007A878B879C87CE0107960E946F09882363
:10162000A9F08A859B85892B39F04F815885842FB5
:1016300085238F3F09F071C08091A8019091A90185
:10164000891344C02C96E2E00C94292686E0FE0122
:101650003796DE01119601900D928A95E1F78A8501
:101660009B85892B49F38F81988589238F3F21F3AF
:101670008091A90190E09C012F5F3F4F2770332795
:101680004091A8014217130671F40E940B071092B3
:10169000A9011092A80186E0EAEDF1E0DF011D92B8
:1016A0008A95E9F7C9CF66E070E00E948325DC01E6
:1016B000A655BE4F96E0FE01319601900D929A9587
:1016C000E1F72093A9010E94C308B6CF90E066E03D
:1016D00070E00E94832586559E4F0E946F098823E3
:1016E00009F4B0CF8091A80190E066E070E00E941C
:1016F0008325FC01E655FE4F408151816281738153
:10170000848195810E9448078091A80190E001960C
:10171000877099278093A8018FCF69857A858B85FB
:101720009C850E94480788CF682F80910001909186
:1017300001010E94E71D0895682F8091000190919A
:1017400001010E94F51D0895809100019091010111
:101750000E94031E089580910002859585958595C8
:10176000089580910002877008959091000297700B
:1017700081E009F480E0089580912302089590911A
:101780002302892B80932302089580959091230250
:101790009823909323020895109223020895909124
:1017A0002202892B80932202089580959091220233
:1017B0009823909322020895109222020895809116
:1017C0000102089508950E94E20B0895909180020D
:1017D00092FF08C090910102981721F080930102B6
:1017E0000E94E30B089580910102882329F0109252
:1017F000010280E00E94E30B0895CF93DF93E09114
:101800000001F0910101809123028083E0910001A9
:10181000F0910101808190912202892B8083909127
:101820000102992381F0E0910001F0910101808192
:10183000892B808380910001909101010E94531DAA
:1018400081110E94F30BC0910001D091010140E28F
:1018500050E060EE71E0CE010E943426892B59F0F1
:1018600080E2FE01A0EEB1E001900D928A95E1F7D1
:10187000CE010E94E11CDF91CF91089508950E944E
:101880003E0C08959091800292FF11C0982F990FFD
:10189000990F990F962B909300020E949A078091BE
:1018A00000028595859585950E943F0C08950E94BC
:1018B0009A0708951092000280E00E943F0C08955C
:1018C000909100028095892380930002282F277031
:1018D00091F4282F082E000C330B9217130659F0A1
:1018E0009091800292FF07C08595859585950E940D
:1018F000AA070E945A0C08959091800292FB222719
:1019000020F9281769F080FB92F99093800280916A
:101910007F02909180020E94C40C82E00E94600CC1
:1019200008958091800282FB882780F991E08927C1
:101930000E947C0C089581E00E947C0C089580E058
:101940000E947C0C08956FEF7FEF90E080E00E9492
:101950007C26089590E080E00E94582621E0873E92
:101960009E4F09F020E0822F089582E090E00E94CF
:101970004A26089583E090E00E944A26089584E074
:1019800090E00E9458260895BC0184E090E00E94F7
:101990007C260895AB01BC018FE090E00E94702688
:1019A0000895AB01BC0183E190E00E947026089588
:1019B00060E070E0CB010E94D10C089560E070E01F
:1019C000CB010E94CA0C0E94D80C089567EE7EEFEE
:1019D00090E080E00E947C2660E082E090E00E943F
:1019E0005E2660E083E090E00E945E261092A701F0
:1019F0001092A60160E074E184E090E00E947C26F1
:101A000060E086E090E00E945E266FEF87E090E065
:101A10000E945E2640E050E0BA0188E090E00E941B
:101A2000702660E08DE090E00E945E2640E050E08D
:101A3000BA0188E190E00E94702660E087E190E0C2
:101A40000E945E2640E050E0BA018CE190E00E94E6
:101A5000702670E060E080E290E00E947C2640E02A
:101A600050E0BA0188E190E00E9470260E94DE0CEE
:101A700008950E94E60C0895682F8EE090E00E9481
:101A80005E2608950E94CA1E609330027093310250
:101A9000809332029093330260932C0270932D0254
:101AA00080932E0290932F020895089508950E9426
:101AB000560D089508950E945A0D089581EF9FE0F4
:101AC0000E94CA1C0E94550D0E94570D089581E086
:101AD00008950E94670D0895089508950E946C0D61
:101AE0000E946D0D08950E940D100E941C030E941B
:101AF000AC1908950E94B51E0E94D5100E94730D66
:101B00000E9456170E9473160E945B0D0895AAE06A
:101B1000B0E0EDE8FDE00C9405260E94EB1086E2B3
:101B2000A82E82E0B82E750110E0F70101917F0127
:101B3000812F0E9433101F5F163009F440C0081730
:101B4000A1F38091340281FD0E9439100E94690D39
:101B5000C82E10E0812F0E943310082FF5018191CB
:101B60005F01081731F1D02ED826F12CEE24E39432
:101B70008D2D8E21B1F0CC20A1F0FE821F8391E04B
:101B8000802F8E2109F490E098870E94BE1E81600C
:101B9000782F9A8789874E815F8168858A850E9420
:101BA0004A03F394EE0CF4E0FF12E2CFF501319713
:101BB00000831F5F163071F60E94420D20C008138B
:101BC000C0CF0E94BE1E8C018091240290912502FC
:101BD00008171907A1F08FEF89838A831B820E945F
:101BE000BE1E8160782F9D838C8349815A816B81D1
:101BF0008D810E944A0310932502009324020E94C3
:101C0000FC180E9410130E9431032A96EAE00C94FB
:101C10002126CF93DF930E940C0FEC01811520E564
:101C20009207D0F5811530E4930708F088C0803E14
:101C3000910518F58D3C910508F07FC0883A910513
:101C400070F4853A910508F070C08130910501F17A
:101C50000097F1F00497E0F4D0E0C0E019C0813CB7
:101C60009105D0F7C85AD0E0CC0FDD1FC15BDE4F25
:101C70000990D881C02DD4640BC08115904208F022
:101C8000ADC0C11581E0D80718F4C83ED10520F7D2
:101C9000CE01DF91CF910895803622E5920720F59D
:101CA000803432E5930708F054C08032924508F042
:101CB00049C0C11582E5D80708F482C02C2F2695AB
:101CC000269530E0A5E0220F331FAA95E1F78C2F6F
:101CD0008370C1E0D0E002C0CC0FDD1F8A95E2F72F
:101CE000C22BD32BDD68D4CF803A22E5920760F473
:101CF000803832E5930708F442C0CF71D0E0DC2F82
:101D0000CC27C46FD06AC4CF803C42E5940708F466
:101D10004CC0C03E82E5D80708F09ECFDC2FCC2710
:101D2000CC27DF71C06FD06AB3CFC55AD0E0CF5790
:101D3000DE4FC881D0E0D064ABCFD065A9CFDF70D3
:101D4000D06AA6CFCF71D0E0DC2FCC27C16FD06A8C
:101D50009FCF282F26952695277030E0E5E0220FAB
:101D6000331FEA95E1F78370C1E0D0E002C0CC0FE9
:101D7000DD1F8A95E2F7C22BD32BDC6889CF282F91
:101D800026952695277030E075E0220F331F7A954F
:101D9000E1F78370C1E0D0E002C0CC0FDD1F8A956F
:101DA000E2F7C22BD32BDA6873CF8F710E94AE0F8C
:101DB000C82FD0E0DC2FCC27CC27DF71D06268CFD2
:101DC0008C2F8F710E94AE0F35E0D695C7953A954E
:101DD000E1F7CF709C2FEC01D0695ACF8D2F8F7116
:101DE0000E94AE0F90E0982F882788279F719C0152
:101DF0002C2BE901E3CF462F763030F4643020F409
:101E0000672F0E941E02089590E080E008950E94CE
:101E1000FB0E0E94090E089582389105B9F1B0F4C5
:101E20008133910509F47DC048F48932910509F4A4
:101E30006DC08A32910509F47BC008958533910500
:101E400009F45FC08933910509F10895833E910536
:101E5000D9F138F4803E910529F1823E910579F15E
:101E60000895863E9105D9F1873E910509F43EC05B
:101E7000843E910541F52091800221FF24C080918C
:101E80007F0284FD19C087EE90E0089520917F02C3
:101E9000237009F05AC02091800223FF14C089E208
:101EA00090E0089520917F0220FD38C0309180029B
:101EB00030FF09C024FF43C090E080E008952091E6
:101EC0007F0222FDF7CF089520917F0222FD3AC0C4
:101ED0003091800230FD39C024FFF5CFEDCF209145
:101EE0007F0223FFF0CF24FDE7CFCDCF20917F02EB
:101EF00023FD2EC03091800231FFEECF84EE90E0C2
:101F0000089520917F0225FFDECFC9CF20917F0267
:101F100025FD21C02091800223FFD5CF89E390E0E9
:101F2000D2CF20917F0226FFCECF8AE290E00895A3
:101F300020917F0226FFC7CF81E390E0089583EED2
:101F400090E0089582EE90E0089580EE90E008958C
:101F500086EE90E0089585E390E0089590917F02E9
:101F600092FF06C0282F28712830F9F4877F8460FB
:101F700093FF06C0282F28712831F1F4877E8461F1
:101F80002091800220FF06C0382F38713830D9F4F4
:101F9000877F816021FF06C0282F28712831D1F466
:101FA000877E816194FD877E0895282F24712430D7
:101FB000F9F68B7F8860DCCF282F2471243101F75C
:101FC0008B7E8861DDCF382F3171313019F78E7FEC
:101FD0008860E0CF282F2171213121F78E7E886122
:101FE000E1CF80E008950E94A30C08950E94EB10B9
:101FF0008FE39CE90197F1F700C000000E94EB100D
:1020000080E00E94331080FF04C00E94F30F0E9402
:10201000091F08950E94F60F08950E94AA0C8111CD
:1020200002C00E94390D0E94B50C809334020E94B8
:10203000BF0C9093800280937F020E940A100E943E
:10204000BA0C90E00E945E078091A4019091A501D6
:102050000E947F07089508950E942B100895089507
:102060000E942F100895E82FF0E0E957FD4F80817E
:102070000895089580EA8A95F1F7089500C00895BB
:102080000E943A100895F894E82FE295EF70F0E07E
:1020900031A1282F2F7081E090E001C0880F2A9590
:1020A000EAF7982F9095932391A392A1892B82A36D
:1020B00078940895CF93DF93C8E8D1E089918F3F5A
:1020C00011F00E94431081E0CE38D807B9F784E6BA
:1020D0000E94431085E60E94431083E30E94431050
:1020E00082E30E944310DF91CF910895B0E0A0E019
:1020F000ECE7F0E10C940726EC01D62E062F10E059
:10210000C80188579E4F7C01FC0180818F3F09F4F4
:1021100045C0F894E82FE295EF70F0E091A18F7040
:1021200021E030E001C0220F8A95EAF7892F822B47
:1021300081A382A12095282322A378940E943E1097
:10214000E4E8F1E048E851E031E0C12C21912F3F73
:1021500051F1A22FA295AF70B0E090968C9190E0D3
:102160002F7002C0959587952A95E2F780FD1BC0D8
:10217000832FC82A330F4E175F0741F7F70180817D
:102180008F3F11F00E94431061E0C11001C060E078
:102190008D2D0E944010C00FD11FC882CDB7DEB771
:1021A000E8E00C94232680E0E4CF0E945A1086E0F9
:1021B000E7E8F2E0DF01982F1D929A95E9F7E1E850
:1021C000F2E0DF011D928A95E9F786E00E94261170
:1021D0000E9470020895A6E0B0E0E1EFF0E10C94F7
:1021E0000A268E010F5F1F4F86E0F80111928A9533
:1021F000E9F7F12C6F2DC8010E947610F394F6E0F8
:10220000FF12F8CF46E050E0B80181E892E00E946A
:10221000342621E0009709F420E0892B41F086E084
:10222000F801A1E8B2E001900D928A95E1F746E04D
:1022300067E872E081E892E00E942711182F0E945F
:102240007302812F2696E5E00C9426260895CF92FE
:10225000DF92EF92FF920F931F93CF936C017B015C
:10226000042F222349F081E0809337020E94BE1E92
:102270009093360280933502C0913702C1110AC093
:10228000C0E08C2FCF911F910F91FF90EF90DF90C6
:10229000CF90089580913502909136020E94D61E0B
:1022A000059770F310E0A801B601C7010E9434261B
:1022B000892B41F0A801B601C7010E944126109266
:1022C0003702DFCFC0E0FBCF0E948F200E947A0D43
:1022D0000E949C2008950E94A1200E94870D0E94C8
:1022E000BB2008950E945D1E0E9475200E945E0D15
:1022F0000E9464110E946B110E946E0DFBCF8091B1
:102300003E0280FF0DC06091070170E0660F771FED
:1023100060387105A8F561157105A1F1862F089542
:1023200081FF08C06091070170E0660F771F660F9C
:10233000771FEECF6091070170E082FD0BC08091A6
:102340003D028823D1F0209106016091070170E0E1
:10235000821730F043E0660F771F4A95E1F7D8CF38
:1023600090E00E94832533E0880F991F3A95E1F7AA
:10237000622F70E00E94C125CBCF68E070E0CECF25
:102380008FE7089581E0089580913E0280FF0CC0A0
:102390006091030170E07595679575956795611576
:1023A000710559F1862F089581FF06C060910301E0
:1023B00070E075956795F3CF6091030170E082FD41
:1023C0000CC060913C026623A9F02091020180912B
:1023D000030190E0621730F0BC0160387105F8F23B
:1023E0008FE7089570E00E948325622F70E00E94BD
:1023F000C125F3CF61E070E0D5CF81E008958D3C39
:1024000031F40E947F1181958093420208958E3CA1
:1024100019F40E947F11F8CF8F3C31F40E947F1194
:102420008195809341020895803D19F40E947F11A7
:10243000F8CF893D29F40E94C41180934302089586
:102440008A3D21F40E94C4118195F7CF8B3D31F470
:102450000E94C41181958093440208958C3D19F423
:102460000E94C411F8CF9FE2980F983070F4815DFC
:10247000990B21E030E001C0220F8A95EAF78091A4
:102480004002822B8093400208958D3D31F480916B
:102490003E02816080933E0208958E3D21F480913A
:1024A0003E028260F7CF8F3DB9F780913E02846093
:1024B000F1CF409141028D3C59F48091420287FF57
:1024C0000DC01092420241110BC010923D0208C093
:1024D0008E3C81F48091420218169CF3442381F0D3
:1024E0008091430290914402892B09F05AC01092C6
:1024F0003C0208958F3C49F447FFF0CF109241020F
:10250000809142028111ECCFE0CF803D19F4141686
:10251000ACF3E4CF90914302893D29F41916F4F607
:1025200010924302DBCF8A3D19F497FFD7CFF8CF43
:10253000909144028B3D29F497FFD0CF1092440232
:10254000CDCF8C3D19F41916CCF3C8CF9FE2980F6C
:10255000983090F4815D990B21E030E0B90102C020
:10256000660F771F8A95E2F7CB0180959091400224
:10257000892380934002B2CF8D3D31F480913E0299
:102580008E7F80933E02AACF8E3D21F480913E0241
:102590008D7FF7CF8F3D09F0A1CF80913E028B7FD9
:1025A000F0CF08950E94BE1E9C019091410280913F
:1025B0004202982B21F030933B0220933A029091F3
:1025C000430280914402982B21F0309339022093EA
:1025D00038028FE392E00E94FB1C089586E0EFE34F
:1025E000F2E0DF011D928A95E9F710923D02109208
:1025F0003C0210923E020895FC01828181110EC0BE
:10260000838181110BC08481811108C091E0858193
:10261000811101C090E0892F8170089581E0FCCF85
:10262000A6E0B0E0E6E1F3E10C940C2686E0EFE3EF
:10263000F2E0DE01119601900D928A95E1F7109279
:1026400041021092420210924302109244028B8186
:102650009C81892B89F080913A0290913B020E94E3
:10266000D61EFC0120913D022223C9F18091080170
:102670008E171F0608F441C08D819E81892B91F031
:1026800080913802909139020E94D61EFC0120915F
:102690003C02222309F476C0809104018E171F06A4
:1026A00008F47FC0BE016F5F7F4F8FE392E00E940E
:1026B000151E811105C08FE392E00E94FC1281116A
:1026C0000E94D21286E0FE013196AFE3B2E00190A3
:1026D0000D928A95E1F72696E3E00C9428268091E6
:1026E000090190E06AE070E00E9483258E179F0741
:1026F00018F62F5F20933D0202C02F3FD1F71B81B8
:10270000112351F00E947F116FEF11160CF461E05C
:102710000E947A25809341021C81112351F00E946E
:102720007F116FEF11160CF461E00E947A258093FF
:10273000420280914102882309F49ECF20914202F7
:10274000222309F499CF082E000C990B65EB70E059
:102750000E948325992371F090934102822F220FCA
:10276000990B65EB70E00E948325992339F09093D3
:10277000420282CF81E080934102F0CF81E08093DA
:1027800042027ACF8091050190E06AE070E00E94F9
:1027900083258E179F0708F085CF2F5F20933C027B
:1027A00002C02F3FD1F71D81112351F00E94C411A7
:1027B0006FEF11160CF461E00E947A2580934302BA
:1027C0001E81112351F00E94C4116FEF11160CF4F9
:1027D00061E00E947A25809344028091430288231D
:1027E00009F460CF20914402222309F45BCF082E24
:1027F000000C990B65EB70E00E948325992371F022
:1028000090934302822F220F990B65EB70E00E9498
:102810008325992339F09093440244CF81E080933B
:102820004302F0CF81E0809344023CCFEF92FF92CD
:102830000F931F93CF93DF93982F71110FC04423F1
:1028400029F0E82FF0E0EC5DFE4F9491692F792F8D
:10285000892FCDB7DEB7E6E00C942526262F30E091
:10286000C72FD0E0E82FF0E0442321F0EC5DFE4FCD
:10287000E491F0E0C90166E070E00E9483250FEF6B
:1028800010E0B8010E94AD25DB01220F331FCB0100
:1028900065E570E00E948325281B390BE22EEE0CC3
:1028A000E20EC8018C1B9D0BBF010E948325292FBE
:1028B000F12CC701BE010E948325492F50E0C801B9
:1028C000841B950BBF010E948325392FC8018E19E7
:1028D0009F09BE010E948325492F50E0C801841B37
:1028E000950BBF010E948325892F7E2FA230B10551
:1028F00089F038F4109759F0119781F0922F232F17
:1029000006C0A430B10569F080F01697B9F7692FB9
:10291000822F9FCF9E2F722F282FF9CF9E2F732F9C
:10292000F6CF922F2E2F782FF2CF722F2E2F932F9C
:10293000EECF41E00E94161408950E949914089564
:10294000CF93DF93762FE901682F842F0E949D1487
:10295000798368838A83DF91CF91089580918D0276
:10296000982F9E7F39F480918D02817082608093D0
:102970008D0208958430B8F7089588E090E00E94B1
:1029800052260895CF92DF92EF92FF926B017C0165
:102990000E94AE14B701A60188E090E00E94702664
:1029A000FF90EF90DF90CF900895EDE8F2E083E0A4
:1029B00080831182128213821482608171818281EC
:1029C00093810E94C214089590919102933018F45B
:1029D0009F5F90939102882351F060918D027091D6
:1029E0008E0280918F02909190020E94C2140895ED
:1029F00081E00E94E414089590919102992319F0C6
:102A0000915090939102882351F060918D027091C2
:102A10008E0280918F02909190020E94C2140895BC
:102A200081E00E94FC14089570E00E94C21908958C
:102A300030910B0180918D0280FF0DC080910A01C1
:102A400090E063E070E00E948325632F8E569D4FD7
:102A50000E941415089520910C0140910D01822FC0
:102A600090E063E070E00E948325FC01EE56FD4F8C
:102A7000241720F71182108212822F5F3396F8CF2D
:102A8000EDE8F2E080818E7F8083608171818281B8
:102A900093810E94C2140E9418150895EDE8F2E097
:102AA00080818E7F80830E94181508958091460250
:102AB00081110AC081E08093460280918D0281706D
:102AC000809345020E944E150895A82FB62F80913D
:102AD0008D0280FF11C020910C0130910D01822FD9
:102AE00090E063E070E00E948325FC01EE56FD4F0C
:102AF000231718F00E9418150895A183B08342830C
:102B00002F5F3396F5CFA3E0B0E0E9E8F5E10C9450
:102B10000926F82E062F142FE22E80918D0280FFB9
:102B200028C0E82FE695F0E0E257FE4F90819093A1
:102B300048028E7F823059F49E012F5F3F4F8F2DC8
:102B40000E94A0144B8169818A810E946515F092D0
:102B50008E0200938F0210939002EE2051F060914C
:102B60008D0270918E0280918F02909190020E944E
:102B7000C2142396E6E00C942526EDE8F2E091815C
:102B8000282F4381628188E0890F0E948315089570
:102B900081E00E94BD150895EDE8F2E09181282FB3
:102BA0004381628188EF890F0E948315089581E037
:102BB0000E94CC150895EDE8F2E0628128E0620FF2
:102BC00008F46FEF282F438181810E9483150895B7
:102BD00081E00E94DB150895EDE8F2E0628128E0D3
:102BE000621B08F460E0282F438181810E948315D5
:102BF000089581E00E94EC150895EDE8F2E043812C
:102C000028E0420F08F44FEF282F628181810E9453
:102C10008315089581E00E94FD150895EDE8F2E026
:102C2000438128E0421B08F440E0282F6281818123
:102C30000E948315089581E00E940E16089520E0F9
:102C40000E948315089580918D0280FF18C08170C5
:102C5000826080938D02662351F060918D027091A5
:102C60008E0280918F02909190020E94C214409136
:102C7000900260918F0280918E020E941F1608952B
:102C8000682F81E00E942316089581E00E9440167B
:102C90000895682F90918D0296958FEF890F09F412
:102CA00081E00E942316089581E00E94491608954C
:102CB00061E00E9423160895EDE8F2E080818160D2
:102CC000808386950E945816089580918D0280FF1A
:102CD00003C00E94401508950E945C16089560E0AC
:102CE0000E94231608958091470281112CC00E94F2
:102CF000AA0C811104C00E94390D0E94D5140E94B3
:102D0000BD1460938D0270938E0280938F02909316
:102D100090026E7F61F40E94D5140E94BD146093EE
:102D20008D0270938E0280938F02909390020E9486
:102D3000AE1480918D0280FF03C086950E946F16AD
:102D400081E0809347020895EDE8F2E080818160A0
:102D5000808386950E946F16089510924602809196
:102D6000450281110E94A4160895FA01811101C043
:102D7000FB01099508951F93CF93DF93EC01FB01AD
:102D80001281111110C00E94BC0B8272FE01E05230
:102D9000F847E531F10508F043C0E056F94D0C94D1
:102DA000F7250E946516812FDF91CF911F9108951D
:102DB00044E556E165E476E10E94B516F4CF45E4BA
:102DC00056E164E576E1F8CF47ED55E168EC75E151
:102DD000F3CF48EC55E167ED75E1EECF49EF55E1F2
:102DE00068EE75E1E9CF48EE55E169EF75E1E4CFB2
:102DF0004BE156E16AE076E1DFCF4AE056E16BE174
:102E000076E1DACF40E155E168EF74E1D5CF48EFE4
:102E100054E160E175E1D0CF81E00E945816C3CF44
:102E200011E0C1CF86E090E00E944A260895682F05
:102E300086E090E00E945E260895E2ECF2E0808158
:102E40008470896280830E94171708958091C2025E
:102E500086958695869508958091C20281FD07C06A
:102E600082608093C2020E9417170E94FD18089585
:102E70008091C20281FF07C08D7F8093C2020E94B1
:102E800017170E94091908958091C20281FF03C09B
:102E90000E94381708950E942C1708958091C2024D
:102EA00086958170089580910F0108950E94AA0C63
:102EB000811104C00E94390D0E941D170E94121733
:102EC0008093C202803320F0877088628093C202B0
:102ED0009091C202892F817090FF04C0892F86953E
:102EE000869586950E94CD1808958091C202982FEC
:102EF000969596959695953040F49F5F990F990F0A
:102F0000990F8770892B8093C2028091C2028160E1
:102F10008093C2020E9417178091C20286958695FF
:102F200086950E94CD1808958091C202982F987FAF
:102F300079F088508093C202887F91E009F490E094
:102F40008091C20290FB80F98093C2020E94171701
:102F50008091C2028695869586950E94CD18089527
:102F60008091C20280FD13C081608093C2028130D3
:102F700019F489E08093C2028091C2020E9417175F
:102F80008091C2028695869586950E94CD180895F7
:102F90008091C20280FF08C08E7F8093C2020E948F
:102FA000171780E00E94CD1808958091C20280FF1B
:102FB00003C00E94C81708950E94B0170895909109
:102FC000C202892F8695869586958F5F8F7197703F
:102FD0008630E0F4880F880F880F892B8093C20217
:102FE0008091C202887F91E009F490E08091C20252
:102FF00090FB80F98093C2020E9417178091C20251
:103000008695869586950E94CD1808959093C20264
:10301000E7CF863008F085E09091C2029770282FA4
:10302000220F220F220F922B9093C202987F21E051
:1030300009F420E09091C20220FB90F99093C20223
:103040000E94CD1808950E9409188091C2020E9422
:1030500017170895FC01DB0112968C918823F1F07B
:10306000F857E730F105D8F4EB54F94D0C94F725F7
:1030700085E00E94231880E0089580E0FACF0E9446
:103080009417F9CF0E947517F6CF0E94D517F3CF8A
:103090000E94DF17F0CF0E944417EDCF81E0089522
:1030A000279A2F9808952F980895B0E0A0E0EBE5B7
:1030B000F8E10C9403268C018091860090918700A2
:1030C0006CE070E00E94AD256017710758F0C801F0
:1030D00069E070E00E94AD25CB01CDB7DEB7ECE032
:1030E0000C941F268091860090918700E0908600C6
:1030F000F0908700C0908600D0908700C6E0D0E0B6
:10310000BE010E94AD2530E020E0060F171F211DF3
:10311000311D4801590185E0880C991CAA1CBB1C73
:103120008A95D1F7C701BE010E94AD25F12CE12C93
:10313000A7019601260F371F411D511DC501B4017E
:103140000E94D52569017A01C0918600D09187003F
:10315000CA01B9010E9494259E0150E040E00E94FE
:103160009425A70196010E9494252FE096958795B6
:10317000779567952A95D1F7009186001091870081
:1031800030E020E0061717072807390708F0A4CF1A
:1031900060918600709187009FCFCF93C82F8630B3
:1031A00020F5811123C080918000877F809380006B
:1031B0000E945318609186007091870090E080E033
:1031C0002C2F30E050E040E00E94942525E030E0D4
:1031D00040E050E00E94D525C9010E945518909307
:1031E0008D0080938C00CF910895C5E08091800080
:1031F000886080938000DECF089510924B02109279
:103200004A0210924C02EFE6F0E0808181608083F8
:103210000895EFE6F0E080818E7F80830E9426177C
:103220000E94CD1808951F920F920FB60F9211248D
:103230000F931F932F933F934F935F936F937F93BE
:103240008F939F93AF93BF93CF93DF93EF93FF93AE
:10325000809110018230C1F08F5F80931001FF9147
:10326000EF91DF91CF91BF91AF919F918F917F911E
:103270006F915F914F913F912F911F910F910F90FF
:103280000FBE0F901F90189581E0809310010E944F
:103290005317182FC0914A02D0914B0221960E94D9
:1032A000531790E068E770E00E948325BC01CE01CF
:1032B0000E94AD259C0190934B0280934A02812F7E
:1032C00090E068E770E00E948325BC01660F672FDD
:1032D000661F770B7195C9010E94AD2567FD6FE7E9
:1032E00080914C02823041F4603451F480916F003F
:1032F0008E7F80936F0004C0813011F46F37B1F37B
:10330000E62FF0E0EC55FF4FC4910091860010913C
:1033100087000E942617D82F6C2F70E090E080E085
:10332000980150E040E00E9494252FEF30E040E00B
:1033300050E00E94D525C90165E070E00E94AD25EE
:10334000CB016D2F70E00E9483250E945518909349
:103350008D0080938C0083CF0E9450188AE0809368
:10336000800089E1809381008FEF9FEF9093870029
:10337000809386000E9456170E944E1781110E946A
:10338000FD1808959C01CB01259A45B14F7DE5B10B
:10339000E062FFB7F89463E070E00E948325820F3B
:1033A000931F8217930741F4FFBF8FE594E00197C5
:1033B000F1F700C000000895D9015D919D0168E01A
:1033C000E5B9000000C057FF45B9550F000000C027
:1033D00000C000C045B900C06A9591F7E2CFCF9315
:1033E000DF93EC01FB018281882309F4D2C09E01A6
:1033F00030572332310508F0B2C00E94BF0C9093C1
:10340000800280937F02FE01E150F047E232F10535
:1034100020F4E454F94D0C94F72580917F028160EB
:1034200080937F0293C080918002886080938002A5
:103430008DC080917F028260F3CF80917F02846093
:10344000EFCF80917F028860EBCF80918002816016
:10345000EDCF809180028260E9CF80917F02806110
:10346000DFCF80917F028062DBCF80917F0280641A
:10347000D7CF0E940B0780917F028068D1CF8091C7
:103480007F028C60CDCF809180028360CFCF80910E
:103490007F028E7FC5CF80918002877FC7CF8091CA
:1034A0007F028D7FBDCF80917F028B7FB9CF8091CE
:1034B0007F02877FB5CF809180028E7FB7CF8091CA
:1034C00080028D7FB3CF80917F028F7EA9CF8091C4
:1034D0007F028F7DA5CF80917F028F7BA1CF0E943D
:1034E0000B0780917F028F779BCF80917F02837F34
:1034F00097CF809180028C7F99CF80917F0282FB51
:10350000992790F921E0922790FB82F990FB83F9AB
:1035100087CF80918002982F909591708E7F892B14
:1035200090FB81F983CF90917F02892F8F7B96FF4B
:10353000806476CF0E940B0790917F02892F97FBC2
:1035400087F980586DCF81E00E943C0D80917F0209
:10355000909180020E94C40C0E940B0780E0DF91D2
:10356000CF91089580E0F0CF90917F02892F8F7ED8
:1035700094FF806155CF90917F02892F8E7F90FFBD
:1035800081604ECF90918002892F877F93FF886062
:103590004DCF81E0E4CFEBEFE80FEF3308F066C0EA
:1035A000F0E0E252F94D0C94F7250E94390D81E0CC
:1035B000089580913402807F8093340281E080936B
:1035C000500208950E948502F2CF90913402892F13
:1035D0008E7F90FF81608093340280FDE8CF817FF1
:1035E00080933402E4CF90913402892F8D7F91FF34
:1035F00082608093340281FFDACF8091340281604F
:10360000EFCF90913402892F8B7F92FF846080935B
:10361000340282FDF2CFCBCF90913402892F877F85
:1036200093FF88608093340283FDE7CFC0CF0E9470
:103630000B0790917F02892F97FB87F98058809321
:103640007F02B5CF81E090E00E945E070E940B07E9
:10365000AECF895321E030E0A90102C0440F551FCD
:103660008A95E2F7CA01F0CF8D51F4CF80E008953A
:1036700080E008950E94381B0895CF93C82F809151
:1036800050028130B9F0882331F08230A1F11092DC
:10369000500280E00DC00E94BC0B8232D1F78C2F0B
:1036A0000E94381B81111BC08C2F0E94CB1A817085
:1036B000CF9108950E94BC0B823289F38C2F0E9417
:1036C0003A1B81110AC0C43199F060F4CB3029F063
:1036D000C03169F782E08093500281E0E8CF81E059
:1036E00090E0E5CFC93221F0C833B9F380E0DFCFF5
:1036F00010925002FBCFC93209F440C0F0F4C4313B
:10370000E9F1A8F481E0C73099F68093090184E1DA
:10371000809308018AE0809307018EE1809306017F
:1037200088E08093030188E28093020104C082EE66
:103730008C0F8A3070F181E0BBCFC03509F450C0E6
:10374000B8F48AE0CF34B9F7E0914D02F0914E021F
:10375000309789F32081082E000C990B820F911D60
:103760008F3F910509F00CF43FC08FEF8083E3CFCA
:10377000C135C1F181E0C23539F39ACF80914F0252
:103780008823C9F210924F0210924E0210924D02FD
:10379000D2CFCD51C0934F02C330C9F048F4C130ED
:1037A00099F088E091E0C23051F010924F02C3CFFF
:1037B000C53099F078F082E091E0C630B1F790938F
:1037C0004E0280934D02B7CF89E091E0F8CF87E0B9
:1037D00091E0F5CF86E091E0F2CF83E091E0EFCF8A
:1037E00086EFB2CF8FEFB0CF97FFC0CF1082A3CFBD
:1037F000CF93DF93EB0186319C4711F50E94BC0B00
:103800009A81992399F08A7A91E009F490E0909353
:103810005102811109C089E20E94940B0E94FD0BA4
:1038200080E0DF91CF91089585E3F6CF809151023A
:10383000811104C089E20E949C0BF0CF85E3FBCF8D
:1038400081E0EFCF0F931F93CF93DF93C42FD22F3D
:10385000FC0182818823C9F0409354020E94BE1E5D
:10386000909353028093520280E28C0F883040F490
:10387000C77081E001C0880FCA95EAF70E94A104D1
:10388000DF91CF911F910F9108951091540214135D
:1038900032C080915202909153020E94D61E883C01
:1038A000910548F5C0E2CD0F1D17B9F080E2810FF8
:1038B000883040F4177081E001C0880F1A95EAF74C
:1038C0000E94A804C83048F481E09D2F977001C081
:1038D000880F9A95EAF70E94A104802F0E9498040D
:1038E000C83070F6D77081E001C0880FDA95EAF72A
:1038F0000E94A804C5CF80E28C0F883008F6C770FC
:1039000081E001C0880FCA95EAF7F2CF0F93DB017F
:1039100088519C4787309105A0F5FC01E35EF84D86
:103920000C94F72506E221EE41EE6AE17CE7CD0139
:103930000E94221C80E00F91089507E225EE45EEDB
:103940006BE17CE7F4CF06E221EE40EE68E17CE734
:10395000EECF07E225EE44EE69E17CE7E8CF06E230
:1039600021EE42EE6CE17CE7E2CF07E225EE46EE87
:103970006DE17CE7DCCF08E221E045EE6EE17CE71B
:10398000D6CF12968C91882319F010925402D3CF7F
:1039900081E0D1CF9093910180939001089590930D
:1039A0005A02809359020895E0915902F0915A0207
:1039B000309729F00190F081E02D0995089580E07D
:1039C0000895E0915902F0915A02309799F02091B0
:1039D0001901222359F020917F0227FF07C0DC0143
:1039E0002C9111962C93119726E02C930280F38151
:1039F000E02D09950895E0915902F0915A0230970F
:103A000039F022E0DC012C930480F581E02D09954A
:103A10000895A3E0B0E0EFE0FDE10C940D262091C5
:103A200057023091580228173907A1F09093580295
:103A300080935702E0915902F0915A02309751F069
:103A400023E029839B838A830680F781E02DCE01C2
:103A5000019609952396E2E00C942926A3E0B0E0B4
:103A6000E4E3FDE10C940D262091550230915602BD
:103A700028173907A1F09093560280935502E091E0
:103A80005902F0915A02309751F024E029839B8328
:103A90008A830680F781E02DCE0101960995239651
:103AA000E2E00C942926FC013296809119018823CA
:103AB00021F080917F029EE187FF96E080E09150A7
:103AC00008F4089521912223D1F38F5FF8CF662364
:103AD00001F1209119012223F1F020917F0227FFAB
:103AE0001AC0462F4695469546954E3190F467701C
:103AF00021E030E002C0220F331F6A95E2F7840F05
:103B0000911DFC01828190E02823392381E0232B41
:103B100069F480E00895FC013296089621912617F9
:103B200021F0E817F907D1F7F4CF81E008959C015F
:103B3000FC0132969FEF80E04191461751F09F3F84
:103B400019F4411101C0982F8F5F8630A9F79F3F6C
:103B500009F40895290F311D97FD3A95F901628303
:103B60000895FC01329608962191261303C0DF01C7
:103B700011971C92E817F907B9F70895E62FE69513
:103B8000E695E695EE3168F4E80FF92FF11D6770C0
:103B900021E030E001C0220F6A95EAF78281822B92
:103BA00082830895E62FE695E695E695EE3170F46A
:103BB000E80FF92FF11D677021E030E001C0220FFE
:103BC0006A95EAF72095828128232283089520911F
:103BD0001901222339F020917F0227FF03C00E94A0
:103BE000BE1D08950E94971D08952091190122235A
:103BF00039F020917F0227FF03C00E94D21D089553
:103C00000E94B11D0895FC0132968091190188230C
:103C100051F080917F0287FF06C08EE1DF011D9287
:103C20008A95E9F7089586E0F9CF46E050E00E94D2
:103C3000342621E0892B09F420E0822F089508958D
:103C40000E941F1E0895811106C081E080935B02CF
:103C50000E94201E089582E0F9CF83E080935B02EA
:103C60000E94201E08950E94231E089581E08093E3
:103C70005B020E94201E08950E94361E089508953A
:103C800008950E94401E0895089508950E943F1EC1
:103C90000895CF930E94441E0E94EB100E94451E7F
:103CA000C0E08C2F0E943310811105C0CF5FC63059
:103CB000C1F7CF91089581E0FCCF08951F921FB600
:103CC0001F9211248F939F93AF93BF9380915C02B7
:103CD000811113C08091C3029091C402A091C502CA
:103CE000B091C6024196A11DB11D8093C30290936D
:103CF000C402A093C502B093C602BF91AF919F9139
:103D00008F911F901FBE1F9018958091CB02843019
:103D100031F10E94F10210925C0288E190E020E40F
:103D20000FB6F894A895809360000FBE20936000B2
:103D300083B7817F846083BF83B7816083BF7894BA
:103D4000889583B78E7F83BF0FB6F894A89580912E
:103D50006000886180936000109260000FBE08953B
:103D60000E940B070E94FB02089582E084BD93E04D
:103D700095BD9AEF97BD80936E0008952FB7F89484
:103D80008091C3029091C402A091C502B091C60275
:103D90002FBF08952FB7F8946091C3027091C402A9
:103DA0008091C5029091C6022FBF08959C014FB724
:103DB000F8948091C3029091C402A091C502B09181
:103DC000C6024FBF821B930B089578941F921FB6B3
:103DD0001F9211248F939F93AF93BF938091C3023F
:103DE0009091C402A091C502B091C6020196A11D96
:103DF000B11D8093C3029093C402A093C502B093F7
:103E0000C602BF91AF919F918F911F901FBE1F90CF
:103E1000189581E08093E00080E28093D8001092B2
:103E2000C9008FE19EE40197F1F700C0000087E030
:103E300090EBDC018093D4029093D502A093D6023C
:103E4000B093D70288E19CE00FB6F894A8958093D0
:103E500060000FBE90936000FFCF88E19CE00FB63A
:103E6000F894A895809360000FBE90936000FFCFF8
:103E700080917D0208959B01BA019091CB0294300C
:103E8000E9F48F708093E9009FEF8091E8009150F2
:103E900085FD06C085ED8A95F1F700009111F5CFFB
:103EA0008091E80085FF0AC050E040E0C9010E940F
:103EB00032218091E8008E778093E800089543E0F6
:103EC00050E0BC0182E00E943B1F089546E050E0B4
:103ED000BC0182E00E943B1F0895CF93DF93EC0169
:103EE00080911901811111C048E050E0BE0181E0CC
:103EF0000E943B1F80E2FE01ADE5B2E001900D9211
:103F00008A95E1F7DF91CF91089580917F0287FF35
:103F100005C040E282E050E0BE01EACF48E081E027
:103F2000FACF0E94361E08956091C70281E06111A8
:103F300001C080E00E942D1E08959091CB0281E087
:103F4000943009F080E06091C7020E94331E08950A
:103F500042E061EC81E00E943A2242E261EC82E0C0
:103F60000E943A229091CB0281E0943009F080E0E7
:103F70006091C7020E94231E08958091CD02833074
:103F800009F45FC030F48130C1F1823009F49CC083
:103F900008958A3009F488C08B3009F46DC08930E7
:103FA00009F04EC08091CC02813209F049C0809165
:103FB000D0029091D102029708F042C08091E800AF
:103FC000877F8093E8008091E80082FF35C0809170
:103FD000F200823031F48091F100813011F08630AE
:103FE00021F48091F10080937D028091E8008B772D
:103FF0008093E8000E946E2223C08091CC02813A17
:10400000F9F48091E800877F8093E8008091D002E6
:104010009091D102892B61F460E28DE592E070E02D
:104020000E9481218091E8008B778093E8000895B9
:1040300060E090E080E0F3CF8091CB028111C3CFAC
:1040400008958091CC02813AD9F78091D002909165
:10405000D102892BA9F78091E800877F8093E8003F
:104060008091E80080FFFCCF809119018093F100DE
:104070008091E8008E77BCCF8091CC02813201F72D
:104080008091D0029091D102892BD1F68091E800E5
:10409000877F8093E8000E946E228091CE028093F9
:1040A00019010E940B0708958091CC02813241F6DC
:1040B0008091E800877F8093E8000E946E228091C3
:1040C000CF0280937E0208958091CC02813A09F05C
:1040D000B7CF8091E800877F8093E8008091E80067
:1040E00080FFFCCF80917E02C1CF84B7877F84BFE1
:1040F0000FB6F894A8958091600088618093600065
:10410000109260000FBE80E890E00FB6F8948093A4
:104110006100909361000FBE0E943C1E08950E94B2
:10412000BE220E941123E2EEF0E080818460808351
:1041300078940E945F25089581E191E00E94CF1C50
:1041400008958091CB02853031F48091CB02853087
:1041500019F00E94B01E08950E94851E8091C90228
:10416000882399F30E94491E882379F30E941C2119
:104170000E940B07EACF08959A014091D202509114
:10418000D3020E94C4200895492F5527433051057A
:1041900019F168F44130510509F444C04230510529
:1041A00009F445C090E080E050E040E025C0413295
:1041B000510549F142325105A9F780E490E047E505
:1041C00053E061157105C1F086EB90E041EA52E0E1
:1041D0006130710589F0E6CF99278130910581F032
:1041E000009729F00297F1F6E4E2F2E002C0E0E580
:1041F000F2E0849190E0AF01F9015183408308958A
:10420000EEE3F2E0F6CF89E090E046E652E0611599
:10421000710591F389E090E04FE752E0613071055C
:1042200059F3C0CF82E190E04FE852E0E5CF8BE355
:1042300090E044E552E0E0CF84E089BD86E089BDAE
:1042400009B400FEFDCF8091D8008F7D8093D80007
:104250008091E00082608093E0008091E00081FD29
:10426000FCCF0895AF92BF92CF92DF92FF920F934F
:104270001F93CF93DF936C01EB018A010E948D2283
:10428000F82E811123C00115110539F0F801808144
:104290009181C81BD90BC80ED91EB12CA12C209717
:1042A000A9F08091E80085FD22C08091E8008E771A
:1042B0008093E80001151105A1F0F801808191813A
:1042C000A80EB91EB182A08285E0F82E8F2DDF9155
:1042D000CF911F910F91FF90DF90CF90BF90AF9043
:1042E00008950E948D228823D1F2F82EEFCFF60197
:1042F00081916F018093F1002197FFEFAF1ABF0A00
:10430000CECFFC018091D2029091D30286179707FD
:10431000A0F06115710529F49091E8009E779093C3
:10432000E80090E06115710551F4911108C0809189
:10433000E80082FF32C080E00895BC01F2CF809196
:10434000CB028823B1F18530B1F18091E80083FD83
:104350002EC08091E80082FDEACF8091E80080FFC6
:10436000E1CF2091F20030E06115710519F028309D
:10437000310558F091E02830310509F090E02091A6
:10438000E8002E772093E800CDCF81918093F10053
:10439000615071092F5F3F4FE7CF8091CB02882397
:1043A00041F0853041F08091E80083FFC0CF81E08B
:1043B000089582E0089583E00895FC018091D2027F
:1043C0009091D30286179707A0F06115710529F423
:1043D0008091E8008E778093E80090E06115710588
:1043E00051F4911108C08091E80082FF33C080E051
:1043F0000895BC01F2CF8091CB028823B9F18530BA
:10440000B9F18091E80083FD2FC08091E80082FD22
:10441000EACF8091E80080FFE1CF2091F20030E008
:104420006115710519F02830310558F091E02830F8
:10443000310509F090E08091E8008E778093E800E4
:10444000CDCF84918093F1003196615071092F5F37
:104450003F4FE6CF8091CB02882341F0853041F079
:104460008091E80083FFBFCF81E0089582E0089546
:1044700083E00895982F953028F08F708093E9009D
:1044800081E008959093E900242F762F50E098174B
:1044900031F07091EC002091ED005091F00021FD81
:1044A00002C09F5FE8CF3091EB003E7F3093EB007E
:1044B0003091ED003D7F3093ED003091EB003160A5
:1044C0003093EB007093EC002093ED005093F000DC
:1044D0002091EE0027FDE5CF80E008958091CC0289
:1044E00087FF13C08091E80082FF06C08091E8003A
:1044F0008B778093E80004C08091CB028111F2CFCA
:1045000008958091CB028823D9F38091E80080FF41
:10451000F8CF8091E8008E77ECCF2091E4003091C5
:10452000E50095E6A9012091EC00822F817020FF23
:1045300006C08091E80080FF06C080E008952091C9
:10454000E80022FD1AC08091CB02882389F08530D3
:1045500089F08091EB0085FD0FC02091E40030913F
:10456000E50042175307F9F29150E1F684E008950F
:1045700082E0089583E0089581E008950E941C235D
:104580000E941F23E0EEF0E0808181608083E8EDEF
:10459000F0E080818F77808319BCE3E6F0E08081D2
:1045A000816080831092CA0208950E941C230E9499
:1045B0001F238091D8008F778093D8008091D800F6
:1045C00080688093D8008091D8008F7D8093D80038
:1045D00084E089BD86E089BD09B400FEFDCF10925C
:1045E000CB021092C7021092C9021092C80242E098
:1045F00060E080E00E943A228091E1008E7F80930B
:10460000E1008091E20081608093E2008091E2000D
:1046100088608093E2008091E0008E7F8093E000CC
:104620000895E3E6F0E080818E7F808381E08093CF
:10463000CA020E94D52208951092E20008951092B5
:10464000E10008951F920F920FB60F9211242F933D
:104650003F934F935F936F937F938F939F93AF930A
:10466000BF93EF93FF938091E10082FF0BC0809195
:10467000E20082FF07C08091E1008B7F8093E10020
:104680000E945E258091E10080FF19C08091E200C8
:1046900080FF15C08091E2008E7F8093E2008091C0
:1046A000E20080618093E2008091D8008062809374
:1046B000D80019BC85E08093CB020E94941F8091A2
:1046C000E10084FF2BC08091E20084FF27C084E0DA
:1046D00089BD86E089BD89B5982F917080FFFBCF99
:1046E0008091D8008F7D8093D8008091E1008F7EEB
:1046F0008093E1008091E2008F7E8093E2008091C0
:10470000E20081608093E2008091C702882309F46F
:1047100043C084E08093CB020E949D1F8091E10002
:1047200083FF29C08091E20083FF25C08091E100D2
:10473000877F8093E10082E08093CB021092C702D2
:104740008091E1008E7F8093E1008091E2008E7F76
:104750008093E2008091E20080618093E20042E079
:1047600060E080E00E943A228091F00088608093AF
:10477000F0000E94911FFF91EF91BF91AF919F9127
:104780008F917F916F915F914F913F912F910F90FA
:104790000FBE0F901F9018958091E30087FD93E066
:1047A0009093CB02B9CF1F920F920FB60F921124A4
:1047B0002F933F934F935F936F937F938F939F9329
:1047C000AF93BF93CF93DF93EF93FF93D091E90023
:1047D000DF708091EC00C82FC17080FDC0E810929E
:1047E000E9008091F000877F8093F00078940E9428
:1047F00017241092E9008091F00088608093F00007
:10480000CD2BCF70C093E900FF91EF91DF91CF9155
:10481000BF91AF919F918F917F916F915F914F91D8
:104820003F912F910F900FBE0F901F901895AAE205
:10483000B0E0EDE1F4E20C940C268CEC92E02091D7
:10484000F100FC012193CF01F2E0843D9F07B9F70D
:104850000E94BD1F8091E80083FF1EC18091CC02A1
:104860009091CD029A3008F017C1E92FF0E0EC5D8D
:10487000F84D0C94F725803899F0823809F00CC176
:104880008091D0028F70853008F006C18093E900D6
:104890008091EB0085FB882780F91092E90006C023
:1048A0008091C8029091C902911182609091E800B4
:1048B000977F9093E8008093F1001092F10080912F
:1048C000E8008E77E5C0882309F4D3C0823009F070
:1048D000E3C08091CE028111D6C08091D0028F704A
:1048E0002FEF280F243008F0D7C08093E9002091E3
:1048F000EB0020FFC8C0933031F48091EB00806260
:104900008093EB00C0C09091EB0090619093EB001E
:1049100021E030E001C0220F8A95EAF72093EA00F7
:104920001092EA008091EB008860EACF8111B4C058
:104930001091CE021F778091E3008078812B8093C5
:10494000E3008091E800877F8093E8000E946E2258
:104950008091E80080FFFCCF8091E3008068809325
:10496000E30082E0111183E08093CB0295C0805870
:10497000823008F091C08091CE029091CF028C3DA0
:1049800023E09207A1F583E08A838AE289834FB707
:10499000F894DE01139620E03EE051E2E32FF0E0D0
:1049A00050935700E49120FF03C0E295EF703F5F02
:1049B000EF708E2F90E0EA30C0F0C7968D939D93F4
:1049C0002F5F243159F74FBF8091E800877F809394
:1049D000E8006AE270E0CE0101960E948121809198
:1049E000E8008B778093E80057C0C096E7CF6091CE
:1049F000D0027091D102AE014F5F5F4F0E94BC2088
:104A0000BC01892B09F448C09091E800977F9093EE
:104A1000E80089819A810E94DD21E1CF8038E1F5AB
:104A20008091E800877F8093E8008091C70280939F
:104A3000F10045CF811130C09091CE02923060F5E7
:104A40008091E800877F8093E8009093C7020E94DE
:104A50006E228091C702882311F084E005C0809106
:104A6000E30087FDFACF81E08093CB020E94A81F6C
:104A700013C08091CE02813079F481E0933009F047
:104A800080E08093C9021092E9008091E800877F5E
:104A90008093E8000E946E228091E80083FF0AC0A4
:104AA0008091E800877F8093E8008091EB0080622E
:104AB0008093EB00AA96E3E00C9428260895CF9308
:104AC0008091CB028823A1F0C091E900CF70909132
:104AD000EC00892F817090FD80E8C82B1092E900CE
:104AE0008091E80083FD0E941724CF70C093E900F5
:104AF000CF910895002480FD060E660F11F0869573
:104B0000D1F7802D08950024552704C0080E591FA1
:104B1000880F991F009729F076956795B8F371056E
:104B2000B9F7802D952F0895EE27FF27AA27BB27D9
:104B300008C0A20FB31FE41FF51F220F331F441F2D
:104B4000551F969587957795679598F37040A9F7C7
:104B5000009799F7BD01CF010895AA1BBB1B51E136
:104B600007C0AA1FBB1FA617B70710F0A61BB70BDD
:104B7000881F991F5A95A9F780959095BC01CD0182
:104B8000089597FB072E16F4009407D077FD09D0FF
:104B90000E94AD2507FC05D03EF4909581959F4F6E
:104BA0000895709561957F4F0895A1E21A2EAA1B72
:104BB000BB1BFD010DC0AA1FBB1FEE1FFF1FA217CD
:104BC000B307E407F50720F0A21BB30BE40BF50BCA
:104BD000661F771F881F991F1A9469F76095709553
:104BE000809590959B01AC01BD01CF010895EE0F1A
:104BF000FF1F0590F491E02D09942F923F924F9260
:104C00005F926F927F928F929F92AF92BF92CF925C
:104C1000DF92EF92FF920F931F93CF93DF93CDB765
:104C2000DEB7CA1BDB0B0FB6F894DEBF0FBECDBFDD
:104C300009942A88398848885F846E847D848C84AE
:104C40009B84AA84B984C884DF80EE80FD800C81B7
:104C50001B81AA81B981CE0FD11D0FB6F894DEBF9A
:104C60000FBECDBFED010895FB01DC0104C08D91A5
:104C70000190801921F441505040C8F7881B990BCE
:104C80000895FB01DC0102C001900D92415050409B
:104C9000D8F70895F999FECF92BD81BDF89A99276A
:104CA00080B50895A6E1B0E044E050E00C9484267D
:104CB000A8E1B0E042E050E00C948426262FF99958
:104CC000FECF92BD81BDF89A019700B4021639F06B
:104CD0001FBA20BD0FB6F894FA9AF99A0FBE08953C
:104CE0000396272F0E945F260E945E26252F0E9492
:104CF0005F26242F0C945F260196272F0E945F26A3
:104D00000C945E26DC01CB01FC01F999FECF06C0B4
:104D1000F2BDE1BDF89A319600B40D924150504079
:104D2000B8F70895F894FFCFEE04EE043F053F0571
:104D3000B205CE051D051D05D305440653065306D1
:104D4000D116D816DF16E416E916EE16F316F81685
:104D5000FD16021707170C17D316D316D316D31642
:104D6000D316D316D316D316D31638183D184518B4
:104D70003F18421848184B18471ABB1A4F1A191AED
:104D80001D1A531A211A571A631A2D1AB41A311AF6
:104D9000671A351A6B1A931A391A6F1A9A1A3F1A28
:104DA000751A7D1A251A5B1A291A5F1A431A791A7D
:104DB000891AA31AB21A131A4B1AC21AE21AD91A6A
:104DC000E51AD71A361B361BD71A361B361B011BA2
:104DD000361B0C1B171B361B361B361B361BD71AF4
:104DE000361B361BD71A361BF31A361B361B341BE1
:104DF000341B341B341B341B341B341B341B341B3B
:104E0000221B361BE21AD51A361B361B361B361BE5
:104E1000361B361B361B361B361B361B221B361B1E
:104E2000361BD71A361B291B291B291B291B291B9B
:104E3000291B291B291B291B221BA31CA91C921CF3
:104E40009D1CAF1CB51CBB1C3B2463244C25632458
:0C4E50004C259624B7244C250E251A256D
:104E5C000202280850011E0A14010010001010064E
:104E6C0001381F6D1F661F5F1F01E200E900EA0099
:104E7C00B500B600B700CD008301CC008A019201C9
:104E8C0094012102230224022502260227022A026F
:104E9C00B300B4006F0070009F01CB01818283E2EC
:104EAC0000E900EA00B500B600B700CD008301CCE4
:104EBC00008A019201940121022302240225022678
:104ECC000227022A02B300B4006F0070009F01CBCE
:104EDC000181828364653332939192666736000157
:00000001FF
