:100000000C948D020C94C5020C94C5020C94C5028C
:100010000C94C5020C94C5020C94C5020C94C50244
:100020000C94C5020C94C5020C94C5020C94CE1D10
:100030000C948A1D0C949D1E0C94C5020C94C50250
:100040000C94C5020C94C5020C94C41E0C94791E29
:100050000C94C5020C94C5020C94C5020C94C50204
:100060000C94C5020C94C5020C94C5020C94C502F4
:100070000C94C50205010902A10185020901A10034
:100080000509190129081500250195087501810246
:100090000501093009311581257F95027508810612
:1000A00009381581257F950175088106050C0A38E8
:1000B000021581257F950175088106C0C0050109DB
:1000C00080A101850319012AB700150126B7009503
:1000D0000175108100C0050C0901A10185041901F9
:1000E0002AA002150126A002950175108100C00505
:1000F000010906A1018506050719E029E715002574
:10010000019508750181020507190029EF150025E1
:100110000195F075018102050819012905950575FC
:10012000019102950175039101C00660FF0961A16B
:10013000010962150026FF009520750881020963F8
:10014000150026FF00952075089102C005010906DB
:10015000A101050719E029E715002501950875019A
:1001600081029501750881010507190029FF150015
:1001700026FF0095067508810005081901290595D7
:100180000575019102950175039101C00000000001
:10019000000000000000000000000000000000005F
:1001A000000000000000000000000000000000004F
:1001B0007E0F00D4FFFFFFC70000007800000000A2
:1001C000000000002A2B28000000000000000000B2
:1001D0000000000000000029000000002C1E342058
:1001E000212224342627252E362D3738271E1F207E
:1001F0002122232425263333362E37381F040506C3
:100200000708090A0B0C0D0E0F1011121314151606
:100210001718191A1B1C1D2F3130232D3504050604
:100220000708090A0B0C0D0E0F10111213141516E6
:100230001718191A1B1C1D2F3130354C00010101F4
:100240000101010101010202020202020202020393
:100250000303030303030304040404040404050563
:100260000505050606060606070707070708080826
:1002700008090909090A0A0A0B0B0B0C0C0C0D0DD5
:100280000D0E0E0E0F0F0F1010111111121213136D
:100290001414151516161717181819191A1A1B1BE6
:1002A0001C1D1D1E1E1F2020212222232424252642
:1002B00026272829292A2B2C2D2D2E2F303132327A
:1002C000333435363738393A3B3C3D3E3F40414286
:1002D000434445464748494A4C4D4E4F505153546C
:1002E000555658595A5B5D5E5F6162646566686920
:1002F0006B6C6D6F7072737577787A7B7D7E8082A0
:10030000838587888A8C8E8F91939596989A9C9EE8
:10031000A0A2A3A5A7A9ABADAFB1B3B5B7BABCBEF8
:10032000C0C2C4C6C9CBCDCFD1D4D6D8DBDDDFE2C5
:10033000E4E7E9EBEEF0F3F5F8FAFDFF000000006A
:100340000000000000000001010203040506080A85
:100350000C0F1114181C2024292E33393F464C53FE
:100360005B626A7179818A929AA2AAB2B9C1C8CF36
:10037000D5DCE1E7EBF0F4F7FAFCFDFEFFFEFDFC57
:10038000FAF7F4F0EBE7E1DCD5CFC8C1B9B2AAA225
:100390009A928A8179716A625B534C463F39332E57
:1003A0002924201C1814110F0C0A08060504030246
:1003B0000101000000000000000000002900B20060
:1003C000C1522A0053005400550056005F006000DF
:1003D000610057005C005D005E00570059005A0044
:1003E0005B00580062006200630058000100625226
:1003F0006352005243004400450046004000410063
:1004000042002B003D003E003F002B003A003B0025
:100410003C0058007C007C007D0058000100015227
:1004200063520052710072007300E7006E006F00AB
:10043000700007036B006C006D0007036800690023
:100440006A001003A800A800A8001003007C015255
:10045000025200520100010001000100DA00CD004B
:10046000D9000703CF00D100D0000703DB00CE0086
:10047000DC001003A800A8000100100309025B00C3
:10048000030100A0FA090400000103010100092191
:100490001101000122400007058103080001090441
:1004A00001000203000000092111010001222200C5
:1004B000070582032000010705030320000109044A
:1004C0000200010300000009211101000122B60011
:1004D0000705840320000112010002000000080348
:1004E000A1060001000102000118034B0042004474
:1004F000005000410044002D004D004B00490049D0
:1005000000000010034B0042004400660061006ED2
:100510000073000000040309040011241FBECFEF84
:10052000D4E0DEBFCDBF04B603FE18C080918D02BB
:1005300090918E02A0918F02B09190028730904BE3
:10054000A740B04B59F410928D0210928E02109277
:100550008F0210929002E0E0F8E3099522E0AEE508
:10056000B1E001C01D92AD38B207E1F711E0A0E0A3
:10057000B1E0EAE2FDE402C005900D92AE35B107AC
:10058000D9F70E943F1F0C94E6250C94000020919F
:10059000E4003091E50095E6A9012091EC00822F5E
:1005A000817020FF06C08091E80080FF06C080E0D7
:1005B00008952091E80022FD1AC080917F028823CF
:1005C00089F0853089F08091EB0085FD0FC0209186
:1005D000E4003091E50042175307F9F29150E1F63B
:1005E00084E0089582E0089583E0089581E008950D
:1005F0008091810287FF13C08091E80082FF06C0CE
:100600008091E8008B778093E80004C080917F029E
:100610008111F2CF089580917F028823D9F38091D0
:10062000E80080FFF8CF8091E8008E77ECCF982F1C
:100630009093E900242F762F50E0891731F07091C4
:10064000EC002091ED005091F00021FD07C09F5F6C
:10065000953071F78093E90081E008953091EB00C7
:100660003E7F3093EB003091ED003D7F3093ED0005
:100670003091EB0031603093EB007093EC002093ED
:10068000ED005093F0002091EE0027FDE0CF80E0D8
:100690000895FC0180918702909188028617970740
:1006A000A0F06115710529F49091E8009E77909370
:1006B000E80090E06115710551F4911108C0809136
:1006C000E80082FF32C080E00895BC01F2CF809143
:1006D0007F028823B1F18530B1F18091E80083FD7C
:1006E0002EC08091E80082FDEACF8091E80080FF73
:1006F000E1CF2091F20030E06115710519F028304A
:10070000310558F091E02830310509F090E0209152
:10071000E8002E772093E800CDCF81918093F100FF
:10072000615071092F5F3F4FE7CF80917F0288238F
:1007300041F0853041F08091E80083FFC0CF81E037
:10074000089582E0089583E0089580915C02089501
:100750009C014FB7F8948091550290915602A09158
:100760005702B09158024FBF821B930B08952FB7C9
:10077000F8948091550290915602A0915702B09141
:1007800058022FBF0895A3E0B0E0E9ECF3E00C9429
:100790002F25209152023091530228173907A1F0DA
:1007A0009093530280935202E0915002F0915102D3
:1007B000309751F024E029839B838A830680F78158
:1007C000E02DCE01019609952396E2E00C944B258D
:1007D000A3E0B0E0EEEEF3E00C942F2520914E0262
:1007E00030914F0228173907A1F090934F02809360
:1007F0004E02E0915002F0915102309751F023E007
:1008000029839B838A830680F781E02DCE010196A0
:1008100009952396E2E00C944B25E0915002F0916B
:100820005102309729F00190F081E02D099508954B
:1008300080E00895B0E0A0E0E0E2F4E00C9425252B
:100840008C0180918600909187006CE070E00E949E
:10085000EA246017710758F0C80169E070E00E944F
:10086000EA24CB01CDB7DEB7ECE00C9441258091B2
:10087000860090918700E0908600F0908700C090FD
:100880008600D0908700C6E0D0E0BE010E94EA2436
:1008900030E020E0060F171F211D311D48015901CE
:1008A00085E0880C991CAA1CBB1C8A95D1F7C7014E
:1008B000BE010E94EA24F12CE12CA7019601260F2B
:1008C000371F411D511DC501B4010E94C425690196
:1008D0007A01C0918600D0918700CA01B9010E94B7
:1008E000AB259E0150E040E00E94AB25A701960198
:1008F0000E94AB252FE096958795779567952A9569
:10090000D1F7009186001091870030E020E00617B3
:1009100017072807390708F0A4CF60918600709167
:1009200087009FCF282F863008F5811120C0909135
:100930008000977F909380002F986091860070913F
:10094000870090E080E030E050E040E00E94AB257E
:1009500025E030E040E050E00E94C425C9010E943B
:100960001A0490938D0080938C00089525E0909157
:100970008000986090938000E0CF282F220F220FF4
:10098000220F909148029770922B90934802987F83
:1009900021E009F420E09091480220FB90F9909327
:1009A00048020E9492040895FA01811101C0FB01DE
:1009B0000995089580914302982F9E7F39F4809184
:1009C0004302817082608093430208958430B8F7B7
:1009D00008950E94B7039C0190910F02809110022C
:1009E000982B21F030930C0220930B02909111026E
:1009F00080911202982B21F030930A022093090271
:100A0000E0915002F0915102309749F082E08093DA
:100A10000D020480F581E02D8DE092E009950895A6
:100A20008091080280FF0CC060910D0170E0759507
:100A30006795759567956115710559F1862F08952C
:100A400081FF06C060910D0170E075956795F3CF49
:100A500060910D0170E082FD0CC060910702662379
:100A6000A9F020910C0180910D0190E0621730F007
:100A7000BC0160387105F8F28FE7089570E00E94BC
:100A8000D924622F70E00E94FE24F3CF61E070E071
:100A9000D5CF81E008958091080280FF0DC060915C
:100AA0000B0170E0660F771F60387105A8F56115BE
:100AB0007105A1F1862F089581FF08C060910B0197
:100AC00070E0660F771F660F771FEECF60910B0106
:100AD00070E082FD0BC0809106028823D1F0209146
:100AE0000A0160910B0170E0821730F043E0660F5D
:100AF000771F4A95E1F7D8CF90E00E94D92433E0E0
:100B0000880F991F3A95E1F7622F70E00E94FE244A
:100B1000CBCF68E070E0CECF8FE7089581E00895F5
:100B200080E00895F894E82FE295EF70F0E031A1AD
:100B3000282F2F7081E090E001C0880F2A95EAF7F6
:100B4000982F9095932391A392A1892B82A37894B7
:100B500008959091590292FF06C0282F28712830DD
:100B6000F9F4877F846093FF06C0282F287128310D
:100B7000F1F4877E846120915A0220FF06C0382F4D
:100B800038713830D9F4877F816021FF06C0282F63
:100B900028712831D1F4877E816194FD877E089584
:100BA000282F24712430F9F68B7F8860DCCF282F22
:100BB0002471243101F78B7E8861DDCF382F3171AC
:100BC000313019F78E7F8860E0CF282F21712131D5
:100BD00021F78E7E8861E1CFCF93DF93EC018238DD
:100BE0009105B9F108F041C08133910509F49FC026
:100BF00050F58932910509F48FC08A9709F49EC097
:100C0000C11520E5D20708F0BDC0C11530E4D307F7
:100C100008F00CC1C03ED10508F0A5C0CD3CD105FF
:100C200008F002C1C83AD10508F08FC0C53AD10515
:100C300008F0F2C0C130D10539F1209729F1C43054
:100C4000D10510F546C08533910509F460C0C997F8
:100C5000B9F680915902837009F04AC180915A0215
:100C600083FF12C0C9E2D0E00FC0833E9105A1F11D
:100C700078F4803E910509F1823E910509F0C0CFDC
:100C80008091590282FD21C0CE01DF91CF9108955C
:100C9000863E910561F1873E910571F1843E910593
:100CA00009F0AECF80915A0281FFEECF80915902B8
:100CB000C7EED0E084FD0DC0E7CF8091590280FDE2
:100CC00033C090915A0290FFDFCFC3EED0E084FF93
:100CD000DBCFD0E0C0E0D8CF8091590282FD05C1C2
:100CE00090915A0290FD04C184FFCECFF2CF809143
:100CF000590283FDDDCFC8CF8091590283FDFBC02F
:100D000090915A0291FFF0CFC4EED0E0BDCF809118
:100D1000590285FFB9CFA6CF8091590285FDEEC05B
:100D200080915A0283FFB0CFC9E3D0E0ADCF80916C
:100D3000590286FFA9CFCAE2D0E0A6CF809159021E
:100D400086FFA2CFC1E3D0E09FCFC13CD10508F61A
:100D5000C85AD0E0CC0FDD1FCD5EDE4F0990D881A0
:100D6000C02DD46491CFC11540E2D40708F0B0C0C3
:100D7000C11581E0D80708F087CFC83ED10508F437
:100D800083CFA7CFC03622E5D20728F5C03432E59D
:100D9000D30708F055C0C03242E5D40708F049C077
:100DA000C11582E5D80708F485C02C2F2695269515
:100DB00030E0A5E0220F331FAA95E1F78C2F837056
:100DC000C1E0D0E002C0CC0FDD1F8A95E2F7C22B54
:100DD000D32BDD6859CFC03A22E5D20760F4C03882
:100DE00032E5D30708F443C0CF71D0E0DC2FCC2725
:100DF000C46FD06A49CFC03C42E5D40708F44EC066
:100E0000C03E82E5D80708F064CFDC2FCC27CC2782
:100E1000DF71C06FD06A38CFC55AD0E0C05FDE4FF7
:100E2000C881D0E0D06430CFD0652ECFDF70D06ADB
:100E30002BCFCF71D0E0DC2FCC27C16FD06A24CF6D
:100E40002C2F26952695277030E0E5E0220F331FE2
:100E5000EA95E1F78C2F8370C1E0D0E002C0CC0F9F
:100E6000DD1F8A95E2F7C22BD32BDC680DCF2C2F28
:100E700026952695277030E075E0220F331F7A956E
:100E8000E1F78C2F8370C1E0D0E002C0CC0FDD1FF2
:100E90008A95E2F7C22BD32BDA68F6CE8C2F8F71AE
:100EA0000E94A905C82FD0E0DC2FCC27CC27DF710A
:100EB000D062EACE8C2F8F710E94A90535E0D695BD
:100EC000C7953A95E1F7CF709C2FEC01D069DCCE45
:100ED0008D2F8F710E94A90590E0982F8827882771
:100EE0009F719C012C2BE901E3CFC2EED0E0CCCE68
:100EF000C0EED0E0C9CEC6EED0E0C6CEC5E3D0E0AD
:100F0000C3CE8091E80181111092E8010895809587
:100F10009091E70198239093E701089590910F0134
:100F20009923D1F09091590297FF16C0E82FE695CA
:100F3000E695E695EE31E0F4F0E0E05AFE4F282F1A
:100F4000277081E090E001C0880F2A95EAF780952C
:100F50009281892382830895E2E6F1E091918913D9
:100F600003C0DF0111971C9291E0E836F907B1F751
:100F7000089590910F019923C1F09091590297FF24
:100F800014C0E82FE695E695E695EE31F8F4F0E02A
:100F9000E05AFE4F877021E030E001C0220F8A95B1
:100FA000EAF78281822B82830895A2E6B1E0EFEF17
:100FB00090E02D91821751F0EF3F19F4211101C0FB
:100FC000E92F9F5F9630A9F7EF3F09F408950E2EA1
:100FD000000CFF0BE05AFE4FE6CFCF93B82FC62F81
:100FE0002091C401A09193012A1303C080E0CF9106
:100FF000089530E0C90166E070E00E94D924FC0148
:10100000EC56FE4F81818C1306C080818B1303C088
:101010008281841304C02F5F3F4F2770E5CF81E0AA
:10102000E6CF8091C40190919301981301C0089577
:101030008F5F8770FACF963090F5843080F5292F36
:1010400030E0220F331F220F331F820F932F911D89
:10105000A82FA77023E0969587952A95E1F763E07E
:1010600070E00E94D924FC01EC57FE4F50E040E0B4
:1010700080E0219130E00A2E02C0369527950A942F
:10108000E2F721703327042E01C0220F0A94EAF7F9
:10109000822B4F5F5F4F4330510559F7089580E031
:1010A0000895CF93DF93F62F9630B8F58430A8F5E6
:1010B000292F30E0220F331F220F331F820F932F6F
:1010C000911D282F2770E1E001C0EE0F2A95EAF765
:1010D00023E0969587952A95E1F763E070E00E94FA
:1010E000D924DC01AC57BE4F50E040E06F2F70E0D8
:1010F0008D91ED0121979B01042E02C03695279515
:101100000A94E2F72170219528272E232827288387
:101110004F5F5F4F4330510559F7DF91CF910895ED
:1011200080938C02089580918C02982F967096304F
:1011300021F488600E9490080895877FFBCF21E00A
:1011400030E001C0220F8A95EAF7209580918C0249
:1011500082230E94900808959091C501809589236B
:101160008093C501282F277091F4282F082E000C9A
:10117000330B9217130659F090915A0292FF07C051
:101180008595859585950E949F081092C5010895C3
:1011900021E030E001C0220F8A95EAF780918C02AD
:1011A000822B0E94900808958093E9010895662398
:1011B00009F45DC08D3C41F40E944B0581958093FC
:1011C00010020E94E90408958E3C19F40E944B0518
:1011D000F6CF8F3C31F40E944B05819580930F022E
:1011E000F0CF803D19F40E944B05F8CF893D29F4DA
:1011F0000E94100580931102E4CF8A3D21F40E94E1
:1012000010058195F7CF8B3D31F40E941005819533
:1012100080931202D6CF8C3D19F40E941005F8CFAE
:101220009FE2980F983070F4815D990B21E030E0D7
:1012300001C0220F8A95EAF780910E02822B8093DB
:101240000E02BFCF8D3D31F4809108028160809302
:101250000802B7CF8E3D21F4809108028260F7CF5B
:101260008F3D09F0AECF809108028460F0CF4091AD
:101270000F028D3C59F48091100287FF0DC010922F
:10128000100241110BC01092060208C08E3C81F47E
:101290008091100218169CF3442381F08091110272
:1012A00090911202892B09F08CCF1092070289CFFE
:1012B0008F3C49F447FFF0CF10920F02809110024B
:1012C0008111ECCFE0CF803D19F41416ACF3E4CFDC
:1012D00090911102893D29F41916F4F61092110229
:1012E000DBCF8A3D19F497FFD7CFF8CF9091120248
:1012F0008B3D29F497FFD0CF10921202CDCF8C3DB9
:1013000019F41916CCF3C8CF9FE2980F983090F4D7
:10131000815D990B21E030E0B90102C0660F771FB3
:101320008A95E2F7CB01809590910E0289238093F4
:101330000E02B2CF8D3D31F4809108028E7F8093F2
:101340000802AACF8E3D21F4809108028D7FF7CF4D
:101350008F3D09F0A1CF809108028B7FF0CF80FDF7
:1013600003C02C9A81E008952C98FCCF0F931F9313
:10137000CF93DF938B01EA0190917F02943061F566
:101380008093E9008FEF9091E800815095FD06C0B1
:1013900095ED9A95F1F700008111F5CF8091E80065
:1013A00085FF1AC00E94C702811111C08091E80018
:1013B00085FD06C08091E8008E778093E800F2CF2B
:1013C000F80181918F018093F100219779F7809145
:1013D000E8008E778093E800DF91CF911F910F9105
:1013E000089543E050E0BC0184E00E94B6090895EE
:1013F00046E050E0BC0184E00E94B6090895CF9316
:10140000DF93EC0180910F01811111C048E050E0A1
:10141000BE0181E00E94B60980E2FE01ADE5B2E0C6
:1014200001900D928A95E1F7DF91CF910895809117
:10143000590287FF05C040E284E050E0BE01EACFD8
:1014400048E081E0FACF81E08093E00080E2809381
:10145000D8001092C9008FE19EE40197F1F700C017
:10146000000087E090EBDC0180938D0290938E0268
:10147000A0938F02B093900288E19CE00FB6F8949D
:10148000A895809360000FBE90936000FFCF80917D
:10149000430280FD0AC0E3E1F2E011821082128271
:1014A000339652E0E334F507C1F7259A35B13F7D15
:1014B00025B120624FB7F89483E192E0FC0151918D
:1014C000CF0168E025B9000000C057FF35B9550FBE
:1014D000000000C000C000C035B900C06A9591F797
:1014E000F2E083349F0751F74FBF8FE594E00197F7
:1014F000F1F700C0000008959091430290FF0CC0E6
:10150000E3E1F2E0818360834283339692E0E33447
:10151000F907C1F70E94470A0895CF93DF93C6EEFB
:10152000D0E060E0CE010E9477252196C11584E0CD
:10153000D807B9F7DF91CF9108951F93CF93DF9329
:10154000122F843008F56630F8F44430E8F4C62FE2
:10155000D0E093E0CC0FDD1F9A95E1F750E0440F07
:10156000551FC40FD51F90E060E370E00E94D9249E
:10157000C80FD91F632FCE0186960E947725612F51
:10158000CE0187960E947725DF91CF911F91089514
:10159000AF92BF92CF92DF92EF92FF921F93CF93C1
:1015A000DF938CEBC82E83E0D82ED0E07601C0E02C
:1015B00014C0F50125913491412F6C2F8D2F0E947D
:1015C0009D0A82E0A80EB11C1F5F143091F788E0DD
:1015D000E80EF11CCF5FC63019F0570110E0E9CFDB
:1015E000DF5F80E3C80ED11CD43001F7DF91CF91CB
:1015F0001F91FF90EF90DF90CF90BF90AF90089534
:10160000CF93C82F6FEF811163E282E290E00E94D6
:1016100077256FEFC11162E083E290E00E947725A9
:101620006FEFC11164E084E290E00E947725CF91D2
:10163000089580E00E94000B60E085E290E00E9447
:1016400077250E94C80A0E948D0A81E00E94000B43
:101650000895682F86E090E00E9477250895809194
:10166000480281FF11C08D7F809348020E94290BA0
:1016700080916F008E7F80936F00809148028695E5
:10168000869586950E94920408958091480281FD76
:1016900010C08260809348020E94290B10924B0276
:1016A00010924A021092490280916F0081608093EB
:1016B0006F0008958091480280FF08C08E7F80935C
:1016C00048020E94290B80E00E94920408958091B4
:1016D000480280FD13C0816080934802813019F474
:1016E00089E080934802809148020E94290B8091F2
:1016F00048028695869586950E94920408950F93D8
:101700001F93CF93DF93843058F5663048F544300B
:1017100038F5C62FD0E093E0CC0FDD1F9A95E1F7A6
:1017200050E0440F551FC40FD51F90E060E370E0F8
:101730000E94D924C80FD91FCE0186960E94632526
:10174000082F10E0102F0027CE0187960E946325F6
:101750009801282BC901DF91CF911F910F91089516
:1017600090E080E0F8CF462F763040F4643030F4DB
:10177000843020F4672F0E947F0B089590E080E072
:101780000895CF92DF92FF920F931F93CF93DF9331
:101790006C0100918C028091E901082BC3E0D0E03C
:1017A00010E0FC2EC8010C2E02C0959587950A9476
:1017B000E2F780FD0CC02197A0F7F12C8F2DDF916F
:1017C000CF911F910F91FF90DF90CF900895B601B8
:1017D0008C2F0E94B30B0E94EC05019761F3EECFB2
:1017E000CF93DF93EC010E94C10BBE010E94B30BAB
:1017F0000E94EC05DF91CF910895FC0183819481D3
:10180000892B29F08081918189238F3F51F480E0D9
:101810000895843FE1F717C0883EA8F0813FB9F7EB
:1018200012C0808191810E94F00B92959F7096303A
:1018300099F358F4925F9F70923048F7803F19F007
:1018400040F7883E20F781E008959A5FF4CF82E266
:1018500090E00E946325833289F483E290E00E9445
:101860006325823059F484E290E00E94632591E080
:10187000843009F090E0892F8170089580E0FCCFDA
:10188000CF92DF92EF92FF926B017C010E94DA040B
:10189000B701A60188E090E00E948925FF90EF90B3
:1018A000DF90CF900895B0E0A0E0E9E5FCE00C9473
:1018B0002425B82EF62EE42EA22E8091430280FF1E
:1018C00022C08E7F823069F4E42FF0E0E45CFD4FAB
:1018D00061111EC09491492FE92F692F8E2F0E940C
:1018E0007C0AB0924402F0924502E0924602AA209D
:1018F00051F06091430270914402809145029091B1
:1019000046020E94400CCDB7DEB7EDE00C944025B6
:10191000CB2DD0E0C62ED12CE4917E2E8E2E912C94
:10192000CE0166E070E00E94D9240FEF10E0B8010C
:101930000E94EA249B01CC0FDD1FCB0165E570E01E
:101940000E94D924C81BD90B8C2F880FC80FC8013F
:101950008C199D09B4010E94D924492FD0E0CE01F1
:10196000B6010E94D924692F70E0C801861B970B2D
:10197000B4010E94D924F92FC8018C1B9D0BB6011C
:101980000E94D924692F70E0C801861B970BB4010F
:101990000E94D924892F22303105A1F050F421155D
:1019A000310509F49ACF2130310581F0942F4F2F62
:1019B00094CF2430310569F080F02630310509F4E8
:1019C0008CCFF4CF9E2FE42F482F87CF9E2FEF2F61
:1019D00084CF942F4E2FE82F80CFE42F472D9F2FB9
:1019E0007CCFE3E4F2E0438128E0421B08F440E0CE
:1019F00021E0628181810E94530C0895E3E4F2E0CA
:101A0000438128E0420F08F44FEF21E06281818199
:101A10000E94530C0895E3E4F2E0628128E0621B27
:101A200008F460E021E0438181810E94530C089515
:101A3000E3E4F2E0628128E0620F08F46FEF21E056
:101A4000438181810E94530C0895E3E4F2E0818197
:101A500021E04381628188500E94530C0895E3E4A1
:101A6000F2E0818121E043816281885F0E94530C12
:101A7000089580914702882319F08150809347028E
:101A80006091430270914402809145029091460218
:101A90000E94400C089580914702833018F48F5FB4
:101AA0008093470260914302709144028091450205
:101AB000909146020E94400C08958091430280FF5D
:101AC00019C08170826080934302662351F0609157
:101AD00043027091440280914502909146020E9417
:101AE000400C20E040914602609145028091440202
:101AF0000E94530C0895E3E4F2E0808181608083CA
:101B000060E086950E945D0D089580914302869560
:101B1000815009F481E061E00E945D0D089561E06B
:101B200081E00E945D0D0895E3E4F2E083E08083AC
:101B30001182128213821482608171818281938169
:101B40000E94400C08958091E7019091E601892B55
:101B5000809360019091E8019923A1F0892B8093F3
:101B6000600180910F018823E1F18091590287FF84
:101B700038C08EE1E2E6F1E090E08150A0F59111ED
:101B80000E94810740E250E066EC71E080E691E05F
:101B90000E945625892B21F180E2E0E6F1E0A6ECD7
:101BA000B1E001900D928A95E1F7E0915002F09139
:101BB00051023097A9F080910F01882359F080914C
:101BC000590287FF07C0809160018093610186E020
:101BD000809360010280F381E02D80E691E0099519
:101BE000089586E0C7CF2191222339F29F5FC5CFA8
:101BF000882321F00E9487070E94A30D089588235F
:101C000039F09091E701982B9093E7010E94A30D82
:101C10000895882309F456C0823879F40E940D048F
:101C200081FF50C089E30E94B9070E94A30D89E398
:101C30000E948E070E94A30D0895833859F40E94D4
:101C40000D0480FF3FC083E50E94B9070E94A30DE9
:101C500083E5EECF843859F40E940D0482FF32C030
:101C600087E40E94B9070E94A30D87E4E1CF9CEFAF
:101C7000980F913AE8F290E2980F983050F48770FC
:101C800091E001C0990F8A95EAF7892F0E94870792
:101C9000D1CF9BE5980F933028F490E080E00E942C
:101CA000E803089598E5980F993128F490E080E0D2
:101CB0000E94C303089593E3980F933118F460E0F2
:101CC0000E94D708089567EE7EEF90E080E00E94C2
:101CD000952560E082E090E00E94772560E083E057
:101CE00090E00E9477251092E90160E074E184E0C1
:101CF00090E00E94952560E086E090E00E947725C4
:101D00006FEF87E090E00E94772540E050E0BA0155
:101D100088E090E00E94892560E08DE090E00E94DC
:101D2000772540E050E0BA0188E190E00E948925E3
:101D300060E087E190E00E94772540E050E0BA0142
:101D40008CE190E00E94892570E060E080E290E004
:101D50000E94952540E050E0BA0188E190E00E94A1
:101D6000892580E00E94000B0E94190B40E050E0A2
:101D7000BA018FE090E00E94892540E050E0BA016E
:101D800083E190E00E948925089590915A0292FB88
:101D9000222720F9281779F080FB92F990935A02B4
:101DA0006091590270915A0284E090E00E9495255A
:101DB00082E00E94AC08089590E080E00E947125C6
:101DC000873E9E4F19F40E94270C089580E00895E5
:101DD0000E94DC0E81110AC00E94630E80914802AD
:101DE00084708962809348020E94290B86E090E00B
:101DF0000E94632580934802803320F087708862B8
:101E00008093480290914802892F817090FF04C00E
:101E1000892F8695869586950E9492040895109242
:101E2000E70180910F01E2E6F1E0882329F180913A
:101E3000590287FF21C08EE1DF011D928A95E9F7E3
:101E400090E080E00E94E80390E080E00E94C303FD
:101E50001092E6010E94A30D86E0EDE0F2E0DF01C2
:101E60001D928A95E9F710920602109207021092CD
:101E700008020E94E904089586E0DECFAAE2B0E0FD
:101E8000E4E4FFE00C942E2581E892E02091F1003B
:101E9000DC012D93CD01B2E089389B07B9F7809121
:101EA0008202833009F470C0B8F4813009F447C06D
:101EB000823009F4B1C08091E80083FF88C280912C
:101EC0008102909182029A3008F081C2E92FF0E0FD
:101ED000E851FA4D0C9412258A3009F48CC08B30ED
:101EE00009F46FC0893039F780918102813219F786
:101EF0008091850290918602009711F00297D9F6A1
:101F00008091E800877F8093E8008091E80082FF5D
:101F100036C08091F200823031F48091F10081303E
:101F200011F0863021F48091F10080935C02809161
:101F3000E8008B778093E8000E94F802BCCF809184
:101F40008102813A09F0B7CF8091E800877F8093C2
:101F5000E8008091850290918602892B61F460E20D
:101F60008DE592E070E00E9449038091E8008B7754
:101F70008093E800A0CF60E090E080E0F3CF809114
:101F80007F028111C2CF97CF80918102813A09F0FF
:101F900092CF8091850290918602892B09F08BCF98
:101FA0008091E800877F8093E8008091E80080FFBF
:101FB000FCCF80910F018093F1008091E8008E7733
:101FC000B9CF80918102813209F075CF809185026D
:101FD00090918602892B09F06ECF8091E800877F6F
:101FE0008093E8000E94F8028091830280930F01A1
:101FF0000E940F0F60CF80918102813209F05BCF88
:102000008091E800877F8093E8000E94F802809129
:10201000840280935B024FCF80918102813A09F064
:102020004ACF8091E800877F8093E8008091E800A4
:1020300080FFFCCF80915B02BECF803899F0823860
:1020400009F0C5C1809185028F70853008F0BFC14D
:102050008093E9008091EB0085FB882780F910923E
:10206000E90006C080917D0290917E02911182600C
:102070009091E800977F9093E8008093F100109290
:10208000F1008091E8008E779EC1882309F48CC10D
:10209000823009F09CC18091830281118FC18091AF
:1020A00085028F702FEF280F243008F090C18093A5
:1020B000E9002091EB0020FF81C1933031F4809141
:1020C000EB0080628093EB0079C19091EB0090610E
:1020D0009093EB0021E030E001C0220F8A95EAF7EF
:1020E0002093EA001092EA008091EB008860EACF2A
:1020F00081116DC1109183021F778091E300807878
:10210000812B8093E3008091E800877F8093E80033
:102110000E94F8028091E80080FFFCCF8091E300EC
:1021200080688093E30082E0111183E080937F0256
:102130004EC18058823008F04AC12091830230910C
:1021400084022C3DE3E03E07A1F583E08A838AE226
:1021500089834FB7F894DE01139620E03EE051E208
:10216000E32FF0E050935700E49120FF03C0E29585
:10217000EF703F5FEF708E2F90E0EA30C0F0C796AF
:102180008D939D932F5F243159F74FBF8091E800C5
:10219000877F8093E8006AE270E0CE0101960E949A
:1021A00049038091E8008B778093E80010C1C096C6
:1021B000E7CF8091850290918602432F55274330C7
:1021C000510509F44AC078F54130510509F47AC047
:1021D0008BE590E0ECE7F4E04230510509F0F7C000
:1021E0002091E800277F2093E8002091870230911A
:1021F00088028217930708F49C0140E021153105FD
:1022000009F065C0411163C08091E80082FDC9CF2B
:1022100080917F02882329F2853019F28091E800AD
:1022200083FFF2CFBECF4132510509F43CC04232A8
:10223000510509F0CCC08330910508F0C8C0FC01FD
:10224000EE0FFF1FEE5AFE4F0190F081E02D815BF3
:102250009E4FDC018C9190E01AC03327213031056C
:10226000D1F02115310561F02230310509F0AFC000
:10227000E9EEF4E0E4918E2F90E0E9EEF4E007C09F
:10228000E5E1F5E0E4918E2F90E0E5E1F5E00097DF
:1022900009F49DC0A5CFE3E0F5E0E4918E2F90E036
:1022A000E3E0F5E0F4CF8330910508F090C0880FAB
:1022B000991FFC01E85AFE4F0190F081E02D89E062
:1022C00090E08ECF82E190E0E7EDF4E089CF80915D
:1022D0007F02882309F465CF853009F462CF8091AD
:1022E000E80083FD5ECF8091E80082FD8DCF809174
:1022F000E80080FF83CF8091F20090E02115310546
:1023000019F08830910550F041E0089709F040E05D
:102310008091E8008E778093E80070CF44914093DD
:10232000F1003196215031090196E8CF803809F04B
:102330004EC08091E800877F8093E8008091800202
:102340008093F1009ECE811142C010918302123021
:10235000F0F58091E800877F8093E8001093800279
:102360000E94F802112311F084E005C08091E3007F
:1023700087FDFACF81E080937F0242E061EC81E04B
:102380000E94170342E261EC84E00E94170342E2DC
:1023900061EC82E00E94170342E260EC83E00E945D
:1023A000170380917F0213C080918302813079F4FA
:1023B00081E0933009F080E080937E021092E90082
:1023C0008091E800877F8093E8000E94F802809166
:1023D000E80083FF0AC08091E800877F8093E800CF
:1023E0008091EB0080628093EB00AA96E3E00C946E
:1023F0004A25EBEFE80FEF3308F06CC0F0E0EE5049
:10240000FA4D0C9412250E94630E81E0089580918C
:102410004D02807F80934D0281E080934C020895AD
:102420000E940F0F2FEF84E39CE0215080409040EA
:10243000E1F700C000000E94230A90914D02892F0D
:102440008E7F90FF816080934D0280FDDECF817F83
:1024500080934D02DACF90914D02892F8D7F91FFAD
:10246000826080934D0281FFD0CF80914D028160C8
:10247000EFCF90914D02892F8B7F92FF84608093E4
:102480004D0282FDF2CFC1CF90914D02892F877FFF
:1024900093FF886080934D0283FDE7CFB6CF0E9403
:1024A0000F0F90915902892F97FB87F980588093DD
:1024B0005902ABCF81E00E94D4080E940F0FA5CF34
:1024C000895391E001C0990F8A95EAF7892FF3CFDC
:1024D0008D51F7CF80E00895CF93C82F8823C9F09E
:1024E0008238C9F40E940D0481FD13C089E30E9463
:1024F000B9070E94A30D2FEF87EE93E02150804093
:102500009040E1F700C0000089E30E948E070E941E
:10251000A30DCF9108958338A1F40E940D0480FD8E
:10252000F8CF83E50E94B9070E94A30D2FEF81EE3B
:1025300094E0215080409040E1F700C0000083E526
:10254000E4CF8438A1F40E940D0482FDE2CF87E439
:102550000E94B9070E94A30D2FEF81EE94E0215055
:1025600080409040E1F700C0000087E4CECF8CEFC0
:102570008C0F813A08F0E7C080914C028130B9F1AC
:10258000882359F1823009F44DC010924C02809199
:102590000F01882309F4C8C08091590287FFC4C085
:1025A000EC2FE695E695E695F0E0E05AFE4F828145
:1025B00090E04C2F477021E030E002C0220F331F23
:1025C0004A95E2F782239323892B09F4B8C08C2F14
:1025D0000E948E070E94A30DB2C08091E701823253
:1025E000B1F68C2F0E94F911811193CFD0CF809139
:1025F000E7018232B1F3C43171F038F4CB3049F0E5
:10260000C03161F080E08170EFCFC93221F0C83372
:10261000C9F781E0F8CF10924C02F4CF82E08093AA
:102620004C02F7CFC93209F453C080F5C43109F424
:102630004FC0B0F4C73009F06CCF81E0809308013F
:1026400084E1809309018AE080930B018EE18093FD
:102650000A0188E080930D0188E280930C0159CF34
:1026600082EE8C0F8A3008F054CFCD51C093830195
:10267000C33009F448C0C0F5C13009F441C089E055
:1026800091E0C230C1F11092830143CFC03509F40B
:1026900043C0C0F48AE0CF3409F03BCFE091810120
:1026A000F0918201309709F434CF2081082E000C7C
:1026B000990B820F911D8F3F910591F18CF18FEF56
:1026C000808327CFC13551F181E0C23539F321CF65
:1026D00080918301882309F41CCF1092830110920A
:1026E00082011092810115CFC53099F078F08CE00D
:1026F00091E0C63041F6909382018093810109CF29
:1027000088E091E0F8CF8BE091E0F5CF8AE091E0AE
:10271000F2CF8DE091E0EFCF86EFC0CF8FEFBECF4D
:1027200097FFCECF1082F5CEE2E6F1E088E691E0A9
:102730002191C21709F44BCF8E179F07C9F78C2F31
:102740000E94B907E4CE80E28C0F883068F4C7702D
:1027500021E030E001C0220FCA95EAF78091E7013D
:10276000822B8093E701D3CEEBE5EC0FE33040F40E
:10277000F0E0E05FFE4F808190E00E94E803C9CE68
:10278000E8E5EC0FE93150F4F0E0EE0FFF1FED5EED
:10279000FE4F808191810E94C303BBCE83E38C0FE7
:1027A000833108F0B6CE61E08C2F0E94D708B1CEFD
:1027B0001F93CF93DF93182FD0E0C0E0893311F43B
:1027C000C0E5D0E0812F0E946C12209739F4812F50
:1027D0000E94090EDF91CF911F9108958FE99FE02C
:1027E0000197F1F700C000002197EFCF0F931F93DF
:1027F000CF93DF93C62FD42F022FFC018281882331
:10280000A9F060938B020E94B70390938A02809391
:102810008902C77081E001C0880FCA95EAF70E945B
:10282000FF0DDF91CF911F910F91089580918B0241
:10283000681332C08091890290918A020E94A80395
:10284000883C910548F510E21D0FCD17B9F080E2E4
:102850008C0F883040F4C77081E001C0880FCA95A2
:10286000EAF70E94F80D183048F481E09D2F977028
:1028700001C0880F9A95EAF70E94FF0D802F0E94F1
:10288000D813183070F6D77081E001C0880FDA9540
:10289000EAF70E94F80DC5CFC77081E001C0880F2C
:1028A000CA95EAF7F6CF0E940F0F2FEF84E39CE062
:1028B000215080409040E1F700C0000088E19CE09A
:1028C0000FB6F894A895809360000FBE90936000B7
:1028D000FFCFA8E0B0E0EFE6F4E10C9422258C01F4
:1028E000DC0113968D919C911497892B39F08C9172
:1028F00011969C9189238F3F09F0AEC52896EFE091
:102900000C943E250E94C10BF82E682F89819A8174
:102910000E94510869817A818F2D0E94B30B7C013E
:10292000F8018281882309F462C5C7018250974764
:10293000409708F07CC58FEF93E00E9463258111DA
:1029400085C0EA94EA9456EEA52EB12CE11048C059
:10295000FE01339686E0DF011D928A95E9F7750145
:10296000BFEFEB1AFB0AC5010E94632589831A8217
:10297000882309F46BC0813009F07BC06501E2E077
:10298000CE0ED11CC7010E9463258A83882309F4D7
:102990005DC09FEF980F933088F5F3E0AF0EB11C48
:1029A000C6010E9463258B83882309F44FC01C82D3
:1029B000CE0101967C01D7012C91222381F2213096
:1029C00009F097C011969C91119712968C919130B5
:1029D00009F051C0B2E0EB0EF11C0E94D81352C0B6
:1029E000A114F4E0BF0691F1C5010E946325811195
:1029F00001C0EA942FEFA21AB20AA8CF5601843080
:102A0000B9F642E0E42EF12C56012FEFA21AB20AD9
:102A1000C6010E946325E1E0F0E0EC0FFD1FEE0D22
:102A2000FF1D8083882391F08C3741F4E2E0F0E0D1
:102A3000EC0FFD1FEE0DFF1D1082BACF3FEFE31A22
:102A4000F30A650167E0E616F104F1F68091C5012D
:102A5000877009F453CFD80112968C91882309F41A
:102A60004DCF80915A0282FF49CF82E00E94AC088C
:102A700045CF57019DCF923049F4E2E0EE0EF11CB4
:102A80000E946C12FFEFEF1AFF0A95CF933031F4DA
:102A9000F2E0EF0EF11C0E94090EF4CF943021F009
:102AA0002FEFE21AF20AEECF32E0E30EF11C50E013
:102AB00040E0D7011196F701D180682F6053770B62
:102AC0009B016A30710550F041505109D8F28FE9ED
:102AD0009FE00197F1F700C00000F6CFCA016AE05D
:102AE00070E00E94D924A901480F591F8D2D7D0146
:102AF000E0CFE22FF0E0E454FE4F5490822F869511
:102B00008695869590E0FC01E455FE4F6490277011
:102B1000712C022E02C0759467940A94E2F7A1E02A
:102B20006A227724FC01E456FE4F8490912C022EF9
:102B300002C0959487940A94E2F7B1E08B2299241D
:102B4000FC01E457FE4FC490D12C02C0D594C79429
:102B50002A95E2F7E1E0CE22DD246114710419F038
:102B600081EE0E946C128114910419F086EE0E948D
:102B70006C12852D0E94D8138114910419F086EEF1
:102B80000E94090E6114710419F081EE0E94090E71
:102B9000C114D10409F476CF8CE21FCF81E00E94EA
:102BA000C8080E94930852CF81E00E949F08F9CF85
:102BB00082E0F5CF82E0F9CF85E00E94BD048091EC
:102BC00048020E94290B42CF80E0F7CF8091480253
:102BD000982F987F79F0885080934802887F91E001
:102BE00009F490E08091480290FB80F980934802BC
:102BF0000E94290B809148028695869586950E94B1
:102C0000920424CF80914802982F96959695969598
:102C1000953040F49F5F990F990F990F8770892B1A
:102C200080934802809148028160E0CF8091480201
:102C300080FF03C00E945A0B09CF0E94670B06CF8A
:102C400090914802892F8695869586958F5F8F7122
:102C50009770863048F4880F880F880F892B8093EF
:102C6000480280914802BACF90934802FACF8091EF
:102C7000480281FF03C00E942F0BE8CE0E94450B43
:102C8000E5CE26E241EE61EEC8010E94F613DECEEB
:102C900027E245EE65EEF8CF26E241EE60EEF4CF96
:102CA00027E245EE64EEF0CF26E241EE62EEECCF95
:102CB00027E245EE66EEE8CF28E241E0EBCF109246
:102CC0008B02C7019057839708F0D9C384E090E046
:102CD0000E94712590935A0280935902F701E150A6
:102CE000F047E232F10520F4EF5CF94D0C94122527
:102CF0008091590281608093590295C080915A0257
:102D0000886080935A028FC0809159028260F3CF0D
:102D1000809159028460EFCF809159028860EBCF97
:102D200080915A028160EDCF80915A028260E9CF92
:102D3000809159028061DFCF809159028062DBCFA0
:102D4000809159028064D7CF0E940F0F8091590261
:102D50008068D1CF809159028C60CDCF80915A028A
:102D60008360CFCF809159028E7FC5CF80915A0268
:102D7000877FC7CF809159028D7FBDCF8091590247
:102D80008B7FB9CF80915902877FB5CF80915A024E
:102D90008E7FB7CF80915A028D7FB3CF8091590239
:102DA0008F7EA9CF809159028F7DA5CF8091590246
:102DB0008F7BA1CF0E940F0F809159028F779BCFFD
:102DC00080915902837F97CF80915A028C7F99CF4F
:102DD0008091590282FB992790F921E0922790FB7C
:102DE00082F990FB83F987CF80915A02982F9095B2
:102DF00091708E7F892B90FB81F983CF909159023E
:102E0000892F8F7B96FF806476CF0E940F0F909161
:102E10005902892F97FB87F980586DCF61E08EE0CA
:102E200090E00E9477256091590270915A0284E0E7
:102E300090E00E9495250E940F0F08CE60E0EFCF32
:102E400090915902892F8F7E94FF806154CF909189
:102E50005902892F8E7F90FF81604DCF90915A0249
:102E6000892F877F93FF88604CCF85E318C385E364
:102E7000DBC28091430280FF10C08E7F80934302AB
:102E80006091430270914402809145029091460204
:102E90000E94400C0E94470AD9CD81608093430272
:102EA00061E086950E945D0DD1CD45E85DE06FE85B
:102EB0007DE00E94D404CACD4FE85DE065E87DE086
:102EC000F8CF45E25DE06FE27DE0F3CF4FE25DE0F9
:102ED00065E27DE0EECF4BE05DE068E17DE0E9CFCB
:102EE00048E15DE06BE07DE0E4CF41EF5CE06EEF58
:102EF0007CE0DFCF4EEF5CE061EF7CE0DACF49E3CE
:102F00005DE06BE47DE0D5CF4BE45DE069E37DE01F
:102F1000D0CF61E081E0C6CF0E940F0F2FEF34E3E6
:102F20006CE0215030406040E1F700C000000E949A
:102F3000230A6FEF7FEF90E080E00E9495250E94CA
:102F4000531480915A0282FB882780F991E08927E7
:102F50000E94C50EF8018281E080F180882309F487
:102F60004CC0C7010E94C10BD82E682FC7010E9418
:102F70005108B7018D2D0E94B30B0E94EC057C0116
:102F8000882ED8011296DC9012971596BC90B294B8
:102F90003FE0B3228091C5018770F1F0AD2CDD20B8
:102FA000E1F08F2D807F803451F080E28E0D8830EB
:102FB00098F0B11004C08F2D807E803269F080912E
:102FC0005A0282FF09C082E00E94AC088091C501CC
:102FD0008770AA24A3948111A12C9F2C92942FE096
:102FE0009222BBE0B91508F47AC0E92DF0E0ED5A61
:102FF000F94D0C94122580E0ABCFC7010E941B084D
:10300000D82EB7CFEF2DEF70CE2E8F2D807F19F0F9
:10301000C29490EFC922DD20B9F0CC2069F080E2A3
:103020008E0D883010F0811009C08091E701C82A08
:10303000C092E7010E94A30D8E2D4FC08091E60142
:10304000C82AC092E601F6CF8E2D0E94090ECC2030
:1030500009F445C080E28E0D883010F0811004C064
:103060008C2D0E94870706C0C0948091E601C8227B
:10307000C092E6010E94A30D32C0FF2DFF70CF2E3B
:103080008F2D807F803219F0C29480EFC822882073
:10309000A1F021E0821609F471C0DD2009F47BC0A3
:1030A000BB2009F471C0D80115968C91159780FF4B
:1030B000C3CF8F7015968C9367C020915A0222FD62
:1030C00036C0DD2071F1CC2039F08091E701C82AAB
:1030D000C092E7010E94A30D80E00E946C12A92D0E
:1030E000A850BB0B149720F40E940D040E94AF0956
:1030F000AA2009F403CC8091C50180FDFFCBF80123
:1031000012828595859585950E94C808C8010E9400
:1031100069148091C5018595859585950E949F08C4
:10312000EDCB80E00E94090ECC20C9F299CFDD20C2
:1031300099F09091E801892F8C29B11003C00E9469
:10314000FF0DCDCF31E0B312FACF22FFC8CF9817D1
:1031500031F28093E801C3CFB11006C00E9481070D
:103160008C2D0E94F80DBBCF61E0B61609F4B7CFE5
:103170008C2D0E94F80D0E948107B1CFDD2031F027
:1031800075E07B1508F4ABCF8C2DD9CF84E08B157F
:1031900008F4A5CFE5CFBB2019F3B9E38B1209C022
:1031A000EFEFF7EE23E0E150F0402040E1F700C000
:1031B00000008E2D0E94090E92CF8F2D8695869548
:1031C000837061F0813009F08ACFC7019370D1100C
:1031D00002C080E090E00E94C30381CFC7019370DA
:1031E000D11002C080E090E00E94E80378CF6D2DFE
:1031F0008E2D0E94D70873CF8F2D837091F5D1103B
:103200006ECF4E2D429546954770440F440F8E2D3C
:103210008F70042E01C0880F0A94EAF72E2D2071BA
:10322000E4FE07C02FE030E001C0220F4A95EAF724
:1032300020953F2D369536953370323069F050F435
:103240004091E901313029F0822B84230E94D40877
:1032500046CF842B822BFACF282B8091E90182273D
:10326000F5CF8695DD2011F08F2D8170882309F42C
:1032700036CF4E2D429546954770440F440F8E2D04
:103280008F70042E01C0880F0A94EAF72E2D20714A
:10329000E4FE07C02FE030E001C0220F4A95EAF7B4
:1032A00020953F2D369536953370323069F050F4C5
:1032B00040918C02313029F0822B84230E949008A7
:1032C0000ECF842B822BFACF282B80918C02822761
:1032D000F5CF3F2D3F70F32EDD2029F0832F0E9484
:1032E000C8088E2D2CCF8E2D0E94F80D8F2D0E9498
:1032F0009F08F5CE8E2D62EF8616B1F1681570F03D
:1033000070EF8716D1F091EF891691F0DD2009F466
:103310005EC0B11091CE8F2D8F712AC0A3EF8A1697
:1033200051F1B4EF8B12F2CF80915A0282FD2FC07F
:103330008F2D8F71DD20D9F21BC0DD2081F0E4E0FC
:10334000EB1508F4CCCE2F2D2F7181E090E001C059
:10335000880F2A95EAF790918C028927AFCFF5E084
:10336000FB1508F4BCCEEFCF8F2D8F71D110BFCFDE
:103370000E94C808B4CE80E0DD2009F49FCF9F2DC5
:103380009F7181E001C0880F9A95EAF797CFDD2001
:1033900099F02F2D2F71F22E822F0E94C808809154
:1033A0005A0282FF07C08F2D880F880F880F836015
:1033B0008093C5018F2DDCCF81E00E94AC0831E005
:1033C0003B1508F08CCE82E00E94AC0888CEBB2072
:1033D00059F0893309F0EDCE6FEF77EE83E061505D
:1033E00070408040E1F7E3CE8F2D8F7180CFE114E4
:1033F000F7E7FF0609F4D8CB21E0E21627E7F2064B
:1034000009F4D8CBF701E851FC47E730F10508F49F
:1034100087C0E6E1EE16ECE7FE0609F06CC080918D
:103420008001811124CD89E20E948E073AC0E11407
:1034300037E7F30609F4B2CB61E0E61667E7F60674
:1034400009F4B6CBF701F857E730F10508F061C091
:10345000E15AF94D0C94122585E0F801DE01119630
:1034600001900D928A95E1F7D80112962C918981ED
:103470009A81211147CA0E941B08F82E4BCAB6E157
:10348000EB16BCE7FB0681F48091E7018A7A91E0B4
:1034900009F490E0909380018111E7CC89E20E94C9
:1034A000B9070E94A30DD2CAF3E0EF16FCE7FF06AE
:1034B00009F43FCD60F4E1143CE7F30609F42CCDA8
:1034C00061E0E6166CE7F60609F439CD43CD7BE5FD
:1034D000E7167CE7F70609F48ECD8CE5E8168CE755
:1034E000F80609F42ECD9AE5E9169CE7F90609F0ED
:1034F00031CD81E02DCD8091E7018272F701E0525C
:10350000F847E531F10508F025CDEA59F94D0C945D
:103510001225F701E851FC47E730F10508F0CFCB61
:10352000E558F94D0C9412251F93CF93DF938091AA
:103530009201807F09F04AC080918F01882309F4AD
:1035400045C02091C401B091930140918D01A0919B
:103550008E01C0919001D0919101142F1A23B217BE
:10356000A9F130E02097B1F11F3FA1F1C90166E058
:1035700070E00E94D924FC01EC56FE4F81818A1331
:1035800029C08081841326C08281811123C0838158
:1035900094818C1B9D0B883C9105E0F480919201F5
:1035A0008F70806180939201C90166E070E00E9493
:1035B000D924FC01E756FE4F90819F709061908363
:1035C0008DE891E00E9469140E941108DF91CF916B
:1035D0001F9108952F5F3F4F2770C1CFA1E1B0E049
:1035E000E4EFFAE10C9425258C0185E0F801DE0179
:1035F0001D9601900D928A95E1F7F801E2808DE821
:10360000882E81E0982E40919001509191014115B2
:10361000510509F430C190918D0120918E01892FBF
:1036200082238F3F09F427C1D080C180A380B4805A
:10363000F0908F01B501641B750BFF2009F4E7C002
:1036400080919201382F307F683C710508F0ABC043
:10365000311178C0FE2C2C1114C09D1112C0E11044
:1036600010C08F70806180939201C4010E94691420
:1036700080919201F80185838F2D6196ECE00C9486
:103680004125A114B104C9F18D2D8C218F3FA9F1E1
:1036900081E08E2580FF05C04E2D6C2D8D2D0E9462
:1036A000ED07A114B10459F18D2D8C218F3F39F113
:1036B00081E08E25F82FF170BF2E80FF39C04E2D8E
:1036C0006C2D8D2D0E94ED07A82E811131C0DD8655
:1036D000CE868D859E850E94F00B292F22952F7016
:1036E000243078F49F702230A8F09923B9F0F801C3
:1036F0009581907F99F4FA2CBFCF80E0CBCF80E00A
:10370000D9CF2A5F2F70223068F0C8010E94691457
:10371000AB2CF1CF992311F0882369F3805E8830B8
:1037200050F3F3CF803F38F3815F833070F7E3CFFE
:10373000EE2009F4A1CF80919201816080939201E3
:10374000F12C9ACF2C1105C09D1103C0EE2009F475
:1037500077C0C8010E94FD0B882309F1EE20F9F023
:1037600080919201803270F020918D0130918E0114
:1037700038872F831986BB86AA868C87CE01079649
:103780000E94691486E0F801ADE8B1E001900D9265
:103790008A95E1F70E94941AFF24F3946DCFC80133
:1037A0000E946914F9CF31110AC08DE891E00E949E
:1037B000691486E0F40111928A95E9F7C1CF2C11C2
:1037C0000EC09D110CC0E1100AC08583C8010E9483
:1037D000691486E0F40111928A95E9F74DCFC8018A
:1037E0000E94FD0B8823D9F2EE20C9F2809192014C
:1037F000803240F220918D0130918E013A832983ED
:103800001B82BD82AC828E83CE010196B9CF683C0B
:103810007105F8F6FE2CEE2011F22C111EC09D1140
:103820001CC08091920180FD0FC0982F907F61F0A5
:103830008583903F31F0982F907F905F8F70892B18
:103840008583C8010E94691486E0F801ADE8B1E003
:1038500001900D928A95E1F70FCFC8010E94FD0BF0
:10386000811190CF80919201816080939201C80173
:103870000E94691401CFEE2009F491CFC8010E9483
:10388000FD0BF82E882309F48ACF86E0F801ADE815
:10389000B1E001900D928A95E1F780918D019091B0
:1038A0008E010E94F00B0E94941AE6CEA7E1B0E0D0
:1038B000ECE5FCE10C942F254B8B5C8B6D8B7E8BA8
:1038C0008F8B61111092E6011A8A198A85E0FE0138
:1038D0007396DE011D9601900D928A95E1F786E0C0
:1038E000FE013D96DE01179601900D928A95E1F753
:1038F000CE0107960E94EE1A811112C086E0FE01E9
:103900003796DE01119601900D928A95E1F78A852E
:103910009B85892B29F08F81988589238F3F89F595
:103920008091C40190919301891317C06796E2E0DA
:103930000C944B2566E070E00E94D924DC01AC5663
:10394000BE4F96E0FE01319601900D929A95E1F7F7
:10395000209393010E941108E3CF90E066E070E0AD
:103960000E94D9248C569E4F0E94EE1A8823F1F2B1
:103970008091C40190E00196877099278093C401DB
:10398000CFCF8091930190E09C012F5F3F4F277034
:1039900033274091C4014217130661F60E940F0FAE
:1039A000109293011092C40186E0EDE8F1E0DF018E
:1039B0001D928A95E9F7B4CFA6E0B0E0E2EEFCE113
:1039C0000C9426258E010F5F1F4F86E0F80111929F
:1039D0008A95E9F785E4C82E81E0D82EF12CE12CF8
:1039E000AA24A394B12CF60181916F018F3F09F4B1
:1039F00043C0F894E82FE295EF70F0E021A18F70BA
:103A0000A50102C0440F551F8A95E2F7CA01922F03
:103A1000982B91A392A18095892382A3789400C0CA
:103A2000EBE4F1E0912C31E021912F3F09F465C0E6
:103A3000A22FA295AF70B0E090968C9190E02F707D
:103A400002C0959587952A95E2F780FD56C0832F91
:103A5000982A330F51E0EF34F50731F7F60131972B
:103A600080818F3F11F00E94920580EA8A95F1F7DC
:103A7000F801EE0DFF1D9082EFEFEE1AFE0AF6E060
:103A8000EF16F10409F0AFCF46E050E0B8018EEE3A
:103A900091E00E945625892B91F186E0F801AEEE67
:103AA000B1E001900D928A95E1F781E08093EC01FD
:103AB0000E94B7039093EB018093EA018091EA01A1
:103AC0009091EB010E94A8030597E8F046E050E0D2
:103AD0006EEE71E080E092E00E945625892BC1F0E5
:103AE00086E0EEEEF1E0A0E0B2E001900D928A9562
:103AF000E1F781E01092EC0107C080E0A9CF80914E
:103B0000EC018111DBCF80E02696EBE00C9442259E
:103B100080E0F0CF1F920F920FB60F9211242F93D7
:103B20003F934F935F936F937F938F939F93AF9345
:103B3000BF93CF93DF93EF93FF93D091E900DF70B2
:103B40008091EC00C82FC17080FDC0E81092E900A0
:103B50008091F000877F8093F00078940E943E0F60
:103B60001092E9008091F00088608093F000CD2BE6
:103B7000CF70C093E900FF91EF91DF91CF91BF919A
:103B8000AF919F918F917F916F915F914F913F91F5
:103B90002F910F900FBE0F901F9018951F920F92AC
:103BA0000FB60F9211242F933F934F935F936F9310
:103BB0007F938F939F93AF93BF93EF93FF938091E6
:103BC000E10082FF09C08091E20082FF05C0809180
:103BD000E1008B7F8093E1008091E10080FF17C0BE
:103BE0008091E20080FF13C08091E2008E7F80937D
:103BF000E2008091E20080618093E2008091D80031
:103C000080628093D80019BC85E080937F02809108
:103C1000E10084FF2BC08091E20084FF27C084E094
:103C200089BD86E089BD89B5982F917080FFFBCF53
:103C30008091D8008F7D8093D8008091E1008F7EA5
:103C40008093E1008091E2008F7E8093E20080917A
:103C5000E20081608093E20080918002882309F471
:103C600041C084E080937F0280917F028091E100D7
:103C700083FF27C08091E20083FF23C08091E10091
:103C8000877F8093E10082E080937F021092800220
:103C90008091E1008E7F8093E1008091E2008E7F31
:103CA0008093E2008091E20080618093E20042E034
:103CB00060E080E00E9417038091F00088608093AC
:103CC000F000FF91EF91BF91AF919F918F917F9104
:103CD0006F915F914F913F912F910F900FBE0F9079
:103CE0001F9018958091E30087FD93E090937F02E9
:103CF000BBCF78941F921FB61F9211248F939F936E
:103D0000AF93BF938091550290915602A0915702B4
:103D1000B09158020196A11DB11D80935502909358
:103D20005602A0935702B0935802BF91AF919F9152
:103D30008F911F901FBE1F9018951F921FB61F9244
:103D400011248F939F93AF93BF938091540281115D
:103D500013C08091550290915602A0915702B091E4
:103D600058024196A11DB11D8093550290935602B1
:103D7000A0935702B0935802BF91AF919F918F913A
:103D80001F901FBE1F9018951F920F920FB60F9293
:103D900011242F933F934F935F936F937F938F9350
:103DA0009F93AF93BF93EF93FF9380910E01823067
:103DB000A1F08F5F80930E01FF91EF91BF91AF91C2
:103DC0009F918F917F916F915F914F913F912F9133
:103DD0000F900FBE0F901F90189581E080930E01F9
:103DE00080914A0290914B02019660ED72E00E9430
:103DF000EA2490934B0280934A0265E070E00E94AF
:103E0000EA2467FD6FE780914902823041F4603413
:103E100051F480916F008E7F80936F0004C08130D9
:103E200011F46F37B1F3E62FF0E0E45CFC4F6491DE
:103E3000209186003091870070E090E080E050E0B3
:103E400040E00E94AB252FEF30E040E050E00E94C0
:103E5000C425C90165E070E00E94EA24CB012091ED
:103E60004802269526952695622F70E00E94D92457
:103E70000E941A0490938D0080938C009DCFCDB743
:103E8000DEB7AA970FB6F894DEBF0FBECDBF84B7DA
:103E9000877F84BF0FB6F894A895809160008861F1
:103EA00080936000109260000FBE80E890E00FB633
:103EB000F89480936100909361000FBE80E995E0D3
:103EC00090935F0180935E011092E2001092E100F6
:103ED0008091E00081608093E0008091D8008F772E
:103EE0008093D80019BC8091630081608093630047
:103EF0001092ED01809163008E7F8093630081E0DA
:103F00008093ED011092E2001092E1008091D800C0
:103F10008F778093D8008091D80080688093D800F4
:103F20008091D8008F7D8093D80084E089BD86E0A1
:103F300089BD89B5282F2170B22E80FFFACF10924B
:103F40007F021092800210927E0210927D0242E067
:103F500060E080E00E9417038091E1008E7F8093F3
:103F6000E1008091E20081608093E2008091E200B4
:103F700088608093E2008091E0008E7F8093E00073
:103F80008091E20084608093E200789480917F02C7
:103F90008823A1F01091E9001F709091EC00892F07
:103FA000817090FD80E8182B1092E9008091E80064
:103FB00083FD0E943E0F1F701093E90082E084BDD4
:103FC00093E095BD9AEF97BD80936E000E94270CF9
:103FD000811102C00E94190B05E411E0D8018D91F6
:103FE0008D018F3F11F00E949205B1E00B341B0749
:103FF000A9F784E60E94920585E60E94920583E374
:104000000E94920582E30E94920586E0E0E0F2E0E1
:10401000DF01282F1D922A95E9F7EEEEF1E0DF018E
:104020001D928A95E9F740E060E080E00E947C0AFA
:104030000E94DC0E811102C00E94630E82E090E0BB
:104040000E94632580934D0284E090E00E947125D8
:1040500090935A02809359020E94DC1CEFE3FCE922
:104060003197F1F700C000000E94DC1C8091000233
:1040700080FF08C06FEF7FEF90E080E00E94952501
:104080000E94230A83E090E00E9463250E94D408E6
:10409000249A2C9A279A2F988AE08093800089E1AD
:1040A000809381008FEF9FEF90938700809386002D
:1040B0000E94E80E8091480281FF0BC010924B02D3
:1040C00010924A021092490280916F0081608093A1
:1040D0006F000E94E80E8091F401811131C00E94AE
:1040E000DC0E811104C00E94630E0E94940D88E0D2
:1040F00090E00E946B25609343027093440280938A
:104100004502909346026E7F71F40E94940D88E000
:1041100090E00E946B256093430270934402809369
:104120004502909346020E94DA048091430280FF88
:1041300004C060E086950E945D0D81E08093F401EB
:1041400080E091E0909351028093500228E1C22ECA
:10415000D12C80E092E036E0A32EA80EEE24EA9463
:10416000F12C80917F028530D1F490E4992E88243F
:10417000839404E016E080917F02853009F45DC0ED
:104180000E940F0F0E94E80E0E940D040E94AF09CA
:104190001092F6018091F50181110E947B0D0E9421
:1041A000DC1C09EF11E080E0882E82E0982ED4011B
:1041B000F80191918D9121E0EF3FF20709F489C058
:1041C0009817B9F3712CD4016D904D01F80131901D
:1041D0008F01361411F13624512C4B2C842D832160
:1041E000A1F05EA27FA291E0842D862109F490E0E7
:1041F00098A70E94B7038160782F9AA789A74EA13C
:104200005FA168A58AA50E94561C5394440CF4E053
:104210005F12E4CFF80131976082739426E0721246
:10422000D2CF8FB7F89440915502509156026091C9
:104230005702709158028FBF6CC080917F0284300A
:1042400009F438C080E00E94920480E00E94AF0927
:104250008091F60181110DC08092F6018091430298
:10426000982F91709093F5018E7F809343020E9466
:10427000470A109254020FB6F894A895C0926000B5
:104280000FBE9092600083B7817F846083BF83B745
:10429000816083BF7894889583B78E7F83BF0FB684
:1042A000F894A895809160008861809360001092D6
:1042B00060000FBE80917E02882309F45CCF0E94CB
:1042C000DC1CE0E0F2E08191811146C3AE12FBCF2D
:1042D00052CF981377CF0E94B7038C018091F701DA
:1042E0009091F80108171907A1F08FEF89A38AA30D
:1042F0001BA20E94B7038160782F9DA38CA349A1C4
:104300005AA16BA18DA10E94561C1093F801009335
:10431000F70186E0EDE0F2E0DE01119601900D92EA
:104320008A95E1F710920F0210921002109211027A
:10433000109212028B819C81892B91F080910B024B
:1043400090910C020E94A803FC01209106022223F6
:1043500009F4BBC0809109018E171F0608F4C4C080
:104360008D819E81892B09F44FC080910902909123
:104370000A020E94A8039C0190910702992309F464
:104380000AC32135310508F43FC09F3F19F09F5FF4
:10439000909307021D81112351F00E9410056FEFC9
:1043A00011160CF46B2D0E94D024809311021E81F3
:1043B000112351F00E9410056FEF11160CF46B2DB4
:1043C0000E94D02480931202809111028823E1F090
:1043D000209112022223C1F0082E000C990B65EBEC
:1043E00070E00E94D924992309F4C3C0909311026C
:1043F000822F220F990B65EB70E00E94D92499233C
:1044000009F4BBC09093120246E050E0BE016F5F1A
:104410007F4F8DE092E00E945625892B61F48091B8
:104420000F0290911002892B90911102892B90918B
:104430001202892B11F00E94E90486E0FE013196F8
:10444000ADE0B2E001900D928A95E1F70E940D0473
:104450009091FF01891779F08093FF019FB7F8943D
:104460004091550250915602609157027091580246
:104470009FBF0E94AF0980917F02843009F071CE06
:1044800083E08093E9008091E80082FF6ACE80910A
:10449000E80090E085FF06C00E94C702882309F467
:1044A00070C091E08091E8008B778093E8009923B9
:1044B00009F457CE8981EFEFE80FE33108F088C0A7
:1044C000F0E0EE57F94D0C9412258091080190E030
:1044D0006AE070E00E94D9248E179F0708F040CF51
:1044E0002F5F2093060202C02F3FD1F71B811123BB
:1044F00051F00E944B056FEF11160CF46B2D0E94CA
:10450000D02480930F021C81112351F00E944B058F
:104510006FEF11160CF46B2D0E94D02480931002C3
:1045200080910F02882309F41BCF209110022223CF
:1045300009F416CF082E000C990B65EB70E00E9471
:10454000D924992371F090930F02822F220F990B97
:1045500065EB70E00E94D924992339F09093100202
:10456000FFCE81E080930F02F0CF81E080931002B4
:10457000F7CE81E0809311023BCF81E0809312025D
:1045800043CF00E210E0CE0101964C018091E8009B
:1045900085FD0AC08091E8008B778093E8000E9437
:1045A000C702882399F37DCF8091F100D4018D93C8
:1045B0004D010150110951F774CF1A828BE08B83A2
:1045C00025C08A81823009F4DDC128F4813039F1B7
:1045D0008FEF89831BC0833039F08430C9F71B8289
:1045E0001C821D821E8212C0809100028B838091EA
:1045F00001028C83809102028D83809103028E835D
:10460000809104028F8380910502888740E250E008
:10461000BE016F5F7F4F82E00E94B609A2CD2FB727
:10462000F8946091550270915602809157029091D2
:1046300058022FBF0E9418256B837C838D839E8335
:10464000E5CF8A818230A1F0853011F68091480251
:1046500080FF19C00E945A0B8091430280FF16C050
:10466000809143028E7F809343020E94470ACECFFF
:104670006B817C818D819E810E94182585E290E06E
:104680000E947725C3CF0E94670BE6CF0E947B0D67
:10469000BDCF4C816B818A810E947F0B982789272F
:1046A00098279E838D83B2CF2D813E813227232789
:1046B00032274C816B818A810E949D0AA7CF0E947C
:1046C000C80AA4CF9A81913009F041C08830F1F036
:1046D0008930C1F18B81813049F0823009F096CF69
:1046E0008C81811110C00E942F0B90CF8C8190E0A3
:1046F00065E070E00E94D924B7010E94EA24862F69
:104700000E94BD0483CF0E94450B80CF8B818130F6
:1047100049F0823009F07ACF809148028695817005
:104720008C8374CF8091480286958695869590E01B
:104730006FEF70E00E94D92465E070E00E94EA24E7
:104740006C8364CF809148020E94290B5FCF923026
:1047500009F03ECF8830B1F1893009F45AC08B811D
:10476000823009F1A8F4813009F050CF8C8190E0BB
:104770006FEF70E00E94D924B7010E94EA24462F0F
:1047800020E060914502809144020E94530C3ECF8C
:104790008330A1F0843009F039CF20E04091460207
:1047A0006D818C81F2CF8C81882309F459CF0E94CE
:1047B0007B0D60E08C810E945D0D28CF8C81809301
:1047C000470224CF8B818230C9F060F4813009F038
:1047D0001DCF8091460290E06FEF70E00E94D924D7
:1047E000B701ACCF833091F0843009F00FCF8091C6
:1047F00044028C83809145028D8308CF80914302CF
:1048000080FF02C086958CCF80E08ACF80914702DE
:1048100087CF60914302709144028091450290914C
:1048200046020E94400CF2CE80E18A83EFCE83E004
:104830008A838AE1C4CE0A811B81102701271027B1
:10484000FE0131963F018C80CF01880D911D4C01F6
:10485000C8018A519F4F8614970409F4D7CE0A31B4
:10486000A3E01A0750F40E946325F30184830F5FCD
:104870001F4FBFEF6B1A7B0AEBCFD30114961C922C
:10488000F6CF0A811B81102701271027FE013196E0
:104890003F018C80800E912E911CC8018A519F4F40
:1048A0008016910609F4B2CE0A31F3E01F0728F40E
:1048B000D30114966C910E947725BFEF6B1A7B0A87
:1048C0000F5F1F4FEACF0E948D0AA0CE84E0ADCFCC
:1048D0000A811B81102701271027FE0131963F0115
:1048E0008C80CF01880D911D4C01C80186968614DD
:1048F000970409F48BCE003C110558F40E946325FF
:10490000D30114968C930F5F1F4FFFEF6F1A7F0A2E
:10491000ECCFF3011482F7CF0A811B811027012706
:104920001027CE0101963C018C80800E912E911CA7
:10493000C80186960815190509F468CE003C1105D2
:1049400028F4D30114966C910E947725BFEF6B1A5F
:104950007B0A0F5F1F4FECCF09BD19BD09B400FEE4
:10496000FDCF8091D8008F7D8093D8008091E000AA
:1049700082608093E0008091E00081FDFCCF0E9486
:104980000F0FF9CB85E290E00E9463251B821C8209
:104990001D828E833BCE2B30310508F0F8CC34CD10
:1049A000002480FD060E660F11F08695D1F7802D4C
:1049B00008950024552704C0080E591F880F991F19
:1049C000009729F076956795B8F37105B9F7802DB2
:1049D000952F0895AA1BBB1B51E107C0AA1FBB1F3F
:1049E000A617B70710F0A61BB70B881F991F5A957B
:1049F000A9F780959095BC01CD01089597FB072EEE
:104A000016F4009407D077FD09D00E94EA2407FC31
:104A100005D03EF4909581959F4F089570956195CE
:104A20007F4F0895EE0FFF1F0590F491E02D09943C
:104A300069279627692778278727782708952F924F
:104A40003F924F925F926F927F928F929F92AF921E
:104A5000BF92CF92DF92EF92FF920F931F93CF936B
:104A6000DF93CDB7DEB7CA1BDB0B0FB6F894DEBF02
:104A70000FBECDBF09942A88398848885F846E8428
:104A80007D848C849B84AA84B984C884DF80EE8072
:104A9000FD800C811B81AA81B981CE0FD11D0FB67B
:104AA000F894DEBF0FBECDBFED010895FB01DC0120
:104AB00004C08D910190801921F441505040C8F7F5
:104AC000881B990B0895F999FECF92BD81BDF89A84
:104AD000992780B50895A6E1B0E044E050E00C9439
:104AE0009D25A8E1B0E042E050E00C949D25262FE2
:104AF000F999FECF92BD81BDF89A019700B40216D4
:104B000039F01FBA20BD0FB6F894FA9AF99A0FBE81
:104B100008950396272F0E9478250E947725252F38
:104B20000E947825242F0C9478250196272F0E9427
:104B300078250C947725DC01CB01FC01F999FECF97
:104B400006C0F2BDE1BDF89A319600B40D92415015
:104B50005040B8F70895EE27FF27AA27BB2708C0C3
:104B6000A20FB31FE41FF51F220F331F441F551F51
:104B7000969587957795679598F37040A9F7009774
:104B800099F7BD01CF010895A1E21A2EAA1BBB1B04
:104B9000FD010DC0AA1FBB1FEE1FFF1FA217B30709
:104BA000E407F50720F0A21BB30BE40BF50B661F1F
:104BB000771F881F991F1A9469F7609570958095E3
:104BC00090959B01AC01BD01CF010895F894FFCFF2
:104BD0001D104510E7114510E71178109910E711E5
:104BE0009611A311101207121D1205126A126A12F1
:104BF00005126A126A1239126A1244124F126A12AC
:104C00006A126A126A1205126A126A1205126A128E
:104C10002B126A126A1268126812681268126812FD
:104C200068126812681268125A126A12101203127D
:104C30006A126A126A126A126A126A126A126A1294
:104C40006A126A125A126A126A1205126A12601203
:104C500060126012601260126012601260126012C4
:104C60005A12B2162717BA1684168816BE168C1654
:104C7000C216CE16981620179C16D216A016D61657
:104C8000FE16A416DA160517AA16E016E8169016F0
:104C9000C6169416CA16AE16E416F4160E171E178C
:104CA0007E16B6162E17021802183D183D18DD188C
:104CB000F7186F186F18FC1869197A197A19DC152A
:104CC000E4151616E615021620163716391755176D
:104CD0005C17611766176B17701775177A177F17B0
:104CE0008417891726152615261526152615261527
:104CF0002615261526154C1650164116481654161C
:104D000058165C16DD22E1222123492354235F2318
:104D1000622362236223E822E822142417241B243E
:0A4D200041246324662468248C24D7
:104D2A00A503FF09F809F10901141E0A280801015F
:104D3A00818283E200E900EA00B500B600B700CD3F
:104D4A00008301CC008A01920194012102230224EA
:104D5A00022502260227022A02B300B4006F00705D
:104D6A00009F01CB019391926667366465333240A6
:0E4D7A0022B64C012A0174008E04A704C7045F
:00000001FF
